{
	"contracts/deris.sol": {
		"Deris": {
			"abi": [
				{
					"inputs": [],
					"stateMutability": "nonpayable",
					"type": "constructor"
				},
				{
					"anonymous": false,
					"inputs": [
						{
							"indexed": false,
							"internalType": "uint256",
							"name": "riderNumber",
							"type": "uint256"
						},
						{
							"components": [
								{
									"internalType": "int256",
									"name": "lat",
									"type": "int256"
								},
								{
									"internalType": "int256",
									"name": "long",
									"type": "int256"
								}
							],
							"indexed": false,
							"internalType": "struct Deris.coordinates",
							"name": "pick",
							"type": "tuple"
						},
						{
							"components": [
								{
									"internalType": "int256",
									"name": "lat",
									"type": "int256"
								},
								{
									"internalType": "int256",
									"name": "long",
									"type": "int256"
								}
							],
							"indexed": false,
							"internalType": "struct Deris.coordinates",
							"name": "drop",
							"type": "tuple"
						},
						{
							"indexed": false,
							"internalType": "uint256",
							"name": "escrow",
							"type": "uint256"
						}
					],
					"name": "RiderDetails",
					"type": "event"
				},
				{
					"anonymous": false,
					"inputs": [
						{
							"indexed": false,
							"internalType": "uint256",
							"name": "riderNumber",
							"type": "uint256"
						},
						{
							"indexed": false,
							"internalType": "uint256",
							"name": "arrivalTime",
							"type": "uint256"
						}
					],
					"name": "RiderPicked",
					"type": "event"
				},
				{
					"anonymous": false,
					"inputs": [
						{
							"indexed": false,
							"internalType": "uint256",
							"name": "driverNumber",
							"type": "uint256"
						},
						{
							"indexed": false,
							"internalType": "uint256",
							"name": "bills",
							"type": "uint256"
						}
					],
					"name": "cashMoney",
					"type": "event"
				},
				{
					"anonymous": false,
					"inputs": [
						{
							"indexed": false,
							"internalType": "uint256",
							"name": "riderNumber",
							"type": "uint256"
						},
						{
							"indexed": false,
							"internalType": "int256[]",
							"name": "location",
							"type": "int256[]"
						}
					],
					"name": "imHere",
					"type": "event"
				},
				{
					"anonymous": false,
					"inputs": [
						{
							"indexed": false,
							"internalType": "uint256",
							"name": "usrNumber",
							"type": "uint256"
						},
						{
							"indexed": false,
							"internalType": "uint256",
							"name": "pairNumber",
							"type": "uint256"
						},
						{
							"indexed": false,
							"internalType": "uint256",
							"name": "cancelFee",
							"type": "uint256"
						}
					],
					"name": "undone",
					"type": "event"
				},
				{
					"inputs": [],
					"name": "driveRequest",
					"outputs": [],
					"stateMutability": "nonpayable",
					"type": "function"
				},
				{
					"inputs": [],
					"name": "getNumber",
					"outputs": [
						{
							"internalType": "int256",
							"name": "",
							"type": "int256"
						}
					],
					"stateMutability": "view",
					"type": "function"
				},
				{
					"inputs": [],
					"name": "getWaitingRiders",
					"outputs": [],
					"stateMutability": "nonpayable",
					"type": "function"
				},
				{
					"inputs": [
						{
							"internalType": "int256[]",
							"name": "loc",
							"type": "int256[]"
						}
					],
					"name": "informRider",
					"outputs": [],
					"stateMutability": "nonpayable",
					"type": "function"
				},
				{
					"inputs": [],
					"name": "payDriver",
					"outputs": [],
					"stateMutability": "payable",
					"type": "function"
				},
				{
					"inputs": [
						{
							"internalType": "uint256",
							"name": "riderNumber",
							"type": "uint256"
						},
						{
							"internalType": "uint256",
							"name": "arrivalTime",
							"type": "uint256"
						}
					],
					"name": "pickRider",
					"outputs": [],
					"stateMutability": "nonpayable",
					"type": "function"
				},
				{
					"inputs": [
						{
							"internalType": "int256[]",
							"name": "pick",
							"type": "int256[]"
						},
						{
							"internalType": "int256[]",
							"name": "drop",
							"type": "int256[]"
						},
						{
							"internalType": "uint256",
							"name": "tripCost",
							"type": "uint256"
						}
					],
					"name": "rideRequest",
					"outputs": [],
					"stateMutability": "nonpayable",
					"type": "function"
				},
				{
					"inputs": [
						{
							"internalType": "uint256",
							"name": "",
							"type": "uint256"
						}
					],
					"name": "userList",
					"outputs": [
						{
							"internalType": "address",
							"name": "",
							"type": "address"
						}
					],
					"stateMutability": "view",
					"type": "function"
				},
				{
					"inputs": [],
					"name": "userReset",
					"outputs": [],
					"stateMutability": "payable",
					"type": "function"
				},
				{
					"inputs": [
						{
							"internalType": "address",
							"name": "",
							"type": "address"
						}
					],
					"name": "users",
					"outputs": [
						{
							"internalType": "bool",
							"name": "isUser",
							"type": "bool"
						},
						{
							"internalType": "uint256",
							"name": "number",
							"type": "uint256"
						},
						{
							"internalType": "enum Deris.Status",
							"name": "state",
							"type": "uint8"
						},
						{
							"internalType": "address",
							"name": "currPairing",
							"type": "address"
						},
						{
							"components": [
								{
									"internalType": "int256",
									"name": "lat",
									"type": "int256"
								},
								{
									"internalType": "int256",
									"name": "long",
									"type": "int256"
								}
							],
							"internalType": "struct Deris.coordinates",
							"name": "pickup",
							"type": "tuple"
						},
						{
							"components": [
								{
									"internalType": "int256",
									"name": "lat",
									"type": "int256"
								},
								{
									"internalType": "int256",
									"name": "long",
									"type": "int256"
								}
							],
							"internalType": "struct Deris.coordinates",
							"name": "dropoff",
							"type": "tuple"
						},
						{
							"internalType": "uint256",
							"name": "arrivalTime",
							"type": "uint256"
						},
						{
							"internalType": "bool",
							"name": "driverArrived",
							"type": "bool"
						},
						{
							"internalType": "bool",
							"name": "inProgress",
							"type": "bool"
						},
						{
							"internalType": "uint256",
							"name": "escrow",
							"type": "uint256"
						},
						{
							"internalType": "uint256",
							"name": "paid",
							"type": "uint256"
						}
					],
					"stateMutability": "view",
					"type": "function"
				}
			],
			"devdoc": {
				"kind": "dev",
				"methods": {},
				"version": 1
			},
			"evm": {
				"assembly": "    /* \"contracts/deris.sol\":284:11392  contract Deris{... */\n  mstore(0x40, 0x80)\n    /* \"contracts/deris.sol\":1715:1746  constructor()  {... */\n  callvalue\n  dup1\n  iszero\n  tag_1\n  jumpi\n  0x00\n  dup1\n  revert\ntag_1:\n  pop\n    /* \"contracts/deris.sol\":284:11392  contract Deris{... */\n  dataSize(sub_0)\n  dup1\n  dataOffset(sub_0)\n  0x00\n  codecopy\n  0x00\n  return\nstop\n\nsub_0: assembly {\n        /* \"contracts/deris.sol\":284:11392  contract Deris{... */\n      mstore(0x40, 0x80)\n      jumpi(tag_1, lt(calldatasize, 0x04))\n      shr(0xe0, calldataload(0x00))\n      dup1\n      0xa7978738\n      gt\n      tag_12\n      jumpi\n      dup1\n      0xa7978738\n      eq\n      tag_7\n      jumpi\n      dup1\n      0xa87430ba\n      eq\n      tag_8\n      jumpi\n      dup1\n      0xba2b3906\n      eq\n      tag_9\n      jumpi\n      dup1\n      0xde9e7da0\n      eq\n      tag_10\n      jumpi\n      dup1\n      0xf2c9ecd8\n      eq\n      tag_11\n      jumpi\n      jump(tag_1)\n    tag_12:\n      dup1\n      0x315a9f01\n      eq\n      tag_2\n      jumpi\n      dup1\n      0x41664ebf\n      eq\n      tag_3\n      jumpi\n      dup1\n      0x54dee961\n      eq\n      tag_4\n      jumpi\n      dup1\n      0x9e5d3610\n      eq\n      tag_5\n      jumpi\n      dup1\n      0x9f4216e8\n      eq\n      tag_6\n      jumpi\n    tag_1:\n      0x00\n      dup1\n      revert\n        /* \"contracts/deris.sol\":5486:6667  function pickRider(uint riderNumber, uint arrivalTime) public{... */\n    tag_2:\n      callvalue\n      dup1\n      iszero\n      tag_13\n      jumpi\n      0x00\n      dup1\n      revert\n    tag_13:\n      pop\n      tag_14\n      0x04\n      dup1\n      calldatasize\n      sub\n      dup2\n      add\n      swap1\n      tag_15\n      swap2\n      swap1\n      tag_16\n      jump\t// in\n    tag_15:\n      tag_17\n      jump\t// in\n    tag_14:\n      stop\n        /* \"contracts/deris.sol\":4864:5475  function getWaitingRiders() public{... */\n    tag_3:\n      callvalue\n      dup1\n      iszero\n      tag_18\n      jumpi\n      0x00\n      dup1\n      revert\n    tag_18:\n      pop\n      tag_19\n      tag_20\n      jump\t// in\n    tag_19:\n      stop\n        /* \"contracts/deris.sol\":9428:11385  function userReset() public payable{... */\n    tag_4:\n      tag_21\n      tag_22\n      jump\t// in\n    tag_21:\n      stop\n        /* \"contracts/deris.sol\":1756:2962  function driveRequest() public{... */\n    tag_5:\n      callvalue\n      dup1\n      iszero\n      tag_23\n      jumpi\n      0x00\n      dup1\n      revert\n    tag_23:\n      pop\n      tag_24\n      tag_25\n      jump\t// in\n    tag_24:\n      stop\n        /* \"contracts/deris.sol\":997:1023  address [] public userList */\n    tag_6:\n      callvalue\n      dup1\n      iszero\n      tag_26\n      jumpi\n      0x00\n      dup1\n      revert\n    tag_26:\n      pop\n      tag_27\n      0x04\n      dup1\n      calldatasize\n      sub\n      dup2\n      add\n      swap1\n      tag_28\n      swap2\n      swap1\n      tag_29\n      jump\t// in\n    tag_28:\n      tag_30\n      jump\t// in\n    tag_27:\n      mload(0x40)\n      tag_31\n      swap2\n      swap1\n      tag_32\n      jump\t// in\n    tag_31:\n      mload(0x40)\n      dup1\n      swap2\n      sub\n      swap1\n      return\n        /* \"contracts/deris.sol\":6677:7760  function informRider(int256[] memory loc) public{... */\n    tag_7:\n      callvalue\n      dup1\n      iszero\n      tag_33\n      jumpi\n      0x00\n      dup1\n      revert\n    tag_33:\n      pop\n      tag_34\n      0x04\n      dup1\n      calldatasize\n      sub\n      dup2\n      add\n      swap1\n      tag_35\n      swap2\n      swap1\n      tag_36\n      jump\t// in\n    tag_35:\n      tag_37\n      jump\t// in\n    tag_34:\n      stop\n        /* \"contracts/deris.sol\":926:964  mapping (address => user) public users */\n    tag_8:\n      callvalue\n      dup1\n      iszero\n      tag_38\n      jumpi\n      0x00\n      dup1\n      revert\n    tag_38:\n      pop\n      tag_39\n      0x04\n      dup1\n      calldatasize\n      sub\n      dup2\n      add\n      swap1\n      tag_40\n      swap2\n      swap1\n      tag_41\n      jump\t// in\n    tag_40:\n      tag_42\n      jump\t// in\n    tag_39:\n      mload(0x40)\n      tag_43\n      swap12\n      swap11\n      swap10\n      swap9\n      swap8\n      swap7\n      swap6\n      swap5\n      swap4\n      swap3\n      swap2\n      swap1\n      tag_44\n      jump\t// in\n    tag_43:\n      mload(0x40)\n      dup1\n      swap2\n      sub\n      swap1\n      return\n        /* \"contracts/deris.sol\":7770:8939  function payDriver() public payable{... */\n    tag_9:\n      tag_45\n      tag_46\n      jump\t// in\n    tag_45:\n      stop\n        /* \"contracts/deris.sol\":2972:4587  function rideRequest(int256[] memory pick, int256[] memory drop, uint tripCost) public {... */\n    tag_10:\n      callvalue\n      dup1\n      iszero\n      tag_47\n      jumpi\n      0x00\n      dup1\n      revert\n    tag_47:\n      pop\n      tag_48\n      0x04\n      dup1\n      calldatasize\n      sub\n      dup2\n      add\n      swap1\n      tag_49\n      swap2\n      swap1\n      tag_50\n      jump\t// in\n    tag_49:\n      tag_51\n      jump\t// in\n    tag_48:\n      stop\n        /* \"contracts/deris.sol\":4597:4854  function getNumber() view public returns(int){... */\n    tag_11:\n      callvalue\n      dup1\n      iszero\n      tag_52\n      jumpi\n      0x00\n      dup1\n      revert\n    tag_52:\n      pop\n      tag_53\n      tag_54\n      jump\t// in\n    tag_53:\n      mload(0x40)\n      tag_55\n      swap2\n      swap1\n      tag_56\n      jump\t// in\n    tag_55:\n      mload(0x40)\n      dup1\n      swap2\n      sub\n      swap1\n      return\n        /* \"contracts/deris.sol\":5486:6667  function pickRider(uint riderNumber, uint arrivalTime) public{... */\n    tag_17:\n        /* \"contracts/deris.sol\":5666:5670  true */\n      0x01\n        /* \"contracts/deris.sol\":5640:5670  users[msg.sender].isUser==true */\n      iszero\n      iszero\n        /* \"contracts/deris.sol\":5640:5645  users */\n      0x00\n        /* \"contracts/deris.sol\":5640:5657  users[msg.sender] */\n      dup1\n        /* \"contracts/deris.sol\":5646:5656  msg.sender */\n      caller\n        /* \"contracts/deris.sol\":5640:5657  users[msg.sender] */\n      0xffffffffffffffffffffffffffffffffffffffff\n      and\n      0xffffffffffffffffffffffffffffffffffffffff\n      and\n      dup2\n      mstore\n      0x20\n      add\n      swap1\n      dup2\n      mstore\n      0x20\n      add\n      0x00\n      keccak256\n        /* \"contracts/deris.sol\":5640:5664  users[msg.sender].isUser */\n      0x00\n      add\n      0x00\n      swap1\n      sload\n      swap1\n      0x0100\n      exp\n      swap1\n      div\n      0xff\n      and\n        /* \"contracts/deris.sol\":5640:5670  users[msg.sender].isUser==true */\n      iszero\n      iszero\n      eq\n        /* \"contracts/deris.sol\":5632:5708  require(users[msg.sender].isUser==true, \"Need to be a user to select rider\") */\n      tag_58\n      jumpi\n      mload(0x40)\n      0x08c379a000000000000000000000000000000000000000000000000000000000\n      dup2\n      mstore\n      0x04\n      add\n      tag_59\n      swap1\n      tag_60\n      jump\t// in\n    tag_59:\n      mload(0x40)\n      dup1\n      swap2\n      sub\n      swap1\n      revert\n    tag_58:\n        /* \"contracts/deris.sol\":5751:5764  Status.DRIVER */\n      0x02\n        /* \"contracts/deris.sol\":5726:5764  users[msg.sender].state==Status.DRIVER */\n      dup1\n      dup2\n      gt\n      iszero\n      tag_61\n      jumpi\n      tag_62\n      tag_63\n      jump\t// in\n    tag_62:\n    tag_61:\n        /* \"contracts/deris.sol\":5726:5731  users */\n      0x00\n        /* \"contracts/deris.sol\":5726:5743  users[msg.sender] */\n      dup1\n        /* \"contracts/deris.sol\":5732:5742  msg.sender */\n      caller\n        /* \"contracts/deris.sol\":5726:5743  users[msg.sender] */\n      0xffffffffffffffffffffffffffffffffffffffff\n      and\n      0xffffffffffffffffffffffffffffffffffffffff\n      and\n      dup2\n      mstore\n      0x20\n      add\n      swap1\n      dup2\n      mstore\n      0x20\n      add\n      0x00\n      keccak256\n        /* \"contracts/deris.sol\":5726:5749  users[msg.sender].state */\n      0x02\n      add\n      0x00\n      swap1\n      sload\n      swap1\n      0x0100\n      exp\n      swap1\n      div\n      0xff\n      and\n        /* \"contracts/deris.sol\":5726:5764  users[msg.sender].state==Status.DRIVER */\n      0x02\n      dup2\n      gt\n      iszero\n      tag_64\n      jumpi\n      tag_65\n      tag_63\n      jump\t// in\n    tag_65:\n    tag_64:\n      eq\n        /* \"contracts/deris.sol\":5718:5814  require(users[msg.sender].state==Status.DRIVER, \"User needs to be in driver mode to pick rider\") */\n      tag_66\n      jumpi\n      mload(0x40)\n      0x08c379a000000000000000000000000000000000000000000000000000000000\n      dup2\n      mstore\n      0x04\n      add\n      tag_67\n      swap1\n      tag_68\n      jump\t// in\n    tag_67:\n      mload(0x40)\n      dup1\n      swap2\n      sub\n      swap1\n      revert\n    tag_66:\n        /* \"contracts/deris.sol\":5873:5874  0 */\n      0x00\n        /* \"contracts/deris.sol\":5832:5875  users[msg.sender].currPairing == address(0) */\n      0xffffffffffffffffffffffffffffffffffffffff\n      and\n        /* \"contracts/deris.sol\":5832:5837  users */\n      0x00\n        /* \"contracts/deris.sol\":5832:5849  users[msg.sender] */\n      dup1\n        /* \"contracts/deris.sol\":5838:5848  msg.sender */\n      caller\n        /* \"contracts/deris.sol\":5832:5849  users[msg.sender] */\n      0xffffffffffffffffffffffffffffffffffffffff\n      and\n      0xffffffffffffffffffffffffffffffffffffffff\n      and\n      dup2\n      mstore\n      0x20\n      add\n      swap1\n      dup2\n      mstore\n      0x20\n      add\n      0x00\n      keccak256\n        /* \"contracts/deris.sol\":5832:5861  users[msg.sender].currPairing */\n      0x02\n      add\n      0x01\n      swap1\n      sload\n      swap1\n      0x0100\n      exp\n      swap1\n      div\n      0xffffffffffffffffffffffffffffffffffffffff\n      and\n        /* \"contracts/deris.sol\":5832:5875  users[msg.sender].currPairing == address(0) */\n      0xffffffffffffffffffffffffffffffffffffffff\n      and\n      eq\n        /* \"contracts/deris.sol\":5824:5903  require(users[msg.sender].currPairing == address(0), \"driver currently paired\") */\n      tag_69\n      jumpi\n      mload(0x40)\n      0x08c379a000000000000000000000000000000000000000000000000000000000\n      dup2\n      mstore\n      0x04\n      add\n      tag_70\n      swap1\n      tag_71\n      jump\t// in\n    tag_70:\n      mload(0x40)\n      dup1\n      swap2\n      sub\n      swap1\n      revert\n    tag_69:\n        /* \"contracts/deris.sol\":5946:5956  msg.sender */\n      caller\n        /* \"contracts/deris.sol\":5921:5956  userList[riderNumber] != msg.sender */\n      0xffffffffffffffffffffffffffffffffffffffff\n      and\n        /* \"contracts/deris.sol\":5921:5929  userList */\n      0x01\n        /* \"contracts/deris.sol\":5930:5941  riderNumber */\n      dup4\n        /* \"contracts/deris.sol\":5921:5942  userList[riderNumber] */\n      dup2\n      sload\n      dup2\n      lt\n      tag_72\n      jumpi\n      tag_73\n      tag_74\n      jump\t// in\n    tag_73:\n    tag_72:\n      swap1\n      0x00\n      mstore\n      keccak256(0x00, 0x20)\n      add\n      0x00\n      swap1\n      sload\n      swap1\n      0x0100\n      exp\n      swap1\n      div\n      0xffffffffffffffffffffffffffffffffffffffff\n      and\n        /* \"contracts/deris.sol\":5921:5956  userList[riderNumber] != msg.sender */\n      0xffffffffffffffffffffffffffffffffffffffff\n      and\n      eq\n      iszero\n        /* \"contracts/deris.sol\":5913:5981  require(userList[riderNumber] != msg.sender, \"Cannot pick yourself\") */\n      tag_76\n      jumpi\n      mload(0x40)\n      0x08c379a000000000000000000000000000000000000000000000000000000000\n      dup2\n      mstore\n      0x04\n      add\n      tag_77\n      swap1\n      tag_78\n      jump\t// in\n    tag_77:\n      mload(0x40)\n      dup1\n      swap2\n      sub\n      swap1\n      revert\n    tag_76:\n        /* \"contracts/deris.sol\":6060:6061  0 */\n      0x00\n        /* \"contracts/deris.sol\":6008:6062  users[userList[riderNumber]].currPairing == address(0) */\n      0xffffffffffffffffffffffffffffffffffffffff\n      and\n        /* \"contracts/deris.sol\":6008:6013  users */\n      0x00\n        /* \"contracts/deris.sol\":6008:6036  users[userList[riderNumber]] */\n      dup1\n        /* \"contracts/deris.sol\":6014:6022  userList */\n      0x01\n        /* \"contracts/deris.sol\":6023:6034  riderNumber */\n      dup6\n        /* \"contracts/deris.sol\":6014:6035  userList[riderNumber] */\n      dup2\n      sload\n      dup2\n      lt\n      tag_79\n      jumpi\n      tag_80\n      tag_74\n      jump\t// in\n    tag_80:\n    tag_79:\n      swap1\n      0x00\n      mstore\n      keccak256(0x00, 0x20)\n      add\n      0x00\n      swap1\n      sload\n      swap1\n      0x0100\n      exp\n      swap1\n      div\n      0xffffffffffffffffffffffffffffffffffffffff\n      and\n        /* \"contracts/deris.sol\":6008:6036  users[userList[riderNumber]] */\n      0xffffffffffffffffffffffffffffffffffffffff\n      and\n      0xffffffffffffffffffffffffffffffffffffffff\n      and\n      dup2\n      mstore\n      0x20\n      add\n      swap1\n      dup2\n      mstore\n      0x20\n      add\n      0x00\n      keccak256\n        /* \"contracts/deris.sol\":6008:6048  users[userList[riderNumber]].currPairing */\n      0x02\n      add\n      0x01\n      swap1\n      sload\n      swap1\n      0x0100\n      exp\n      swap1\n      div\n      0xffffffffffffffffffffffffffffffffffffffff\n      and\n        /* \"contracts/deris.sol\":6008:6062  users[userList[riderNumber]].currPairing == address(0) */\n      0xffffffffffffffffffffffffffffffffffffffff\n      and\n      eq\n        /* \"contracts/deris.sol\":6000:6087  require(users[userList[riderNumber]].currPairing == address(0), \"rider already paired\") */\n      tag_82\n      jumpi\n      mload(0x40)\n      0x08c379a000000000000000000000000000000000000000000000000000000000\n      dup2\n      mstore\n      0x04\n      add\n      tag_83\n      swap1\n      tag_84\n      jump\t// in\n    tag_83:\n      mload(0x40)\n      dup1\n      swap2\n      sub\n      swap1\n      revert\n    tag_82:\n        /* \"contracts/deris.sol\":6143:6155  Status.RIDER */\n      0x01\n        /* \"contracts/deris.sol\":6105:6155  users[userList[riderNumber]].state == Status.RIDER */\n      0x02\n      dup2\n      gt\n      iszero\n      tag_85\n      jumpi\n      tag_86\n      tag_63\n      jump\t// in\n    tag_86:\n    tag_85:\n        /* \"contracts/deris.sol\":6105:6110  users */\n      0x00\n        /* \"contracts/deris.sol\":6105:6133  users[userList[riderNumber]] */\n      dup1\n        /* \"contracts/deris.sol\":6111:6119  userList */\n      0x01\n        /* \"contracts/deris.sol\":6120:6131  riderNumber */\n      dup6\n        /* \"contracts/deris.sol\":6111:6132  userList[riderNumber] */\n      dup2\n      sload\n      dup2\n      lt\n      tag_87\n      jumpi\n      tag_88\n      tag_74\n      jump\t// in\n    tag_88:\n    tag_87:\n      swap1\n      0x00\n      mstore\n      keccak256(0x00, 0x20)\n      add\n      0x00\n      swap1\n      sload\n      swap1\n      0x0100\n      exp\n      swap1\n      div\n      0xffffffffffffffffffffffffffffffffffffffff\n      and\n        /* \"contracts/deris.sol\":6105:6133  users[userList[riderNumber]] */\n      0xffffffffffffffffffffffffffffffffffffffff\n      and\n      0xffffffffffffffffffffffffffffffffffffffff\n      and\n      dup2\n      mstore\n      0x20\n      add\n      swap1\n      dup2\n      mstore\n      0x20\n      add\n      0x00\n      keccak256\n        /* \"contracts/deris.sol\":6105:6139  users[userList[riderNumber]].state */\n      0x02\n      add\n      0x00\n      swap1\n      sload\n      swap1\n      0x0100\n      exp\n      swap1\n      div\n      0xff\n      and\n        /* \"contracts/deris.sol\":6105:6155  users[userList[riderNumber]].state == Status.RIDER */\n      0x02\n      dup2\n      gt\n      iszero\n      tag_90\n      jumpi\n      tag_91\n      tag_63\n      jump\t// in\n    tag_91:\n    tag_90:\n      eq\n        /* \"contracts/deris.sol\":6097:6195  require(users[userList[riderNumber]].state == Status.RIDER, \"user being picked has to be a rider\") */\n      tag_92\n      jumpi\n      mload(0x40)\n      0x08c379a000000000000000000000000000000000000000000000000000000000\n      dup2\n      mstore\n      0x04\n      add\n      tag_93\n      swap1\n      tag_94\n      jump\t// in\n    tag_93:\n      mload(0x40)\n      dup1\n      swap2\n      sub\n      swap1\n      revert\n    tag_92:\n        /* \"contracts/deris.sol\":6283:6293  msg.sender */\n      caller\n        /* \"contracts/deris.sol\":6240:6245  users */\n      0x00\n        /* \"contracts/deris.sol\":6240:6268  users[userList[riderNumber]] */\n      dup1\n        /* \"contracts/deris.sol\":6246:6254  userList */\n      0x01\n        /* \"contracts/deris.sol\":6255:6266  riderNumber */\n      dup6\n        /* \"contracts/deris.sol\":6246:6267  userList[riderNumber] */\n      dup2\n      sload\n      dup2\n      lt\n      tag_95\n      jumpi\n      tag_96\n      tag_74\n      jump\t// in\n    tag_96:\n    tag_95:\n      swap1\n      0x00\n      mstore\n      keccak256(0x00, 0x20)\n      add\n      0x00\n      swap1\n      sload\n      swap1\n      0x0100\n      exp\n      swap1\n      div\n      0xffffffffffffffffffffffffffffffffffffffff\n      and\n        /* \"contracts/deris.sol\":6240:6268  users[userList[riderNumber]] */\n      0xffffffffffffffffffffffffffffffffffffffff\n      and\n      0xffffffffffffffffffffffffffffffffffffffff\n      and\n      dup2\n      mstore\n      0x20\n      add\n      swap1\n      dup2\n      mstore\n      0x20\n      add\n      0x00\n      keccak256\n        /* \"contracts/deris.sol\":6240:6280  users[userList[riderNumber]].currPairing */\n      0x02\n      add\n      0x01\n        /* \"contracts/deris.sol\":6240:6293  users[userList[riderNumber]].currPairing = msg.sender */\n      0x0100\n      exp\n      dup2\n      sload\n      dup2\n      0xffffffffffffffffffffffffffffffffffffffff\n      mul\n      not\n      and\n      swap1\n      dup4\n      0xffffffffffffffffffffffffffffffffffffffff\n      and\n      mul\n      or\n      swap1\n      sstore\n      pop\n        /* \"contracts/deris.sol\":6335:6343  userList */\n      0x01\n        /* \"contracts/deris.sol\":6344:6355  riderNumber */\n      dup3\n        /* \"contracts/deris.sol\":6335:6356  userList[riderNumber] */\n      dup2\n      sload\n      dup2\n      lt\n      tag_98\n      jumpi\n      tag_99\n      tag_74\n      jump\t// in\n    tag_99:\n    tag_98:\n      swap1\n      0x00\n      mstore\n      keccak256(0x00, 0x20)\n      add\n      0x00\n      swap1\n      sload\n      swap1\n      0x0100\n      exp\n      swap1\n      div\n      0xffffffffffffffffffffffffffffffffffffffff\n      and\n        /* \"contracts/deris.sol\":6303:6308  users */\n      0x00\n        /* \"contracts/deris.sol\":6303:6320  users[msg.sender] */\n      dup1\n        /* \"contracts/deris.sol\":6309:6319  msg.sender */\n      caller\n        /* \"contracts/deris.sol\":6303:6320  users[msg.sender] */\n      0xffffffffffffffffffffffffffffffffffffffff\n      and\n      0xffffffffffffffffffffffffffffffffffffffff\n      and\n      dup2\n      mstore\n      0x20\n      add\n      swap1\n      dup2\n      mstore\n      0x20\n      add\n      0x00\n      keccak256\n        /* \"contracts/deris.sol\":6303:6332  users[msg.sender].currPairing */\n      0x02\n      add\n      0x01\n        /* \"contracts/deris.sol\":6303:6356  users[msg.sender].currPairing = userList[riderNumber] */\n      0x0100\n      exp\n      dup2\n      sload\n      dup2\n      0xffffffffffffffffffffffffffffffffffffffff\n      mul\n      not\n      and\n      swap1\n      dup4\n      0xffffffffffffffffffffffffffffffffffffffff\n      and\n      mul\n      or\n      swap1\n      sstore\n      pop\n        /* \"contracts/deris.sol\":6407:6418  arrivalTime */\n      dup1\n        /* \"contracts/deris.sol\":6375:6380  users */\n      0x00\n        /* \"contracts/deris.sol\":6375:6392  users[msg.sender] */\n      dup1\n        /* \"contracts/deris.sol\":6381:6391  msg.sender */\n      caller\n        /* \"contracts/deris.sol\":6375:6392  users[msg.sender] */\n      0xffffffffffffffffffffffffffffffffffffffff\n      and\n      0xffffffffffffffffffffffffffffffffffffffff\n      and\n      dup2\n      mstore\n      0x20\n      add\n      swap1\n      dup2\n      mstore\n      0x20\n      add\n      0x00\n      keccak256\n        /* \"contracts/deris.sol\":6375:6404  users[msg.sender].arrivalTime */\n      0x07\n      add\n        /* \"contracts/deris.sol\":6375:6418  users[msg.sender].arrivalTime = arrivalTime */\n      dup2\n      swap1\n      sstore\n      pop\n        /* \"contracts/deris.sol\":6471:6482  arrivalTime */\n      dup1\n        /* \"contracts/deris.sol\":6428:6433  users */\n      0x00\n        /* \"contracts/deris.sol\":6428:6456  users[userList[riderNumber]] */\n      dup1\n        /* \"contracts/deris.sol\":6434:6442  userList */\n      0x01\n        /* \"contracts/deris.sol\":6443:6454  riderNumber */\n      dup6\n        /* \"contracts/deris.sol\":6434:6455  userList[riderNumber] */\n      dup2\n      sload\n      dup2\n      lt\n      tag_101\n      jumpi\n      tag_102\n      tag_74\n      jump\t// in\n    tag_102:\n    tag_101:\n      swap1\n      0x00\n      mstore\n      keccak256(0x00, 0x20)\n      add\n      0x00\n      swap1\n      sload\n      swap1\n      0x0100\n      exp\n      swap1\n      div\n      0xffffffffffffffffffffffffffffffffffffffff\n      and\n        /* \"contracts/deris.sol\":6428:6456  users[userList[riderNumber]] */\n      0xffffffffffffffffffffffffffffffffffffffff\n      and\n      0xffffffffffffffffffffffffffffffffffffffff\n      and\n      dup2\n      mstore\n      0x20\n      add\n      swap1\n      dup2\n      mstore\n      0x20\n      add\n      0x00\n      keccak256\n        /* \"contracts/deris.sol\":6428:6468  users[userList[riderNumber]].arrivalTime */\n      0x07\n      add\n        /* \"contracts/deris.sol\":6428:6482  users[userList[riderNumber]].arrivalTime = arrivalTime */\n      dup2\n      swap1\n      sstore\n      pop\n        /* \"contracts/deris.sol\":6526:6531  false */\n      0x00\n        /* \"contracts/deris.sol\":6492:6497  users */\n      dup1\n        /* \"contracts/deris.sol\":6492:6509  users[msg.sender] */\n      0x00\n        /* \"contracts/deris.sol\":6498:6508  msg.sender */\n      caller\n        /* \"contracts/deris.sol\":6492:6509  users[msg.sender] */\n      0xffffffffffffffffffffffffffffffffffffffff\n      and\n      0xffffffffffffffffffffffffffffffffffffffff\n      and\n      dup2\n      mstore\n      0x20\n      add\n      swap1\n      dup2\n      mstore\n      0x20\n      add\n      0x00\n      keccak256\n        /* \"contracts/deris.sol\":6492:6523  users[msg.sender].driverArrived */\n      0x08\n      add\n      0x00\n        /* \"contracts/deris.sol\":6492:6531  users[msg.sender].driverArrived = false */\n      0x0100\n      exp\n      dup2\n      sload\n      dup2\n      0xff\n      mul\n      not\n      and\n      swap1\n      dup4\n      iszero\n      iszero\n      mul\n      or\n      swap1\n      sstore\n      pop\n        /* \"contracts/deris.sol\":6594:6599  false */\n      0x00\n        /* \"contracts/deris.sol\":6541:6546  users */\n      dup1\n        /* \"contracts/deris.sol\":6541:6577  users[users[msg.sender].currPairing] */\n      0x00\n        /* \"contracts/deris.sol\":6547:6552  users */\n      dup1\n        /* \"contracts/deris.sol\":6547:6564  users[msg.sender] */\n      0x00\n        /* \"contracts/deris.sol\":6553:6563  msg.sender */\n      caller\n        /* \"contracts/deris.sol\":6547:6564  users[msg.sender] */\n      0xffffffffffffffffffffffffffffffffffffffff\n      and\n      0xffffffffffffffffffffffffffffffffffffffff\n      and\n      dup2\n      mstore\n      0x20\n      add\n      swap1\n      dup2\n      mstore\n      0x20\n      add\n      0x00\n      keccak256\n        /* \"contracts/deris.sol\":6547:6576  users[msg.sender].currPairing */\n      0x02\n      add\n      0x01\n      swap1\n      sload\n      swap1\n      0x0100\n      exp\n      swap1\n      div\n      0xffffffffffffffffffffffffffffffffffffffff\n      and\n        /* \"contracts/deris.sol\":6541:6577  users[users[msg.sender].currPairing] */\n      0xffffffffffffffffffffffffffffffffffffffff\n      and\n      0xffffffffffffffffffffffffffffffffffffffff\n      and\n      dup2\n      mstore\n      0x20\n      add\n      swap1\n      dup2\n      mstore\n      0x20\n      add\n      0x00\n      keccak256\n        /* \"contracts/deris.sol\":6541:6591  users[users[msg.sender].currPairing].driverArrived */\n      0x08\n      add\n      0x00\n        /* \"contracts/deris.sol\":6541:6599  users[users[msg.sender].currPairing].driverArrived = false */\n      0x0100\n      exp\n      dup2\n      sload\n      dup2\n      0xff\n      mul\n      not\n      and\n      swap1\n      dup4\n      iszero\n      iszero\n      mul\n      or\n      swap1\n      sstore\n      pop\n        /* \"contracts/deris.sol\":6623:6660  RiderPicked(riderNumber, arrivalTime) */\n      0xd492064edf7fcac5d4cf828f131afa14b0a5784d8bfdb01853e176cf5b0e2ec3\n        /* \"contracts/deris.sol\":6635:6646  riderNumber */\n      dup3\n        /* \"contracts/deris.sol\":6648:6659  arrivalTime */\n      dup3\n        /* \"contracts/deris.sol\":6623:6660  RiderPicked(riderNumber, arrivalTime) */\n      mload(0x40)\n      tag_104\n      swap3\n      swap2\n      swap1\n      tag_105\n      jump\t// in\n    tag_104:\n      mload(0x40)\n      dup1\n      swap2\n      sub\n      swap1\n      log1\n        /* \"contracts/deris.sol\":5486:6667  function pickRider(uint riderNumber, uint arrivalTime) public{... */\n      pop\n      pop\n      jump\t// out\n        /* \"contracts/deris.sol\":4864:5475  function getWaitingRiders() public{... */\n    tag_20:\n        /* \"contracts/deris.sol\":4996:5000  true */\n      0x01\n        /* \"contracts/deris.sol\":4970:5000  users[msg.sender].isUser==true */\n      iszero\n      iszero\n        /* \"contracts/deris.sol\":4970:4975  users */\n      0x00\n        /* \"contracts/deris.sol\":4970:4987  users[msg.sender] */\n      dup1\n        /* \"contracts/deris.sol\":4976:4986  msg.sender */\n      caller\n        /* \"contracts/deris.sol\":4970:4987  users[msg.sender] */\n      0xffffffffffffffffffffffffffffffffffffffff\n      and\n      0xffffffffffffffffffffffffffffffffffffffff\n      and\n      dup2\n      mstore\n      0x20\n      add\n      swap1\n      dup2\n      mstore\n      0x20\n      add\n      0x00\n      keccak256\n        /* \"contracts/deris.sol\":4970:4994  users[msg.sender].isUser */\n      0x00\n      add\n      0x00\n      swap1\n      sload\n      swap1\n      0x0100\n      exp\n      swap1\n      div\n      0xff\n      and\n        /* \"contracts/deris.sol\":4970:5000  users[msg.sender].isUser==true */\n      iszero\n      iszero\n      eq\n        /* \"contracts/deris.sol\":4962:5038  require(users[msg.sender].isUser==true, \"Need to be a user to select rider\") */\n      tag_107\n      jumpi\n      mload(0x40)\n      0x08c379a000000000000000000000000000000000000000000000000000000000\n      dup2\n      mstore\n      0x04\n      add\n      tag_108\n      swap1\n      tag_60\n      jump\t// in\n    tag_108:\n      mload(0x40)\n      dup1\n      swap2\n      sub\n      swap1\n      revert\n    tag_107:\n        /* \"contracts/deris.sol\":5081:5094  Status.DRIVER */\n      0x02\n        /* \"contracts/deris.sol\":5056:5094  users[msg.sender].state==Status.DRIVER */\n      dup1\n      dup2\n      gt\n      iszero\n      tag_109\n      jumpi\n      tag_110\n      tag_63\n      jump\t// in\n    tag_110:\n    tag_109:\n        /* \"contracts/deris.sol\":5056:5061  users */\n      0x00\n        /* \"contracts/deris.sol\":5056:5073  users[msg.sender] */\n      dup1\n        /* \"contracts/deris.sol\":5062:5072  msg.sender */\n      caller\n        /* \"contracts/deris.sol\":5056:5073  users[msg.sender] */\n      0xffffffffffffffffffffffffffffffffffffffff\n      and\n      0xffffffffffffffffffffffffffffffffffffffff\n      and\n      dup2\n      mstore\n      0x20\n      add\n      swap1\n      dup2\n      mstore\n      0x20\n      add\n      0x00\n      keccak256\n        /* \"contracts/deris.sol\":5056:5079  users[msg.sender].state */\n      0x02\n      add\n      0x00\n      swap1\n      sload\n      swap1\n      0x0100\n      exp\n      swap1\n      div\n      0xff\n      and\n        /* \"contracts/deris.sol\":5056:5094  users[msg.sender].state==Status.DRIVER */\n      0x02\n      dup2\n      gt\n      iszero\n      tag_111\n      jumpi\n      tag_112\n      tag_63\n      jump\t// in\n    tag_112:\n    tag_111:\n      eq\n        /* \"contracts/deris.sol\":5048:5144  require(users[msg.sender].state==Status.DRIVER, \"User needs to be in driver mode to pick rider\") */\n      tag_113\n      jumpi\n      mload(0x40)\n      0x08c379a000000000000000000000000000000000000000000000000000000000\n      dup2\n      mstore\n      0x04\n      add\n      tag_114\n      swap1\n      tag_68\n      jump\t// in\n    tag_114:\n      mload(0x40)\n      dup1\n      swap2\n      sub\n      swap1\n      revert\n    tag_113:\n        /* \"contracts/deris.sol\":5159:5165  uint i */\n      0x00\n        /* \"contracts/deris.sol\":5154:5469  for (uint i=0; i<userList.length; i++) {... */\n    tag_115:\n        /* \"contracts/deris.sol\":5171:5179  userList */\n      0x01\n        /* \"contracts/deris.sol\":5171:5186  userList.length */\n      dup1\n      sload\n      swap1\n      pop\n        /* \"contracts/deris.sol\":5169:5170  i */\n      dup2\n        /* \"contracts/deris.sol\":5169:5186  i<userList.length */\n      lt\n        /* \"contracts/deris.sol\":5154:5469  for (uint i=0; i<userList.length; i++) {... */\n      iszero\n      tag_116\n      jumpi\n        /* \"contracts/deris.sol\":5253:5254  0 */\n      0x00\n        /* \"contracts/deris.sol\":5211:5255  users[userList[i]].currPairing == address(0) */\n      0xffffffffffffffffffffffffffffffffffffffff\n      and\n        /* \"contracts/deris.sol\":5211:5216  users */\n      0x00\n        /* \"contracts/deris.sol\":5211:5229  users[userList[i]] */\n      dup1\n        /* \"contracts/deris.sol\":5217:5225  userList */\n      0x01\n        /* \"contracts/deris.sol\":5226:5227  i */\n      dup5\n        /* \"contracts/deris.sol\":5217:5228  userList[i] */\n      dup2\n      sload\n      dup2\n      lt\n      tag_118\n      jumpi\n      tag_119\n      tag_74\n      jump\t// in\n    tag_119:\n    tag_118:\n      swap1\n      0x00\n      mstore\n      keccak256(0x00, 0x20)\n      add\n      0x00\n      swap1\n      sload\n      swap1\n      0x0100\n      exp\n      swap1\n      div\n      0xffffffffffffffffffffffffffffffffffffffff\n      and\n        /* \"contracts/deris.sol\":5211:5229  users[userList[i]] */\n      0xffffffffffffffffffffffffffffffffffffffff\n      and\n      0xffffffffffffffffffffffffffffffffffffffff\n      and\n      dup2\n      mstore\n      0x20\n      add\n      swap1\n      dup2\n      mstore\n      0x20\n      add\n      0x00\n      keccak256\n        /* \"contracts/deris.sol\":5211:5241  users[userList[i]].currPairing */\n      0x02\n      add\n      0x01\n      swap1\n      sload\n      swap1\n      0x0100\n      exp\n      swap1\n      div\n      0xffffffffffffffffffffffffffffffffffffffff\n      and\n        /* \"contracts/deris.sol\":5211:5255  users[userList[i]].currPairing == address(0) */\n      0xffffffffffffffffffffffffffffffffffffffff\n      and\n      eq\n        /* \"contracts/deris.sol\":5211:5299  users[userList[i]].currPairing == address(0) && users[userList[i]].state == Status.RIDER */\n      dup1\n      iszero\n      tag_121\n      jumpi\n      pop\n        /* \"contracts/deris.sol\":5287:5299  Status.RIDER */\n      0x01\n        /* \"contracts/deris.sol\":5259:5299  users[userList[i]].state == Status.RIDER */\n      0x02\n      dup2\n      gt\n      iszero\n      tag_122\n      jumpi\n      tag_123\n      tag_63\n      jump\t// in\n    tag_123:\n    tag_122:\n        /* \"contracts/deris.sol\":5259:5264  users */\n      0x00\n        /* \"contracts/deris.sol\":5259:5277  users[userList[i]] */\n      dup1\n        /* \"contracts/deris.sol\":5265:5273  userList */\n      0x01\n        /* \"contracts/deris.sol\":5274:5275  i */\n      dup5\n        /* \"contracts/deris.sol\":5265:5276  userList[i] */\n      dup2\n      sload\n      dup2\n      lt\n      tag_124\n      jumpi\n      tag_125\n      tag_74\n      jump\t// in\n    tag_125:\n    tag_124:\n      swap1\n      0x00\n      mstore\n      keccak256(0x00, 0x20)\n      add\n      0x00\n      swap1\n      sload\n      swap1\n      0x0100\n      exp\n      swap1\n      div\n      0xffffffffffffffffffffffffffffffffffffffff\n      and\n        /* \"contracts/deris.sol\":5259:5277  users[userList[i]] */\n      0xffffffffffffffffffffffffffffffffffffffff\n      and\n      0xffffffffffffffffffffffffffffffffffffffff\n      and\n      dup2\n      mstore\n      0x20\n      add\n      swap1\n      dup2\n      mstore\n      0x20\n      add\n      0x00\n      keccak256\n        /* \"contracts/deris.sol\":5259:5283  users[userList[i]].state */\n      0x02\n      add\n      0x00\n      swap1\n      sload\n      swap1\n      0x0100\n      exp\n      swap1\n      div\n      0xff\n      and\n        /* \"contracts/deris.sol\":5259:5299  users[userList[i]].state == Status.RIDER */\n      0x02\n      dup2\n      gt\n      iszero\n      tag_127\n      jumpi\n      tag_128\n      tag_63\n      jump\t// in\n    tag_128:\n    tag_127:\n      eq\n        /* \"contracts/deris.sol\":5211:5299  users[userList[i]].currPairing == address(0) && users[userList[i]].state == Status.RIDER */\n    tag_121:\n        /* \"contracts/deris.sol\":5207:5459  if (users[userList[i]].currPairing == address(0) && users[userList[i]].state == Status.RIDER){... */\n      iszero\n      tag_129\n      jumpi\n        /* \"contracts/deris.sol\":5323:5444  RiderDetails(users[userList[i]].number, users[userList[i]].pickup, users[userList[i]].dropoff, users[userList[i]].escrow) */\n      0x371a7676ba1a3c7f898deecee12f15abf07a92560af6d3f0a10f35d07189084f\n        /* \"contracts/deris.sol\":5336:5341  users */\n      0x00\n        /* \"contracts/deris.sol\":5336:5354  users[userList[i]] */\n      dup1\n        /* \"contracts/deris.sol\":5342:5350  userList */\n      0x01\n        /* \"contracts/deris.sol\":5351:5352  i */\n      dup5\n        /* \"contracts/deris.sol\":5342:5353  userList[i] */\n      dup2\n      sload\n      dup2\n      lt\n      tag_130\n      jumpi\n      tag_131\n      tag_74\n      jump\t// in\n    tag_131:\n    tag_130:\n      swap1\n      0x00\n      mstore\n      keccak256(0x00, 0x20)\n      add\n      0x00\n      swap1\n      sload\n      swap1\n      0x0100\n      exp\n      swap1\n      div\n      0xffffffffffffffffffffffffffffffffffffffff\n      and\n        /* \"contracts/deris.sol\":5336:5354  users[userList[i]] */\n      0xffffffffffffffffffffffffffffffffffffffff\n      and\n      0xffffffffffffffffffffffffffffffffffffffff\n      and\n      dup2\n      mstore\n      0x20\n      add\n      swap1\n      dup2\n      mstore\n      0x20\n      add\n      0x00\n      keccak256\n        /* \"contracts/deris.sol\":5336:5361  users[userList[i]].number */\n      0x01\n      add\n      sload\n        /* \"contracts/deris.sol\":5363:5368  users */\n      0x00\n        /* \"contracts/deris.sol\":5363:5381  users[userList[i]] */\n      dup1\n        /* \"contracts/deris.sol\":5369:5377  userList */\n      0x01\n        /* \"contracts/deris.sol\":5378:5379  i */\n      dup6\n        /* \"contracts/deris.sol\":5369:5380  userList[i] */\n      dup2\n      sload\n      dup2\n      lt\n      tag_133\n      jumpi\n      tag_134\n      tag_74\n      jump\t// in\n    tag_134:\n    tag_133:\n      swap1\n      0x00\n      mstore\n      keccak256(0x00, 0x20)\n      add\n      0x00\n      swap1\n      sload\n      swap1\n      0x0100\n      exp\n      swap1\n      div\n      0xffffffffffffffffffffffffffffffffffffffff\n      and\n        /* \"contracts/deris.sol\":5363:5381  users[userList[i]] */\n      0xffffffffffffffffffffffffffffffffffffffff\n      and\n      0xffffffffffffffffffffffffffffffffffffffff\n      and\n      dup2\n      mstore\n      0x20\n      add\n      swap1\n      dup2\n      mstore\n      0x20\n      add\n      0x00\n      keccak256\n        /* \"contracts/deris.sol\":5363:5388  users[userList[i]].pickup */\n      0x03\n      add\n        /* \"contracts/deris.sol\":5390:5395  users */\n      0x00\n        /* \"contracts/deris.sol\":5390:5408  users[userList[i]] */\n      dup1\n        /* \"contracts/deris.sol\":5396:5404  userList */\n      0x01\n        /* \"contracts/deris.sol\":5405:5406  i */\n      dup7\n        /* \"contracts/deris.sol\":5396:5407  userList[i] */\n      dup2\n      sload\n      dup2\n      lt\n      tag_136\n      jumpi\n      tag_137\n      tag_74\n      jump\t// in\n    tag_137:\n    tag_136:\n      swap1\n      0x00\n      mstore\n      keccak256(0x00, 0x20)\n      add\n      0x00\n      swap1\n      sload\n      swap1\n      0x0100\n      exp\n      swap1\n      div\n      0xffffffffffffffffffffffffffffffffffffffff\n      and\n        /* \"contracts/deris.sol\":5390:5408  users[userList[i]] */\n      0xffffffffffffffffffffffffffffffffffffffff\n      and\n      0xffffffffffffffffffffffffffffffffffffffff\n      and\n      dup2\n      mstore\n      0x20\n      add\n      swap1\n      dup2\n      mstore\n      0x20\n      add\n      0x00\n      keccak256\n        /* \"contracts/deris.sol\":5390:5416  users[userList[i]].dropoff */\n      0x05\n      add\n        /* \"contracts/deris.sol\":5418:5423  users */\n      0x00\n        /* \"contracts/deris.sol\":5418:5436  users[userList[i]] */\n      dup1\n        /* \"contracts/deris.sol\":5424:5432  userList */\n      0x01\n        /* \"contracts/deris.sol\":5433:5434  i */\n      dup8\n        /* \"contracts/deris.sol\":5424:5435  userList[i] */\n      dup2\n      sload\n      dup2\n      lt\n      tag_139\n      jumpi\n      tag_140\n      tag_74\n      jump\t// in\n    tag_140:\n    tag_139:\n      swap1\n      0x00\n      mstore\n      keccak256(0x00, 0x20)\n      add\n      0x00\n      swap1\n      sload\n      swap1\n      0x0100\n      exp\n      swap1\n      div\n      0xffffffffffffffffffffffffffffffffffffffff\n      and\n        /* \"contracts/deris.sol\":5418:5436  users[userList[i]] */\n      0xffffffffffffffffffffffffffffffffffffffff\n      and\n      0xffffffffffffffffffffffffffffffffffffffff\n      and\n      dup2\n      mstore\n      0x20\n      add\n      swap1\n      dup2\n      mstore\n      0x20\n      add\n      0x00\n      keccak256\n        /* \"contracts/deris.sol\":5418:5443  users[userList[i]].escrow */\n      0x09\n      add\n      sload\n        /* \"contracts/deris.sol\":5323:5444  RiderDetails(users[userList[i]].number, users[userList[i]].pickup, users[userList[i]].dropoff, users[userList[i]].escrow) */\n      mload(0x40)\n      tag_142\n      swap5\n      swap4\n      swap3\n      swap2\n      swap1\n      tag_143\n      jump\t// in\n    tag_142:\n      mload(0x40)\n      dup1\n      swap2\n      sub\n      swap1\n      log1\n        /* \"contracts/deris.sol\":5207:5459  if (users[userList[i]].currPairing == address(0) && users[userList[i]].state == Status.RIDER){... */\n    tag_129:\n        /* \"contracts/deris.sol\":5188:5191  i++ */\n      dup1\n      dup1\n      tag_144\n      swap1\n      tag_145\n      jump\t// in\n    tag_144:\n      swap2\n      pop\n      pop\n        /* \"contracts/deris.sol\":5154:5469  for (uint i=0; i<userList.length; i++) {... */\n      jump(tag_115)\n    tag_116:\n      pop\n        /* \"contracts/deris.sol\":4864:5475  function getWaitingRiders() public{... */\n      jump\t// out\n        /* \"contracts/deris.sol\":9428:11385  function userReset() public payable{... */\n    tag_22:\n        /* \"contracts/deris.sol\":9608:9612  true */\n      0x01\n        /* \"contracts/deris.sol\":9580:9612  users[msg.sender].isUser == true */\n      iszero\n      iszero\n        /* \"contracts/deris.sol\":9580:9585  users */\n      0x00\n        /* \"contracts/deris.sol\":9580:9597  users[msg.sender] */\n      dup1\n        /* \"contracts/deris.sol\":9586:9596  msg.sender */\n      caller\n        /* \"contracts/deris.sol\":9580:9597  users[msg.sender] */\n      0xffffffffffffffffffffffffffffffffffffffff\n      and\n      0xffffffffffffffffffffffffffffffffffffffff\n      and\n      dup2\n      mstore\n      0x20\n      add\n      swap1\n      dup2\n      mstore\n      0x20\n      add\n      0x00\n      keccak256\n        /* \"contracts/deris.sol\":9580:9604  users[msg.sender].isUser */\n      0x00\n      add\n      0x00\n      swap1\n      sload\n      swap1\n      0x0100\n      exp\n      swap1\n      div\n      0xff\n      and\n        /* \"contracts/deris.sol\":9580:9612  users[msg.sender].isUser == true */\n      iszero\n      iszero\n      eq\n        /* \"contracts/deris.sol\":9572:9651  require(users[msg.sender].isUser == true, \"Need to be a user to complete ride\") */\n      tag_147\n      jumpi\n      mload(0x40)\n      0x08c379a000000000000000000000000000000000000000000000000000000000\n      dup2\n      mstore\n      0x04\n      add\n      tag_148\n      swap1\n      tag_149\n      jump\t// in\n    tag_148:\n      mload(0x40)\n      dup1\n      swap2\n      sub\n      swap1\n      revert\n    tag_147:\n        /* \"contracts/deris.sol\":9696:9711  Status.INACTIVE */\n      0x00\n        /* \"contracts/deris.sol\":9669:9711  users[msg.sender].state != Status.INACTIVE */\n      0x02\n      dup2\n      gt\n      iszero\n      tag_150\n      jumpi\n      tag_151\n      tag_63\n      jump\t// in\n    tag_151:\n    tag_150:\n        /* \"contracts/deris.sol\":9669:9674  users */\n      0x00\n        /* \"contracts/deris.sol\":9669:9686  users[msg.sender] */\n      dup1\n        /* \"contracts/deris.sol\":9675:9685  msg.sender */\n      caller\n        /* \"contracts/deris.sol\":9669:9686  users[msg.sender] */\n      0xffffffffffffffffffffffffffffffffffffffff\n      and\n      0xffffffffffffffffffffffffffffffffffffffff\n      and\n      dup2\n      mstore\n      0x20\n      add\n      swap1\n      dup2\n      mstore\n      0x20\n      add\n      0x00\n      keccak256\n        /* \"contracts/deris.sol\":9669:9692  users[msg.sender].state */\n      0x02\n      add\n      0x00\n      swap1\n      sload\n      swap1\n      0x0100\n      exp\n      swap1\n      div\n      0xff\n      and\n        /* \"contracts/deris.sol\":9669:9711  users[msg.sender].state != Status.INACTIVE */\n      0x02\n      dup2\n      gt\n      iszero\n      tag_152\n      jumpi\n      tag_153\n      tag_63\n      jump\t// in\n    tag_153:\n    tag_152:\n      eq\n      iszero\n        /* \"contracts/deris.sol\":9661:9758  require(users[msg.sender].state != Status.INACTIVE, \"Need to be an active user to complete ride\") */\n      tag_154\n      jumpi\n      mload(0x40)\n      0x08c379a000000000000000000000000000000000000000000000000000000000\n      dup2\n      mstore\n      0x04\n      add\n      tag_155\n      swap1\n      tag_156\n      jump\t// in\n    tag_155:\n      mload(0x40)\n      dup1\n      swap2\n      sub\n      swap1\n      revert\n    tag_154:\n        /* \"contracts/deris.sol\":9787:9788  0 */\n      0x00\n        /* \"contracts/deris.sol\":9776:9785  msg.value */\n      callvalue\n        /* \"contracts/deris.sol\":9776:9788  msg.value>=0 */\n      lt\n      iszero\n        /* \"contracts/deris.sol\":9768:9823  require(msg.value>=0, \"Ether need to be sent to reset\") */\n      tag_157\n      jumpi\n      mload(0x40)\n      0x08c379a000000000000000000000000000000000000000000000000000000000\n      dup2\n      mstore\n      0x04\n      add\n      tag_158\n      swap1\n      tag_159\n      jump\t// in\n    tag_158:\n      mload(0x40)\n      dup1\n      swap2\n      sub\n      swap1\n      revert\n    tag_157:\n        /* \"contracts/deris.sol\":9868:9872  true */\n      0x01\n        /* \"contracts/deris.sol\":9836:9872  users[msg.sender].inProgress == true */\n      iszero\n      iszero\n        /* \"contracts/deris.sol\":9836:9841  users */\n      0x00\n        /* \"contracts/deris.sol\":9836:9853  users[msg.sender] */\n      dup1\n        /* \"contracts/deris.sol\":9842:9852  msg.sender */\n      caller\n        /* \"contracts/deris.sol\":9836:9853  users[msg.sender] */\n      0xffffffffffffffffffffffffffffffffffffffff\n      and\n      0xffffffffffffffffffffffffffffffffffffffff\n      and\n      dup2\n      mstore\n      0x20\n      add\n      swap1\n      dup2\n      mstore\n      0x20\n      add\n      0x00\n      keccak256\n        /* \"contracts/deris.sol\":9836:9864  users[msg.sender].inProgress */\n      0x08\n      add\n      0x01\n      swap1\n      sload\n      swap1\n      0x0100\n      exp\n      swap1\n      div\n      0xff\n      and\n        /* \"contracts/deris.sol\":9836:9872  users[msg.sender].inProgress == true */\n      iszero\n      iszero\n      eq\n        /* \"contracts/deris.sol\":9833:11379  if(users[msg.sender].inProgress == true){... */\n      iszero\n      tag_160\n      jumpi\n        /* \"contracts/deris.sol\":9895:9905  msg.sender */\n      caller\n        /* \"contracts/deris.sol\":9887:9915  payable(msg.sender).transfer */\n      0xffffffffffffffffffffffffffffffffffffffff\n      and\n        /* \"contracts/deris.sol\":9887:9926  payable(msg.sender).transfer(msg.value) */\n      0x08fc\n        /* \"contracts/deris.sol\":9916:9925  msg.value */\n      callvalue\n        /* \"contracts/deris.sol\":9887:9926  payable(msg.sender).transfer(msg.value) */\n      swap1\n      dup2\n      iszero\n      mul\n      swap1\n      mload(0x40)\n      0x00\n      mload(0x40)\n      dup1\n      dup4\n      sub\n      dup2\n      dup6\n      dup9\n      dup9\n      call\n      swap4\n      pop\n      pop\n      pop\n      pop\n      iszero\n      dup1\n      iszero\n      tag_162\n      jumpi\n      returndatasize\n      0x00\n      dup1\n      returndatacopy\n      revert(0x00, returndatasize)\n    tag_162:\n      pop\n        /* \"contracts/deris.sol\":9945:10025  undone(users[msg.sender].number, users[users[msg.sender].currPairing].number, 0) */\n      0x5b1b690b017b49e02e426b145ec66a70f4259c7a0a7bfb5609363922cec65eef\n        /* \"contracts/deris.sol\":9952:9957  users */\n      0x00\n        /* \"contracts/deris.sol\":9952:9969  users[msg.sender] */\n      dup1\n        /* \"contracts/deris.sol\":9958:9968  msg.sender */\n      caller\n        /* \"contracts/deris.sol\":9952:9969  users[msg.sender] */\n      0xffffffffffffffffffffffffffffffffffffffff\n      and\n      0xffffffffffffffffffffffffffffffffffffffff\n      and\n      dup2\n      mstore\n      0x20\n      add\n      swap1\n      dup2\n      mstore\n      0x20\n      add\n      0x00\n      keccak256\n        /* \"contracts/deris.sol\":9952:9976  users[msg.sender].number */\n      0x01\n      add\n      sload\n        /* \"contracts/deris.sol\":9978:9983  users */\n      0x00\n        /* \"contracts/deris.sol\":9978:10014  users[users[msg.sender].currPairing] */\n      dup1\n        /* \"contracts/deris.sol\":9984:9989  users */\n      dup1\n        /* \"contracts/deris.sol\":9984:10001  users[msg.sender] */\n      0x00\n        /* \"contracts/deris.sol\":9990:10000  msg.sender */\n      caller\n        /* \"contracts/deris.sol\":9984:10001  users[msg.sender] */\n      0xffffffffffffffffffffffffffffffffffffffff\n      and\n      0xffffffffffffffffffffffffffffffffffffffff\n      and\n      dup2\n      mstore\n      0x20\n      add\n      swap1\n      dup2\n      mstore\n      0x20\n      add\n      0x00\n      keccak256\n        /* \"contracts/deris.sol\":9984:10013  users[msg.sender].currPairing */\n      0x02\n      add\n      0x01\n      swap1\n      sload\n      swap1\n      0x0100\n      exp\n      swap1\n      div\n      0xffffffffffffffffffffffffffffffffffffffff\n      and\n        /* \"contracts/deris.sol\":9978:10014  users[users[msg.sender].currPairing] */\n      0xffffffffffffffffffffffffffffffffffffffff\n      and\n      0xffffffffffffffffffffffffffffffffffffffff\n      and\n      dup2\n      mstore\n      0x20\n      add\n      swap1\n      dup2\n      mstore\n      0x20\n      add\n      0x00\n      keccak256\n        /* \"contracts/deris.sol\":9978:10021  users[users[msg.sender].currPairing].number */\n      0x01\n      add\n      sload\n        /* \"contracts/deris.sol\":10023:10024  0 */\n      0x00\n        /* \"contracts/deris.sol\":9945:10025  undone(users[msg.sender].number, users[users[msg.sender].currPairing].number, 0) */\n      mload(0x40)\n      tag_163\n      swap4\n      swap3\n      swap2\n      swap1\n      tag_164\n      jump\t// in\n    tag_163:\n      mload(0x40)\n      dup1\n      swap2\n      sub\n      swap1\n      log1\n        /* \"contracts/deris.sol\":10039:10056  reset(msg.sender) */\n      tag_165\n        /* \"contracts/deris.sol\":10045:10055  msg.sender */\n      caller\n        /* \"contracts/deris.sol\":10039:10044  reset */\n      tag_166\n        /* \"contracts/deris.sol\":10039:10056  reset(msg.sender) */\n      jump\t// in\n    tag_165:\n        /* \"contracts/deris.sol\":9833:11379  if(users[msg.sender].inProgress == true){... */\n      jump(tag_167)\n    tag_160:\n        /* \"contracts/deris.sol\":10124:10136  Status.RIDER */\n      0x01\n        /* \"contracts/deris.sol\":10097:10136  users[msg.sender].state == Status.RIDER */\n      0x02\n      dup2\n      gt\n      iszero\n      tag_168\n      jumpi\n      tag_169\n      tag_63\n      jump\t// in\n    tag_169:\n    tag_168:\n        /* \"contracts/deris.sol\":10097:10102  users */\n      0x00\n        /* \"contracts/deris.sol\":10097:10114  users[msg.sender] */\n      dup1\n        /* \"contracts/deris.sol\":10103:10113  msg.sender */\n      caller\n        /* \"contracts/deris.sol\":10097:10114  users[msg.sender] */\n      0xffffffffffffffffffffffffffffffffffffffff\n      and\n      0xffffffffffffffffffffffffffffffffffffffff\n      and\n      dup2\n      mstore\n      0x20\n      add\n      swap1\n      dup2\n      mstore\n      0x20\n      add\n      0x00\n      keccak256\n        /* \"contracts/deris.sol\":10097:10120  users[msg.sender].state */\n      0x02\n      add\n      0x00\n      swap1\n      sload\n      swap1\n      0x0100\n      exp\n      swap1\n      div\n      0xff\n      and\n        /* \"contracts/deris.sol\":10097:10136  users[msg.sender].state == Status.RIDER */\n      0x02\n      dup2\n      gt\n      iszero\n      tag_170\n      jumpi\n      tag_171\n      tag_63\n      jump\t// in\n    tag_171:\n    tag_170:\n      eq\n        /* \"contracts/deris.sol\":10094:11369  if(users[msg.sender].state == Status.RIDER){... */\n      iszero\n      tag_172\n      jumpi\n        /* \"contracts/deris.sol\":10191:10196  false */\n      0x00\n        /* \"contracts/deris.sol\":10158:10196  users[msg.sender].driverArrived==false */\n      iszero\n      iszero\n        /* \"contracts/deris.sol\":10158:10163  users */\n      0x00\n        /* \"contracts/deris.sol\":10158:10175  users[msg.sender] */\n      dup1\n        /* \"contracts/deris.sol\":10164:10174  msg.sender */\n      caller\n        /* \"contracts/deris.sol\":10158:10175  users[msg.sender] */\n      0xffffffffffffffffffffffffffffffffffffffff\n      and\n      0xffffffffffffffffffffffffffffffffffffffff\n      and\n      dup2\n      mstore\n      0x20\n      add\n      swap1\n      dup2\n      mstore\n      0x20\n      add\n      0x00\n      keccak256\n        /* \"contracts/deris.sol\":10158:10189  users[msg.sender].driverArrived */\n      0x08\n      add\n      0x00\n      swap1\n      sload\n      swap1\n      0x0100\n      exp\n      swap1\n      div\n      0xff\n      and\n        /* \"contracts/deris.sol\":10158:10196  users[msg.sender].driverArrived==false */\n      iszero\n      iszero\n      eq\n        /* \"contracts/deris.sol\":10158:10245  users[msg.sender].driverArrived==false && block.timestamp>users[msg.sender].arrivalTime */\n      dup1\n      iszero\n      tag_173\n      jumpi\n      pop\n        /* \"contracts/deris.sol\":10216:10221  users */\n      0x00\n        /* \"contracts/deris.sol\":10216:10233  users[msg.sender] */\n      dup1\n        /* \"contracts/deris.sol\":10222:10232  msg.sender */\n      caller\n        /* \"contracts/deris.sol\":10216:10233  users[msg.sender] */\n      0xffffffffffffffffffffffffffffffffffffffff\n      and\n      0xffffffffffffffffffffffffffffffffffffffff\n      and\n      dup2\n      mstore\n      0x20\n      add\n      swap1\n      dup2\n      mstore\n      0x20\n      add\n      0x00\n      keccak256\n        /* \"contracts/deris.sol\":10216:10245  users[msg.sender].arrivalTime */\n      0x07\n      add\n      sload\n        /* \"contracts/deris.sol\":10200:10215  block.timestamp */\n      timestamp\n        /* \"contracts/deris.sol\":10200:10245  block.timestamp>users[msg.sender].arrivalTime */\n      gt\n        /* \"contracts/deris.sol\":10158:10245  users[msg.sender].driverArrived==false && block.timestamp>users[msg.sender].arrivalTime */\n    tag_173:\n        /* \"contracts/deris.sol\":10155:10729  if(users[msg.sender].driverArrived==false && block.timestamp>users[msg.sender].arrivalTime){... */\n      iszero\n      tag_174\n      jumpi\n        /* \"contracts/deris.sol\":10276:10286  msg.sender */\n      caller\n        /* \"contracts/deris.sol\":10268:10296  payable(msg.sender).transfer */\n      0xffffffffffffffffffffffffffffffffffffffff\n      and\n        /* \"contracts/deris.sol\":10268:10307  payable(msg.sender).transfer(msg.value) */\n      0x08fc\n        /* \"contracts/deris.sol\":10297:10306  msg.value */\n      callvalue\n        /* \"contracts/deris.sol\":10268:10307  payable(msg.sender).transfer(msg.value) */\n      swap1\n      dup2\n      iszero\n      mul\n      swap1\n      mload(0x40)\n      0x00\n      mload(0x40)\n      dup1\n      dup4\n      sub\n      dup2\n      dup6\n      dup9\n      dup9\n      call\n      swap4\n      pop\n      pop\n      pop\n      pop\n      iszero\n      dup1\n      iszero\n      tag_176\n      jumpi\n      returndatasize\n      0x00\n      dup1\n      returndatacopy\n      revert(0x00, returndatasize)\n    tag_176:\n      pop\n        /* \"contracts/deris.sol\":10334:10414  undone(users[msg.sender].number, users[users[msg.sender].currPairing].number, 0) */\n      0x5b1b690b017b49e02e426b145ec66a70f4259c7a0a7bfb5609363922cec65eef\n        /* \"contracts/deris.sol\":10341:10346  users */\n      0x00\n        /* \"contracts/deris.sol\":10341:10358  users[msg.sender] */\n      dup1\n        /* \"contracts/deris.sol\":10347:10357  msg.sender */\n      caller\n        /* \"contracts/deris.sol\":10341:10358  users[msg.sender] */\n      0xffffffffffffffffffffffffffffffffffffffff\n      and\n      0xffffffffffffffffffffffffffffffffffffffff\n      and\n      dup2\n      mstore\n      0x20\n      add\n      swap1\n      dup2\n      mstore\n      0x20\n      add\n      0x00\n      keccak256\n        /* \"contracts/deris.sol\":10341:10365  users[msg.sender].number */\n      0x01\n      add\n      sload\n        /* \"contracts/deris.sol\":10367:10372  users */\n      0x00\n        /* \"contracts/deris.sol\":10367:10403  users[users[msg.sender].currPairing] */\n      dup1\n        /* \"contracts/deris.sol\":10373:10378  users */\n      dup1\n        /* \"contracts/deris.sol\":10373:10390  users[msg.sender] */\n      0x00\n        /* \"contracts/deris.sol\":10379:10389  msg.sender */\n      caller\n        /* \"contracts/deris.sol\":10373:10390  users[msg.sender] */\n      0xffffffffffffffffffffffffffffffffffffffff\n      and\n      0xffffffffffffffffffffffffffffffffffffffff\n      and\n      dup2\n      mstore\n      0x20\n      add\n      swap1\n      dup2\n      mstore\n      0x20\n      add\n      0x00\n      keccak256\n        /* \"contracts/deris.sol\":10373:10402  users[msg.sender].currPairing */\n      0x02\n      add\n      0x01\n      swap1\n      sload\n      swap1\n      0x0100\n      exp\n      swap1\n      div\n      0xffffffffffffffffffffffffffffffffffffffff\n      and\n        /* \"contracts/deris.sol\":10367:10403  users[users[msg.sender].currPairing] */\n      0xffffffffffffffffffffffffffffffffffffffff\n      and\n      0xffffffffffffffffffffffffffffffffffffffff\n      and\n      dup2\n      mstore\n      0x20\n      add\n      swap1\n      dup2\n      mstore\n      0x20\n      add\n      0x00\n      keccak256\n        /* \"contracts/deris.sol\":10367:10410  users[users[msg.sender].currPairing].number */\n      0x01\n      add\n      sload\n        /* \"contracts/deris.sol\":10412:10413  0 */\n      0x00\n        /* \"contracts/deris.sol\":10334:10414  undone(users[msg.sender].number, users[users[msg.sender].currPairing].number, 0) */\n      mload(0x40)\n      tag_177\n      swap4\n      swap3\n      swap2\n      swap1\n      tag_164\n      jump\t// in\n    tag_177:\n      mload(0x40)\n      dup1\n      swap2\n      sub\n      swap1\n      log1\n        /* \"contracts/deris.sol\":10436:10453  reset(msg.sender) */\n      tag_178\n        /* \"contracts/deris.sol\":10442:10452  msg.sender */\n      caller\n        /* \"contracts/deris.sol\":10436:10441  reset */\n      tag_166\n        /* \"contracts/deris.sol\":10436:10453  reset(msg.sender) */\n      jump\t// in\n    tag_178:\n        /* \"contracts/deris.sol\":10155:10729  if(users[msg.sender].driverArrived==false && block.timestamp>users[msg.sender].arrivalTime){... */\n      jump(tag_179)\n    tag_174:\n        /* \"contracts/deris.sol\":10506:10511  users */\n      0x00\n        /* \"contracts/deris.sol\":10506:10523  users[msg.sender] */\n      dup1\n        /* \"contracts/deris.sol\":10512:10522  msg.sender */\n      caller\n        /* \"contracts/deris.sol\":10506:10523  users[msg.sender] */\n      0xffffffffffffffffffffffffffffffffffffffff\n      and\n      0xffffffffffffffffffffffffffffffffffffffff\n      and\n      dup2\n      mstore\n      0x20\n      add\n      swap1\n      dup2\n      mstore\n      0x20\n      add\n      0x00\n      keccak256\n        /* \"contracts/deris.sol\":10506:10535  users[msg.sender].currPairing */\n      0x02\n      add\n      0x01\n      swap1\n      sload\n      swap1\n      0x0100\n      exp\n      swap1\n      div\n      0xffffffffffffffffffffffffffffffffffffffff\n      and\n        /* \"contracts/deris.sol\":10498:10545  payable(users[msg.sender].currPairing).transfer */\n      0xffffffffffffffffffffffffffffffffffffffff\n      and\n        /* \"contracts/deris.sol\":10498:10556  payable(users[msg.sender].currPairing).transfer(msg.value) */\n      0x08fc\n        /* \"contracts/deris.sol\":10546:10555  msg.value */\n      callvalue\n        /* \"contracts/deris.sol\":10498:10556  payable(users[msg.sender].currPairing).transfer(msg.value) */\n      swap1\n      dup2\n      iszero\n      mul\n      swap1\n      mload(0x40)\n      0x00\n      mload(0x40)\n      dup1\n      dup4\n      sub\n      dup2\n      dup6\n      dup9\n      dup9\n      call\n      swap4\n      pop\n      pop\n      pop\n      pop\n      iszero\n      dup1\n      iszero\n      tag_181\n      jumpi\n      returndatasize\n      0x00\n      dup1\n      returndatacopy\n      revert(0x00, returndatasize)\n    tag_181:\n      pop\n        /* \"contracts/deris.sol\":10583:10671  undone(users[msg.sender].number, users[users[msg.sender].currPairing].number, msg.value) */\n      0x5b1b690b017b49e02e426b145ec66a70f4259c7a0a7bfb5609363922cec65eef\n        /* \"contracts/deris.sol\":10590:10595  users */\n      0x00\n        /* \"contracts/deris.sol\":10590:10607  users[msg.sender] */\n      dup1\n        /* \"contracts/deris.sol\":10596:10606  msg.sender */\n      caller\n        /* \"contracts/deris.sol\":10590:10607  users[msg.sender] */\n      0xffffffffffffffffffffffffffffffffffffffff\n      and\n      0xffffffffffffffffffffffffffffffffffffffff\n      and\n      dup2\n      mstore\n      0x20\n      add\n      swap1\n      dup2\n      mstore\n      0x20\n      add\n      0x00\n      keccak256\n        /* \"contracts/deris.sol\":10590:10614  users[msg.sender].number */\n      0x01\n      add\n      sload\n        /* \"contracts/deris.sol\":10616:10621  users */\n      0x00\n        /* \"contracts/deris.sol\":10616:10652  users[users[msg.sender].currPairing] */\n      dup1\n        /* \"contracts/deris.sol\":10622:10627  users */\n      dup1\n        /* \"contracts/deris.sol\":10622:10639  users[msg.sender] */\n      0x00\n        /* \"contracts/deris.sol\":10628:10638  msg.sender */\n      caller\n        /* \"contracts/deris.sol\":10622:10639  users[msg.sender] */\n      0xffffffffffffffffffffffffffffffffffffffff\n      and\n      0xffffffffffffffffffffffffffffffffffffffff\n      and\n      dup2\n      mstore\n      0x20\n      add\n      swap1\n      dup2\n      mstore\n      0x20\n      add\n      0x00\n      keccak256\n        /* \"contracts/deris.sol\":10622:10651  users[msg.sender].currPairing */\n      0x02\n      add\n      0x01\n      swap1\n      sload\n      swap1\n      0x0100\n      exp\n      swap1\n      div\n      0xffffffffffffffffffffffffffffffffffffffff\n      and\n        /* \"contracts/deris.sol\":10616:10652  users[users[msg.sender].currPairing] */\n      0xffffffffffffffffffffffffffffffffffffffff\n      and\n      0xffffffffffffffffffffffffffffffffffffffff\n      and\n      dup2\n      mstore\n      0x20\n      add\n      swap1\n      dup2\n      mstore\n      0x20\n      add\n      0x00\n      keccak256\n        /* \"contracts/deris.sol\":10616:10659  users[users[msg.sender].currPairing].number */\n      0x01\n      add\n      sload\n        /* \"contracts/deris.sol\":10661:10670  msg.value */\n      callvalue\n        /* \"contracts/deris.sol\":10583:10671  undone(users[msg.sender].number, users[users[msg.sender].currPairing].number, msg.value) */\n      mload(0x40)\n      tag_182\n      swap4\n      swap3\n      swap2\n      swap1\n      tag_183\n      jump\t// in\n    tag_182:\n      mload(0x40)\n      dup1\n      swap2\n      sub\n      swap1\n      log1\n        /* \"contracts/deris.sol\":10693:10710  reset(msg.sender) */\n      tag_184\n        /* \"contracts/deris.sol\":10699:10709  msg.sender */\n      caller\n        /* \"contracts/deris.sol\":10693:10698  reset */\n      tag_166\n        /* \"contracts/deris.sol\":10693:10710  reset(msg.sender) */\n      jump\t// in\n    tag_184:\n        /* \"contracts/deris.sol\":10155:10729  if(users[msg.sender].driverArrived==false && block.timestamp>users[msg.sender].arrivalTime){... */\n    tag_179:\n        /* \"contracts/deris.sol\":10094:11369  if(users[msg.sender].state == Status.RIDER){... */\n      jump(tag_185)\n    tag_172:\n        /* \"contracts/deris.sol\":10801:10805  true */\n      0x01\n        /* \"contracts/deris.sol\":10768:10805  users[msg.sender].driverArrived==true */\n      iszero\n      iszero\n        /* \"contracts/deris.sol\":10768:10773  users */\n      0x00\n        /* \"contracts/deris.sol\":10768:10785  users[msg.sender] */\n      dup1\n        /* \"contracts/deris.sol\":10774:10784  msg.sender */\n      caller\n        /* \"contracts/deris.sol\":10768:10785  users[msg.sender] */\n      0xffffffffffffffffffffffffffffffffffffffff\n      and\n      0xffffffffffffffffffffffffffffffffffffffff\n      and\n      dup2\n      mstore\n      0x20\n      add\n      swap1\n      dup2\n      mstore\n      0x20\n      add\n      0x00\n      keccak256\n        /* \"contracts/deris.sol\":10768:10799  users[msg.sender].driverArrived */\n      0x08\n      add\n      0x00\n      swap1\n      sload\n      swap1\n      0x0100\n      exp\n      swap1\n      div\n      0xff\n      and\n        /* \"contracts/deris.sol\":10768:10805  users[msg.sender].driverArrived==true */\n      iszero\n      iszero\n      eq\n        /* \"contracts/deris.sol\":10768:10854  users[msg.sender].driverArrived==true && block.timestamp>users[msg.sender].arrivalTime */\n      dup1\n      iszero\n      tag_186\n      jumpi\n      pop\n        /* \"contracts/deris.sol\":10825:10830  users */\n      0x00\n        /* \"contracts/deris.sol\":10825:10842  users[msg.sender] */\n      dup1\n        /* \"contracts/deris.sol\":10831:10841  msg.sender */\n      caller\n        /* \"contracts/deris.sol\":10825:10842  users[msg.sender] */\n      0xffffffffffffffffffffffffffffffffffffffff\n      and\n      0xffffffffffffffffffffffffffffffffffffffff\n      and\n      dup2\n      mstore\n      0x20\n      add\n      swap1\n      dup2\n      mstore\n      0x20\n      add\n      0x00\n      keccak256\n        /* \"contracts/deris.sol\":10825:10854  users[msg.sender].arrivalTime */\n      0x07\n      add\n      sload\n        /* \"contracts/deris.sol\":10809:10824  block.timestamp */\n      timestamp\n        /* \"contracts/deris.sol\":10809:10854  block.timestamp>users[msg.sender].arrivalTime */\n      gt\n        /* \"contracts/deris.sol\":10768:10854  users[msg.sender].driverArrived==true && block.timestamp>users[msg.sender].arrivalTime */\n    tag_186:\n        /* \"contracts/deris.sol\":10765:11338  if(users[msg.sender].driverArrived==true && block.timestamp>users[msg.sender].arrivalTime){... */\n      iszero\n      tag_187\n      jumpi\n        /* \"contracts/deris.sol\":10885:10895  msg.sender */\n      caller\n        /* \"contracts/deris.sol\":10877:10905  payable(msg.sender).transfer */\n      0xffffffffffffffffffffffffffffffffffffffff\n      and\n        /* \"contracts/deris.sol\":10877:10916  payable(msg.sender).transfer(msg.value) */\n      0x08fc\n        /* \"contracts/deris.sol\":10906:10915  msg.value */\n      callvalue\n        /* \"contracts/deris.sol\":10877:10916  payable(msg.sender).transfer(msg.value) */\n      swap1\n      dup2\n      iszero\n      mul\n      swap1\n      mload(0x40)\n      0x00\n      mload(0x40)\n      dup1\n      dup4\n      sub\n      dup2\n      dup6\n      dup9\n      dup9\n      call\n      swap4\n      pop\n      pop\n      pop\n      pop\n      iszero\n      dup1\n      iszero\n      tag_189\n      jumpi\n      returndatasize\n      0x00\n      dup1\n      returndatacopy\n      revert(0x00, returndatasize)\n    tag_189:\n      pop\n        /* \"contracts/deris.sol\":10943:11023  undone(users[msg.sender].number, users[users[msg.sender].currPairing].number, 0) */\n      0x5b1b690b017b49e02e426b145ec66a70f4259c7a0a7bfb5609363922cec65eef\n        /* \"contracts/deris.sol\":10950:10955  users */\n      0x00\n        /* \"contracts/deris.sol\":10950:10967  users[msg.sender] */\n      dup1\n        /* \"contracts/deris.sol\":10956:10966  msg.sender */\n      caller\n        /* \"contracts/deris.sol\":10950:10967  users[msg.sender] */\n      0xffffffffffffffffffffffffffffffffffffffff\n      and\n      0xffffffffffffffffffffffffffffffffffffffff\n      and\n      dup2\n      mstore\n      0x20\n      add\n      swap1\n      dup2\n      mstore\n      0x20\n      add\n      0x00\n      keccak256\n        /* \"contracts/deris.sol\":10950:10974  users[msg.sender].number */\n      0x01\n      add\n      sload\n        /* \"contracts/deris.sol\":10976:10981  users */\n      0x00\n        /* \"contracts/deris.sol\":10976:11012  users[users[msg.sender].currPairing] */\n      dup1\n        /* \"contracts/deris.sol\":10982:10987  users */\n      dup1\n        /* \"contracts/deris.sol\":10982:10999  users[msg.sender] */\n      0x00\n        /* \"contracts/deris.sol\":10988:10998  msg.sender */\n      caller\n        /* \"contracts/deris.sol\":10982:10999  users[msg.sender] */\n      0xffffffffffffffffffffffffffffffffffffffff\n      and\n      0xffffffffffffffffffffffffffffffffffffffff\n      and\n      dup2\n      mstore\n      0x20\n      add\n      swap1\n      dup2\n      mstore\n      0x20\n      add\n      0x00\n      keccak256\n        /* \"contracts/deris.sol\":10982:11011  users[msg.sender].currPairing */\n      0x02\n      add\n      0x01\n      swap1\n      sload\n      swap1\n      0x0100\n      exp\n      swap1\n      div\n      0xffffffffffffffffffffffffffffffffffffffff\n      and\n        /* \"contracts/deris.sol\":10976:11012  users[users[msg.sender].currPairing] */\n      0xffffffffffffffffffffffffffffffffffffffff\n      and\n      0xffffffffffffffffffffffffffffffffffffffff\n      and\n      dup2\n      mstore\n      0x20\n      add\n      swap1\n      dup2\n      mstore\n      0x20\n      add\n      0x00\n      keccak256\n        /* \"contracts/deris.sol\":10976:11019  users[users[msg.sender].currPairing].number */\n      0x01\n      add\n      sload\n        /* \"contracts/deris.sol\":11021:11022  0 */\n      0x00\n        /* \"contracts/deris.sol\":10943:11023  undone(users[msg.sender].number, users[users[msg.sender].currPairing].number, 0) */\n      mload(0x40)\n      tag_190\n      swap4\n      swap3\n      swap2\n      swap1\n      tag_164\n      jump\t// in\n    tag_190:\n      mload(0x40)\n      dup1\n      swap2\n      sub\n      swap1\n      log1\n        /* \"contracts/deris.sol\":11045:11062  reset(msg.sender) */\n      tag_191\n        /* \"contracts/deris.sol\":11051:11061  msg.sender */\n      caller\n        /* \"contracts/deris.sol\":11045:11050  reset */\n      tag_166\n        /* \"contracts/deris.sol\":11045:11062  reset(msg.sender) */\n      jump\t// in\n    tag_191:\n        /* \"contracts/deris.sol\":10765:11338  if(users[msg.sender].driverArrived==true && block.timestamp>users[msg.sender].arrivalTime){... */\n      jump(tag_192)\n    tag_187:\n        /* \"contracts/deris.sol\":11115:11120  users */\n      0x00\n        /* \"contracts/deris.sol\":11115:11132  users[msg.sender] */\n      dup1\n        /* \"contracts/deris.sol\":11121:11131  msg.sender */\n      caller\n        /* \"contracts/deris.sol\":11115:11132  users[msg.sender] */\n      0xffffffffffffffffffffffffffffffffffffffff\n      and\n      0xffffffffffffffffffffffffffffffffffffffff\n      and\n      dup2\n      mstore\n      0x20\n      add\n      swap1\n      dup2\n      mstore\n      0x20\n      add\n      0x00\n      keccak256\n        /* \"contracts/deris.sol\":11115:11144  users[msg.sender].currPairing */\n      0x02\n      add\n      0x01\n      swap1\n      sload\n      swap1\n      0x0100\n      exp\n      swap1\n      div\n      0xffffffffffffffffffffffffffffffffffffffff\n      and\n        /* \"contracts/deris.sol\":11107:11154  payable(users[msg.sender].currPairing).transfer */\n      0xffffffffffffffffffffffffffffffffffffffff\n      and\n        /* \"contracts/deris.sol\":11107:11165  payable(users[msg.sender].currPairing).transfer(msg.value) */\n      0x08fc\n        /* \"contracts/deris.sol\":11155:11164  msg.value */\n      callvalue\n        /* \"contracts/deris.sol\":11107:11165  payable(users[msg.sender].currPairing).transfer(msg.value) */\n      swap1\n      dup2\n      iszero\n      mul\n      swap1\n      mload(0x40)\n      0x00\n      mload(0x40)\n      dup1\n      dup4\n      sub\n      dup2\n      dup6\n      dup9\n      dup9\n      call\n      swap4\n      pop\n      pop\n      pop\n      pop\n      iszero\n      dup1\n      iszero\n      tag_194\n      jumpi\n      returndatasize\n      0x00\n      dup1\n      returndatacopy\n      revert(0x00, returndatasize)\n    tag_194:\n      pop\n        /* \"contracts/deris.sol\":11192:11280  undone(users[msg.sender].number, users[users[msg.sender].currPairing].number, msg.value) */\n      0x5b1b690b017b49e02e426b145ec66a70f4259c7a0a7bfb5609363922cec65eef\n        /* \"contracts/deris.sol\":11199:11204  users */\n      0x00\n        /* \"contracts/deris.sol\":11199:11216  users[msg.sender] */\n      dup1\n        /* \"contracts/deris.sol\":11205:11215  msg.sender */\n      caller\n        /* \"contracts/deris.sol\":11199:11216  users[msg.sender] */\n      0xffffffffffffffffffffffffffffffffffffffff\n      and\n      0xffffffffffffffffffffffffffffffffffffffff\n      and\n      dup2\n      mstore\n      0x20\n      add\n      swap1\n      dup2\n      mstore\n      0x20\n      add\n      0x00\n      keccak256\n        /* \"contracts/deris.sol\":11199:11223  users[msg.sender].number */\n      0x01\n      add\n      sload\n        /* \"contracts/deris.sol\":11225:11230  users */\n      0x00\n        /* \"contracts/deris.sol\":11225:11261  users[users[msg.sender].currPairing] */\n      dup1\n        /* \"contracts/deris.sol\":11231:11236  users */\n      dup1\n        /* \"contracts/deris.sol\":11231:11248  users[msg.sender] */\n      0x00\n        /* \"contracts/deris.sol\":11237:11247  msg.sender */\n      caller\n        /* \"contracts/deris.sol\":11231:11248  users[msg.sender] */\n      0xffffffffffffffffffffffffffffffffffffffff\n      and\n      0xffffffffffffffffffffffffffffffffffffffff\n      and\n      dup2\n      mstore\n      0x20\n      add\n      swap1\n      dup2\n      mstore\n      0x20\n      add\n      0x00\n      keccak256\n        /* \"contracts/deris.sol\":11231:11260  users[msg.sender].currPairing */\n      0x02\n      add\n      0x01\n      swap1\n      sload\n      swap1\n      0x0100\n      exp\n      swap1\n      div\n      0xffffffffffffffffffffffffffffffffffffffff\n      and\n        /* \"contracts/deris.sol\":11225:11261  users[users[msg.sender].currPairing] */\n      0xffffffffffffffffffffffffffffffffffffffff\n      and\n      0xffffffffffffffffffffffffffffffffffffffff\n      and\n      dup2\n      mstore\n      0x20\n      add\n      swap1\n      dup2\n      mstore\n      0x20\n      add\n      0x00\n      keccak256\n        /* \"contracts/deris.sol\":11225:11268  users[users[msg.sender].currPairing].number */\n      0x01\n      add\n      sload\n        /* \"contracts/deris.sol\":11270:11279  msg.value */\n      callvalue\n        /* \"contracts/deris.sol\":11192:11280  undone(users[msg.sender].number, users[users[msg.sender].currPairing].number, msg.value) */\n      mload(0x40)\n      tag_195\n      swap4\n      swap3\n      swap2\n      swap1\n      tag_183\n      jump\t// in\n    tag_195:\n      mload(0x40)\n      dup1\n      swap2\n      sub\n      swap1\n      log1\n        /* \"contracts/deris.sol\":11302:11319  reset(msg.sender) */\n      tag_196\n        /* \"contracts/deris.sol\":11308:11318  msg.sender */\n      caller\n        /* \"contracts/deris.sol\":11302:11307  reset */\n      tag_166\n        /* \"contracts/deris.sol\":11302:11319  reset(msg.sender) */\n      jump\t// in\n    tag_196:\n        /* \"contracts/deris.sol\":10765:11338  if(users[msg.sender].driverArrived==true && block.timestamp>users[msg.sender].arrivalTime){... */\n    tag_192:\n        /* \"contracts/deris.sol\":10094:11369  if(users[msg.sender].state == Status.RIDER){... */\n    tag_185:\n        /* \"contracts/deris.sol\":9833:11379  if(users[msg.sender].inProgress == true){... */\n    tag_167:\n        /* \"contracts/deris.sol\":9428:11385  function userReset() public payable{... */\n      jump\t// out\n        /* \"contracts/deris.sol\":1756:2962  function driveRequest() public{... */\n    tag_25:\n        /* \"contracts/deris.sol\":1927:1932  false */\n      0x00\n        /* \"contracts/deris.sol\":1899:1932  users[msg.sender].isUser == false */\n      iszero\n      iszero\n        /* \"contracts/deris.sol\":1899:1904  users */\n      0x00\n        /* \"contracts/deris.sol\":1899:1916  users[msg.sender] */\n      dup1\n        /* \"contracts/deris.sol\":1905:1915  msg.sender */\n      caller\n        /* \"contracts/deris.sol\":1899:1916  users[msg.sender] */\n      0xffffffffffffffffffffffffffffffffffffffff\n      and\n      0xffffffffffffffffffffffffffffffffffffffff\n      and\n      dup2\n      mstore\n      0x20\n      add\n      swap1\n      dup2\n      mstore\n      0x20\n      add\n      0x00\n      keccak256\n        /* \"contracts/deris.sol\":1899:1923  users[msg.sender].isUser */\n      0x00\n      add\n      0x00\n      swap1\n      sload\n      swap1\n      0x0100\n      exp\n      swap1\n      div\n      0xff\n      and\n        /* \"contracts/deris.sol\":1899:1932  users[msg.sender].isUser == false */\n      iszero\n      iszero\n      eq\n        /* \"contracts/deris.sol\":1896:2956  if(users[msg.sender].isUser == false){... */\n      iszero\n      tag_198\n      jumpi\n        /* \"contracts/deris.sol\":1947:1955  userList */\n      0x01\n        /* \"contracts/deris.sol\":1961:1971  msg.sender */\n      caller\n        /* \"contracts/deris.sol\":1947:1972  userList.push(msg.sender) */\n      swap1\n      dup1\n      0x01\n      dup2\n      sload\n      add\n      dup1\n      dup3\n      sstore\n      dup1\n      swap2\n      pop\n      pop\n      0x01\n      swap1\n      sub\n      swap1\n      0x00\n      mstore\n      keccak256(0x00, 0x20)\n      add\n      0x00\n      swap1\n      swap2\n      swap1\n      swap2\n      swap1\n      swap2\n      0x0100\n      exp\n      dup2\n      sload\n      dup2\n      0xffffffffffffffffffffffffffffffffffffffff\n      mul\n      not\n      and\n      swap1\n      dup4\n      0xffffffffffffffffffffffffffffffffffffffff\n      and\n      mul\n      or\n      swap1\n      sstore\n      pop\n        /* \"contracts/deris.sol\":2006:2447  user({... */\n      mload(0x40)\n      dup1\n      0x0160\n      add\n      0x40\n      mstore\n      dup1\n        /* \"contracts/deris.sol\":2037:2041  true */\n      0x01\n        /* \"contracts/deris.sol\":2006:2447  user({... */\n      iszero\n      iszero\n      dup2\n      mstore\n      0x20\n      add\n        /* \"contracts/deris.sol\":2083:2084  1 */\n      0x01\n        /* \"contracts/deris.sol\":2067:2075  userList */\n      dup1\n        /* \"contracts/deris.sol\":2067:2082  userList.length */\n      dup1\n      sload\n      swap1\n      pop\n        /* \"contracts/deris.sol\":2067:2084  userList.length-1 */\n      tag_200\n      swap2\n      swap1\n      tag_201\n      jump\t// in\n    tag_200:\n        /* \"contracts/deris.sol\":2006:2447  user({... */\n      dup2\n      mstore\n      0x20\n      add\n        /* \"contracts/deris.sol\":2109:2122  Status.DRIVER */\n      0x02\n        /* \"contracts/deris.sol\":2006:2447  user({... */\n      dup1\n      dup2\n      gt\n      iszero\n      tag_202\n      jumpi\n      tag_203\n      tag_63\n      jump\t// in\n    tag_203:\n    tag_202:\n      dup2\n      mstore\n      0x20\n      add\n        /* \"contracts/deris.sol\":2161:2162  0 */\n      0x00\n        /* \"contracts/deris.sol\":2006:2447  user({... */\n      0xffffffffffffffffffffffffffffffffffffffff\n      and\n      dup2\n      mstore\n      0x20\n      add\n        /* \"contracts/deris.sol\":2189:2219  coordinates({lat: 0, long: 0}) */\n      mload(0x40)\n      dup1\n      0x40\n      add\n      0x40\n      mstore\n      dup1\n        /* \"contracts/deris.sol\":2207:2208  0 */\n      0x00\n        /* \"contracts/deris.sol\":2189:2219  coordinates({lat: 0, long: 0}) */\n      dup2\n      mstore\n      0x20\n      add\n        /* \"contracts/deris.sol\":2216:2217  0 */\n      0x00\n        /* \"contracts/deris.sol\":2189:2219  coordinates({lat: 0, long: 0}) */\n      dup2\n      mstore\n      pop\n        /* \"contracts/deris.sol\":2006:2447  user({... */\n      dup2\n      mstore\n      0x20\n      add\n        /* \"contracts/deris.sol\":2246:2276  coordinates({lat: 0, long: 0}) */\n      mload(0x40)\n      dup1\n      0x40\n      add\n      0x40\n      mstore\n      dup1\n        /* \"contracts/deris.sol\":2264:2265  0 */\n      0x00\n        /* \"contracts/deris.sol\":2246:2276  coordinates({lat: 0, long: 0}) */\n      dup2\n      mstore\n      0x20\n      add\n        /* \"contracts/deris.sol\":2273:2274  0 */\n      0x00\n        /* \"contracts/deris.sol\":2246:2276  coordinates({lat: 0, long: 0}) */\n      dup2\n      mstore\n      pop\n        /* \"contracts/deris.sol\":2006:2447  user({... */\n      dup2\n      mstore\n      0x20\n      add\n        /* \"contracts/deris.sol\":2307:2308  0 */\n      0x00\n        /* \"contracts/deris.sol\":2006:2447  user({... */\n      dup2\n      mstore\n      0x20\n      add\n        /* \"contracts/deris.sol\":2341:2345  true */\n      0x01\n        /* \"contracts/deris.sol\":2006:2447  user({... */\n      iszero\n      iszero\n      dup2\n      mstore\n      0x20\n      add\n        /* \"contracts/deris.sol\":2375:2380  false */\n      0x00\n        /* \"contracts/deris.sol\":2006:2447  user({... */\n      iszero\n      iszero\n      dup2\n      mstore\n      0x20\n      add\n        /* \"contracts/deris.sol\":2406:2407  0 */\n      0x00\n        /* \"contracts/deris.sol\":2006:2447  user({... */\n      dup2\n      mstore\n      0x20\n      add\n        /* \"contracts/deris.sol\":2431:2432  0 */\n      0x00\n        /* \"contracts/deris.sol\":2006:2447  user({... */\n      dup2\n      mstore\n      pop\n        /* \"contracts/deris.sol\":1986:1991  users */\n      0x00\n        /* \"contracts/deris.sol\":1986:2003  users[msg.sender] */\n      dup1\n        /* \"contracts/deris.sol\":1992:2002  msg.sender */\n      caller\n        /* \"contracts/deris.sol\":1986:2003  users[msg.sender] */\n      0xffffffffffffffffffffffffffffffffffffffff\n      and\n      0xffffffffffffffffffffffffffffffffffffffff\n      and\n      dup2\n      mstore\n      0x20\n      add\n      swap1\n      dup2\n      mstore\n      0x20\n      add\n      0x00\n      keccak256\n        /* \"contracts/deris.sol\":1986:2447  users[msg.sender] = user({... */\n      0x00\n      dup3\n      add\n      mload\n      dup2\n      0x00\n      add\n      exp(0x0100, 0x00)\n      dup2\n      sload\n      dup2\n      0xff\n      mul\n      not\n      and\n      swap1\n      dup4\n      iszero\n      iszero\n      mul\n      or\n      swap1\n      sstore\n      pop\n      0x20\n      dup3\n      add\n      mload\n      dup2\n      0x01\n      add\n      sstore\n      0x40\n      dup3\n      add\n      mload\n      dup2\n      0x02\n      add\n      exp(0x0100, 0x00)\n      dup2\n      sload\n      dup2\n      0xff\n      mul\n      not\n      and\n      swap1\n      dup4\n      0x02\n      dup2\n      gt\n      iszero\n      tag_204\n      jumpi\n      tag_205\n      tag_63\n      jump\t// in\n    tag_205:\n    tag_204:\n      mul\n      or\n      swap1\n      sstore\n      pop\n      0x60\n      dup3\n      add\n      mload\n      dup2\n      0x02\n      add\n      exp(0x0100, 0x01)\n      dup2\n      sload\n      dup2\n      0xffffffffffffffffffffffffffffffffffffffff\n      mul\n      not\n      and\n      swap1\n      dup4\n      0xffffffffffffffffffffffffffffffffffffffff\n      and\n      mul\n      or\n      swap1\n      sstore\n      pop\n      0x80\n      dup3\n      add\n      mload\n      dup2\n      0x03\n      add\n      0x00\n      dup3\n      add\n      mload\n      dup2\n      0x00\n      add\n      sstore\n      0x20\n      dup3\n      add\n      mload\n      dup2\n      0x01\n      add\n      sstore\n      pop\n      pop\n      0xa0\n      dup3\n      add\n      mload\n      dup2\n      0x05\n      add\n      0x00\n      dup3\n      add\n      mload\n      dup2\n      0x00\n      add\n      sstore\n      0x20\n      dup3\n      add\n      mload\n      dup2\n      0x01\n      add\n      sstore\n      pop\n      pop\n      0xc0\n      dup3\n      add\n      mload\n      dup2\n      0x07\n      add\n      sstore\n      0xe0\n      dup3\n      add\n      mload\n      dup2\n      0x08\n      add\n      exp(0x0100, 0x00)\n      dup2\n      sload\n      dup2\n      0xff\n      mul\n      not\n      and\n      swap1\n      dup4\n      iszero\n      iszero\n      mul\n      or\n      swap1\n      sstore\n      pop\n      0x0100\n      dup3\n      add\n      mload\n      dup2\n      0x08\n      add\n      exp(0x0100, 0x01)\n      dup2\n      sload\n      dup2\n      0xff\n      mul\n      not\n      and\n      swap1\n      dup4\n      iszero\n      iszero\n      mul\n      or\n      swap1\n      sstore\n      pop\n      0x0120\n      dup3\n      add\n      mload\n      dup2\n      0x09\n      add\n      sstore\n      0x0140\n      dup3\n      add\n      mload\n      dup2\n      0x0a\n      add\n      sstore\n      swap1\n      pop\n      pop\n        /* \"contracts/deris.sol\":1896:2956  if(users[msg.sender].isUser == false){... */\n      jump(tag_206)\n    tag_198:\n        /* \"contracts/deris.sol\":2502:2515  Status.DRIVER */\n      0x02\n        /* \"contracts/deris.sol\":2476:2481  users */\n      0x00\n        /* \"contracts/deris.sol\":2476:2493  users[msg.sender] */\n      dup1\n        /* \"contracts/deris.sol\":2482:2492  msg.sender */\n      caller\n        /* \"contracts/deris.sol\":2476:2493  users[msg.sender] */\n      0xffffffffffffffffffffffffffffffffffffffff\n      and\n      0xffffffffffffffffffffffffffffffffffffffff\n      and\n      dup2\n      mstore\n      0x20\n      add\n      swap1\n      dup2\n      mstore\n      0x20\n      add\n      0x00\n      keccak256\n        /* \"contracts/deris.sol\":2476:2499  users[msg.sender].state */\n      0x02\n      add\n      0x00\n        /* \"contracts/deris.sol\":2476:2515  users[msg.sender].state = Status.DRIVER */\n      0x0100\n      exp\n      dup2\n      sload\n      dup2\n      0xff\n      mul\n      not\n      and\n      swap1\n      dup4\n      0x02\n      dup2\n      gt\n      iszero\n      tag_207\n      jumpi\n      tag_208\n      tag_63\n      jump\t// in\n    tag_208:\n    tag_207:\n      mul\n      or\n      swap1\n      sstore\n      pop\n        /* \"contracts/deris.sol\":2569:2570  0 */\n      0x00\n        /* \"contracts/deris.sol\":2529:2534  users */\n      dup1\n        /* \"contracts/deris.sol\":2529:2546  users[msg.sender] */\n      0x00\n        /* \"contracts/deris.sol\":2535:2545  msg.sender */\n      caller\n        /* \"contracts/deris.sol\":2529:2546  users[msg.sender] */\n      0xffffffffffffffffffffffffffffffffffffffff\n      and\n      0xffffffffffffffffffffffffffffffffffffffff\n      and\n      dup2\n      mstore\n      0x20\n      add\n      swap1\n      dup2\n      mstore\n      0x20\n      add\n      0x00\n      keccak256\n        /* \"contracts/deris.sol\":2529:2558  users[msg.sender].currPairing */\n      0x02\n      add\n      0x01\n        /* \"contracts/deris.sol\":2529:2571  users[msg.sender].currPairing = address(0) */\n      0x0100\n      exp\n      dup2\n      sload\n      dup2\n      0xffffffffffffffffffffffffffffffffffffffff\n      mul\n      not\n      and\n      swap1\n      dup4\n      0xffffffffffffffffffffffffffffffffffffffff\n      and\n      mul\n      or\n      swap1\n      sstore\n      pop\n        /* \"contracts/deris.sol\":2612:2642  coordinates({lat: 0, long: 0}) */\n      mload(0x40)\n      dup1\n      0x40\n      add\n      0x40\n      mstore\n      dup1\n        /* \"contracts/deris.sol\":2630:2631  0 */\n      0x00\n        /* \"contracts/deris.sol\":2612:2642  coordinates({lat: 0, long: 0}) */\n      dup2\n      mstore\n      0x20\n      add\n        /* \"contracts/deris.sol\":2639:2640  0 */\n      0x00\n        /* \"contracts/deris.sol\":2612:2642  coordinates({lat: 0, long: 0}) */\n      dup2\n      mstore\n      pop\n        /* \"contracts/deris.sol\":2585:2590  users */\n      0x00\n        /* \"contracts/deris.sol\":2585:2602  users[msg.sender] */\n      dup1\n        /* \"contracts/deris.sol\":2591:2601  msg.sender */\n      caller\n        /* \"contracts/deris.sol\":2585:2602  users[msg.sender] */\n      0xffffffffffffffffffffffffffffffffffffffff\n      and\n      0xffffffffffffffffffffffffffffffffffffffff\n      and\n      dup2\n      mstore\n      0x20\n      add\n      swap1\n      dup2\n      mstore\n      0x20\n      add\n      0x00\n      keccak256\n        /* \"contracts/deris.sol\":2585:2609  users[msg.sender].pickup */\n      0x03\n      add\n        /* \"contracts/deris.sol\":2585:2642  users[msg.sender].pickup = coordinates({lat: 0, long: 0}) */\n      0x00\n      dup3\n      add\n      mload\n      dup2\n      0x00\n      add\n      sstore\n      0x20\n      dup3\n      add\n      mload\n      dup2\n      0x01\n      add\n      sstore\n      swap1\n      pop\n      pop\n        /* \"contracts/deris.sol\":2684:2714  coordinates({lat: 0, long: 0}) */\n      mload(0x40)\n      dup1\n      0x40\n      add\n      0x40\n      mstore\n      dup1\n        /* \"contracts/deris.sol\":2702:2703  0 */\n      0x00\n        /* \"contracts/deris.sol\":2684:2714  coordinates({lat: 0, long: 0}) */\n      dup2\n      mstore\n      0x20\n      add\n        /* \"contracts/deris.sol\":2711:2712  0 */\n      0x00\n        /* \"contracts/deris.sol\":2684:2714  coordinates({lat: 0, long: 0}) */\n      dup2\n      mstore\n      pop\n        /* \"contracts/deris.sol\":2656:2661  users */\n      0x00\n        /* \"contracts/deris.sol\":2656:2673  users[msg.sender] */\n      dup1\n        /* \"contracts/deris.sol\":2662:2672  msg.sender */\n      caller\n        /* \"contracts/deris.sol\":2656:2673  users[msg.sender] */\n      0xffffffffffffffffffffffffffffffffffffffff\n      and\n      0xffffffffffffffffffffffffffffffffffffffff\n      and\n      dup2\n      mstore\n      0x20\n      add\n      swap1\n      dup2\n      mstore\n      0x20\n      add\n      0x00\n      keccak256\n        /* \"contracts/deris.sol\":2656:2681  users[msg.sender].dropoff */\n      0x05\n      add\n        /* \"contracts/deris.sol\":2656:2714  users[msg.sender].dropoff = coordinates({lat: 0, long: 0}) */\n      0x00\n      dup3\n      add\n      mload\n      dup2\n      0x00\n      add\n      sstore\n      0x20\n      dup3\n      add\n      mload\n      dup2\n      0x01\n      add\n      sstore\n      swap1\n      pop\n      pop\n        /* \"contracts/deris.sol\":2755:2756  0 */\n      0x00\n        /* \"contracts/deris.sol\":2728:2733  users */\n      dup1\n        /* \"contracts/deris.sol\":2728:2745  users[msg.sender] */\n      0x00\n        /* \"contracts/deris.sol\":2734:2744  msg.sender */\n      caller\n        /* \"contracts/deris.sol\":2728:2745  users[msg.sender] */\n      0xffffffffffffffffffffffffffffffffffffffff\n      and\n      0xffffffffffffffffffffffffffffffffffffffff\n      and\n      dup2\n      mstore\n      0x20\n      add\n      swap1\n      dup2\n      mstore\n      0x20\n      add\n      0x00\n      keccak256\n        /* \"contracts/deris.sol\":2728:2752  users[msg.sender].escrow */\n      0x09\n      add\n        /* \"contracts/deris.sol\":2728:2756  users[msg.sender].escrow = 0 */\n      dup2\n      swap1\n      sstore\n      pop\n        /* \"contracts/deris.sol\":2802:2803  0 */\n      0x00\n        /* \"contracts/deris.sol\":2770:2775  users */\n      dup1\n        /* \"contracts/deris.sol\":2770:2787  users[msg.sender] */\n      0x00\n        /* \"contracts/deris.sol\":2776:2786  msg.sender */\n      caller\n        /* \"contracts/deris.sol\":2770:2787  users[msg.sender] */\n      0xffffffffffffffffffffffffffffffffffffffff\n      and\n      0xffffffffffffffffffffffffffffffffffffffff\n      and\n      dup2\n      mstore\n      0x20\n      add\n      swap1\n      dup2\n      mstore\n      0x20\n      add\n      0x00\n      keccak256\n        /* \"contracts/deris.sol\":2770:2799  users[msg.sender].arrivalTime */\n      0x07\n      add\n        /* \"contracts/deris.sol\":2770:2803  users[msg.sender].arrivalTime = 0 */\n      dup2\n      swap1\n      sstore\n      pop\n        /* \"contracts/deris.sol\":2851:2855  true */\n      0x01\n        /* \"contracts/deris.sol\":2817:2822  users */\n      0x00\n        /* \"contracts/deris.sol\":2817:2834  users[msg.sender] */\n      dup1\n        /* \"contracts/deris.sol\":2823:2833  msg.sender */\n      caller\n        /* \"contracts/deris.sol\":2817:2834  users[msg.sender] */\n      0xffffffffffffffffffffffffffffffffffffffff\n      and\n      0xffffffffffffffffffffffffffffffffffffffff\n      and\n      dup2\n      mstore\n      0x20\n      add\n      swap1\n      dup2\n      mstore\n      0x20\n      add\n      0x00\n      keccak256\n        /* \"contracts/deris.sol\":2817:2848  users[msg.sender].driverArrived */\n      0x08\n      add\n      0x00\n        /* \"contracts/deris.sol\":2817:2855  users[msg.sender].driverArrived = true */\n      0x0100\n      exp\n      dup2\n      sload\n      dup2\n      0xff\n      mul\n      not\n      and\n      swap1\n      dup4\n      iszero\n      iszero\n      mul\n      or\n      swap1\n      sstore\n      pop\n        /* \"contracts/deris.sol\":2900:2905  false */\n      0x00\n        /* \"contracts/deris.sol\":2869:2874  users */\n      dup1\n        /* \"contracts/deris.sol\":2869:2886  users[msg.sender] */\n      0x00\n        /* \"contracts/deris.sol\":2875:2885  msg.sender */\n      caller\n        /* \"contracts/deris.sol\":2869:2886  users[msg.sender] */\n      0xffffffffffffffffffffffffffffffffffffffff\n      and\n      0xffffffffffffffffffffffffffffffffffffffff\n      and\n      dup2\n      mstore\n      0x20\n      add\n      swap1\n      dup2\n      mstore\n      0x20\n      add\n      0x00\n      keccak256\n        /* \"contracts/deris.sol\":2869:2897  users[msg.sender].inProgress */\n      0x08\n      add\n      0x01\n        /* \"contracts/deris.sol\":2869:2905  users[msg.sender].inProgress = false */\n      0x0100\n      exp\n      dup2\n      sload\n      dup2\n      0xff\n      mul\n      not\n      and\n      swap1\n      dup4\n      iszero\n      iszero\n      mul\n      or\n      swap1\n      sstore\n      pop\n        /* \"contracts/deris.sol\":2944:2945  0 */\n      0x00\n        /* \"contracts/deris.sol\":2919:2924  users */\n      dup1\n        /* \"contracts/deris.sol\":2919:2936  users[msg.sender] */\n      0x00\n        /* \"contracts/deris.sol\":2925:2935  msg.sender */\n      caller\n        /* \"contracts/deris.sol\":2919:2936  users[msg.sender] */\n      0xffffffffffffffffffffffffffffffffffffffff\n      and\n      0xffffffffffffffffffffffffffffffffffffffff\n      and\n      dup2\n      mstore\n      0x20\n      add\n      swap1\n      dup2\n      mstore\n      0x20\n      add\n      0x00\n      keccak256\n        /* \"contracts/deris.sol\":2919:2941  users[msg.sender].paid */\n      0x0a\n      add\n        /* \"contracts/deris.sol\":2919:2945  users[msg.sender].paid = 0 */\n      dup2\n      swap1\n      sstore\n      pop\n        /* \"contracts/deris.sol\":1896:2956  if(users[msg.sender].isUser == false){... */\n    tag_206:\n        /* \"contracts/deris.sol\":1756:2962  function driveRequest() public{... */\n      jump\t// out\n        /* \"contracts/deris.sol\":997:1023  address [] public userList */\n    tag_30:\n      0x01\n      dup2\n      dup2\n      sload\n      dup2\n      lt\n      tag_209\n      jumpi\n      0x00\n      dup1\n      revert\n    tag_209:\n      swap1\n      0x00\n      mstore\n      keccak256(0x00, 0x20)\n      add\n      0x00\n      swap2\n      pop\n      sload\n      swap1\n      0x0100\n      exp\n      swap1\n      div\n      0xffffffffffffffffffffffffffffffffffffffff\n      and\n      dup2\n      jump\t// out\n        /* \"contracts/deris.sol\":6677:7760  function informRider(int256[] memory loc) public{... */\n    tag_37:\n        /* \"contracts/deris.sol\":6832:6836  true */\n      0x01\n        /* \"contracts/deris.sol\":6806:6836  users[msg.sender].isUser==true */\n      iszero\n      iszero\n        /* \"contracts/deris.sol\":6806:6811  users */\n      0x00\n        /* \"contracts/deris.sol\":6806:6823  users[msg.sender] */\n      dup1\n        /* \"contracts/deris.sol\":6812:6822  msg.sender */\n      caller\n        /* \"contracts/deris.sol\":6806:6823  users[msg.sender] */\n      0xffffffffffffffffffffffffffffffffffffffff\n      and\n      0xffffffffffffffffffffffffffffffffffffffff\n      and\n      dup2\n      mstore\n      0x20\n      add\n      swap1\n      dup2\n      mstore\n      0x20\n      add\n      0x00\n      keccak256\n        /* \"contracts/deris.sol\":6806:6830  users[msg.sender].isUser */\n      0x00\n      add\n      0x00\n      swap1\n      sload\n      swap1\n      0x0100\n      exp\n      swap1\n      div\n      0xff\n      and\n        /* \"contracts/deris.sol\":6806:6836  users[msg.sender].isUser==true */\n      iszero\n      iszero\n      eq\n        /* \"contracts/deris.sol\":6798:6874  require(users[msg.sender].isUser==true, \"Need to be a user to inform rider\") */\n      tag_212\n      jumpi\n      mload(0x40)\n      0x08c379a000000000000000000000000000000000000000000000000000000000\n      dup2\n      mstore\n      0x04\n      add\n      tag_213\n      swap1\n      tag_214\n      jump\t// in\n    tag_213:\n      mload(0x40)\n      dup1\n      swap2\n      sub\n      swap1\n      revert\n    tag_212:\n        /* \"contracts/deris.sol\":6917:6930  Status.DRIVER */\n      0x02\n        /* \"contracts/deris.sol\":6892:6930  users[msg.sender].state==Status.DRIVER */\n      dup1\n      dup2\n      gt\n      iszero\n      tag_215\n      jumpi\n      tag_216\n      tag_63\n      jump\t// in\n    tag_216:\n    tag_215:\n        /* \"contracts/deris.sol\":6892:6897  users */\n      0x00\n        /* \"contracts/deris.sol\":6892:6909  users[msg.sender] */\n      dup1\n        /* \"contracts/deris.sol\":6898:6908  msg.sender */\n      caller\n        /* \"contracts/deris.sol\":6892:6909  users[msg.sender] */\n      0xffffffffffffffffffffffffffffffffffffffff\n      and\n      0xffffffffffffffffffffffffffffffffffffffff\n      and\n      dup2\n      mstore\n      0x20\n      add\n      swap1\n      dup2\n      mstore\n      0x20\n      add\n      0x00\n      keccak256\n        /* \"contracts/deris.sol\":6892:6915  users[msg.sender].state */\n      0x02\n      add\n      0x00\n      swap1\n      sload\n      swap1\n      0x0100\n      exp\n      swap1\n      div\n      0xff\n      and\n        /* \"contracts/deris.sol\":6892:6930  users[msg.sender].state==Status.DRIVER */\n      0x02\n      dup2\n      gt\n      iszero\n      tag_217\n      jumpi\n      tag_218\n      tag_63\n      jump\t// in\n    tag_218:\n    tag_217:\n      eq\n        /* \"contracts/deris.sol\":6884:6982  require(users[msg.sender].state==Status.DRIVER, \"User needs to be in driver mode to inform rider\") */\n      tag_219\n      jumpi\n      mload(0x40)\n      0x08c379a000000000000000000000000000000000000000000000000000000000\n      dup2\n      mstore\n      0x04\n      add\n      tag_220\n      swap1\n      tag_221\n      jump\t// in\n    tag_220:\n      mload(0x40)\n      dup1\n      swap2\n      sub\n      swap1\n      revert\n    tag_219:\n        /* \"contracts/deris.sol\":7041:7042  0 */\n      0x00\n        /* \"contracts/deris.sol\":7000:7043  users[msg.sender].currPairing != address(0) */\n      0xffffffffffffffffffffffffffffffffffffffff\n      and\n        /* \"contracts/deris.sol\":7000:7005  users */\n      0x00\n        /* \"contracts/deris.sol\":7000:7017  users[msg.sender] */\n      dup1\n        /* \"contracts/deris.sol\":7006:7016  msg.sender */\n      caller\n        /* \"contracts/deris.sol\":7000:7017  users[msg.sender] */\n      0xffffffffffffffffffffffffffffffffffffffff\n      and\n      0xffffffffffffffffffffffffffffffffffffffff\n      and\n      dup2\n      mstore\n      0x20\n      add\n      swap1\n      dup2\n      mstore\n      0x20\n      add\n      0x00\n      keccak256\n        /* \"contracts/deris.sol\":7000:7029  users[msg.sender].currPairing */\n      0x02\n      add\n      0x01\n      swap1\n      sload\n      swap1\n      0x0100\n      exp\n      swap1\n      div\n      0xffffffffffffffffffffffffffffffffffffffff\n      and\n        /* \"contracts/deris.sol\":7000:7043  users[msg.sender].currPairing != address(0) */\n      0xffffffffffffffffffffffffffffffffffffffff\n      and\n      eq\n      iszero\n        /* \"contracts/deris.sol\":6992:7096  require(users[msg.sender].currPairing != address(0), \"Driver needs to have an assigned rider to inform\") */\n      tag_222\n      jumpi\n      mload(0x40)\n      0x08c379a000000000000000000000000000000000000000000000000000000000\n      dup2\n      mstore\n      0x04\n      add\n      tag_223\n      swap1\n      tag_224\n      jump\t// in\n    tag_223:\n      mload(0x40)\n      dup1\n      swap2\n      sub\n      swap1\n      revert\n    tag_222:\n        /* \"contracts/deris.sol\":7131:7136  users */\n      0x00\n        /* \"contracts/deris.sol\":7131:7148  users[msg.sender] */\n      dup1\n        /* \"contracts/deris.sol\":7137:7147  msg.sender */\n      caller\n        /* \"contracts/deris.sol\":7131:7148  users[msg.sender] */\n      0xffffffffffffffffffffffffffffffffffffffff\n      and\n      0xffffffffffffffffffffffffffffffffffffffff\n      and\n      dup2\n      mstore\n      0x20\n      add\n      swap1\n      dup2\n      mstore\n      0x20\n      add\n      0x00\n      keccak256\n        /* \"contracts/deris.sol\":7131:7160  users[msg.sender].arrivalTime */\n      0x07\n      add\n      sload\n        /* \"contracts/deris.sol\":7114:7129  block.timestamp */\n      timestamp\n        /* \"contracts/deris.sol\":7114:7160  block.timestamp<=users[msg.sender].arrivalTime */\n      gt\n      iszero\n        /* \"contracts/deris.sol\":7106:7191  require(block.timestamp<=users[msg.sender].arrivalTime, \"You are too late to arrive\") */\n      tag_225\n      jumpi\n      mload(0x40)\n      0x08c379a000000000000000000000000000000000000000000000000000000000\n      dup2\n      mstore\n      0x04\n      add\n      tag_226\n      swap1\n      tag_227\n      jump\t// in\n    tag_226:\n      mload(0x40)\n      dup1\n      swap2\n      sub\n      swap1\n      revert\n    tag_225:\n        /* \"contracts/deris.sol\":7201:7209  int dist */\n      0x00\n        /* \"contracts/deris.sol\":7425:7430  users */\n      dup1\n        /* \"contracts/deris.sol\":7425:7461  users[users[msg.sender].currPairing] */\n      0x00\n        /* \"contracts/deris.sol\":7431:7436  users */\n      dup1\n        /* \"contracts/deris.sol\":7431:7448  users[msg.sender] */\n      0x00\n        /* \"contracts/deris.sol\":7437:7447  msg.sender */\n      caller\n        /* \"contracts/deris.sol\":7431:7448  users[msg.sender] */\n      0xffffffffffffffffffffffffffffffffffffffff\n      and\n      0xffffffffffffffffffffffffffffffffffffffff\n      and\n      dup2\n      mstore\n      0x20\n      add\n      swap1\n      dup2\n      mstore\n      0x20\n      add\n      0x00\n      keccak256\n        /* \"contracts/deris.sol\":7431:7460  users[msg.sender].currPairing */\n      0x02\n      add\n      0x01\n      swap1\n      sload\n      swap1\n      0x0100\n      exp\n      swap1\n      div\n      0xffffffffffffffffffffffffffffffffffffffff\n      and\n        /* \"contracts/deris.sol\":7425:7461  users[users[msg.sender].currPairing] */\n      0xffffffffffffffffffffffffffffffffffffffff\n      and\n      0xffffffffffffffffffffffffffffffffffffffff\n      and\n      dup2\n      mstore\n      0x20\n      add\n      swap1\n      dup2\n      mstore\n      0x20\n      add\n      0x00\n      keccak256\n        /* \"contracts/deris.sol\":7425:7468  users[users[msg.sender].currPairing].pickup */\n      0x03\n      add\n        /* \"contracts/deris.sol\":7425:7473  users[users[msg.sender].currPairing].pickup.long */\n      0x01\n      add\n      sload\n        /* \"contracts/deris.sol\":7416:7419  loc */\n      dup3\n        /* \"contracts/deris.sol\":7420:7421  1 */\n      0x01\n        /* \"contracts/deris.sol\":7416:7422  loc[1] */\n      dup2\n      mload\n      dup2\n      lt\n      tag_228\n      jumpi\n      tag_229\n      tag_74\n      jump\t// in\n    tag_229:\n    tag_228:\n      0x20\n      mul\n      0x20\n      add\n      add\n      mload\n        /* \"contracts/deris.sol\":7416:7473  loc[1] - users[users[msg.sender].currPairing].pickup.long */\n      tag_230\n      swap2\n      swap1\n      tag_231\n      jump\t// in\n    tag_230:\n        /* \"contracts/deris.sol\":7363:7368  users */\n      0x00\n        /* \"contracts/deris.sol\":7363:7399  users[users[msg.sender].currPairing] */\n      dup1\n        /* \"contracts/deris.sol\":7369:7374  users */\n      dup1\n        /* \"contracts/deris.sol\":7369:7386  users[msg.sender] */\n      0x00\n        /* \"contracts/deris.sol\":7375:7385  msg.sender */\n      caller\n        /* \"contracts/deris.sol\":7369:7386  users[msg.sender] */\n      0xffffffffffffffffffffffffffffffffffffffff\n      and\n      0xffffffffffffffffffffffffffffffffffffffff\n      and\n      dup2\n      mstore\n      0x20\n      add\n      swap1\n      dup2\n      mstore\n      0x20\n      add\n      0x00\n      keccak256\n        /* \"contracts/deris.sol\":7369:7398  users[msg.sender].currPairing */\n      0x02\n      add\n      0x01\n      swap1\n      sload\n      swap1\n      0x0100\n      exp\n      swap1\n      div\n      0xffffffffffffffffffffffffffffffffffffffff\n      and\n        /* \"contracts/deris.sol\":7363:7399  users[users[msg.sender].currPairing] */\n      0xffffffffffffffffffffffffffffffffffffffff\n      and\n      0xffffffffffffffffffffffffffffffffffffffff\n      and\n      dup2\n      mstore\n      0x20\n      add\n      swap1\n      dup2\n      mstore\n      0x20\n      add\n      0x00\n      keccak256\n        /* \"contracts/deris.sol\":7363:7406  users[users[msg.sender].currPairing].pickup */\n      0x03\n      add\n        /* \"contracts/deris.sol\":7363:7411  users[users[msg.sender].currPairing].pickup.long */\n      0x01\n      add\n      sload\n        /* \"contracts/deris.sol\":7354:7357  loc */\n      dup4\n        /* \"contracts/deris.sol\":7358:7359  1 */\n      0x01\n        /* \"contracts/deris.sol\":7354:7360  loc[1] */\n      dup2\n      mload\n      dup2\n      lt\n      tag_232\n      jumpi\n      tag_233\n      tag_74\n      jump\t// in\n    tag_233:\n    tag_232:\n      0x20\n      mul\n      0x20\n      add\n      add\n      mload\n        /* \"contracts/deris.sol\":7354:7411  loc[1] - users[users[msg.sender].currPairing].pickup.long */\n      tag_234\n      swap2\n      swap1\n      tag_231\n      jump\t// in\n    tag_234:\n        /* \"contracts/deris.sol\":7353:7474  (loc[1] - users[users[msg.sender].currPairing].pickup.long) * (loc[1] - users[users[msg.sender].currPairing].pickup.long) */\n      tag_235\n      swap2\n      swap1\n      tag_236\n      jump\t// in\n    tag_235:\n        /* \"contracts/deris.sol\":7283:7288  users */\n      0x00\n        /* \"contracts/deris.sol\":7283:7319  users[users[msg.sender].currPairing] */\n      dup1\n        /* \"contracts/deris.sol\":7289:7294  users */\n      dup1\n        /* \"contracts/deris.sol\":7289:7306  users[msg.sender] */\n      0x00\n        /* \"contracts/deris.sol\":7295:7305  msg.sender */\n      caller\n        /* \"contracts/deris.sol\":7289:7306  users[msg.sender] */\n      0xffffffffffffffffffffffffffffffffffffffff\n      and\n      0xffffffffffffffffffffffffffffffffffffffff\n      and\n      dup2\n      mstore\n      0x20\n      add\n      swap1\n      dup2\n      mstore\n      0x20\n      add\n      0x00\n      keccak256\n        /* \"contracts/deris.sol\":7289:7318  users[msg.sender].currPairing */\n      0x02\n      add\n      0x01\n      swap1\n      sload\n      swap1\n      0x0100\n      exp\n      swap1\n      div\n      0xffffffffffffffffffffffffffffffffffffffff\n      and\n        /* \"contracts/deris.sol\":7283:7319  users[users[msg.sender].currPairing] */\n      0xffffffffffffffffffffffffffffffffffffffff\n      and\n      0xffffffffffffffffffffffffffffffffffffffff\n      and\n      dup2\n      mstore\n      0x20\n      add\n      swap1\n      dup2\n      mstore\n      0x20\n      add\n      0x00\n      keccak256\n        /* \"contracts/deris.sol\":7283:7326  users[users[msg.sender].currPairing].pickup */\n      0x03\n      add\n        /* \"contracts/deris.sol\":7283:7330  users[users[msg.sender].currPairing].pickup.lat */\n      0x00\n      add\n      sload\n        /* \"contracts/deris.sol\":7274:7277  loc */\n      dup4\n        /* \"contracts/deris.sol\":7278:7279  0 */\n      0x00\n        /* \"contracts/deris.sol\":7274:7280  loc[0] */\n      dup2\n      mload\n      dup2\n      lt\n      tag_237\n      jumpi\n      tag_238\n      tag_74\n      jump\t// in\n    tag_238:\n    tag_237:\n      0x20\n      mul\n      0x20\n      add\n      add\n      mload\n        /* \"contracts/deris.sol\":7274:7330  loc[0] - users[users[msg.sender].currPairing].pickup.lat */\n      tag_239\n      swap2\n      swap1\n      tag_231\n      jump\t// in\n    tag_239:\n        /* \"contracts/deris.sol\":7222:7227  users */\n      0x00\n        /* \"contracts/deris.sol\":7222:7258  users[users[msg.sender].currPairing] */\n      dup1\n        /* \"contracts/deris.sol\":7228:7233  users */\n      dup1\n        /* \"contracts/deris.sol\":7228:7245  users[msg.sender] */\n      0x00\n        /* \"contracts/deris.sol\":7234:7244  msg.sender */\n      caller\n        /* \"contracts/deris.sol\":7228:7245  users[msg.sender] */\n      0xffffffffffffffffffffffffffffffffffffffff\n      and\n      0xffffffffffffffffffffffffffffffffffffffff\n      and\n      dup2\n      mstore\n      0x20\n      add\n      swap1\n      dup2\n      mstore\n      0x20\n      add\n      0x00\n      keccak256\n        /* \"contracts/deris.sol\":7228:7257  users[msg.sender].currPairing */\n      0x02\n      add\n      0x01\n      swap1\n      sload\n      swap1\n      0x0100\n      exp\n      swap1\n      div\n      0xffffffffffffffffffffffffffffffffffffffff\n      and\n        /* \"contracts/deris.sol\":7222:7258  users[users[msg.sender].currPairing] */\n      0xffffffffffffffffffffffffffffffffffffffff\n      and\n      0xffffffffffffffffffffffffffffffffffffffff\n      and\n      dup2\n      mstore\n      0x20\n      add\n      swap1\n      dup2\n      mstore\n      0x20\n      add\n      0x00\n      keccak256\n        /* \"contracts/deris.sol\":7222:7265  users[users[msg.sender].currPairing].pickup */\n      0x03\n      add\n        /* \"contracts/deris.sol\":7222:7269  users[users[msg.sender].currPairing].pickup.lat */\n      0x00\n      add\n      sload\n        /* \"contracts/deris.sol\":7213:7216  loc */\n      dup5\n        /* \"contracts/deris.sol\":7217:7218  0 */\n      0x00\n        /* \"contracts/deris.sol\":7213:7219  loc[0] */\n      dup2\n      mload\n      dup2\n      lt\n      tag_240\n      jumpi\n      tag_241\n      tag_74\n      jump\t// in\n    tag_241:\n    tag_240:\n      0x20\n      mul\n      0x20\n      add\n      add\n      mload\n        /* \"contracts/deris.sol\":7213:7269  loc[0] - users[users[msg.sender].currPairing].pickup.lat */\n      tag_242\n      swap2\n      swap1\n      tag_231\n      jump\t// in\n    tag_242:\n        /* \"contracts/deris.sol\":7212:7331  (loc[0] - users[users[msg.sender].currPairing].pickup.lat) * (loc[0] - users[users[msg.sender].currPairing].pickup.lat) */\n      tag_243\n      swap2\n      swap1\n      tag_236\n      jump\t// in\n    tag_243:\n        /* \"contracts/deris.sol\":7212:7474  (loc[0] - users[users[msg.sender].currPairing].pickup.lat) * (loc[0] - users[users[msg.sender].currPairing].pickup.lat) ... */\n      tag_244\n      swap2\n      swap1\n      tag_245\n      jump\t// in\n    tag_244:\n        /* \"contracts/deris.sol\":7201:7474  int dist = (loc[0] - users[users[msg.sender].currPairing].pickup.lat) * (loc[0] - users[users[msg.sender].currPairing].pickup.lat) ... */\n      swap1\n      pop\n        /* \"contracts/deris.sol\":7498:7506  13623770 */\n      0xcfe1da\n        /* \"contracts/deris.sol\":7492:7496  dist */\n      dup2\n        /* \"contracts/deris.sol\":7492:7506  dist<=13623770 */\n      sgt\n      iszero\n        /* \"contracts/deris.sol\":7484:7558  require(dist<=13623770, \"You are more that 0.2 miles away from the rider\") */\n      tag_246\n      jumpi\n      mload(0x40)\n      0x08c379a000000000000000000000000000000000000000000000000000000000\n      dup2\n      mstore\n      0x04\n      add\n      tag_247\n      swap1\n      tag_248\n      jump\t// in\n    tag_247:\n      mload(0x40)\n      dup1\n      swap2\n      sub\n      swap1\n      revert\n    tag_246:\n        /* \"contracts/deris.sol\":7602:7606  true */\n      0x01\n        /* \"contracts/deris.sol\":7568:7573  users */\n      0x00\n        /* \"contracts/deris.sol\":7568:7585  users[msg.sender] */\n      dup1\n        /* \"contracts/deris.sol\":7574:7584  msg.sender */\n      caller\n        /* \"contracts/deris.sol\":7568:7585  users[msg.sender] */\n      0xffffffffffffffffffffffffffffffffffffffff\n      and\n      0xffffffffffffffffffffffffffffffffffffffff\n      and\n      dup2\n      mstore\n      0x20\n      add\n      swap1\n      dup2\n      mstore\n      0x20\n      add\n      0x00\n      keccak256\n        /* \"contracts/deris.sol\":7568:7599  users[msg.sender].driverArrived */\n      0x08\n      add\n      0x00\n        /* \"contracts/deris.sol\":7568:7606  users[msg.sender].driverArrived = true */\n      0x0100\n      exp\n      dup2\n      sload\n      dup2\n      0xff\n      mul\n      not\n      and\n      swap1\n      dup4\n      iszero\n      iszero\n      mul\n      or\n      swap1\n      sstore\n      pop\n        /* \"contracts/deris.sol\":7669:7673  true */\n      0x01\n        /* \"contracts/deris.sol\":7616:7621  users */\n      0x00\n        /* \"contracts/deris.sol\":7616:7652  users[users[msg.sender].currPairing] */\n      dup1\n        /* \"contracts/deris.sol\":7622:7627  users */\n      dup1\n        /* \"contracts/deris.sol\":7622:7639  users[msg.sender] */\n      0x00\n        /* \"contracts/deris.sol\":7628:7638  msg.sender */\n      caller\n        /* \"contracts/deris.sol\":7622:7639  users[msg.sender] */\n      0xffffffffffffffffffffffffffffffffffffffff\n      and\n      0xffffffffffffffffffffffffffffffffffffffff\n      and\n      dup2\n      mstore\n      0x20\n      add\n      swap1\n      dup2\n      mstore\n      0x20\n      add\n      0x00\n      keccak256\n        /* \"contracts/deris.sol\":7622:7651  users[msg.sender].currPairing */\n      0x02\n      add\n      0x01\n      swap1\n      sload\n      swap1\n      0x0100\n      exp\n      swap1\n      div\n      0xffffffffffffffffffffffffffffffffffffffff\n      and\n        /* \"contracts/deris.sol\":7616:7652  users[users[msg.sender].currPairing] */\n      0xffffffffffffffffffffffffffffffffffffffff\n      and\n      0xffffffffffffffffffffffffffffffffffffffff\n      and\n      dup2\n      mstore\n      0x20\n      add\n      swap1\n      dup2\n      mstore\n      0x20\n      add\n      0x00\n      keccak256\n        /* \"contracts/deris.sol\":7616:7666  users[users[msg.sender].currPairing].driverArrived */\n      0x08\n      add\n      0x00\n        /* \"contracts/deris.sol\":7616:7673  users[users[msg.sender].currPairing].driverArrived = true */\n      0x0100\n      exp\n      dup2\n      sload\n      dup2\n      0xff\n      mul\n      not\n      and\n      swap1\n      dup4\n      iszero\n      iszero\n      mul\n      or\n      swap1\n      sstore\n      pop\n        /* \"contracts/deris.sol\":7697:7753  imHere(users[users[msg.sender].currPairing].number, loc) */\n      0xfecc381fcca04c8371dac7b0998f7810a51c75d32acbb1f415ceb7215b2965b5\n        /* \"contracts/deris.sol\":7704:7709  users */\n      0x00\n        /* \"contracts/deris.sol\":7704:7740  users[users[msg.sender].currPairing] */\n      dup1\n        /* \"contracts/deris.sol\":7710:7715  users */\n      dup1\n        /* \"contracts/deris.sol\":7710:7727  users[msg.sender] */\n      0x00\n        /* \"contracts/deris.sol\":7716:7726  msg.sender */\n      caller\n        /* \"contracts/deris.sol\":7710:7727  users[msg.sender] */\n      0xffffffffffffffffffffffffffffffffffffffff\n      and\n      0xffffffffffffffffffffffffffffffffffffffff\n      and\n      dup2\n      mstore\n      0x20\n      add\n      swap1\n      dup2\n      mstore\n      0x20\n      add\n      0x00\n      keccak256\n        /* \"contracts/deris.sol\":7710:7739  users[msg.sender].currPairing */\n      0x02\n      add\n      0x01\n      swap1\n      sload\n      swap1\n      0x0100\n      exp\n      swap1\n      div\n      0xffffffffffffffffffffffffffffffffffffffff\n      and\n        /* \"contracts/deris.sol\":7704:7740  users[users[msg.sender].currPairing] */\n      0xffffffffffffffffffffffffffffffffffffffff\n      and\n      0xffffffffffffffffffffffffffffffffffffffff\n      and\n      dup2\n      mstore\n      0x20\n      add\n      swap1\n      dup2\n      mstore\n      0x20\n      add\n      0x00\n      keccak256\n        /* \"contracts/deris.sol\":7704:7747  users[users[msg.sender].currPairing].number */\n      0x01\n      add\n      sload\n        /* \"contracts/deris.sol\":7749:7752  loc */\n      dup4\n        /* \"contracts/deris.sol\":7697:7753  imHere(users[users[msg.sender].currPairing].number, loc) */\n      mload(0x40)\n      tag_249\n      swap3\n      swap2\n      swap1\n      tag_250\n      jump\t// in\n    tag_249:\n      mload(0x40)\n      dup1\n      swap2\n      sub\n      swap1\n      log1\n        /* \"contracts/deris.sol\":6725:7760  {... */\n      pop\n        /* \"contracts/deris.sol\":6677:7760  function informRider(int256[] memory loc) public{... */\n      pop\n      jump\t// out\n        /* \"contracts/deris.sol\":926:964  mapping (address => user) public users */\n    tag_42:\n      mstore(0x20, 0x00)\n      dup1\n      0x00\n      mstore\n      keccak256(0x00, 0x40)\n      0x00\n      swap2\n      pop\n      swap1\n      pop\n      dup1\n      0x00\n      add\n      0x00\n      swap1\n      sload\n      swap1\n      0x0100\n      exp\n      swap1\n      div\n      0xff\n      and\n      swap1\n      dup1\n      0x01\n      add\n      sload\n      swap1\n      dup1\n      0x02\n      add\n      0x00\n      swap1\n      sload\n      swap1\n      0x0100\n      exp\n      swap1\n      div\n      0xff\n      and\n      swap1\n      dup1\n      0x02\n      add\n      0x01\n      swap1\n      sload\n      swap1\n      0x0100\n      exp\n      swap1\n      div\n      0xffffffffffffffffffffffffffffffffffffffff\n      and\n      swap1\n      dup1\n      0x03\n      add\n      mload(0x40)\n      dup1\n      0x40\n      add\n      0x40\n      mstore\n      swap1\n      dup2\n      0x00\n      dup3\n      add\n      sload\n      dup2\n      mstore\n      0x20\n      add\n      0x01\n      dup3\n      add\n      sload\n      dup2\n      mstore\n      pop\n      pop\n      swap1\n      dup1\n      0x05\n      add\n      mload(0x40)\n      dup1\n      0x40\n      add\n      0x40\n      mstore\n      swap1\n      dup2\n      0x00\n      dup3\n      add\n      sload\n      dup2\n      mstore\n      0x20\n      add\n      0x01\n      dup3\n      add\n      sload\n      dup2\n      mstore\n      pop\n      pop\n      swap1\n      dup1\n      0x07\n      add\n      sload\n      swap1\n      dup1\n      0x08\n      add\n      0x00\n      swap1\n      sload\n      swap1\n      0x0100\n      exp\n      swap1\n      div\n      0xff\n      and\n      swap1\n      dup1\n      0x08\n      add\n      0x01\n      swap1\n      sload\n      swap1\n      0x0100\n      exp\n      swap1\n      div\n      0xff\n      and\n      swap1\n      dup1\n      0x09\n      add\n      sload\n      swap1\n      dup1\n      0x0a\n      add\n      sload\n      swap1\n      pop\n      dup12\n      jump\t// out\n        /* \"contracts/deris.sol\":7770:8939  function payDriver() public payable{... */\n    tag_46:\n        /* \"contracts/deris.sol\":7921:7925  true */\n      0x01\n        /* \"contracts/deris.sol\":7893:7925  users[msg.sender].isUser == true */\n      iszero\n      iszero\n        /* \"contracts/deris.sol\":7893:7898  users */\n      0x00\n        /* \"contracts/deris.sol\":7893:7910  users[msg.sender] */\n      dup1\n        /* \"contracts/deris.sol\":7899:7909  msg.sender */\n      caller\n        /* \"contracts/deris.sol\":7893:7910  users[msg.sender] */\n      0xffffffffffffffffffffffffffffffffffffffff\n      and\n      0xffffffffffffffffffffffffffffffffffffffff\n      and\n      dup2\n      mstore\n      0x20\n      add\n      swap1\n      dup2\n      mstore\n      0x20\n      add\n      0x00\n      keccak256\n        /* \"contracts/deris.sol\":7893:7917  users[msg.sender].isUser */\n      0x00\n      add\n      0x00\n      swap1\n      sload\n      swap1\n      0x0100\n      exp\n      swap1\n      div\n      0xff\n      and\n        /* \"contracts/deris.sol\":7893:7925  users[msg.sender].isUser == true */\n      iszero\n      iszero\n      eq\n        /* \"contracts/deris.sol\":7885:7954  require(users[msg.sender].isUser == true, \"Need to be a user to pay\") */\n      tag_252\n      jumpi\n      mload(0x40)\n      0x08c379a000000000000000000000000000000000000000000000000000000000\n      dup2\n      mstore\n      0x04\n      add\n      tag_253\n      swap1\n      tag_254\n      jump\t// in\n    tag_253:\n      mload(0x40)\n      dup1\n      swap2\n      sub\n      swap1\n      revert\n    tag_252:\n        /* \"contracts/deris.sol\":7999:8011  Status.RIDER */\n      0x01\n        /* \"contracts/deris.sol\":7972:8011  users[msg.sender].state == Status.RIDER */\n      0x02\n      dup2\n      gt\n      iszero\n      tag_255\n      jumpi\n      tag_256\n      tag_63\n      jump\t// in\n    tag_256:\n    tag_255:\n        /* \"contracts/deris.sol\":7972:7977  users */\n      0x00\n        /* \"contracts/deris.sol\":7972:7989  users[msg.sender] */\n      dup1\n        /* \"contracts/deris.sol\":7978:7988  msg.sender */\n      caller\n        /* \"contracts/deris.sol\":7972:7989  users[msg.sender] */\n      0xffffffffffffffffffffffffffffffffffffffff\n      and\n      0xffffffffffffffffffffffffffffffffffffffff\n      and\n      dup2\n      mstore\n      0x20\n      add\n      swap1\n      dup2\n      mstore\n      0x20\n      add\n      0x00\n      keccak256\n        /* \"contracts/deris.sol\":7972:7995  users[msg.sender].state */\n      0x02\n      add\n      0x00\n      swap1\n      sload\n      swap1\n      0x0100\n      exp\n      swap1\n      div\n      0xff\n      and\n        /* \"contracts/deris.sol\":7972:8011  users[msg.sender].state == Status.RIDER */\n      0x02\n      dup2\n      gt\n      iszero\n      tag_257\n      jumpi\n      tag_258\n      tag_63\n      jump\t// in\n    tag_258:\n    tag_257:\n      eq\n        /* \"contracts/deris.sol\":7964:8060  require(users[msg.sender].state == Status.RIDER, \"User needs to be in rider mode to pay driver\") */\n      tag_259\n      jumpi\n      mload(0x40)\n      0x08c379a000000000000000000000000000000000000000000000000000000000\n      dup2\n      mstore\n      0x04\n      add\n      tag_260\n      swap1\n      tag_261\n      jump\t// in\n    tag_260:\n      mload(0x40)\n      dup1\n      swap2\n      sub\n      swap1\n      revert\n    tag_259:\n        /* \"contracts/deris.sol\":8119:8120  0 */\n      0x00\n        /* \"contracts/deris.sol\":8078:8121  users[msg.sender].currPairing != address(0) */\n      0xffffffffffffffffffffffffffffffffffffffff\n      and\n        /* \"contracts/deris.sol\":8078:8083  users */\n      0x00\n        /* \"contracts/deris.sol\":8078:8095  users[msg.sender] */\n      dup1\n        /* \"contracts/deris.sol\":8084:8094  msg.sender */\n      caller\n        /* \"contracts/deris.sol\":8078:8095  users[msg.sender] */\n      0xffffffffffffffffffffffffffffffffffffffff\n      and\n      0xffffffffffffffffffffffffffffffffffffffff\n      and\n      dup2\n      mstore\n      0x20\n      add\n      swap1\n      dup2\n      mstore\n      0x20\n      add\n      0x00\n      keccak256\n        /* \"contracts/deris.sol\":8078:8107  users[msg.sender].currPairing */\n      0x02\n      add\n      0x01\n      swap1\n      sload\n      swap1\n      0x0100\n      exp\n      swap1\n      div\n      0xffffffffffffffffffffffffffffffffffffffff\n      and\n        /* \"contracts/deris.sol\":8078:8121  users[msg.sender].currPairing != address(0) */\n      0xffffffffffffffffffffffffffffffffffffffff\n      and\n      eq\n      iszero\n        /* \"contracts/deris.sol\":8070:8171  require(users[msg.sender].currPairing != address(0), \"Rider needs to have an assigned driver to pay\") */\n      tag_262\n      jumpi\n      mload(0x40)\n      0x08c379a000000000000000000000000000000000000000000000000000000000\n      dup2\n      mstore\n      0x04\n      add\n      tag_263\n      swap1\n      tag_264\n      jump\t// in\n    tag_263:\n      mload(0x40)\n      dup1\n      swap2\n      sub\n      swap1\n      revert\n    tag_262:\n        /* \"contracts/deris.sol\":8227:8232  users */\n      0x00\n        /* \"contracts/deris.sol\":8227:8244  users[msg.sender] */\n      dup1\n        /* \"contracts/deris.sol\":8233:8243  msg.sender */\n      caller\n        /* \"contracts/deris.sol\":8227:8244  users[msg.sender] */\n      0xffffffffffffffffffffffffffffffffffffffff\n      and\n      0xffffffffffffffffffffffffffffffffffffffff\n      and\n      dup2\n      mstore\n      0x20\n      add\n      swap1\n      dup2\n      mstore\n      0x20\n      add\n      0x00\n      keccak256\n        /* \"contracts/deris.sol\":8227:8251  users[msg.sender].escrow */\n      0x09\n      add\n      sload\n        /* \"contracts/deris.sol\":8214:8223  msg.value */\n      callvalue\n        /* \"contracts/deris.sol\":8189:8194  users */\n      0x00\n        /* \"contracts/deris.sol\":8189:8206  users[msg.sender] */\n      dup1\n        /* \"contracts/deris.sol\":8195:8205  msg.sender */\n      caller\n        /* \"contracts/deris.sol\":8189:8206  users[msg.sender] */\n      0xffffffffffffffffffffffffffffffffffffffff\n      and\n      0xffffffffffffffffffffffffffffffffffffffff\n      and\n      dup2\n      mstore\n      0x20\n      add\n      swap1\n      dup2\n      mstore\n      0x20\n      add\n      0x00\n      keccak256\n        /* \"contracts/deris.sol\":8189:8211  users[msg.sender].paid */\n      0x0a\n      add\n      sload\n        /* \"contracts/deris.sol\":8189:8223  users[msg.sender].paid + msg.value */\n      tag_265\n      swap2\n      swap1\n      tag_266\n      jump\t// in\n    tag_265:\n        /* \"contracts/deris.sol\":8189:8251  users[msg.sender].paid + msg.value <= users[msg.sender].escrow */\n      gt\n      iszero\n        /* \"contracts/deris.sol\":8181:8285  require(users[msg.sender].paid + msg.value <= users[msg.sender].escrow, \"Overdraft from initial escrow\") */\n      tag_267\n      jumpi\n      mload(0x40)\n      0x08c379a000000000000000000000000000000000000000000000000000000000\n      dup2\n      mstore\n      0x04\n      add\n      tag_268\n      swap1\n      tag_269\n      jump\t// in\n    tag_268:\n      mload(0x40)\n      dup1\n      swap2\n      sub\n      swap1\n      revert\n    tag_267:\n        /* \"contracts/deris.sol\":8383:8387  true */\n      0x01\n        /* \"contracts/deris.sol\":8352:8357  users */\n      0x00\n        /* \"contracts/deris.sol\":8352:8369  users[msg.sender] */\n      dup1\n        /* \"contracts/deris.sol\":8358:8368  msg.sender */\n      caller\n        /* \"contracts/deris.sol\":8352:8369  users[msg.sender] */\n      0xffffffffffffffffffffffffffffffffffffffff\n      and\n      0xffffffffffffffffffffffffffffffffffffffff\n      and\n      dup2\n      mstore\n      0x20\n      add\n      swap1\n      dup2\n      mstore\n      0x20\n      add\n      0x00\n      keccak256\n        /* \"contracts/deris.sol\":8352:8380  users[msg.sender].inProgress */\n      0x08\n      add\n      0x01\n        /* \"contracts/deris.sol\":8352:8387  users[msg.sender].inProgress = true */\n      0x0100\n      exp\n      dup2\n      sload\n      dup2\n      0xff\n      mul\n      not\n      and\n      swap1\n      dup4\n      iszero\n      iszero\n      mul\n      or\n      swap1\n      sstore\n      pop\n        /* \"contracts/deris.sol\":8447:8451  true */\n      0x01\n        /* \"contracts/deris.sol\":8397:8402  users */\n      0x00\n        /* \"contracts/deris.sol\":8397:8433  users[users[msg.sender].currPairing] */\n      dup1\n        /* \"contracts/deris.sol\":8403:8408  users */\n      dup1\n        /* \"contracts/deris.sol\":8403:8420  users[msg.sender] */\n      0x00\n        /* \"contracts/deris.sol\":8409:8419  msg.sender */\n      caller\n        /* \"contracts/deris.sol\":8403:8420  users[msg.sender] */\n      0xffffffffffffffffffffffffffffffffffffffff\n      and\n      0xffffffffffffffffffffffffffffffffffffffff\n      and\n      dup2\n      mstore\n      0x20\n      add\n      swap1\n      dup2\n      mstore\n      0x20\n      add\n      0x00\n      keccak256\n        /* \"contracts/deris.sol\":8403:8432  users[msg.sender].currPairing */\n      0x02\n      add\n      0x01\n      swap1\n      sload\n      swap1\n      0x0100\n      exp\n      swap1\n      div\n      0xffffffffffffffffffffffffffffffffffffffff\n      and\n        /* \"contracts/deris.sol\":8397:8433  users[users[msg.sender].currPairing] */\n      0xffffffffffffffffffffffffffffffffffffffff\n      and\n      0xffffffffffffffffffffffffffffffffffffffff\n      and\n      dup2\n      mstore\n      0x20\n      add\n      swap1\n      dup2\n      mstore\n      0x20\n      add\n      0x00\n      keccak256\n        /* \"contracts/deris.sol\":8397:8444  users[users[msg.sender].currPairing].inProgress */\n      0x08\n      add\n      0x01\n        /* \"contracts/deris.sol\":8397:8451  users[users[msg.sender].currPairing].inProgress = true */\n      0x0100\n      exp\n      dup2\n      sload\n      dup2\n      0xff\n      mul\n      not\n      and\n      swap1\n      dup4\n      iszero\n      iszero\n      mul\n      or\n      swap1\n      sstore\n      pop\n        /* \"contracts/deris.sol\":8478:8483  users */\n      0x00\n        /* \"contracts/deris.sol\":8478:8495  users[msg.sender] */\n      dup1\n        /* \"contracts/deris.sol\":8484:8494  msg.sender */\n      caller\n        /* \"contracts/deris.sol\":8478:8495  users[msg.sender] */\n      0xffffffffffffffffffffffffffffffffffffffff\n      and\n      0xffffffffffffffffffffffffffffffffffffffff\n      and\n      dup2\n      mstore\n      0x20\n      add\n      swap1\n      dup2\n      mstore\n      0x20\n      add\n      0x00\n      keccak256\n        /* \"contracts/deris.sol\":8478:8507  users[msg.sender].currPairing */\n      0x02\n      add\n      0x01\n      swap1\n      sload\n      swap1\n      0x0100\n      exp\n      swap1\n      div\n      0xffffffffffffffffffffffffffffffffffffffff\n      and\n        /* \"contracts/deris.sol\":8470:8517  payable(users[msg.sender].currPairing).transfer */\n      0xffffffffffffffffffffffffffffffffffffffff\n      and\n        /* \"contracts/deris.sol\":8470:8528  payable(users[msg.sender].currPairing).transfer(msg.value) */\n      0x08fc\n        /* \"contracts/deris.sol\":8518:8527  msg.value */\n      callvalue\n        /* \"contracts/deris.sol\":8470:8528  payable(users[msg.sender].currPairing).transfer(msg.value) */\n      swap1\n      dup2\n      iszero\n      mul\n      swap1\n      mload(0x40)\n      0x00\n      mload(0x40)\n      dup1\n      dup4\n      sub\n      dup2\n      dup6\n      dup9\n      dup9\n      call\n      swap4\n      pop\n      pop\n      pop\n      pop\n      iszero\n      dup1\n      iszero\n      tag_271\n      jumpi\n      returndatasize\n      0x00\n      dup1\n      returndatacopy\n      revert(0x00, returndatasize)\n    tag_271:\n      pop\n        /* \"contracts/deris.sol\":8588:8597  msg.value */\n      callvalue\n        /* \"contracts/deris.sol\":8563:8568  users */\n      0x00\n        /* \"contracts/deris.sol\":8563:8580  users[msg.sender] */\n      dup1\n        /* \"contracts/deris.sol\":8569:8579  msg.sender */\n      caller\n        /* \"contracts/deris.sol\":8563:8580  users[msg.sender] */\n      0xffffffffffffffffffffffffffffffffffffffff\n      and\n      0xffffffffffffffffffffffffffffffffffffffff\n      and\n      dup2\n      mstore\n      0x20\n      add\n      swap1\n      dup2\n      mstore\n      0x20\n      add\n      0x00\n      keccak256\n        /* \"contracts/deris.sol\":8563:8585  users[msg.sender].paid */\n      0x0a\n      add\n      sload\n        /* \"contracts/deris.sol\":8563:8597  users[msg.sender].paid + msg.value */\n      tag_272\n      swap2\n      swap1\n      tag_266\n      jump\t// in\n    tag_272:\n        /* \"contracts/deris.sol\":8538:8543  users */\n      0x00\n        /* \"contracts/deris.sol\":8538:8555  users[msg.sender] */\n      dup1\n        /* \"contracts/deris.sol\":8544:8554  msg.sender */\n      caller\n        /* \"contracts/deris.sol\":8538:8555  users[msg.sender] */\n      0xffffffffffffffffffffffffffffffffffffffff\n      and\n      0xffffffffffffffffffffffffffffffffffffffff\n      and\n      dup2\n      mstore\n      0x20\n      add\n      swap1\n      dup2\n      mstore\n      0x20\n      add\n      0x00\n      keccak256\n        /* \"contracts/deris.sol\":8538:8560  users[msg.sender].paid */\n      0x0a\n      add\n        /* \"contracts/deris.sol\":8538:8597  users[msg.sender].paid = users[msg.sender].paid + msg.value */\n      dup2\n      swap1\n      sstore\n      pop\n        /* \"contracts/deris.sol\":8612:8677  cashMoney(users[users[msg.sender].currPairing].number, msg.value) */\n      0xed8e6f0ab8a4d39cb413959065b15ac270c5baec57aee722c1268880c0b1f3d5\n        /* \"contracts/deris.sol\":8622:8627  users */\n      0x00\n        /* \"contracts/deris.sol\":8622:8658  users[users[msg.sender].currPairing] */\n      dup1\n        /* \"contracts/deris.sol\":8628:8633  users */\n      dup1\n        /* \"contracts/deris.sol\":8628:8645  users[msg.sender] */\n      0x00\n        /* \"contracts/deris.sol\":8634:8644  msg.sender */\n      caller\n        /* \"contracts/deris.sol\":8628:8645  users[msg.sender] */\n      0xffffffffffffffffffffffffffffffffffffffff\n      and\n      0xffffffffffffffffffffffffffffffffffffffff\n      and\n      dup2\n      mstore\n      0x20\n      add\n      swap1\n      dup2\n      mstore\n      0x20\n      add\n      0x00\n      keccak256\n        /* \"contracts/deris.sol\":8628:8657  users[msg.sender].currPairing */\n      0x02\n      add\n      0x01\n      swap1\n      sload\n      swap1\n      0x0100\n      exp\n      swap1\n      div\n      0xffffffffffffffffffffffffffffffffffffffff\n      and\n        /* \"contracts/deris.sol\":8622:8658  users[users[msg.sender].currPairing] */\n      0xffffffffffffffffffffffffffffffffffffffff\n      and\n      0xffffffffffffffffffffffffffffffffffffffff\n      and\n      dup2\n      mstore\n      0x20\n      add\n      swap1\n      dup2\n      mstore\n      0x20\n      add\n      0x00\n      keccak256\n        /* \"contracts/deris.sol\":8622:8665  users[users[msg.sender].currPairing].number */\n      0x01\n      add\n      sload\n        /* \"contracts/deris.sol\":8667:8676  msg.value */\n      callvalue\n        /* \"contracts/deris.sol\":8612:8677  cashMoney(users[users[msg.sender].currPairing].number, msg.value) */\n      mload(0x40)\n      tag_273\n      swap3\n      swap2\n      swap1\n      tag_105\n      jump\t// in\n    tag_273:\n      mload(0x40)\n      dup1\n      swap2\n      sub\n      swap1\n      log1\n        /* \"contracts/deris.sol\":8717:8722  users */\n      0x00\n        /* \"contracts/deris.sol\":8717:8734  users[msg.sender] */\n      dup1\n        /* \"contracts/deris.sol\":8723:8733  msg.sender */\n      caller\n        /* \"contracts/deris.sol\":8717:8734  users[msg.sender] */\n      0xffffffffffffffffffffffffffffffffffffffff\n      and\n      0xffffffffffffffffffffffffffffffffffffffff\n      and\n      dup2\n      mstore\n      0x20\n      add\n      swap1\n      dup2\n      mstore\n      0x20\n      add\n      0x00\n      keccak256\n        /* \"contracts/deris.sol\":8717:8741  users[msg.sender].escrow */\n      0x09\n      add\n      sload\n        /* \"contracts/deris.sol\":8691:8696  users */\n      0x00\n        /* \"contracts/deris.sol\":8691:8708  users[msg.sender] */\n      dup1\n        /* \"contracts/deris.sol\":8697:8707  msg.sender */\n      caller\n        /* \"contracts/deris.sol\":8691:8708  users[msg.sender] */\n      0xffffffffffffffffffffffffffffffffffffffff\n      and\n      0xffffffffffffffffffffffffffffffffffffffff\n      and\n      dup2\n      mstore\n      0x20\n      add\n      swap1\n      dup2\n      mstore\n      0x20\n      add\n      0x00\n      keccak256\n        /* \"contracts/deris.sol\":8691:8713  users[msg.sender].paid */\n      0x0a\n      add\n      sload\n        /* \"contracts/deris.sol\":8691:8741  users[msg.sender].paid == users[msg.sender].escrow */\n      eq\n        /* \"contracts/deris.sol\":8687:8933  if (users[msg.sender].paid == users[msg.sender].escrow){... */\n      iszero\n      tag_274\n      jumpi\n        /* \"contracts/deris.sol\":8761:8841  undone(users[msg.sender].number, users[users[msg.sender].currPairing].number, 0) */\n      0x5b1b690b017b49e02e426b145ec66a70f4259c7a0a7bfb5609363922cec65eef\n        /* \"contracts/deris.sol\":8768:8773  users */\n      0x00\n        /* \"contracts/deris.sol\":8768:8785  users[msg.sender] */\n      dup1\n        /* \"contracts/deris.sol\":8774:8784  msg.sender */\n      caller\n        /* \"contracts/deris.sol\":8768:8785  users[msg.sender] */\n      0xffffffffffffffffffffffffffffffffffffffff\n      and\n      0xffffffffffffffffffffffffffffffffffffffff\n      and\n      dup2\n      mstore\n      0x20\n      add\n      swap1\n      dup2\n      mstore\n      0x20\n      add\n      0x00\n      keccak256\n        /* \"contracts/deris.sol\":8768:8792  users[msg.sender].number */\n      0x01\n      add\n      sload\n        /* \"contracts/deris.sol\":8794:8799  users */\n      0x00\n        /* \"contracts/deris.sol\":8794:8830  users[users[msg.sender].currPairing] */\n      dup1\n        /* \"contracts/deris.sol\":8800:8805  users */\n      dup1\n        /* \"contracts/deris.sol\":8800:8817  users[msg.sender] */\n      0x00\n        /* \"contracts/deris.sol\":8806:8816  msg.sender */\n      caller\n        /* \"contracts/deris.sol\":8800:8817  users[msg.sender] */\n      0xffffffffffffffffffffffffffffffffffffffff\n      and\n      0xffffffffffffffffffffffffffffffffffffffff\n      and\n      dup2\n      mstore\n      0x20\n      add\n      swap1\n      dup2\n      mstore\n      0x20\n      add\n      0x00\n      keccak256\n        /* \"contracts/deris.sol\":8800:8829  users[msg.sender].currPairing */\n      0x02\n      add\n      0x01\n      swap1\n      sload\n      swap1\n      0x0100\n      exp\n      swap1\n      div\n      0xffffffffffffffffffffffffffffffffffffffff\n      and\n        /* \"contracts/deris.sol\":8794:8830  users[users[msg.sender].currPairing] */\n      0xffffffffffffffffffffffffffffffffffffffff\n      and\n      0xffffffffffffffffffffffffffffffffffffffff\n      and\n      dup2\n      mstore\n      0x20\n      add\n      swap1\n      dup2\n      mstore\n      0x20\n      add\n      0x00\n      keccak256\n        /* \"contracts/deris.sol\":8794:8837  users[users[msg.sender].currPairing].number */\n      0x01\n      add\n      sload\n        /* \"contracts/deris.sol\":8839:8840  0 */\n      0x00\n        /* \"contracts/deris.sol\":8761:8841  undone(users[msg.sender].number, users[users[msg.sender].currPairing].number, 0) */\n      mload(0x40)\n      tag_275\n      swap4\n      swap3\n      swap2\n      swap1\n      tag_164\n      jump\t// in\n    tag_275:\n      mload(0x40)\n      dup1\n      swap2\n      sub\n      swap1\n      log1\n        /* \"contracts/deris.sol\":8855:8891  reset(users[msg.sender].currPairing) */\n      tag_276\n        /* \"contracts/deris.sol\":8861:8866  users */\n      0x00\n        /* \"contracts/deris.sol\":8861:8878  users[msg.sender] */\n      dup1\n        /* \"contracts/deris.sol\":8867:8877  msg.sender */\n      caller\n        /* \"contracts/deris.sol\":8861:8878  users[msg.sender] */\n      0xffffffffffffffffffffffffffffffffffffffff\n      and\n      0xffffffffffffffffffffffffffffffffffffffff\n      and\n      dup2\n      mstore\n      0x20\n      add\n      swap1\n      dup2\n      mstore\n      0x20\n      add\n      0x00\n      keccak256\n        /* \"contracts/deris.sol\":8861:8890  users[msg.sender].currPairing */\n      0x02\n      add\n      0x01\n      swap1\n      sload\n      swap1\n      0x0100\n      exp\n      swap1\n      div\n      0xffffffffffffffffffffffffffffffffffffffff\n      and\n        /* \"contracts/deris.sol\":8855:8860  reset */\n      tag_166\n        /* \"contracts/deris.sol\":8855:8891  reset(users[msg.sender].currPairing) */\n      jump\t// in\n    tag_276:\n        /* \"contracts/deris.sol\":8905:8922  reset(msg.sender) */\n      tag_277\n        /* \"contracts/deris.sol\":8911:8921  msg.sender */\n      caller\n        /* \"contracts/deris.sol\":8905:8910  reset */\n      tag_166\n        /* \"contracts/deris.sol\":8905:8922  reset(msg.sender) */\n      jump\t// in\n    tag_277:\n        /* \"contracts/deris.sol\":8687:8933  if (users[msg.sender].paid == users[msg.sender].escrow){... */\n    tag_274:\n        /* \"contracts/deris.sol\":7770:8939  function payDriver() public payable{... */\n      jump\t// out\n        /* \"contracts/deris.sol\":2972:4587  function rideRequest(int256[] memory pick, int256[] memory drop, uint tripCost) public {... */\n    tag_51:\n        /* \"contracts/deris.sol\":3490:3495  false */\n      0x00\n        /* \"contracts/deris.sol\":3462:3495  users[msg.sender].isUser == false */\n      iszero\n      iszero\n        /* \"contracts/deris.sol\":3462:3467  users */\n      0x00\n        /* \"contracts/deris.sol\":3462:3479  users[msg.sender] */\n      dup1\n        /* \"contracts/deris.sol\":3468:3478  msg.sender */\n      caller\n        /* \"contracts/deris.sol\":3462:3479  users[msg.sender] */\n      0xffffffffffffffffffffffffffffffffffffffff\n      and\n      0xffffffffffffffffffffffffffffffffffffffff\n      and\n      dup2\n      mstore\n      0x20\n      add\n      swap1\n      dup2\n      mstore\n      0x20\n      add\n      0x00\n      keccak256\n        /* \"contracts/deris.sol\":3462:3486  users[msg.sender].isUser */\n      0x00\n      add\n      0x00\n      swap1\n      sload\n      swap1\n      0x0100\n      exp\n      swap1\n      div\n      0xff\n      and\n        /* \"contracts/deris.sol\":3462:3495  users[msg.sender].isUser == false */\n      iszero\n      iszero\n      eq\n        /* \"contracts/deris.sol\":3459:4581  if(users[msg.sender].isUser == false){... */\n      iszero\n      tag_279\n      jumpi\n        /* \"contracts/deris.sol\":3510:3518  userList */\n      0x01\n        /* \"contracts/deris.sol\":3524:3534  msg.sender */\n      caller\n        /* \"contracts/deris.sol\":3510:3535  userList.push(msg.sender) */\n      swap1\n      dup1\n      0x01\n      dup2\n      sload\n      add\n      dup1\n      dup3\n      sstore\n      dup1\n      swap2\n      pop\n      pop\n      0x01\n      swap1\n      sub\n      swap1\n      0x00\n      mstore\n      keccak256(0x00, 0x20)\n      add\n      0x00\n      swap1\n      swap2\n      swap1\n      swap2\n      swap1\n      swap2\n      0x0100\n      exp\n      dup2\n      sload\n      dup2\n      0xffffffffffffffffffffffffffffffffffffffff\n      mul\n      not\n      and\n      swap1\n      dup4\n      0xffffffffffffffffffffffffffffffffffffffff\n      and\n      mul\n      or\n      swap1\n      sstore\n      pop\n        /* \"contracts/deris.sol\":3569:4041  user({... */\n      mload(0x40)\n      dup1\n      0x0160\n      add\n      0x40\n      mstore\n      dup1\n        /* \"contracts/deris.sol\":3600:3604  true */\n      0x01\n        /* \"contracts/deris.sol\":3569:4041  user({... */\n      iszero\n      iszero\n      dup2\n      mstore\n      0x20\n      add\n        /* \"contracts/deris.sol\":3646:3647  1 */\n      0x01\n        /* \"contracts/deris.sol\":3630:3638  userList */\n      dup1\n        /* \"contracts/deris.sol\":3630:3645  userList.length */\n      dup1\n      sload\n      swap1\n      pop\n        /* \"contracts/deris.sol\":3630:3647  userList.length-1 */\n      tag_281\n      swap2\n      swap1\n      tag_201\n      jump\t// in\n    tag_281:\n        /* \"contracts/deris.sol\":3569:4041  user({... */\n      dup2\n      mstore\n      0x20\n      add\n        /* \"contracts/deris.sol\":3672:3684  Status.RIDER */\n      0x01\n        /* \"contracts/deris.sol\":3569:4041  user({... */\n      0x02\n      dup2\n      gt\n      iszero\n      tag_282\n      jumpi\n      tag_283\n      tag_63\n      jump\t// in\n    tag_283:\n    tag_282:\n      dup2\n      mstore\n      0x20\n      add\n        /* \"contracts/deris.sol\":3723:3724  0 */\n      0x00\n        /* \"contracts/deris.sol\":3569:4041  user({... */\n      0xffffffffffffffffffffffffffffffffffffffff\n      and\n      dup2\n      mstore\n      0x20\n      add\n        /* \"contracts/deris.sol\":3751:3793  coordinates({lat: pick[0], long: pick[1]}) */\n      mload(0x40)\n      dup1\n      0x40\n      add\n      0x40\n      mstore\n      dup1\n        /* \"contracts/deris.sol\":3769:3773  pick */\n      dup7\n        /* \"contracts/deris.sol\":3774:3775  0 */\n      0x00\n        /* \"contracts/deris.sol\":3769:3776  pick[0] */\n      dup2\n      mload\n      dup2\n      lt\n      tag_284\n      jumpi\n      tag_285\n      tag_74\n      jump\t// in\n    tag_285:\n    tag_284:\n      0x20\n      mul\n      0x20\n      add\n      add\n      mload\n        /* \"contracts/deris.sol\":3751:3793  coordinates({lat: pick[0], long: pick[1]}) */\n      dup2\n      mstore\n      0x20\n      add\n        /* \"contracts/deris.sol\":3784:3788  pick */\n      dup7\n        /* \"contracts/deris.sol\":3789:3790  1 */\n      0x01\n        /* \"contracts/deris.sol\":3784:3791  pick[1] */\n      dup2\n      mload\n      dup2\n      lt\n      tag_286\n      jumpi\n      tag_287\n      tag_74\n      jump\t// in\n    tag_287:\n    tag_286:\n      0x20\n      mul\n      0x20\n      add\n      add\n      mload\n        /* \"contracts/deris.sol\":3751:3793  coordinates({lat: pick[0], long: pick[1]}) */\n      dup2\n      mstore\n      pop\n        /* \"contracts/deris.sol\":3569:4041  user({... */\n      dup2\n      mstore\n      0x20\n      add\n        /* \"contracts/deris.sol\":3820:3862  coordinates({lat: drop[0], long: drop[1]}) */\n      mload(0x40)\n      dup1\n      0x40\n      add\n      0x40\n      mstore\n      dup1\n        /* \"contracts/deris.sol\":3838:3842  drop */\n      dup6\n        /* \"contracts/deris.sol\":3843:3844  0 */\n      0x00\n        /* \"contracts/deris.sol\":3838:3845  drop[0] */\n      dup2\n      mload\n      dup2\n      lt\n      tag_288\n      jumpi\n      tag_289\n      tag_74\n      jump\t// in\n    tag_289:\n    tag_288:\n      0x20\n      mul\n      0x20\n      add\n      add\n      mload\n        /* \"contracts/deris.sol\":3820:3862  coordinates({lat: drop[0], long: drop[1]}) */\n      dup2\n      mstore\n      0x20\n      add\n        /* \"contracts/deris.sol\":3853:3857  drop */\n      dup6\n        /* \"contracts/deris.sol\":3858:3859  1 */\n      0x01\n        /* \"contracts/deris.sol\":3853:3860  drop[1] */\n      dup2\n      mload\n      dup2\n      lt\n      tag_290\n      jumpi\n      tag_291\n      tag_74\n      jump\t// in\n    tag_291:\n    tag_290:\n      0x20\n      mul\n      0x20\n      add\n      add\n      mload\n        /* \"contracts/deris.sol\":3820:3862  coordinates({lat: drop[0], long: drop[1]}) */\n      dup2\n      mstore\n      pop\n        /* \"contracts/deris.sol\":3569:4041  user({... */\n      dup2\n      mstore\n      0x20\n      add\n        /* \"contracts/deris.sol\":3893:3894  0 */\n      0x00\n        /* \"contracts/deris.sol\":3569:4041  user({... */\n      dup2\n      mstore\n      0x20\n      add\n        /* \"contracts/deris.sol\":3927:3932  false */\n      0x00\n        /* \"contracts/deris.sol\":3569:4041  user({... */\n      iszero\n      iszero\n      dup2\n      mstore\n      0x20\n      add\n        /* \"contracts/deris.sol\":3962:3967  false */\n      0x00\n        /* \"contracts/deris.sol\":3569:4041  user({... */\n      iszero\n      iszero\n      dup2\n      mstore\n      0x20\n      add\n        /* \"contracts/deris.sol\":3993:4001  tripCost */\n      dup3\n        /* \"contracts/deris.sol\":3569:4041  user({... */\n      dup2\n      mstore\n      0x20\n      add\n        /* \"contracts/deris.sol\":4025:4026  0 */\n      0x00\n        /* \"contracts/deris.sol\":3569:4041  user({... */\n      dup2\n      mstore\n      pop\n        /* \"contracts/deris.sol\":3549:3554  users */\n      0x00\n        /* \"contracts/deris.sol\":3549:3566  users[msg.sender] */\n      dup1\n        /* \"contracts/deris.sol\":3555:3565  msg.sender */\n      caller\n        /* \"contracts/deris.sol\":3549:3566  users[msg.sender] */\n      0xffffffffffffffffffffffffffffffffffffffff\n      and\n      0xffffffffffffffffffffffffffffffffffffffff\n      and\n      dup2\n      mstore\n      0x20\n      add\n      swap1\n      dup2\n      mstore\n      0x20\n      add\n      0x00\n      keccak256\n        /* \"contracts/deris.sol\":3549:4041  users[msg.sender] = user({... */\n      0x00\n      dup3\n      add\n      mload\n      dup2\n      0x00\n      add\n      exp(0x0100, 0x00)\n      dup2\n      sload\n      dup2\n      0xff\n      mul\n      not\n      and\n      swap1\n      dup4\n      iszero\n      iszero\n      mul\n      or\n      swap1\n      sstore\n      pop\n      0x20\n      dup3\n      add\n      mload\n      dup2\n      0x01\n      add\n      sstore\n      0x40\n      dup3\n      add\n      mload\n      dup2\n      0x02\n      add\n      exp(0x0100, 0x00)\n      dup2\n      sload\n      dup2\n      0xff\n      mul\n      not\n      and\n      swap1\n      dup4\n      0x02\n      dup2\n      gt\n      iszero\n      tag_292\n      jumpi\n      tag_293\n      tag_63\n      jump\t// in\n    tag_293:\n    tag_292:\n      mul\n      or\n      swap1\n      sstore\n      pop\n      0x60\n      dup3\n      add\n      mload\n      dup2\n      0x02\n      add\n      exp(0x0100, 0x01)\n      dup2\n      sload\n      dup2\n      0xffffffffffffffffffffffffffffffffffffffff\n      mul\n      not\n      and\n      swap1\n      dup4\n      0xffffffffffffffffffffffffffffffffffffffff\n      and\n      mul\n      or\n      swap1\n      sstore\n      pop\n      0x80\n      dup3\n      add\n      mload\n      dup2\n      0x03\n      add\n      0x00\n      dup3\n      add\n      mload\n      dup2\n      0x00\n      add\n      sstore\n      0x20\n      dup3\n      add\n      mload\n      dup2\n      0x01\n      add\n      sstore\n      pop\n      pop\n      0xa0\n      dup3\n      add\n      mload\n      dup2\n      0x05\n      add\n      0x00\n      dup3\n      add\n      mload\n      dup2\n      0x00\n      add\n      sstore\n      0x20\n      dup3\n      add\n      mload\n      dup2\n      0x01\n      add\n      sstore\n      pop\n      pop\n      0xc0\n      dup3\n      add\n      mload\n      dup2\n      0x07\n      add\n      sstore\n      0xe0\n      dup3\n      add\n      mload\n      dup2\n      0x08\n      add\n      exp(0x0100, 0x00)\n      dup2\n      sload\n      dup2\n      0xff\n      mul\n      not\n      and\n      swap1\n      dup4\n      iszero\n      iszero\n      mul\n      or\n      swap1\n      sstore\n      pop\n      0x0100\n      dup3\n      add\n      mload\n      dup2\n      0x08\n      add\n      exp(0x0100, 0x01)\n      dup2\n      sload\n      dup2\n      0xff\n      mul\n      not\n      and\n      swap1\n      dup4\n      iszero\n      iszero\n      mul\n      or\n      swap1\n      sstore\n      pop\n      0x0120\n      dup3\n      add\n      mload\n      dup2\n      0x09\n      add\n      sstore\n      0x0140\n      dup3\n      add\n      mload\n      dup2\n      0x0a\n      add\n      sstore\n      swap1\n      pop\n      pop\n        /* \"contracts/deris.sol\":3459:4581  if(users[msg.sender].isUser == false){... */\n      jump(tag_294)\n    tag_279:\n        /* \"contracts/deris.sol\":4096:4108  Status.RIDER */\n      0x01\n        /* \"contracts/deris.sol\":4070:4075  users */\n      0x00\n        /* \"contracts/deris.sol\":4070:4087  users[msg.sender] */\n      dup1\n        /* \"contracts/deris.sol\":4076:4086  msg.sender */\n      caller\n        /* \"contracts/deris.sol\":4070:4087  users[msg.sender] */\n      0xffffffffffffffffffffffffffffffffffffffff\n      and\n      0xffffffffffffffffffffffffffffffffffffffff\n      and\n      dup2\n      mstore\n      0x20\n      add\n      swap1\n      dup2\n      mstore\n      0x20\n      add\n      0x00\n      keccak256\n        /* \"contracts/deris.sol\":4070:4093  users[msg.sender].state */\n      0x02\n      add\n      0x00\n        /* \"contracts/deris.sol\":4070:4108  users[msg.sender].state = Status.RIDER */\n      0x0100\n      exp\n      dup2\n      sload\n      dup2\n      0xff\n      mul\n      not\n      and\n      swap1\n      dup4\n      0x02\n      dup2\n      gt\n      iszero\n      tag_295\n      jumpi\n      tag_296\n      tag_63\n      jump\t// in\n    tag_296:\n    tag_295:\n      mul\n      or\n      swap1\n      sstore\n      pop\n        /* \"contracts/deris.sol\":4162:4163  0 */\n      0x00\n        /* \"contracts/deris.sol\":4122:4127  users */\n      dup1\n        /* \"contracts/deris.sol\":4122:4139  users[msg.sender] */\n      0x00\n        /* \"contracts/deris.sol\":4128:4138  msg.sender */\n      caller\n        /* \"contracts/deris.sol\":4122:4139  users[msg.sender] */\n      0xffffffffffffffffffffffffffffffffffffffff\n      and\n      0xffffffffffffffffffffffffffffffffffffffff\n      and\n      dup2\n      mstore\n      0x20\n      add\n      swap1\n      dup2\n      mstore\n      0x20\n      add\n      0x00\n      keccak256\n        /* \"contracts/deris.sol\":4122:4151  users[msg.sender].currPairing */\n      0x02\n      add\n      0x01\n        /* \"contracts/deris.sol\":4122:4164  users[msg.sender].currPairing = address(0) */\n      0x0100\n      exp\n      dup2\n      sload\n      dup2\n      0xffffffffffffffffffffffffffffffffffffffff\n      mul\n      not\n      and\n      swap1\n      dup4\n      0xffffffffffffffffffffffffffffffffffffffff\n      and\n      mul\n      or\n      swap1\n      sstore\n      pop\n        /* \"contracts/deris.sol\":4205:4247  coordinates({lat: pick[0], long: pick[1]}) */\n      mload(0x40)\n      dup1\n      0x40\n      add\n      0x40\n      mstore\n      dup1\n        /* \"contracts/deris.sol\":4223:4227  pick */\n      dup5\n        /* \"contracts/deris.sol\":4228:4229  0 */\n      0x00\n        /* \"contracts/deris.sol\":4223:4230  pick[0] */\n      dup2\n      mload\n      dup2\n      lt\n      tag_297\n      jumpi\n      tag_298\n      tag_74\n      jump\t// in\n    tag_298:\n    tag_297:\n      0x20\n      mul\n      0x20\n      add\n      add\n      mload\n        /* \"contracts/deris.sol\":4205:4247  coordinates({lat: pick[0], long: pick[1]}) */\n      dup2\n      mstore\n      0x20\n      add\n        /* \"contracts/deris.sol\":4238:4242  pick */\n      dup5\n        /* \"contracts/deris.sol\":4243:4244  1 */\n      0x01\n        /* \"contracts/deris.sol\":4238:4245  pick[1] */\n      dup2\n      mload\n      dup2\n      lt\n      tag_299\n      jumpi\n      tag_300\n      tag_74\n      jump\t// in\n    tag_300:\n    tag_299:\n      0x20\n      mul\n      0x20\n      add\n      add\n      mload\n        /* \"contracts/deris.sol\":4205:4247  coordinates({lat: pick[0], long: pick[1]}) */\n      dup2\n      mstore\n      pop\n        /* \"contracts/deris.sol\":4178:4183  users */\n      0x00\n        /* \"contracts/deris.sol\":4178:4195  users[msg.sender] */\n      dup1\n        /* \"contracts/deris.sol\":4184:4194  msg.sender */\n      caller\n        /* \"contracts/deris.sol\":4178:4195  users[msg.sender] */\n      0xffffffffffffffffffffffffffffffffffffffff\n      and\n      0xffffffffffffffffffffffffffffffffffffffff\n      and\n      dup2\n      mstore\n      0x20\n      add\n      swap1\n      dup2\n      mstore\n      0x20\n      add\n      0x00\n      keccak256\n        /* \"contracts/deris.sol\":4178:4202  users[msg.sender].pickup */\n      0x03\n      add\n        /* \"contracts/deris.sol\":4178:4247  users[msg.sender].pickup = coordinates({lat: pick[0], long: pick[1]}) */\n      0x00\n      dup3\n      add\n      mload\n      dup2\n      0x00\n      add\n      sstore\n      0x20\n      dup3\n      add\n      mload\n      dup2\n      0x01\n      add\n      sstore\n      swap1\n      pop\n      pop\n        /* \"contracts/deris.sol\":4289:4331  coordinates({lat: drop[0], long: drop[1]}) */\n      mload(0x40)\n      dup1\n      0x40\n      add\n      0x40\n      mstore\n      dup1\n        /* \"contracts/deris.sol\":4307:4311  drop */\n      dup4\n        /* \"contracts/deris.sol\":4312:4313  0 */\n      0x00\n        /* \"contracts/deris.sol\":4307:4314  drop[0] */\n      dup2\n      mload\n      dup2\n      lt\n      tag_301\n      jumpi\n      tag_302\n      tag_74\n      jump\t// in\n    tag_302:\n    tag_301:\n      0x20\n      mul\n      0x20\n      add\n      add\n      mload\n        /* \"contracts/deris.sol\":4289:4331  coordinates({lat: drop[0], long: drop[1]}) */\n      dup2\n      mstore\n      0x20\n      add\n        /* \"contracts/deris.sol\":4322:4326  drop */\n      dup4\n        /* \"contracts/deris.sol\":4327:4328  1 */\n      0x01\n        /* \"contracts/deris.sol\":4322:4329  drop[1] */\n      dup2\n      mload\n      dup2\n      lt\n      tag_303\n      jumpi\n      tag_304\n      tag_74\n      jump\t// in\n    tag_304:\n    tag_303:\n      0x20\n      mul\n      0x20\n      add\n      add\n      mload\n        /* \"contracts/deris.sol\":4289:4331  coordinates({lat: drop[0], long: drop[1]}) */\n      dup2\n      mstore\n      pop\n        /* \"contracts/deris.sol\":4261:4266  users */\n      0x00\n        /* \"contracts/deris.sol\":4261:4278  users[msg.sender] */\n      dup1\n        /* \"contracts/deris.sol\":4267:4277  msg.sender */\n      caller\n        /* \"contracts/deris.sol\":4261:4278  users[msg.sender] */\n      0xffffffffffffffffffffffffffffffffffffffff\n      and\n      0xffffffffffffffffffffffffffffffffffffffff\n      and\n      dup2\n      mstore\n      0x20\n      add\n      swap1\n      dup2\n      mstore\n      0x20\n      add\n      0x00\n      keccak256\n        /* \"contracts/deris.sol\":4261:4286  users[msg.sender].dropoff */\n      0x05\n      add\n        /* \"contracts/deris.sol\":4261:4331  users[msg.sender].dropoff = coordinates({lat: drop[0], long: drop[1]}) */\n      0x00\n      dup3\n      add\n      mload\n      dup2\n      0x00\n      add\n      sstore\n      0x20\n      dup3\n      add\n      mload\n      dup2\n      0x01\n      add\n      sstore\n      swap1\n      pop\n      pop\n        /* \"contracts/deris.sol\":4372:4380  tripCost */\n      dup1\n        /* \"contracts/deris.sol\":4345:4350  users */\n      0x00\n        /* \"contracts/deris.sol\":4345:4362  users[msg.sender] */\n      dup1\n        /* \"contracts/deris.sol\":4351:4361  msg.sender */\n      caller\n        /* \"contracts/deris.sol\":4345:4362  users[msg.sender] */\n      0xffffffffffffffffffffffffffffffffffffffff\n      and\n      0xffffffffffffffffffffffffffffffffffffffff\n      and\n      dup2\n      mstore\n      0x20\n      add\n      swap1\n      dup2\n      mstore\n      0x20\n      add\n      0x00\n      keccak256\n        /* \"contracts/deris.sol\":4345:4369  users[msg.sender].escrow */\n      0x09\n      add\n        /* \"contracts/deris.sol\":4345:4380  users[msg.sender].escrow = tripCost */\n      dup2\n      swap1\n      sstore\n      pop\n        /* \"contracts/deris.sol\":4426:4427  0 */\n      0x00\n        /* \"contracts/deris.sol\":4394:4399  users */\n      dup1\n        /* \"contracts/deris.sol\":4394:4411  users[msg.sender] */\n      0x00\n        /* \"contracts/deris.sol\":4400:4410  msg.sender */\n      caller\n        /* \"contracts/deris.sol\":4394:4411  users[msg.sender] */\n      0xffffffffffffffffffffffffffffffffffffffff\n      and\n      0xffffffffffffffffffffffffffffffffffffffff\n      and\n      dup2\n      mstore\n      0x20\n      add\n      swap1\n      dup2\n      mstore\n      0x20\n      add\n      0x00\n      keccak256\n        /* \"contracts/deris.sol\":4394:4423  users[msg.sender].arrivalTime */\n      0x07\n      add\n        /* \"contracts/deris.sol\":4394:4427  users[msg.sender].arrivalTime = 0 */\n      dup2\n      swap1\n      sstore\n      pop\n        /* \"contracts/deris.sol\":4475:4480  false */\n      0x00\n        /* \"contracts/deris.sol\":4441:4446  users */\n      dup1\n        /* \"contracts/deris.sol\":4441:4458  users[msg.sender] */\n      0x00\n        /* \"contracts/deris.sol\":4447:4457  msg.sender */\n      caller\n        /* \"contracts/deris.sol\":4441:4458  users[msg.sender] */\n      0xffffffffffffffffffffffffffffffffffffffff\n      and\n      0xffffffffffffffffffffffffffffffffffffffff\n      and\n      dup2\n      mstore\n      0x20\n      add\n      swap1\n      dup2\n      mstore\n      0x20\n      add\n      0x00\n      keccak256\n        /* \"contracts/deris.sol\":4441:4472  users[msg.sender].driverArrived */\n      0x08\n      add\n      0x00\n        /* \"contracts/deris.sol\":4441:4480  users[msg.sender].driverArrived = false */\n      0x0100\n      exp\n      dup2\n      sload\n      dup2\n      0xff\n      mul\n      not\n      and\n      swap1\n      dup4\n      iszero\n      iszero\n      mul\n      or\n      swap1\n      sstore\n      pop\n        /* \"contracts/deris.sol\":4525:4530  false */\n      0x00\n        /* \"contracts/deris.sol\":4494:4499  users */\n      dup1\n        /* \"contracts/deris.sol\":4494:4511  users[msg.sender] */\n      0x00\n        /* \"contracts/deris.sol\":4500:4510  msg.sender */\n      caller\n        /* \"contracts/deris.sol\":4494:4511  users[msg.sender] */\n      0xffffffffffffffffffffffffffffffffffffffff\n      and\n      0xffffffffffffffffffffffffffffffffffffffff\n      and\n      dup2\n      mstore\n      0x20\n      add\n      swap1\n      dup2\n      mstore\n      0x20\n      add\n      0x00\n      keccak256\n        /* \"contracts/deris.sol\":4494:4522  users[msg.sender].inProgress */\n      0x08\n      add\n      0x01\n        /* \"contracts/deris.sol\":4494:4530  users[msg.sender].inProgress = false */\n      0x0100\n      exp\n      dup2\n      sload\n      dup2\n      0xff\n      mul\n      not\n      and\n      swap1\n      dup4\n      iszero\n      iszero\n      mul\n      or\n      swap1\n      sstore\n      pop\n        /* \"contracts/deris.sol\":4569:4570  0 */\n      0x00\n        /* \"contracts/deris.sol\":4544:4549  users */\n      dup1\n        /* \"contracts/deris.sol\":4544:4561  users[msg.sender] */\n      0x00\n        /* \"contracts/deris.sol\":4550:4560  msg.sender */\n      caller\n        /* \"contracts/deris.sol\":4544:4561  users[msg.sender] */\n      0xffffffffffffffffffffffffffffffffffffffff\n      and\n      0xffffffffffffffffffffffffffffffffffffffff\n      and\n      dup2\n      mstore\n      0x20\n      add\n      swap1\n      dup2\n      mstore\n      0x20\n      add\n      0x00\n      keccak256\n        /* \"contracts/deris.sol\":4544:4566  users[msg.sender].paid */\n      0x0a\n      add\n        /* \"contracts/deris.sol\":4544:4570  users[msg.sender].paid = 0 */\n      dup2\n      swap1\n      sstore\n      pop\n        /* \"contracts/deris.sol\":3459:4581  if(users[msg.sender].isUser == false){... */\n    tag_294:\n        /* \"contracts/deris.sol\":2972:4587  function rideRequest(int256[] memory pick, int256[] memory drop, uint tripCost) public {... */\n      pop\n      pop\n      pop\n      jump\t// out\n        /* \"contracts/deris.sol\":4597:4854  function getNumber() view public returns(int){... */\n    tag_54:\n        /* \"contracts/deris.sol\":4638:4641  int */\n      0x00\n        /* \"contracts/deris.sol\":4735:4739  true */\n      0x01\n        /* \"contracts/deris.sol\":4709:4739  users[msg.sender].isUser==true */\n      iszero\n      iszero\n        /* \"contracts/deris.sol\":4709:4714  users */\n      0x00\n        /* \"contracts/deris.sol\":4709:4726  users[msg.sender] */\n      dup1\n        /* \"contracts/deris.sol\":4715:4725  msg.sender */\n      caller\n        /* \"contracts/deris.sol\":4709:4726  users[msg.sender] */\n      0xffffffffffffffffffffffffffffffffffffffff\n      and\n      0xffffffffffffffffffffffffffffffffffffffff\n      and\n      dup2\n      mstore\n      0x20\n      add\n      swap1\n      dup2\n      mstore\n      0x20\n      add\n      0x00\n      keccak256\n        /* \"contracts/deris.sol\":4709:4733  users[msg.sender].isUser */\n      0x00\n      add\n      0x00\n      swap1\n      sload\n      swap1\n      0x0100\n      exp\n      swap1\n      div\n      0xff\n      and\n        /* \"contracts/deris.sol\":4709:4739  users[msg.sender].isUser==true */\n      iszero\n      iszero\n      eq\n        /* \"contracts/deris.sol\":4705:4848  if (users[msg.sender].isUser==true){... */\n      iszero\n      tag_306\n      jumpi\n        /* \"contracts/deris.sol\":4765:4770  users */\n      0x00\n        /* \"contracts/deris.sol\":4765:4782  users[msg.sender] */\n      dup1\n        /* \"contracts/deris.sol\":4771:4781  msg.sender */\n      caller\n        /* \"contracts/deris.sol\":4765:4782  users[msg.sender] */\n      0xffffffffffffffffffffffffffffffffffffffff\n      and\n      0xffffffffffffffffffffffffffffffffffffffff\n      and\n      dup2\n      mstore\n      0x20\n      add\n      swap1\n      dup2\n      mstore\n      0x20\n      add\n      0x00\n      keccak256\n        /* \"contracts/deris.sol\":4765:4789  users[msg.sender].number */\n      0x01\n      add\n      sload\n        /* \"contracts/deris.sol\":4754:4790  return int(users[msg.sender].number) */\n      swap1\n      pop\n      jump(tag_305)\n        /* \"contracts/deris.sol\":4705:4848  if (users[msg.sender].isUser==true){... */\n    tag_306:\n        /* \"contracts/deris.sol\":4835:4837  -1 */\n      0xffffffffffffffffffffffffffffffffffffffffffffffffffffffffffffffff\n        /* \"contracts/deris.sol\":4828:4837  return -1 */\n      swap1\n      pop\n        /* \"contracts/deris.sol\":4597:4854  function getNumber() view public returns(int){... */\n    tag_305:\n      swap1\n      jump\t// out\n        /* \"contracts/deris.sol\":8949:9418  function reset(address usrAddr) private{... */\n    tag_166:\n        /* \"contracts/deris.sol\":9021:9036  Status.INACTIVE */\n      0x00\n        /* \"contracts/deris.sol\":8998:9003  users */\n      dup1\n        /* \"contracts/deris.sol\":8998:9012  users[usrAddr] */\n      0x00\n        /* \"contracts/deris.sol\":9004:9011  usrAddr */\n      dup4\n        /* \"contracts/deris.sol\":8998:9012  users[usrAddr] */\n      0xffffffffffffffffffffffffffffffffffffffff\n      and\n      0xffffffffffffffffffffffffffffffffffffffff\n      and\n      dup2\n      mstore\n      0x20\n      add\n      swap1\n      dup2\n      mstore\n      0x20\n      add\n      0x00\n      keccak256\n        /* \"contracts/deris.sol\":8998:9018  users[usrAddr].state */\n      0x02\n      add\n      0x00\n        /* \"contracts/deris.sol\":8998:9036  users[usrAddr].state = Status.INACTIVE */\n      0x0100\n      exp\n      dup2\n      sload\n      dup2\n      0xff\n      mul\n      not\n      and\n      swap1\n      dup4\n      0x02\n      dup2\n      gt\n      iszero\n      tag_309\n      jumpi\n      tag_310\n      tag_63\n      jump\t// in\n    tag_310:\n    tag_309:\n      mul\n      or\n      swap1\n      sstore\n      pop\n        /* \"contracts/deris.sol\":9083:9084  0 */\n      0x00\n        /* \"contracts/deris.sol\":9046:9051  users */\n      dup1\n        /* \"contracts/deris.sol\":9046:9060  users[usrAddr] */\n      0x00\n        /* \"contracts/deris.sol\":9052:9059  usrAddr */\n      dup4\n        /* \"contracts/deris.sol\":9046:9060  users[usrAddr] */\n      0xffffffffffffffffffffffffffffffffffffffff\n      and\n      0xffffffffffffffffffffffffffffffffffffffff\n      and\n      dup2\n      mstore\n      0x20\n      add\n      swap1\n      dup2\n      mstore\n      0x20\n      add\n      0x00\n      keccak256\n        /* \"contracts/deris.sol\":9046:9072  users[usrAddr].currPairing */\n      0x02\n      add\n      0x01\n        /* \"contracts/deris.sol\":9046:9085  users[usrAddr].currPairing = address(0) */\n      0x0100\n      exp\n      dup2\n      sload\n      dup2\n      0xffffffffffffffffffffffffffffffffffffffff\n      mul\n      not\n      and\n      swap1\n      dup4\n      0xffffffffffffffffffffffffffffffffffffffff\n      and\n      mul\n      or\n      swap1\n      sstore\n      pop\n        /* \"contracts/deris.sol\":9119:9149  coordinates({lat: 0, long: 0}) */\n      mload(0x40)\n      dup1\n      0x40\n      add\n      0x40\n      mstore\n      dup1\n        /* \"contracts/deris.sol\":9137:9138  0 */\n      0x00\n        /* \"contracts/deris.sol\":9119:9149  coordinates({lat: 0, long: 0}) */\n      dup2\n      mstore\n      0x20\n      add\n        /* \"contracts/deris.sol\":9146:9147  0 */\n      0x00\n        /* \"contracts/deris.sol\":9119:9149  coordinates({lat: 0, long: 0}) */\n      dup2\n      mstore\n      pop\n        /* \"contracts/deris.sol\":9095:9100  users */\n      0x00\n        /* \"contracts/deris.sol\":9095:9109  users[usrAddr] */\n      dup1\n        /* \"contracts/deris.sol\":9101:9108  usrAddr */\n      dup4\n        /* \"contracts/deris.sol\":9095:9109  users[usrAddr] */\n      0xffffffffffffffffffffffffffffffffffffffff\n      and\n      0xffffffffffffffffffffffffffffffffffffffff\n      and\n      dup2\n      mstore\n      0x20\n      add\n      swap1\n      dup2\n      mstore\n      0x20\n      add\n      0x00\n      keccak256\n        /* \"contracts/deris.sol\":9095:9116  users[usrAddr].pickup */\n      0x03\n      add\n        /* \"contracts/deris.sol\":9095:9149  users[usrAddr].pickup = coordinates({lat: 0, long: 0}) */\n      0x00\n      dup3\n      add\n      mload\n      dup2\n      0x00\n      add\n      sstore\n      0x20\n      dup3\n      add\n      mload\n      dup2\n      0x01\n      add\n      sstore\n      swap1\n      pop\n      pop\n        /* \"contracts/deris.sol\":9184:9214  coordinates({lat: 0, long: 0}) */\n      mload(0x40)\n      dup1\n      0x40\n      add\n      0x40\n      mstore\n      dup1\n        /* \"contracts/deris.sol\":9202:9203  0 */\n      0x00\n        /* \"contracts/deris.sol\":9184:9214  coordinates({lat: 0, long: 0}) */\n      dup2\n      mstore\n      0x20\n      add\n        /* \"contracts/deris.sol\":9211:9212  0 */\n      0x00\n        /* \"contracts/deris.sol\":9184:9214  coordinates({lat: 0, long: 0}) */\n      dup2\n      mstore\n      pop\n        /* \"contracts/deris.sol\":9159:9164  users */\n      0x00\n        /* \"contracts/deris.sol\":9159:9173  users[usrAddr] */\n      dup1\n        /* \"contracts/deris.sol\":9165:9172  usrAddr */\n      dup4\n        /* \"contracts/deris.sol\":9159:9173  users[usrAddr] */\n      0xffffffffffffffffffffffffffffffffffffffff\n      and\n      0xffffffffffffffffffffffffffffffffffffffff\n      and\n      dup2\n      mstore\n      0x20\n      add\n      swap1\n      dup2\n      mstore\n      0x20\n      add\n      0x00\n      keccak256\n        /* \"contracts/deris.sol\":9159:9181  users[usrAddr].dropoff */\n      0x05\n      add\n        /* \"contracts/deris.sol\":9159:9214  users[usrAddr].dropoff = coordinates({lat: 0, long: 0}) */\n      0x00\n      dup3\n      add\n      mload\n      dup2\n      0x00\n      add\n      sstore\n      0x20\n      dup3\n      add\n      mload\n      dup2\n      0x01\n      add\n      sstore\n      swap1\n      pop\n      pop\n        /* \"contracts/deris.sol\":9253:9254  0 */\n      0x00\n        /* \"contracts/deris.sol\":9224:9229  users */\n      dup1\n        /* \"contracts/deris.sol\":9224:9238  users[usrAddr] */\n      0x00\n        /* \"contracts/deris.sol\":9230:9237  usrAddr */\n      dup4\n        /* \"contracts/deris.sol\":9224:9238  users[usrAddr] */\n      0xffffffffffffffffffffffffffffffffffffffff\n      and\n      0xffffffffffffffffffffffffffffffffffffffff\n      and\n      dup2\n      mstore\n      0x20\n      add\n      swap1\n      dup2\n      mstore\n      0x20\n      add\n      0x00\n      keccak256\n        /* \"contracts/deris.sol\":9224:9250  users[usrAddr].arrivalTime */\n      0x07\n      add\n        /* \"contracts/deris.sol\":9224:9254  users[usrAddr].arrivalTime = 0 */\n      dup2\n      swap1\n      sstore\n      pop\n        /* \"contracts/deris.sol\":9295:9300  false */\n      0x00\n        /* \"contracts/deris.sol\":9264:9269  users */\n      dup1\n        /* \"contracts/deris.sol\":9264:9278  users[usrAddr] */\n      0x00\n        /* \"contracts/deris.sol\":9270:9277  usrAddr */\n      dup4\n        /* \"contracts/deris.sol\":9264:9278  users[usrAddr] */\n      0xffffffffffffffffffffffffffffffffffffffff\n      and\n      0xffffffffffffffffffffffffffffffffffffffff\n      and\n      dup2\n      mstore\n      0x20\n      add\n      swap1\n      dup2\n      mstore\n      0x20\n      add\n      0x00\n      keccak256\n        /* \"contracts/deris.sol\":9264:9292  users[usrAddr].driverArrived */\n      0x08\n      add\n      0x00\n        /* \"contracts/deris.sol\":9264:9300  users[usrAddr].driverArrived = false */\n      0x0100\n      exp\n      dup2\n      sload\n      dup2\n      0xff\n      mul\n      not\n      and\n      swap1\n      dup4\n      iszero\n      iszero\n      mul\n      or\n      swap1\n      sstore\n      pop\n        /* \"contracts/deris.sol\":9338:9343  false */\n      0x00\n        /* \"contracts/deris.sol\":9310:9315  users */\n      dup1\n        /* \"contracts/deris.sol\":9310:9324  users[usrAddr] */\n      0x00\n        /* \"contracts/deris.sol\":9316:9323  usrAddr */\n      dup4\n        /* \"contracts/deris.sol\":9310:9324  users[usrAddr] */\n      0xffffffffffffffffffffffffffffffffffffffff\n      and\n      0xffffffffffffffffffffffffffffffffffffffff\n      and\n      dup2\n      mstore\n      0x20\n      add\n      swap1\n      dup2\n      mstore\n      0x20\n      add\n      0x00\n      keccak256\n        /* \"contracts/deris.sol\":9310:9335  users[usrAddr].inProgress */\n      0x08\n      add\n      0x01\n        /* \"contracts/deris.sol\":9310:9343  users[usrAddr].inProgress = false */\n      0x0100\n      exp\n      dup2\n      sload\n      dup2\n      0xff\n      mul\n      not\n      and\n      swap1\n      dup4\n      iszero\n      iszero\n      mul\n      or\n      swap1\n      sstore\n      pop\n        /* \"contracts/deris.sol\":9377:9378  0 */\n      0x00\n        /* \"contracts/deris.sol\":9353:9358  users */\n      dup1\n        /* \"contracts/deris.sol\":9353:9367  users[usrAddr] */\n      0x00\n        /* \"contracts/deris.sol\":9359:9366  usrAddr */\n      dup4\n        /* \"contracts/deris.sol\":9353:9367  users[usrAddr] */\n      0xffffffffffffffffffffffffffffffffffffffff\n      and\n      0xffffffffffffffffffffffffffffffffffffffff\n      and\n      dup2\n      mstore\n      0x20\n      add\n      swap1\n      dup2\n      mstore\n      0x20\n      add\n      0x00\n      keccak256\n        /* \"contracts/deris.sol\":9353:9374  users[usrAddr].escrow */\n      0x09\n      add\n        /* \"contracts/deris.sol\":9353:9378  users[usrAddr].escrow = 0 */\n      dup2\n      swap1\n      sstore\n      pop\n        /* \"contracts/deris.sol\":9410:9411  0 */\n      0x00\n        /* \"contracts/deris.sol\":9388:9393  users */\n      dup1\n        /* \"contracts/deris.sol\":9388:9402  users[usrAddr] */\n      0x00\n        /* \"contracts/deris.sol\":9394:9401  usrAddr */\n      dup4\n        /* \"contracts/deris.sol\":9388:9402  users[usrAddr] */\n      0xffffffffffffffffffffffffffffffffffffffff\n      and\n      0xffffffffffffffffffffffffffffffffffffffff\n      and\n      dup2\n      mstore\n      0x20\n      add\n      swap1\n      dup2\n      mstore\n      0x20\n      add\n      0x00\n      keccak256\n        /* \"contracts/deris.sol\":9388:9407  users[usrAddr].paid */\n      0x0a\n      add\n        /* \"contracts/deris.sol\":9388:9411  users[usrAddr].paid = 0 */\n      dup2\n      swap1\n      sstore\n      pop\n        /* \"contracts/deris.sol\":8949:9418  function reset(address usrAddr) private{... */\n      pop\n      jump\t// out\n        /* \"#utility.yul\":23:742   */\n    tag_312:\n        /* \"#utility.yul\":118:123   */\n      0x00\n        /* \"#utility.yul\":143:223   */\n      tag_314\n        /* \"#utility.yul\":159:222   */\n      tag_315\n        /* \"#utility.yul\":215:221   */\n      dup5\n        /* \"#utility.yul\":159:222   */\n      tag_316\n      jump\t// in\n    tag_315:\n        /* \"#utility.yul\":143:223   */\n      tag_317\n      jump\t// in\n    tag_314:\n        /* \"#utility.yul\":134:223   */\n      swap1\n      pop\n        /* \"#utility.yul\":243:248   */\n      dup1\n        /* \"#utility.yul\":272:278   */\n      dup4\n        /* \"#utility.yul\":265:270   */\n      dup3\n        /* \"#utility.yul\":258:279   */\n      mstore\n        /* \"#utility.yul\":306:310   */\n      0x20\n        /* \"#utility.yul\":299:304   */\n      dup3\n        /* \"#utility.yul\":295:311   */\n      add\n        /* \"#utility.yul\":288:311   */\n      swap1\n      pop\n        /* \"#utility.yul\":332:338   */\n      dup3\n        /* \"#utility.yul\":382:385   */\n      dup6\n        /* \"#utility.yul\":374:378   */\n      0x20\n        /* \"#utility.yul\":366:372   */\n      dup7\n        /* \"#utility.yul\":362:379   */\n      mul\n        /* \"#utility.yul\":357:360   */\n      dup3\n        /* \"#utility.yul\":353:380   */\n      add\n        /* \"#utility.yul\":350:386   */\n      gt\n        /* \"#utility.yul\":347:490   */\n      iszero\n      tag_318\n      jumpi\n        /* \"#utility.yul\":401:480   */\n      tag_319\n      tag_320\n      jump\t// in\n    tag_319:\n        /* \"#utility.yul\":347:490   */\n    tag_318:\n        /* \"#utility.yul\":514:515   */\n      0x00\n        /* \"#utility.yul\":499:736   */\n    tag_321:\n        /* \"#utility.yul\":524:530   */\n      dup6\n        /* \"#utility.yul\":521:522   */\n      dup2\n        /* \"#utility.yul\":518:531   */\n      lt\n        /* \"#utility.yul\":499:736   */\n      iszero\n      tag_323\n      jumpi\n        /* \"#utility.yul\":592:595   */\n      dup2\n        /* \"#utility.yul\":621:657   */\n      tag_324\n        /* \"#utility.yul\":653:656   */\n      dup9\n        /* \"#utility.yul\":641:651   */\n      dup3\n        /* \"#utility.yul\":621:657   */\n      tag_325\n      jump\t// in\n    tag_324:\n        /* \"#utility.yul\":616:619   */\n      dup5\n        /* \"#utility.yul\":609:658   */\n      mstore\n        /* \"#utility.yul\":687:691   */\n      0x20\n        /* \"#utility.yul\":682:685   */\n      dup5\n        /* \"#utility.yul\":678:692   */\n      add\n        /* \"#utility.yul\":671:692   */\n      swap4\n      pop\n        /* \"#utility.yul\":721:725   */\n      0x20\n        /* \"#utility.yul\":716:719   */\n      dup4\n        /* \"#utility.yul\":712:726   */\n      add\n        /* \"#utility.yul\":705:726   */\n      swap3\n      pop\n        /* \"#utility.yul\":559:736   */\n      pop\n        /* \"#utility.yul\":546:547   */\n      0x01\n        /* \"#utility.yul\":543:544   */\n      dup2\n        /* \"#utility.yul\":539:548   */\n      add\n        /* \"#utility.yul\":534:548   */\n      swap1\n      pop\n        /* \"#utility.yul\":499:736   */\n      jump(tag_321)\n    tag_323:\n        /* \"#utility.yul\":503:517   */\n      pop\n        /* \"#utility.yul\":124:742   */\n      pop\n      pop\n        /* \"#utility.yul\":23:742   */\n      swap4\n      swap3\n      pop\n      pop\n      pop\n      jump\t// out\n        /* \"#utility.yul\":748:887   */\n    tag_326:\n        /* \"#utility.yul\":794:799   */\n      0x00\n        /* \"#utility.yul\":832:838   */\n      dup2\n        /* \"#utility.yul\":819:839   */\n      calldataload\n        /* \"#utility.yul\":810:839   */\n      swap1\n      pop\n        /* \"#utility.yul\":848:881   */\n      tag_328\n        /* \"#utility.yul\":875:880   */\n      dup2\n        /* \"#utility.yul\":848:881   */\n      tag_329\n      jump\t// in\n    tag_328:\n        /* \"#utility.yul\":748:887   */\n      swap3\n      swap2\n      pop\n      pop\n      jump\t// out\n        /* \"#utility.yul\":909:1277   */\n    tag_330:\n        /* \"#utility.yul\":979:984   */\n      0x00\n        /* \"#utility.yul\":1028:1031   */\n      dup3\n        /* \"#utility.yul\":1021:1025   */\n      0x1f\n        /* \"#utility.yul\":1013:1019   */\n      dup4\n        /* \"#utility.yul\":1009:1026   */\n      add\n        /* \"#utility.yul\":1005:1032   */\n      slt\n        /* \"#utility.yul\":995:1117   */\n      tag_332\n      jumpi\n        /* \"#utility.yul\":1036:1115   */\n      tag_333\n      tag_334\n      jump\t// in\n    tag_333:\n        /* \"#utility.yul\":995:1117   */\n    tag_332:\n        /* \"#utility.yul\":1153:1159   */\n      dup2\n        /* \"#utility.yul\":1140:1160   */\n      calldataload\n        /* \"#utility.yul\":1178:1271   */\n      tag_335\n        /* \"#utility.yul\":1267:1270   */\n      dup5\n        /* \"#utility.yul\":1259:1265   */\n      dup3\n        /* \"#utility.yul\":1252:1256   */\n      0x20\n        /* \"#utility.yul\":1244:1250   */\n      dup7\n        /* \"#utility.yul\":1240:1257   */\n      add\n        /* \"#utility.yul\":1178:1271   */\n      tag_312\n      jump\t// in\n    tag_335:\n        /* \"#utility.yul\":1169:1271   */\n      swap2\n      pop\n        /* \"#utility.yul\":985:1277   */\n      pop\n        /* \"#utility.yul\":909:1277   */\n      swap3\n      swap2\n      pop\n      pop\n      jump\t// out\n        /* \"#utility.yul\":1283:1420   */\n    tag_325:\n        /* \"#utility.yul\":1328:1333   */\n      0x00\n        /* \"#utility.yul\":1366:1372   */\n      dup2\n        /* \"#utility.yul\":1353:1373   */\n      calldataload\n        /* \"#utility.yul\":1344:1373   */\n      swap1\n      pop\n        /* \"#utility.yul\":1382:1414   */\n      tag_337\n        /* \"#utility.yul\":1408:1413   */\n      dup2\n        /* \"#utility.yul\":1382:1414   */\n      tag_338\n      jump\t// in\n    tag_337:\n        /* \"#utility.yul\":1283:1420   */\n      swap3\n      swap2\n      pop\n      pop\n      jump\t// out\n        /* \"#utility.yul\":1426:1565   */\n    tag_339:\n        /* \"#utility.yul\":1472:1477   */\n      0x00\n        /* \"#utility.yul\":1510:1516   */\n      dup2\n        /* \"#utility.yul\":1497:1517   */\n      calldataload\n        /* \"#utility.yul\":1488:1517   */\n      swap1\n      pop\n        /* \"#utility.yul\":1526:1559   */\n      tag_341\n        /* \"#utility.yul\":1553:1558   */\n      dup2\n        /* \"#utility.yul\":1526:1559   */\n      tag_342\n      jump\t// in\n    tag_341:\n        /* \"#utility.yul\":1426:1565   */\n      swap3\n      swap2\n      pop\n      pop\n      jump\t// out\n        /* \"#utility.yul\":1571:1900   */\n    tag_41:\n        /* \"#utility.yul\":1630:1636   */\n      0x00\n        /* \"#utility.yul\":1679:1681   */\n      0x20\n        /* \"#utility.yul\":1667:1676   */\n      dup3\n        /* \"#utility.yul\":1658:1665   */\n      dup5\n        /* \"#utility.yul\":1654:1677   */\n      sub\n        /* \"#utility.yul\":1650:1682   */\n      slt\n        /* \"#utility.yul\":1647:1766   */\n      iszero\n      tag_344\n      jumpi\n        /* \"#utility.yul\":1685:1764   */\n      tag_345\n      tag_346\n      jump\t// in\n    tag_345:\n        /* \"#utility.yul\":1647:1766   */\n    tag_344:\n        /* \"#utility.yul\":1805:1806   */\n      0x00\n        /* \"#utility.yul\":1830:1883   */\n      tag_347\n        /* \"#utility.yul\":1875:1882   */\n      dup5\n        /* \"#utility.yul\":1866:1872   */\n      dup3\n        /* \"#utility.yul\":1855:1864   */\n      dup6\n        /* \"#utility.yul\":1851:1873   */\n      add\n        /* \"#utility.yul\":1830:1883   */\n      tag_326\n      jump\t// in\n    tag_347:\n        /* \"#utility.yul\":1820:1883   */\n      swap2\n      pop\n        /* \"#utility.yul\":1776:1893   */\n      pop\n        /* \"#utility.yul\":1571:1900   */\n      swap3\n      swap2\n      pop\n      pop\n      jump\t// out\n        /* \"#utility.yul\":1906:2443   */\n    tag_36:\n        /* \"#utility.yul\":1989:1995   */\n      0x00\n        /* \"#utility.yul\":2038:2040   */\n      0x20\n        /* \"#utility.yul\":2026:2035   */\n      dup3\n        /* \"#utility.yul\":2017:2024   */\n      dup5\n        /* \"#utility.yul\":2013:2036   */\n      sub\n        /* \"#utility.yul\":2009:2041   */\n      slt\n        /* \"#utility.yul\":2006:2125   */\n      iszero\n      tag_349\n      jumpi\n        /* \"#utility.yul\":2044:2123   */\n      tag_350\n      tag_346\n      jump\t// in\n    tag_350:\n        /* \"#utility.yul\":2006:2125   */\n    tag_349:\n        /* \"#utility.yul\":2192:2193   */\n      0x00\n        /* \"#utility.yul\":2181:2190   */\n      dup3\n        /* \"#utility.yul\":2177:2194   */\n      add\n        /* \"#utility.yul\":2164:2195   */\n      calldataload\n        /* \"#utility.yul\":2222:2240   */\n      0xffffffffffffffff\n        /* \"#utility.yul\":2214:2220   */\n      dup2\n        /* \"#utility.yul\":2211:2241   */\n      gt\n        /* \"#utility.yul\":2208:2325   */\n      iszero\n      tag_351\n      jumpi\n        /* \"#utility.yul\":2244:2323   */\n      tag_352\n      tag_353\n      jump\t// in\n    tag_352:\n        /* \"#utility.yul\":2208:2325   */\n    tag_351:\n        /* \"#utility.yul\":2349:2426   */\n      tag_354\n        /* \"#utility.yul\":2418:2425   */\n      dup5\n        /* \"#utility.yul\":2409:2415   */\n      dup3\n        /* \"#utility.yul\":2398:2407   */\n      dup6\n        /* \"#utility.yul\":2394:2416   */\n      add\n        /* \"#utility.yul\":2349:2426   */\n      tag_330\n      jump\t// in\n    tag_354:\n        /* \"#utility.yul\":2339:2426   */\n      swap2\n      pop\n        /* \"#utility.yul\":2135:2436   */\n      pop\n        /* \"#utility.yul\":1906:2443   */\n      swap3\n      swap2\n      pop\n      pop\n      jump\t// out\n        /* \"#utility.yul\":2449:3484   */\n    tag_50:\n        /* \"#utility.yul\":2574:2580   */\n      0x00\n        /* \"#utility.yul\":2582:2588   */\n      dup1\n        /* \"#utility.yul\":2590:2596   */\n      0x00\n        /* \"#utility.yul\":2639:2641   */\n      0x60\n        /* \"#utility.yul\":2627:2636   */\n      dup5\n        /* \"#utility.yul\":2618:2625   */\n      dup7\n        /* \"#utility.yul\":2614:2637   */\n      sub\n        /* \"#utility.yul\":2610:2642   */\n      slt\n        /* \"#utility.yul\":2607:2726   */\n      iszero\n      tag_356\n      jumpi\n        /* \"#utility.yul\":2645:2724   */\n      tag_357\n      tag_346\n      jump\t// in\n    tag_357:\n        /* \"#utility.yul\":2607:2726   */\n    tag_356:\n        /* \"#utility.yul\":2793:2794   */\n      0x00\n        /* \"#utility.yul\":2782:2791   */\n      dup5\n        /* \"#utility.yul\":2778:2795   */\n      add\n        /* \"#utility.yul\":2765:2796   */\n      calldataload\n        /* \"#utility.yul\":2823:2841   */\n      0xffffffffffffffff\n        /* \"#utility.yul\":2815:2821   */\n      dup2\n        /* \"#utility.yul\":2812:2842   */\n      gt\n        /* \"#utility.yul\":2809:2926   */\n      iszero\n      tag_358\n      jumpi\n        /* \"#utility.yul\":2845:2924   */\n      tag_359\n      tag_353\n      jump\t// in\n    tag_359:\n        /* \"#utility.yul\":2809:2926   */\n    tag_358:\n        /* \"#utility.yul\":2950:3027   */\n      tag_360\n        /* \"#utility.yul\":3019:3026   */\n      dup7\n        /* \"#utility.yul\":3010:3016   */\n      dup3\n        /* \"#utility.yul\":2999:3008   */\n      dup8\n        /* \"#utility.yul\":2995:3017   */\n      add\n        /* \"#utility.yul\":2950:3027   */\n      tag_330\n      jump\t// in\n    tag_360:\n        /* \"#utility.yul\":2940:3027   */\n      swap4\n      pop\n        /* \"#utility.yul\":2736:3037   */\n      pop\n        /* \"#utility.yul\":3104:3106   */\n      0x20\n        /* \"#utility.yul\":3093:3102   */\n      dup5\n        /* \"#utility.yul\":3089:3107   */\n      add\n        /* \"#utility.yul\":3076:3108   */\n      calldataload\n        /* \"#utility.yul\":3135:3153   */\n      0xffffffffffffffff\n        /* \"#utility.yul\":3127:3133   */\n      dup2\n        /* \"#utility.yul\":3124:3154   */\n      gt\n        /* \"#utility.yul\":3121:3238   */\n      iszero\n      tag_361\n      jumpi\n        /* \"#utility.yul\":3157:3236   */\n      tag_362\n      tag_353\n      jump\t// in\n    tag_362:\n        /* \"#utility.yul\":3121:3238   */\n    tag_361:\n        /* \"#utility.yul\":3262:3339   */\n      tag_363\n        /* \"#utility.yul\":3331:3338   */\n      dup7\n        /* \"#utility.yul\":3322:3328   */\n      dup3\n        /* \"#utility.yul\":3311:3320   */\n      dup8\n        /* \"#utility.yul\":3307:3329   */\n      add\n        /* \"#utility.yul\":3262:3339   */\n      tag_330\n      jump\t// in\n    tag_363:\n        /* \"#utility.yul\":3252:3339   */\n      swap3\n      pop\n        /* \"#utility.yul\":3047:3349   */\n      pop\n        /* \"#utility.yul\":3388:3390   */\n      0x40\n        /* \"#utility.yul\":3414:3467   */\n      tag_364\n        /* \"#utility.yul\":3459:3466   */\n      dup7\n        /* \"#utility.yul\":3450:3456   */\n      dup3\n        /* \"#utility.yul\":3439:3448   */\n      dup8\n        /* \"#utility.yul\":3435:3457   */\n      add\n        /* \"#utility.yul\":3414:3467   */\n      tag_339\n      jump\t// in\n    tag_364:\n        /* \"#utility.yul\":3404:3467   */\n      swap2\n      pop\n        /* \"#utility.yul\":3359:3477   */\n      pop\n        /* \"#utility.yul\":2449:3484   */\n      swap3\n      pop\n      swap3\n      pop\n      swap3\n      jump\t// out\n        /* \"#utility.yul\":3490:3819   */\n    tag_29:\n        /* \"#utility.yul\":3549:3555   */\n      0x00\n        /* \"#utility.yul\":3598:3600   */\n      0x20\n        /* \"#utility.yul\":3586:3595   */\n      dup3\n        /* \"#utility.yul\":3577:3584   */\n      dup5\n        /* \"#utility.yul\":3573:3596   */\n      sub\n        /* \"#utility.yul\":3569:3601   */\n      slt\n        /* \"#utility.yul\":3566:3685   */\n      iszero\n      tag_366\n      jumpi\n        /* \"#utility.yul\":3604:3683   */\n      tag_367\n      tag_346\n      jump\t// in\n    tag_367:\n        /* \"#utility.yul\":3566:3685   */\n    tag_366:\n        /* \"#utility.yul\":3724:3725   */\n      0x00\n        /* \"#utility.yul\":3749:3802   */\n      tag_368\n        /* \"#utility.yul\":3794:3801   */\n      dup5\n        /* \"#utility.yul\":3785:3791   */\n      dup3\n        /* \"#utility.yul\":3774:3783   */\n      dup6\n        /* \"#utility.yul\":3770:3792   */\n      add\n        /* \"#utility.yul\":3749:3802   */\n      tag_339\n      jump\t// in\n    tag_368:\n        /* \"#utility.yul\":3739:3802   */\n      swap2\n      pop\n        /* \"#utility.yul\":3695:3812   */\n      pop\n        /* \"#utility.yul\":3490:3819   */\n      swap3\n      swap2\n      pop\n      pop\n      jump\t// out\n        /* \"#utility.yul\":3825:4299   */\n    tag_16:\n        /* \"#utility.yul\":3893:3899   */\n      0x00\n        /* \"#utility.yul\":3901:3907   */\n      dup1\n        /* \"#utility.yul\":3950:3952   */\n      0x40\n        /* \"#utility.yul\":3938:3947   */\n      dup4\n        /* \"#utility.yul\":3929:3936   */\n      dup6\n        /* \"#utility.yul\":3925:3948   */\n      sub\n        /* \"#utility.yul\":3921:3953   */\n      slt\n        /* \"#utility.yul\":3918:4037   */\n      iszero\n      tag_370\n      jumpi\n        /* \"#utility.yul\":3956:4035   */\n      tag_371\n      tag_346\n      jump\t// in\n    tag_371:\n        /* \"#utility.yul\":3918:4037   */\n    tag_370:\n        /* \"#utility.yul\":4076:4077   */\n      0x00\n        /* \"#utility.yul\":4101:4154   */\n      tag_372\n        /* \"#utility.yul\":4146:4153   */\n      dup6\n        /* \"#utility.yul\":4137:4143   */\n      dup3\n        /* \"#utility.yul\":4126:4135   */\n      dup7\n        /* \"#utility.yul\":4122:4144   */\n      add\n        /* \"#utility.yul\":4101:4154   */\n      tag_339\n      jump\t// in\n    tag_372:\n        /* \"#utility.yul\":4091:4154   */\n      swap3\n      pop\n        /* \"#utility.yul\":4047:4164   */\n      pop\n        /* \"#utility.yul\":4203:4205   */\n      0x20\n        /* \"#utility.yul\":4229:4282   */\n      tag_373\n        /* \"#utility.yul\":4274:4281   */\n      dup6\n        /* \"#utility.yul\":4265:4271   */\n      dup3\n        /* \"#utility.yul\":4254:4263   */\n      dup7\n        /* \"#utility.yul\":4250:4272   */\n      add\n        /* \"#utility.yul\":4229:4282   */\n      tag_339\n      jump\t// in\n    tag_373:\n        /* \"#utility.yul\":4219:4282   */\n      swap2\n      pop\n        /* \"#utility.yul\":4174:4292   */\n      pop\n        /* \"#utility.yul\":3825:4299   */\n      swap3\n      pop\n      swap3\n      swap1\n      pop\n      jump\t// out\n        /* \"#utility.yul\":4305:4480   */\n    tag_374:\n        /* \"#utility.yul\":4372:4382   */\n      0x00\n        /* \"#utility.yul\":4393:4437   */\n      tag_376\n        /* \"#utility.yul\":4433:4436   */\n      dup4\n        /* \"#utility.yul\":4425:4431   */\n      dup4\n        /* \"#utility.yul\":4393:4437   */\n      tag_377\n      jump\t// in\n    tag_376:\n        /* \"#utility.yul\":4469:4473   */\n      0x20\n        /* \"#utility.yul\":4464:4467   */\n      dup4\n        /* \"#utility.yul\":4460:4474   */\n      add\n        /* \"#utility.yul\":4446:4474   */\n      swap1\n      pop\n        /* \"#utility.yul\":4305:4480   */\n      swap3\n      swap2\n      pop\n      pop\n      jump\t// out\n        /* \"#utility.yul\":4486:4604   */\n    tag_378:\n        /* \"#utility.yul\":4573:4597   */\n      tag_380\n        /* \"#utility.yul\":4591:4596   */\n      dup2\n        /* \"#utility.yul\":4573:4597   */\n      tag_381\n      jump\t// in\n    tag_380:\n        /* \"#utility.yul\":4568:4571   */\n      dup3\n        /* \"#utility.yul\":4561:4598   */\n      mstore\n        /* \"#utility.yul\":4486:4604   */\n      pop\n      pop\n      jump\t// out\n        /* \"#utility.yul\":4638:5362   */\n    tag_382:\n        /* \"#utility.yul\":4755:4758   */\n      0x00\n        /* \"#utility.yul\":4784:4837   */\n      tag_384\n        /* \"#utility.yul\":4831:4836   */\n      dup3\n        /* \"#utility.yul\":4784:4837   */\n      tag_385\n      jump\t// in\n    tag_384:\n        /* \"#utility.yul\":4853:4938   */\n      tag_386\n        /* \"#utility.yul\":4931:4937   */\n      dup2\n        /* \"#utility.yul\":4926:4929   */\n      dup6\n        /* \"#utility.yul\":4853:4938   */\n      tag_387\n      jump\t// in\n    tag_386:\n        /* \"#utility.yul\":4846:4938   */\n      swap4\n      pop\n        /* \"#utility.yul\":4962:5017   */\n      tag_388\n        /* \"#utility.yul\":5011:5016   */\n      dup4\n        /* \"#utility.yul\":4962:5017   */\n      tag_389\n      jump\t// in\n    tag_388:\n        /* \"#utility.yul\":5040:5047   */\n      dup1\n        /* \"#utility.yul\":5071:5072   */\n      0x00\n        /* \"#utility.yul\":5056:5337   */\n    tag_390:\n        /* \"#utility.yul\":5081:5087   */\n      dup4\n        /* \"#utility.yul\":5078:5079   */\n      dup2\n        /* \"#utility.yul\":5075:5088   */\n      lt\n        /* \"#utility.yul\":5056:5337   */\n      iszero\n      tag_392\n      jumpi\n        /* \"#utility.yul\":5157:5163   */\n      dup2\n        /* \"#utility.yul\":5151:5164   */\n      mload\n        /* \"#utility.yul\":5184:5245   */\n      tag_393\n        /* \"#utility.yul\":5241:5244   */\n      dup9\n        /* \"#utility.yul\":5226:5239   */\n      dup3\n        /* \"#utility.yul\":5184:5245   */\n      tag_374\n      jump\t// in\n    tag_393:\n        /* \"#utility.yul\":5177:5245   */\n      swap8\n      pop\n        /* \"#utility.yul\":5268:5327   */\n      tag_394\n        /* \"#utility.yul\":5320:5326   */\n      dup4\n        /* \"#utility.yul\":5268:5327   */\n      tag_395\n      jump\t// in\n    tag_394:\n        /* \"#utility.yul\":5258:5327   */\n      swap3\n      pop\n        /* \"#utility.yul\":5116:5337   */\n      pop\n        /* \"#utility.yul\":5103:5104   */\n      0x01\n        /* \"#utility.yul\":5100:5101   */\n      dup2\n        /* \"#utility.yul\":5096:5105   */\n      add\n        /* \"#utility.yul\":5091:5105   */\n      swap1\n      pop\n        /* \"#utility.yul\":5056:5337   */\n      jump(tag_390)\n    tag_392:\n        /* \"#utility.yul\":5060:5074   */\n      pop\n        /* \"#utility.yul\":5353:5356   */\n      dup6\n        /* \"#utility.yul\":5346:5356   */\n      swap4\n      pop\n        /* \"#utility.yul\":4760:5362   */\n      pop\n      pop\n      pop\n        /* \"#utility.yul\":4638:5362   */\n      swap3\n      swap2\n      pop\n      pop\n      jump\t// out\n        /* \"#utility.yul\":5368:5477   */\n    tag_396:\n        /* \"#utility.yul\":5449:5470   */\n      tag_398\n        /* \"#utility.yul\":5464:5469   */\n      dup2\n        /* \"#utility.yul\":5449:5470   */\n      tag_399\n      jump\t// in\n    tag_398:\n        /* \"#utility.yul\":5444:5447   */\n      dup3\n        /* \"#utility.yul\":5437:5471   */\n      mstore\n        /* \"#utility.yul\":5368:5477   */\n      pop\n      pop\n      jump\t// out\n        /* \"#utility.yul\":5483:5626   */\n    tag_400:\n        /* \"#utility.yul\":5576:5619   */\n      tag_402\n        /* \"#utility.yul\":5613:5618   */\n      dup2\n        /* \"#utility.yul\":5576:5619   */\n      tag_403\n      jump\t// in\n    tag_402:\n        /* \"#utility.yul\":5571:5574   */\n      dup3\n        /* \"#utility.yul\":5564:5620   */\n      mstore\n        /* \"#utility.yul\":5483:5626   */\n      pop\n      pop\n      jump\t// out\n        /* \"#utility.yul\":5632:5737   */\n    tag_377:\n        /* \"#utility.yul\":5707:5730   */\n      tag_405\n        /* \"#utility.yul\":5724:5729   */\n      dup2\n        /* \"#utility.yul\":5707:5730   */\n      tag_406\n      jump\t// in\n    tag_405:\n        /* \"#utility.yul\":5702:5705   */\n      dup3\n        /* \"#utility.yul\":5695:5731   */\n      mstore\n        /* \"#utility.yul\":5632:5737   */\n      pop\n      pop\n      jump\t// out\n        /* \"#utility.yul\":5743:5858   */\n    tag_407:\n        /* \"#utility.yul\":5828:5851   */\n      tag_409\n        /* \"#utility.yul\":5845:5850   */\n      dup2\n        /* \"#utility.yul\":5828:5851   */\n      tag_406\n      jump\t// in\n    tag_409:\n        /* \"#utility.yul\":5823:5826   */\n      dup3\n        /* \"#utility.yul\":5816:5852   */\n      mstore\n        /* \"#utility.yul\":5743:5858   */\n      pop\n      pop\n      jump\t// out\n        /* \"#utility.yul\":5864:6011   */\n    tag_410:\n        /* \"#utility.yul\":5959:6004   */\n      tag_412\n        /* \"#utility.yul\":5998:6003   */\n      dup2\n        /* \"#utility.yul\":5959:6004   */\n      tag_413\n      jump\t// in\n    tag_412:\n        /* \"#utility.yul\":5954:5957   */\n      dup3\n        /* \"#utility.yul\":5947:6005   */\n      mstore\n        /* \"#utility.yul\":5864:6011   */\n      pop\n      pop\n      jump\t// out\n        /* \"#utility.yul\":6017:6383   */\n    tag_414:\n        /* \"#utility.yul\":6159:6162   */\n      0x00\n        /* \"#utility.yul\":6180:6247   */\n      tag_416\n        /* \"#utility.yul\":6244:6246   */\n      0x1e\n        /* \"#utility.yul\":6239:6242   */\n      dup4\n        /* \"#utility.yul\":6180:6247   */\n      tag_417\n      jump\t// in\n    tag_416:\n        /* \"#utility.yul\":6173:6247   */\n      swap2\n      pop\n        /* \"#utility.yul\":6256:6349   */\n      tag_418\n        /* \"#utility.yul\":6345:6348   */\n      dup3\n        /* \"#utility.yul\":6256:6349   */\n      tag_419\n      jump\t// in\n    tag_418:\n        /* \"#utility.yul\":6374:6376   */\n      0x20\n        /* \"#utility.yul\":6369:6372   */\n      dup3\n        /* \"#utility.yul\":6365:6377   */\n      add\n        /* \"#utility.yul\":6358:6377   */\n      swap1\n      pop\n        /* \"#utility.yul\":6017:6383   */\n      swap2\n      swap1\n      pop\n      jump\t// out\n        /* \"#utility.yul\":6389:6755   */\n    tag_420:\n        /* \"#utility.yul\":6531:6534   */\n      0x00\n        /* \"#utility.yul\":6552:6619   */\n      tag_422\n        /* \"#utility.yul\":6616:6618   */\n      0x18\n        /* \"#utility.yul\":6611:6614   */\n      dup4\n        /* \"#utility.yul\":6552:6619   */\n      tag_417\n      jump\t// in\n    tag_422:\n        /* \"#utility.yul\":6545:6619   */\n      swap2\n      pop\n        /* \"#utility.yul\":6628:6721   */\n      tag_423\n        /* \"#utility.yul\":6717:6720   */\n      dup3\n        /* \"#utility.yul\":6628:6721   */\n      tag_424\n      jump\t// in\n    tag_423:\n        /* \"#utility.yul\":6746:6748   */\n      0x20\n        /* \"#utility.yul\":6741:6744   */\n      dup3\n        /* \"#utility.yul\":6737:6749   */\n      add\n        /* \"#utility.yul\":6730:6749   */\n      swap1\n      pop\n        /* \"#utility.yul\":6389:6755   */\n      swap2\n      swap1\n      pop\n      jump\t// out\n        /* \"#utility.yul\":6761:7127   */\n    tag_425:\n        /* \"#utility.yul\":6903:6906   */\n      0x00\n        /* \"#utility.yul\":6924:6991   */\n      tag_427\n        /* \"#utility.yul\":6988:6990   */\n      0x2d\n        /* \"#utility.yul\":6983:6986   */\n      dup4\n        /* \"#utility.yul\":6924:6991   */\n      tag_417\n      jump\t// in\n    tag_427:\n        /* \"#utility.yul\":6917:6991   */\n      swap2\n      pop\n        /* \"#utility.yul\":7000:7093   */\n      tag_428\n        /* \"#utility.yul\":7089:7092   */\n      dup3\n        /* \"#utility.yul\":7000:7093   */\n      tag_429\n      jump\t// in\n    tag_428:\n        /* \"#utility.yul\":7118:7120   */\n      0x40\n        /* \"#utility.yul\":7113:7116   */\n      dup3\n        /* \"#utility.yul\":7109:7121   */\n      add\n        /* \"#utility.yul\":7102:7121   */\n      swap1\n      pop\n        /* \"#utility.yul\":6761:7127   */\n      swap2\n      swap1\n      pop\n      jump\t// out\n        /* \"#utility.yul\":7133:7499   */\n    tag_430:\n        /* \"#utility.yul\":7275:7278   */\n      0x00\n        /* \"#utility.yul\":7296:7363   */\n      tag_432\n        /* \"#utility.yul\":7360:7362   */\n      0x2d\n        /* \"#utility.yul\":7355:7358   */\n      dup4\n        /* \"#utility.yul\":7296:7363   */\n      tag_417\n      jump\t// in\n    tag_432:\n        /* \"#utility.yul\":7289:7363   */\n      swap2\n      pop\n        /* \"#utility.yul\":7372:7465   */\n      tag_433\n        /* \"#utility.yul\":7461:7464   */\n      dup3\n        /* \"#utility.yul\":7372:7465   */\n      tag_434\n      jump\t// in\n    tag_433:\n        /* \"#utility.yul\":7490:7492   */\n      0x40\n        /* \"#utility.yul\":7485:7488   */\n      dup3\n        /* \"#utility.yul\":7481:7493   */\n      add\n        /* \"#utility.yul\":7474:7493   */\n      swap1\n      pop\n        /* \"#utility.yul\":7133:7499   */\n      swap2\n      swap1\n      pop\n      jump\t// out\n        /* \"#utility.yul\":7505:7871   */\n    tag_435:\n        /* \"#utility.yul\":7647:7650   */\n      0x00\n        /* \"#utility.yul\":7668:7735   */\n      tag_437\n        /* \"#utility.yul\":7732:7734   */\n      0x14\n        /* \"#utility.yul\":7727:7730   */\n      dup4\n        /* \"#utility.yul\":7668:7735   */\n      tag_417\n      jump\t// in\n    tag_437:\n        /* \"#utility.yul\":7661:7735   */\n      swap2\n      pop\n        /* \"#utility.yul\":7744:7837   */\n      tag_438\n        /* \"#utility.yul\":7833:7836   */\n      dup3\n        /* \"#utility.yul\":7744:7837   */\n      tag_439\n      jump\t// in\n    tag_438:\n        /* \"#utility.yul\":7862:7864   */\n      0x20\n        /* \"#utility.yul\":7857:7860   */\n      dup3\n        /* \"#utility.yul\":7853:7865   */\n      add\n        /* \"#utility.yul\":7846:7865   */\n      swap1\n      pop\n        /* \"#utility.yul\":7505:7871   */\n      swap2\n      swap1\n      pop\n      jump\t// out\n        /* \"#utility.yul\":7877:8243   */\n    tag_440:\n        /* \"#utility.yul\":8019:8022   */\n      0x00\n        /* \"#utility.yul\":8040:8107   */\n      tag_442\n        /* \"#utility.yul\":8104:8106   */\n      0x14\n        /* \"#utility.yul\":8099:8102   */\n      dup4\n        /* \"#utility.yul\":8040:8107   */\n      tag_417\n      jump\t// in\n    tag_442:\n        /* \"#utility.yul\":8033:8107   */\n      swap2\n      pop\n        /* \"#utility.yul\":8116:8209   */\n      tag_443\n        /* \"#utility.yul\":8205:8208   */\n      dup3\n        /* \"#utility.yul\":8116:8209   */\n      tag_444\n      jump\t// in\n    tag_443:\n        /* \"#utility.yul\":8234:8236   */\n      0x20\n        /* \"#utility.yul\":8229:8232   */\n      dup3\n        /* \"#utility.yul\":8225:8237   */\n      add\n        /* \"#utility.yul\":8218:8237   */\n      swap1\n      pop\n        /* \"#utility.yul\":7877:8243   */\n      swap2\n      swap1\n      pop\n      jump\t// out\n        /* \"#utility.yul\":8249:8615   */\n    tag_445:\n        /* \"#utility.yul\":8391:8394   */\n      0x00\n        /* \"#utility.yul\":8412:8479   */\n      tag_447\n        /* \"#utility.yul\":8476:8478   */\n      0x2f\n        /* \"#utility.yul\":8471:8474   */\n      dup4\n        /* \"#utility.yul\":8412:8479   */\n      tag_417\n      jump\t// in\n    tag_447:\n        /* \"#utility.yul\":8405:8479   */\n      swap2\n      pop\n        /* \"#utility.yul\":8488:8581   */\n      tag_448\n        /* \"#utility.yul\":8577:8580   */\n      dup3\n        /* \"#utility.yul\":8488:8581   */\n      tag_449\n      jump\t// in\n    tag_448:\n        /* \"#utility.yul\":8606:8608   */\n      0x40\n        /* \"#utility.yul\":8601:8604   */\n      dup3\n        /* \"#utility.yul\":8597:8609   */\n      add\n        /* \"#utility.yul\":8590:8609   */\n      swap1\n      pop\n        /* \"#utility.yul\":8249:8615   */\n      swap2\n      swap1\n      pop\n      jump\t// out\n        /* \"#utility.yul\":8621:8987   */\n    tag_450:\n        /* \"#utility.yul\":8763:8766   */\n      0x00\n        /* \"#utility.yul\":8784:8851   */\n      tag_452\n        /* \"#utility.yul\":8848:8850   */\n      0x2c\n        /* \"#utility.yul\":8843:8846   */\n      dup4\n        /* \"#utility.yul\":8784:8851   */\n      tag_417\n      jump\t// in\n    tag_452:\n        /* \"#utility.yul\":8777:8851   */\n      swap2\n      pop\n        /* \"#utility.yul\":8860:8953   */\n      tag_453\n        /* \"#utility.yul\":8949:8952   */\n      dup3\n        /* \"#utility.yul\":8860:8953   */\n      tag_454\n      jump\t// in\n    tag_453:\n        /* \"#utility.yul\":8978:8980   */\n      0x40\n        /* \"#utility.yul\":8973:8976   */\n      dup3\n        /* \"#utility.yul\":8969:8981   */\n      add\n        /* \"#utility.yul\":8962:8981   */\n      swap1\n      pop\n        /* \"#utility.yul\":8621:8987   */\n      swap2\n      swap1\n      pop\n      jump\t// out\n        /* \"#utility.yul\":8993:9359   */\n    tag_455:\n        /* \"#utility.yul\":9135:9138   */\n      0x00\n        /* \"#utility.yul\":9156:9223   */\n      tag_457\n        /* \"#utility.yul\":9220:9222   */\n      0x22\n        /* \"#utility.yul\":9215:9218   */\n      dup4\n        /* \"#utility.yul\":9156:9223   */\n      tag_417\n      jump\t// in\n    tag_457:\n        /* \"#utility.yul\":9149:9223   */\n      swap2\n      pop\n        /* \"#utility.yul\":9232:9325   */\n      tag_458\n        /* \"#utility.yul\":9321:9324   */\n      dup3\n        /* \"#utility.yul\":9232:9325   */\n      tag_459\n      jump\t// in\n    tag_458:\n        /* \"#utility.yul\":9350:9352   */\n      0x40\n        /* \"#utility.yul\":9345:9348   */\n      dup3\n        /* \"#utility.yul\":9341:9353   */\n      add\n        /* \"#utility.yul\":9334:9353   */\n      swap1\n      pop\n        /* \"#utility.yul\":8993:9359   */\n      swap2\n      swap1\n      pop\n      jump\t// out\n        /* \"#utility.yul\":9365:9731   */\n    tag_460:\n        /* \"#utility.yul\":9507:9510   */\n      0x00\n        /* \"#utility.yul\":9528:9595   */\n      tag_462\n        /* \"#utility.yul\":9592:9594   */\n      0x1a\n        /* \"#utility.yul\":9587:9590   */\n      dup4\n        /* \"#utility.yul\":9528:9595   */\n      tag_417\n      jump\t// in\n    tag_462:\n        /* \"#utility.yul\":9521:9595   */\n      swap2\n      pop\n        /* \"#utility.yul\":9604:9697   */\n      tag_463\n        /* \"#utility.yul\":9693:9696   */\n      dup3\n        /* \"#utility.yul\":9604:9697   */\n      tag_464\n      jump\t// in\n    tag_463:\n        /* \"#utility.yul\":9722:9724   */\n      0x20\n        /* \"#utility.yul\":9717:9720   */\n      dup3\n        /* \"#utility.yul\":9713:9725   */\n      add\n        /* \"#utility.yul\":9706:9725   */\n      swap1\n      pop\n        /* \"#utility.yul\":9365:9731   */\n      swap2\n      swap1\n      pop\n      jump\t// out\n        /* \"#utility.yul\":9737:10103   */\n    tag_465:\n        /* \"#utility.yul\":9879:9882   */\n      0x00\n        /* \"#utility.yul\":9900:9967   */\n      tag_467\n        /* \"#utility.yul\":9964:9966   */\n      0x17\n        /* \"#utility.yul\":9959:9962   */\n      dup4\n        /* \"#utility.yul\":9900:9967   */\n      tag_417\n      jump\t// in\n    tag_467:\n        /* \"#utility.yul\":9893:9967   */\n      swap2\n      pop\n        /* \"#utility.yul\":9976:10069   */\n      tag_468\n        /* \"#utility.yul\":10065:10068   */\n      dup3\n        /* \"#utility.yul\":9976:10069   */\n      tag_469\n      jump\t// in\n    tag_468:\n        /* \"#utility.yul\":10094:10096   */\n      0x20\n        /* \"#utility.yul\":10089:10092   */\n      dup3\n        /* \"#utility.yul\":10085:10097   */\n      add\n        /* \"#utility.yul\":10078:10097   */\n      swap1\n      pop\n        /* \"#utility.yul\":9737:10103   */\n      swap2\n      swap1\n      pop\n      jump\t// out\n        /* \"#utility.yul\":10109:10475   */\n    tag_470:\n        /* \"#utility.yul\":10251:10254   */\n      0x00\n        /* \"#utility.yul\":10272:10339   */\n      tag_472\n        /* \"#utility.yul\":10336:10338   */\n      0x2f\n        /* \"#utility.yul\":10331:10334   */\n      dup4\n        /* \"#utility.yul\":10272:10339   */\n      tag_417\n      jump\t// in\n    tag_472:\n        /* \"#utility.yul\":10265:10339   */\n      swap2\n      pop\n        /* \"#utility.yul\":10348:10441   */\n      tag_473\n        /* \"#utility.yul\":10437:10440   */\n      dup3\n        /* \"#utility.yul\":10348:10441   */\n      tag_474\n      jump\t// in\n    tag_473:\n        /* \"#utility.yul\":10466:10468   */\n      0x40\n        /* \"#utility.yul\":10461:10464   */\n      dup3\n        /* \"#utility.yul\":10457:10469   */\n      add\n        /* \"#utility.yul\":10450:10469   */\n      swap1\n      pop\n        /* \"#utility.yul\":10109:10475   */\n      swap2\n      swap1\n      pop\n      jump\t// out\n        /* \"#utility.yul\":10481:10847   */\n    tag_475:\n        /* \"#utility.yul\":10623:10626   */\n      0x00\n        /* \"#utility.yul\":10644:10711   */\n      tag_477\n        /* \"#utility.yul\":10708:10710   */\n      0x2a\n        /* \"#utility.yul\":10703:10706   */\n      dup4\n        /* \"#utility.yul\":10644:10711   */\n      tag_417\n      jump\t// in\n    tag_477:\n        /* \"#utility.yul\":10637:10711   */\n      swap2\n      pop\n        /* \"#utility.yul\":10720:10813   */\n      tag_478\n        /* \"#utility.yul\":10809:10812   */\n      dup3\n        /* \"#utility.yul\":10720:10813   */\n      tag_479\n      jump\t// in\n    tag_478:\n        /* \"#utility.yul\":10838:10840   */\n      0x40\n        /* \"#utility.yul\":10833:10836   */\n      dup3\n        /* \"#utility.yul\":10829:10841   */\n      add\n        /* \"#utility.yul\":10822:10841   */\n      swap1\n      pop\n        /* \"#utility.yul\":10481:10847   */\n      swap2\n      swap1\n      pop\n      jump\t// out\n        /* \"#utility.yul\":10853:11219   */\n    tag_480:\n        /* \"#utility.yul\":10995:10998   */\n      0x00\n        /* \"#utility.yul\":11016:11083   */\n      tag_482\n        /* \"#utility.yul\":11080:11082   */\n      0x1d\n        /* \"#utility.yul\":11075:11078   */\n      dup4\n        /* \"#utility.yul\":11016:11083   */\n      tag_417\n      jump\t// in\n    tag_482:\n        /* \"#utility.yul\":11009:11083   */\n      swap2\n      pop\n        /* \"#utility.yul\":11092:11185   */\n      tag_483\n        /* \"#utility.yul\":11181:11184   */\n      dup3\n        /* \"#utility.yul\":11092:11185   */\n      tag_484\n      jump\t// in\n    tag_483:\n        /* \"#utility.yul\":11210:11212   */\n      0x20\n        /* \"#utility.yul\":11205:11208   */\n      dup3\n        /* \"#utility.yul\":11201:11213   */\n      add\n        /* \"#utility.yul\":11194:11213   */\n      swap1\n      pop\n        /* \"#utility.yul\":10853:11219   */\n      swap2\n      swap1\n      pop\n      jump\t// out\n        /* \"#utility.yul\":11225:11591   */\n    tag_485:\n        /* \"#utility.yul\":11367:11370   */\n      0x00\n        /* \"#utility.yul\":11388:11455   */\n      tag_487\n        /* \"#utility.yul\":11452:11454   */\n      0x23\n        /* \"#utility.yul\":11447:11450   */\n      dup4\n        /* \"#utility.yul\":11388:11455   */\n      tag_417\n      jump\t// in\n    tag_487:\n        /* \"#utility.yul\":11381:11455   */\n      swap2\n      pop\n        /* \"#utility.yul\":11464:11557   */\n      tag_488\n        /* \"#utility.yul\":11553:11556   */\n      dup3\n        /* \"#utility.yul\":11464:11557   */\n      tag_489\n      jump\t// in\n    tag_488:\n        /* \"#utility.yul\":11582:11584   */\n      0x40\n        /* \"#utility.yul\":11577:11580   */\n      dup3\n        /* \"#utility.yul\":11573:11585   */\n      add\n        /* \"#utility.yul\":11566:11585   */\n      swap1\n      pop\n        /* \"#utility.yul\":11225:11591   */\n      swap2\n      swap1\n      pop\n      jump\t// out\n        /* \"#utility.yul\":11597:11963   */\n    tag_490:\n        /* \"#utility.yul\":11739:11742   */\n      0x00\n        /* \"#utility.yul\":11760:11827   */\n      tag_492\n        /* \"#utility.yul\":11824:11826   */\n      0x30\n        /* \"#utility.yul\":11819:11822   */\n      dup4\n        /* \"#utility.yul\":11760:11827   */\n      tag_417\n      jump\t// in\n    tag_492:\n        /* \"#utility.yul\":11753:11827   */\n      swap2\n      pop\n        /* \"#utility.yul\":11836:11929   */\n      tag_493\n        /* \"#utility.yul\":11925:11928   */\n      dup3\n        /* \"#utility.yul\":11836:11929   */\n      tag_494\n      jump\t// in\n    tag_493:\n        /* \"#utility.yul\":11954:11956   */\n      0x40\n        /* \"#utility.yul\":11949:11952   */\n      dup3\n        /* \"#utility.yul\":11945:11957   */\n      add\n        /* \"#utility.yul\":11938:11957   */\n      swap1\n      pop\n        /* \"#utility.yul\":11597:11963   */\n      swap2\n      swap1\n      pop\n      jump\t// out\n        /* \"#utility.yul\":11969:12335   */\n    tag_495:\n        /* \"#utility.yul\":12111:12114   */\n      0x00\n        /* \"#utility.yul\":12132:12199   */\n      tag_497\n        /* \"#utility.yul\":12196:12198   */\n      0x21\n        /* \"#utility.yul\":12191:12194   */\n      dup4\n        /* \"#utility.yul\":12132:12199   */\n      tag_417\n      jump\t// in\n    tag_497:\n        /* \"#utility.yul\":12125:12199   */\n      swap2\n      pop\n        /* \"#utility.yul\":12208:12301   */\n      tag_498\n        /* \"#utility.yul\":12297:12300   */\n      dup3\n        /* \"#utility.yul\":12208:12301   */\n      tag_499\n      jump\t// in\n    tag_498:\n        /* \"#utility.yul\":12326:12328   */\n      0x40\n        /* \"#utility.yul\":12321:12324   */\n      dup3\n        /* \"#utility.yul\":12317:12329   */\n      add\n        /* \"#utility.yul\":12310:12329   */\n      swap1\n      pop\n        /* \"#utility.yul\":11969:12335   */\n      swap2\n      swap1\n      pop\n      jump\t// out\n        /* \"#utility.yul\":12341:12707   */\n    tag_500:\n        /* \"#utility.yul\":12483:12486   */\n      0x00\n        /* \"#utility.yul\":12504:12571   */\n      tag_502\n        /* \"#utility.yul\":12568:12570   */\n      0x21\n        /* \"#utility.yul\":12563:12566   */\n      dup4\n        /* \"#utility.yul\":12504:12571   */\n      tag_417\n      jump\t// in\n    tag_502:\n        /* \"#utility.yul\":12497:12571   */\n      swap2\n      pop\n        /* \"#utility.yul\":12580:12673   */\n      tag_503\n        /* \"#utility.yul\":12669:12672   */\n      dup3\n        /* \"#utility.yul\":12580:12673   */\n      tag_504\n      jump\t// in\n    tag_503:\n        /* \"#utility.yul\":12698:12700   */\n      0x40\n        /* \"#utility.yul\":12693:12696   */\n      dup3\n        /* \"#utility.yul\":12689:12701   */\n      add\n        /* \"#utility.yul\":12682:12701   */\n      swap1\n      pop\n        /* \"#utility.yul\":12341:12707   */\n      swap2\n      swap1\n      pop\n      jump\t// out\n        /* \"#utility.yul\":12773:13279   */\n    tag_505:\n        /* \"#utility.yul\":12924:12928   */\n      0x40\n        /* \"#utility.yul\":12919:12922   */\n      dup3\n        /* \"#utility.yul\":12915:12929   */\n      add\n        /* \"#utility.yul\":13010:13014   */\n      0x00\n        /* \"#utility.yul\":13003:13008   */\n      dup3\n        /* \"#utility.yul\":12999:13015   */\n      add\n        /* \"#utility.yul\":12993:13016   */\n      mload\n        /* \"#utility.yul\":13029:13090   */\n      tag_507\n        /* \"#utility.yul\":13084:13088   */\n      0x00\n        /* \"#utility.yul\":13079:13082   */\n      dup6\n        /* \"#utility.yul\":13075:13089   */\n      add\n        /* \"#utility.yul\":13061:13073   */\n      dup3\n        /* \"#utility.yul\":13029:13090   */\n      tag_377\n      jump\t// in\n    tag_507:\n        /* \"#utility.yul\":12939:13100   */\n      pop\n        /* \"#utility.yul\":13182:13186   */\n      0x20\n        /* \"#utility.yul\":13175:13180   */\n      dup3\n        /* \"#utility.yul\":13171:13187   */\n      add\n        /* \"#utility.yul\":13165:13188   */\n      mload\n        /* \"#utility.yul\":13201:13262   */\n      tag_508\n        /* \"#utility.yul\":13256:13260   */\n      0x20\n        /* \"#utility.yul\":13251:13254   */\n      dup6\n        /* \"#utility.yul\":13247:13261   */\n      add\n        /* \"#utility.yul\":13233:13245   */\n      dup3\n        /* \"#utility.yul\":13201:13262   */\n      tag_377\n      jump\t// in\n    tag_508:\n        /* \"#utility.yul\":13110:13272   */\n      pop\n        /* \"#utility.yul\":12893:13279   */\n      pop\n        /* \"#utility.yul\":12773:13279   */\n      pop\n      pop\n      jump\t// out\n        /* \"#utility.yul\":13345:14033   */\n    tag_509:\n        /* \"#utility.yul\":13493:13497   */\n      0x40\n        /* \"#utility.yul\":13488:13491   */\n      dup3\n        /* \"#utility.yul\":13484:13498   */\n      add\n        /* \"#utility.yul\":13524:13525   */\n      0x00\n        /* \"#utility.yul\":13598:13602   */\n      dup1\n        /* \"#utility.yul\":13591:13596   */\n      dup4\n        /* \"#utility.yul\":13587:13603   */\n      add\n        /* \"#utility.yul\":13581:13604   */\n      sload\n        /* \"#utility.yul\":13568:13604   */\n      swap1\n      pop\n        /* \"#utility.yul\":13637:13691   */\n      tag_511\n        /* \"#utility.yul\":13681:13690   */\n      dup2\n        /* \"#utility.yul\":13637:13691   */\n      tag_512\n      jump\t// in\n    tag_511:\n        /* \"#utility.yul\":13704:13765   */\n      tag_513\n        /* \"#utility.yul\":13759:13763   */\n      0x00\n        /* \"#utility.yul\":13754:13757   */\n      dup7\n        /* \"#utility.yul\":13750:13764   */\n      add\n        /* \"#utility.yul\":13736:13748   */\n      dup3\n        /* \"#utility.yul\":13704:13765   */\n      tag_377\n      jump\t// in\n    tag_513:\n        /* \"#utility.yul\":13535:13775   */\n      pop\n        /* \"#utility.yul\":13849:13853   */\n      0x01\n        /* \"#utility.yul\":13842:13847   */\n      dup4\n        /* \"#utility.yul\":13838:13854   */\n      add\n        /* \"#utility.yul\":13832:13855   */\n      sload\n        /* \"#utility.yul\":13819:13855   */\n      swap1\n      pop\n        /* \"#utility.yul\":13888:13942   */\n      tag_514\n        /* \"#utility.yul\":13932:13941   */\n      dup2\n        /* \"#utility.yul\":13888:13942   */\n      tag_512\n      jump\t// in\n    tag_514:\n        /* \"#utility.yul\":13955:14016   */\n      tag_515\n        /* \"#utility.yul\":14010:14014   */\n      0x20\n        /* \"#utility.yul\":14005:14008   */\n      dup7\n        /* \"#utility.yul\":14001:14015   */\n      add\n        /* \"#utility.yul\":13987:13999   */\n      dup3\n        /* \"#utility.yul\":13955:14016   */\n      tag_377\n      jump\t// in\n    tag_515:\n        /* \"#utility.yul\":13785:14026   */\n      pop\n        /* \"#utility.yul\":13462:14033   */\n      pop\n      pop\n        /* \"#utility.yul\":13345:14033   */\n      pop\n      pop\n      jump\t// out\n        /* \"#utility.yul\":14039:14157   */\n    tag_516:\n        /* \"#utility.yul\":14126:14150   */\n      tag_518\n        /* \"#utility.yul\":14144:14149   */\n      dup2\n        /* \"#utility.yul\":14126:14150   */\n      tag_519\n      jump\t// in\n    tag_518:\n        /* \"#utility.yul\":14121:14124   */\n      dup3\n        /* \"#utility.yul\":14114:14151   */\n      mstore\n        /* \"#utility.yul\":14039:14157   */\n      pop\n      pop\n      jump\t// out\n        /* \"#utility.yul\":14163:14385   */\n    tag_32:\n        /* \"#utility.yul\":14256:14260   */\n      0x00\n        /* \"#utility.yul\":14294:14296   */\n      0x20\n        /* \"#utility.yul\":14283:14292   */\n      dup3\n        /* \"#utility.yul\":14279:14297   */\n      add\n        /* \"#utility.yul\":14271:14297   */\n      swap1\n      pop\n        /* \"#utility.yul\":14307:14378   */\n      tag_521\n        /* \"#utility.yul\":14375:14376   */\n      0x00\n        /* \"#utility.yul\":14364:14373   */\n      dup4\n        /* \"#utility.yul\":14360:14377   */\n      add\n        /* \"#utility.yul\":14351:14357   */\n      dup5\n        /* \"#utility.yul\":14307:14378   */\n      tag_378\n      jump\t// in\n    tag_521:\n        /* \"#utility.yul\":14163:14385   */\n      swap3\n      swap2\n      pop\n      pop\n      jump\t// out\n        /* \"#utility.yul\":14391:15915   */\n    tag_44:\n        /* \"#utility.yul\":14861:14865   */\n      0x00\n        /* \"#utility.yul\":14899:14902   */\n      0x01a0\n        /* \"#utility.yul\":14888:14897   */\n      dup3\n        /* \"#utility.yul\":14884:14903   */\n      add\n        /* \"#utility.yul\":14876:14903   */\n      swap1\n      pop\n        /* \"#utility.yul\":14913:14978   */\n      tag_523\n        /* \"#utility.yul\":14975:14976   */\n      0x00\n        /* \"#utility.yul\":14964:14973   */\n      dup4\n        /* \"#utility.yul\":14960:14977   */\n      add\n        /* \"#utility.yul\":14951:14957   */\n      dup15\n        /* \"#utility.yul\":14913:14978   */\n      tag_396\n      jump\t// in\n    tag_523:\n        /* \"#utility.yul\":14988:15060   */\n      tag_524\n        /* \"#utility.yul\":15056:15058   */\n      0x20\n        /* \"#utility.yul\":15045:15054   */\n      dup4\n        /* \"#utility.yul\":15041:15059   */\n      add\n        /* \"#utility.yul\":15032:15038   */\n      dup14\n        /* \"#utility.yul\":14988:15060   */\n      tag_516\n      jump\t// in\n    tag_524:\n        /* \"#utility.yul\":15070:15148   */\n      tag_525\n        /* \"#utility.yul\":15144:15146   */\n      0x40\n        /* \"#utility.yul\":15133:15142   */\n      dup4\n        /* \"#utility.yul\":15129:15147   */\n      add\n        /* \"#utility.yul\":15120:15126   */\n      dup13\n        /* \"#utility.yul\":15070:15148   */\n      tag_400\n      jump\t// in\n    tag_525:\n        /* \"#utility.yul\":15158:15230   */\n      tag_526\n        /* \"#utility.yul\":15226:15228   */\n      0x60\n        /* \"#utility.yul\":15215:15224   */\n      dup4\n        /* \"#utility.yul\":15211:15229   */\n      add\n        /* \"#utility.yul\":15202:15208   */\n      dup12\n        /* \"#utility.yul\":15158:15230   */\n      tag_378\n      jump\t// in\n    tag_526:\n        /* \"#utility.yul\":15240:15367   */\n      tag_527\n        /* \"#utility.yul\":15362:15365   */\n      0x80\n        /* \"#utility.yul\":15351:15360   */\n      dup4\n        /* \"#utility.yul\":15347:15366   */\n      add\n        /* \"#utility.yul\":15338:15344   */\n      dup11\n        /* \"#utility.yul\":15240:15367   */\n      tag_505\n      jump\t// in\n    tag_527:\n        /* \"#utility.yul\":15377:15504   */\n      tag_528\n        /* \"#utility.yul\":15499:15502   */\n      0xc0\n        /* \"#utility.yul\":15488:15497   */\n      dup4\n        /* \"#utility.yul\":15484:15503   */\n      add\n        /* \"#utility.yul\":15475:15481   */\n      dup10\n        /* \"#utility.yul\":15377:15504   */\n      tag_505\n      jump\t// in\n    tag_528:\n        /* \"#utility.yul\":15514:15587   */\n      tag_529\n        /* \"#utility.yul\":15582:15585   */\n      0x0100\n        /* \"#utility.yul\":15571:15580   */\n      dup4\n        /* \"#utility.yul\":15567:15586   */\n      add\n        /* \"#utility.yul\":15558:15564   */\n      dup9\n        /* \"#utility.yul\":15514:15587   */\n      tag_516\n      jump\t// in\n    tag_529:\n        /* \"#utility.yul\":15597:15664   */\n      tag_530\n        /* \"#utility.yul\":15659:15662   */\n      0x0120\n        /* \"#utility.yul\":15648:15657   */\n      dup4\n        /* \"#utility.yul\":15644:15663   */\n      add\n        /* \"#utility.yul\":15635:15641   */\n      dup8\n        /* \"#utility.yul\":15597:15664   */\n      tag_396\n      jump\t// in\n    tag_530:\n        /* \"#utility.yul\":15674:15741   */\n      tag_531\n        /* \"#utility.yul\":15736:15739   */\n      0x0140\n        /* \"#utility.yul\":15725:15734   */\n      dup4\n        /* \"#utility.yul\":15721:15740   */\n      add\n        /* \"#utility.yul\":15712:15718   */\n      dup7\n        /* \"#utility.yul\":15674:15741   */\n      tag_396\n      jump\t// in\n    tag_531:\n        /* \"#utility.yul\":15751:15824   */\n      tag_532\n        /* \"#utility.yul\":15819:15822   */\n      0x0160\n        /* \"#utility.yul\":15808:15817   */\n      dup4\n        /* \"#utility.yul\":15804:15823   */\n      add\n        /* \"#utility.yul\":15795:15801   */\n      dup6\n        /* \"#utility.yul\":15751:15824   */\n      tag_516\n      jump\t// in\n    tag_532:\n        /* \"#utility.yul\":15834:15908   */\n      tag_533\n        /* \"#utility.yul\":15903:15906   */\n      0x0180\n        /* \"#utility.yul\":15892:15901   */\n      dup4\n        /* \"#utility.yul\":15888:15907   */\n      add\n        /* \"#utility.yul\":15878:15885   */\n      dup5\n        /* \"#utility.yul\":15834:15908   */\n      tag_516\n      jump\t// in\n    tag_533:\n        /* \"#utility.yul\":14391:15915   */\n      swap13\n      swap12\n      pop\n      pop\n      pop\n      pop\n      pop\n      pop\n      pop\n      pop\n      pop\n      pop\n      pop\n      pop\n      jump\t// out\n        /* \"#utility.yul\":15921:16139   */\n    tag_56:\n        /* \"#utility.yul\":16012:16016   */\n      0x00\n        /* \"#utility.yul\":16050:16052   */\n      0x20\n        /* \"#utility.yul\":16039:16048   */\n      dup3\n        /* \"#utility.yul\":16035:16053   */\n      add\n        /* \"#utility.yul\":16027:16053   */\n      swap1\n      pop\n        /* \"#utility.yul\":16063:16132   */\n      tag_535\n        /* \"#utility.yul\":16129:16130   */\n      0x00\n        /* \"#utility.yul\":16118:16127   */\n      dup4\n        /* \"#utility.yul\":16114:16131   */\n      add\n        /* \"#utility.yul\":16105:16111   */\n      dup5\n        /* \"#utility.yul\":16063:16132   */\n      tag_407\n      jump\t// in\n    tag_535:\n        /* \"#utility.yul\":15921:16139   */\n      swap3\n      swap2\n      pop\n      pop\n      jump\t// out\n        /* \"#utility.yul\":16145:16564   */\n    tag_159:\n        /* \"#utility.yul\":16311:16315   */\n      0x00\n        /* \"#utility.yul\":16349:16351   */\n      0x20\n        /* \"#utility.yul\":16338:16347   */\n      dup3\n        /* \"#utility.yul\":16334:16352   */\n      add\n        /* \"#utility.yul\":16326:16352   */\n      swap1\n      pop\n        /* \"#utility.yul\":16398:16407   */\n      dup2\n        /* \"#utility.yul\":16392:16396   */\n      dup2\n        /* \"#utility.yul\":16388:16408   */\n      sub\n        /* \"#utility.yul\":16384:16385   */\n      0x00\n        /* \"#utility.yul\":16373:16382   */\n      dup4\n        /* \"#utility.yul\":16369:16386   */\n      add\n        /* \"#utility.yul\":16362:16409   */\n      mstore\n        /* \"#utility.yul\":16426:16557   */\n      tag_537\n        /* \"#utility.yul\":16552:16556   */\n      dup2\n        /* \"#utility.yul\":16426:16557   */\n      tag_414\n      jump\t// in\n    tag_537:\n        /* \"#utility.yul\":16418:16557   */\n      swap1\n      pop\n        /* \"#utility.yul\":16145:16564   */\n      swap2\n      swap1\n      pop\n      jump\t// out\n        /* \"#utility.yul\":16570:16989   */\n    tag_254:\n        /* \"#utility.yul\":16736:16740   */\n      0x00\n        /* \"#utility.yul\":16774:16776   */\n      0x20\n        /* \"#utility.yul\":16763:16772   */\n      dup3\n        /* \"#utility.yul\":16759:16777   */\n      add\n        /* \"#utility.yul\":16751:16777   */\n      swap1\n      pop\n        /* \"#utility.yul\":16823:16832   */\n      dup2\n        /* \"#utility.yul\":16817:16821   */\n      dup2\n        /* \"#utility.yul\":16813:16833   */\n      sub\n        /* \"#utility.yul\":16809:16810   */\n      0x00\n        /* \"#utility.yul\":16798:16807   */\n      dup4\n        /* \"#utility.yul\":16794:16811   */\n      add\n        /* \"#utility.yul\":16787:16834   */\n      mstore\n        /* \"#utility.yul\":16851:16982   */\n      tag_539\n        /* \"#utility.yul\":16977:16981   */\n      dup2\n        /* \"#utility.yul\":16851:16982   */\n      tag_420\n      jump\t// in\n    tag_539:\n        /* \"#utility.yul\":16843:16982   */\n      swap1\n      pop\n        /* \"#utility.yul\":16570:16989   */\n      swap2\n      swap1\n      pop\n      jump\t// out\n        /* \"#utility.yul\":16995:17414   */\n    tag_264:\n        /* \"#utility.yul\":17161:17165   */\n      0x00\n        /* \"#utility.yul\":17199:17201   */\n      0x20\n        /* \"#utility.yul\":17188:17197   */\n      dup3\n        /* \"#utility.yul\":17184:17202   */\n      add\n        /* \"#utility.yul\":17176:17202   */\n      swap1\n      pop\n        /* \"#utility.yul\":17248:17257   */\n      dup2\n        /* \"#utility.yul\":17242:17246   */\n      dup2\n        /* \"#utility.yul\":17238:17258   */\n      sub\n        /* \"#utility.yul\":17234:17235   */\n      0x00\n        /* \"#utility.yul\":17223:17232   */\n      dup4\n        /* \"#utility.yul\":17219:17236   */\n      add\n        /* \"#utility.yul\":17212:17259   */\n      mstore\n        /* \"#utility.yul\":17276:17407   */\n      tag_541\n        /* \"#utility.yul\":17402:17406   */\n      dup2\n        /* \"#utility.yul\":17276:17407   */\n      tag_425\n      jump\t// in\n    tag_541:\n        /* \"#utility.yul\":17268:17407   */\n      swap1\n      pop\n        /* \"#utility.yul\":16995:17414   */\n      swap2\n      swap1\n      pop\n      jump\t// out\n        /* \"#utility.yul\":17420:17839   */\n    tag_68:\n        /* \"#utility.yul\":17586:17590   */\n      0x00\n        /* \"#utility.yul\":17624:17626   */\n      0x20\n        /* \"#utility.yul\":17613:17622   */\n      dup3\n        /* \"#utility.yul\":17609:17627   */\n      add\n        /* \"#utility.yul\":17601:17627   */\n      swap1\n      pop\n        /* \"#utility.yul\":17673:17682   */\n      dup2\n        /* \"#utility.yul\":17667:17671   */\n      dup2\n        /* \"#utility.yul\":17663:17683   */\n      sub\n        /* \"#utility.yul\":17659:17660   */\n      0x00\n        /* \"#utility.yul\":17648:17657   */\n      dup4\n        /* \"#utility.yul\":17644:17661   */\n      add\n        /* \"#utility.yul\":17637:17684   */\n      mstore\n        /* \"#utility.yul\":17701:17832   */\n      tag_543\n        /* \"#utility.yul\":17827:17831   */\n      dup2\n        /* \"#utility.yul\":17701:17832   */\n      tag_430\n      jump\t// in\n    tag_543:\n        /* \"#utility.yul\":17693:17832   */\n      swap1\n      pop\n        /* \"#utility.yul\":17420:17839   */\n      swap2\n      swap1\n      pop\n      jump\t// out\n        /* \"#utility.yul\":17845:18264   */\n    tag_84:\n        /* \"#utility.yul\":18011:18015   */\n      0x00\n        /* \"#utility.yul\":18049:18051   */\n      0x20\n        /* \"#utility.yul\":18038:18047   */\n      dup3\n        /* \"#utility.yul\":18034:18052   */\n      add\n        /* \"#utility.yul\":18026:18052   */\n      swap1\n      pop\n        /* \"#utility.yul\":18098:18107   */\n      dup2\n        /* \"#utility.yul\":18092:18096   */\n      dup2\n        /* \"#utility.yul\":18088:18108   */\n      sub\n        /* \"#utility.yul\":18084:18085   */\n      0x00\n        /* \"#utility.yul\":18073:18082   */\n      dup4\n        /* \"#utility.yul\":18069:18086   */\n      add\n        /* \"#utility.yul\":18062:18109   */\n      mstore\n        /* \"#utility.yul\":18126:18257   */\n      tag_545\n        /* \"#utility.yul\":18252:18256   */\n      dup2\n        /* \"#utility.yul\":18126:18257   */\n      tag_435\n      jump\t// in\n    tag_545:\n        /* \"#utility.yul\":18118:18257   */\n      swap1\n      pop\n        /* \"#utility.yul\":17845:18264   */\n      swap2\n      swap1\n      pop\n      jump\t// out\n        /* \"#utility.yul\":18270:18689   */\n    tag_78:\n        /* \"#utility.yul\":18436:18440   */\n      0x00\n        /* \"#utility.yul\":18474:18476   */\n      0x20\n        /* \"#utility.yul\":18463:18472   */\n      dup3\n        /* \"#utility.yul\":18459:18477   */\n      add\n        /* \"#utility.yul\":18451:18477   */\n      swap1\n      pop\n        /* \"#utility.yul\":18523:18532   */\n      dup2\n        /* \"#utility.yul\":18517:18521   */\n      dup2\n        /* \"#utility.yul\":18513:18533   */\n      sub\n        /* \"#utility.yul\":18509:18510   */\n      0x00\n        /* \"#utility.yul\":18498:18507   */\n      dup4\n        /* \"#utility.yul\":18494:18511   */\n      add\n        /* \"#utility.yul\":18487:18534   */\n      mstore\n        /* \"#utility.yul\":18551:18682   */\n      tag_547\n        /* \"#utility.yul\":18677:18681   */\n      dup2\n        /* \"#utility.yul\":18551:18682   */\n      tag_440\n      jump\t// in\n    tag_547:\n        /* \"#utility.yul\":18543:18682   */\n      swap1\n      pop\n        /* \"#utility.yul\":18270:18689   */\n      swap2\n      swap1\n      pop\n      jump\t// out\n        /* \"#utility.yul\":18695:19114   */\n    tag_221:\n        /* \"#utility.yul\":18861:18865   */\n      0x00\n        /* \"#utility.yul\":18899:18901   */\n      0x20\n        /* \"#utility.yul\":18888:18897   */\n      dup3\n        /* \"#utility.yul\":18884:18902   */\n      add\n        /* \"#utility.yul\":18876:18902   */\n      swap1\n      pop\n        /* \"#utility.yul\":18948:18957   */\n      dup2\n        /* \"#utility.yul\":18942:18946   */\n      dup2\n        /* \"#utility.yul\":18938:18958   */\n      sub\n        /* \"#utility.yul\":18934:18935   */\n      0x00\n        /* \"#utility.yul\":18923:18932   */\n      dup4\n        /* \"#utility.yul\":18919:18936   */\n      add\n        /* \"#utility.yul\":18912:18959   */\n      mstore\n        /* \"#utility.yul\":18976:19107   */\n      tag_549\n        /* \"#utility.yul\":19102:19106   */\n      dup2\n        /* \"#utility.yul\":18976:19107   */\n      tag_445\n      jump\t// in\n    tag_549:\n        /* \"#utility.yul\":18968:19107   */\n      swap1\n      pop\n        /* \"#utility.yul\":18695:19114   */\n      swap2\n      swap1\n      pop\n      jump\t// out\n        /* \"#utility.yul\":19120:19539   */\n    tag_261:\n        /* \"#utility.yul\":19286:19290   */\n      0x00\n        /* \"#utility.yul\":19324:19326   */\n      0x20\n        /* \"#utility.yul\":19313:19322   */\n      dup3\n        /* \"#utility.yul\":19309:19327   */\n      add\n        /* \"#utility.yul\":19301:19327   */\n      swap1\n      pop\n        /* \"#utility.yul\":19373:19382   */\n      dup2\n        /* \"#utility.yul\":19367:19371   */\n      dup2\n        /* \"#utility.yul\":19363:19383   */\n      sub\n        /* \"#utility.yul\":19359:19360   */\n      0x00\n        /* \"#utility.yul\":19348:19357   */\n      dup4\n        /* \"#utility.yul\":19344:19361   */\n      add\n        /* \"#utility.yul\":19337:19384   */\n      mstore\n        /* \"#utility.yul\":19401:19532   */\n      tag_551\n        /* \"#utility.yul\":19527:19531   */\n      dup2\n        /* \"#utility.yul\":19401:19532   */\n      tag_450\n      jump\t// in\n    tag_551:\n        /* \"#utility.yul\":19393:19532   */\n      swap1\n      pop\n        /* \"#utility.yul\":19120:19539   */\n      swap2\n      swap1\n      pop\n      jump\t// out\n        /* \"#utility.yul\":19545:19964   */\n    tag_149:\n        /* \"#utility.yul\":19711:19715   */\n      0x00\n        /* \"#utility.yul\":19749:19751   */\n      0x20\n        /* \"#utility.yul\":19738:19747   */\n      dup3\n        /* \"#utility.yul\":19734:19752   */\n      add\n        /* \"#utility.yul\":19726:19752   */\n      swap1\n      pop\n        /* \"#utility.yul\":19798:19807   */\n      dup2\n        /* \"#utility.yul\":19792:19796   */\n      dup2\n        /* \"#utility.yul\":19788:19808   */\n      sub\n        /* \"#utility.yul\":19784:19785   */\n      0x00\n        /* \"#utility.yul\":19773:19782   */\n      dup4\n        /* \"#utility.yul\":19769:19786   */\n      add\n        /* \"#utility.yul\":19762:19809   */\n      mstore\n        /* \"#utility.yul\":19826:19957   */\n      tag_553\n        /* \"#utility.yul\":19952:19956   */\n      dup2\n        /* \"#utility.yul\":19826:19957   */\n      tag_455\n      jump\t// in\n    tag_553:\n        /* \"#utility.yul\":19818:19957   */\n      swap1\n      pop\n        /* \"#utility.yul\":19545:19964   */\n      swap2\n      swap1\n      pop\n      jump\t// out\n        /* \"#utility.yul\":19970:20389   */\n    tag_227:\n        /* \"#utility.yul\":20136:20140   */\n      0x00\n        /* \"#utility.yul\":20174:20176   */\n      0x20\n        /* \"#utility.yul\":20163:20172   */\n      dup3\n        /* \"#utility.yul\":20159:20177   */\n      add\n        /* \"#utility.yul\":20151:20177   */\n      swap1\n      pop\n        /* \"#utility.yul\":20223:20232   */\n      dup2\n        /* \"#utility.yul\":20217:20221   */\n      dup2\n        /* \"#utility.yul\":20213:20233   */\n      sub\n        /* \"#utility.yul\":20209:20210   */\n      0x00\n        /* \"#utility.yul\":20198:20207   */\n      dup4\n        /* \"#utility.yul\":20194:20211   */\n      add\n        /* \"#utility.yul\":20187:20234   */\n      mstore\n        /* \"#utility.yul\":20251:20382   */\n      tag_555\n        /* \"#utility.yul\":20377:20381   */\n      dup2\n        /* \"#utility.yul\":20251:20382   */\n      tag_460\n      jump\t// in\n    tag_555:\n        /* \"#utility.yul\":20243:20382   */\n      swap1\n      pop\n        /* \"#utility.yul\":19970:20389   */\n      swap2\n      swap1\n      pop\n      jump\t// out\n        /* \"#utility.yul\":20395:20814   */\n    tag_71:\n        /* \"#utility.yul\":20561:20565   */\n      0x00\n        /* \"#utility.yul\":20599:20601   */\n      0x20\n        /* \"#utility.yul\":20588:20597   */\n      dup3\n        /* \"#utility.yul\":20584:20602   */\n      add\n        /* \"#utility.yul\":20576:20602   */\n      swap1\n      pop\n        /* \"#utility.yul\":20648:20657   */\n      dup2\n        /* \"#utility.yul\":20642:20646   */\n      dup2\n        /* \"#utility.yul\":20638:20658   */\n      sub\n        /* \"#utility.yul\":20634:20635   */\n      0x00\n        /* \"#utility.yul\":20623:20632   */\n      dup4\n        /* \"#utility.yul\":20619:20636   */\n      add\n        /* \"#utility.yul\":20612:20659   */\n      mstore\n        /* \"#utility.yul\":20676:20807   */\n      tag_557\n        /* \"#utility.yul\":20802:20806   */\n      dup2\n        /* \"#utility.yul\":20676:20807   */\n      tag_465\n      jump\t// in\n    tag_557:\n        /* \"#utility.yul\":20668:20807   */\n      swap1\n      pop\n        /* \"#utility.yul\":20395:20814   */\n      swap2\n      swap1\n      pop\n      jump\t// out\n        /* \"#utility.yul\":20820:21239   */\n    tag_248:\n        /* \"#utility.yul\":20986:20990   */\n      0x00\n        /* \"#utility.yul\":21024:21026   */\n      0x20\n        /* \"#utility.yul\":21013:21022   */\n      dup3\n        /* \"#utility.yul\":21009:21027   */\n      add\n        /* \"#utility.yul\":21001:21027   */\n      swap1\n      pop\n        /* \"#utility.yul\":21073:21082   */\n      dup2\n        /* \"#utility.yul\":21067:21071   */\n      dup2\n        /* \"#utility.yul\":21063:21083   */\n      sub\n        /* \"#utility.yul\":21059:21060   */\n      0x00\n        /* \"#utility.yul\":21048:21057   */\n      dup4\n        /* \"#utility.yul\":21044:21061   */\n      add\n        /* \"#utility.yul\":21037:21084   */\n      mstore\n        /* \"#utility.yul\":21101:21232   */\n      tag_559\n        /* \"#utility.yul\":21227:21231   */\n      dup2\n        /* \"#utility.yul\":21101:21232   */\n      tag_470\n      jump\t// in\n    tag_559:\n        /* \"#utility.yul\":21093:21232   */\n      swap1\n      pop\n        /* \"#utility.yul\":20820:21239   */\n      swap2\n      swap1\n      pop\n      jump\t// out\n        /* \"#utility.yul\":21245:21664   */\n    tag_156:\n        /* \"#utility.yul\":21411:21415   */\n      0x00\n        /* \"#utility.yul\":21449:21451   */\n      0x20\n        /* \"#utility.yul\":21438:21447   */\n      dup3\n        /* \"#utility.yul\":21434:21452   */\n      add\n        /* \"#utility.yul\":21426:21452   */\n      swap1\n      pop\n        /* \"#utility.yul\":21498:21507   */\n      dup2\n        /* \"#utility.yul\":21492:21496   */\n      dup2\n        /* \"#utility.yul\":21488:21508   */\n      sub\n        /* \"#utility.yul\":21484:21485   */\n      0x00\n        /* \"#utility.yul\":21473:21482   */\n      dup4\n        /* \"#utility.yul\":21469:21486   */\n      add\n        /* \"#utility.yul\":21462:21509   */\n      mstore\n        /* \"#utility.yul\":21526:21657   */\n      tag_561\n        /* \"#utility.yul\":21652:21656   */\n      dup2\n        /* \"#utility.yul\":21526:21657   */\n      tag_475\n      jump\t// in\n    tag_561:\n        /* \"#utility.yul\":21518:21657   */\n      swap1\n      pop\n        /* \"#utility.yul\":21245:21664   */\n      swap2\n      swap1\n      pop\n      jump\t// out\n        /* \"#utility.yul\":21670:22089   */\n    tag_269:\n        /* \"#utility.yul\":21836:21840   */\n      0x00\n        /* \"#utility.yul\":21874:21876   */\n      0x20\n        /* \"#utility.yul\":21863:21872   */\n      dup3\n        /* \"#utility.yul\":21859:21877   */\n      add\n        /* \"#utility.yul\":21851:21877   */\n      swap1\n      pop\n        /* \"#utility.yul\":21923:21932   */\n      dup2\n        /* \"#utility.yul\":21917:21921   */\n      dup2\n        /* \"#utility.yul\":21913:21933   */\n      sub\n        /* \"#utility.yul\":21909:21910   */\n      0x00\n        /* \"#utility.yul\":21898:21907   */\n      dup4\n        /* \"#utility.yul\":21894:21911   */\n      add\n        /* \"#utility.yul\":21887:21934   */\n      mstore\n        /* \"#utility.yul\":21951:22082   */\n      tag_563\n        /* \"#utility.yul\":22077:22081   */\n      dup2\n        /* \"#utility.yul\":21951:22082   */\n      tag_480\n      jump\t// in\n    tag_563:\n        /* \"#utility.yul\":21943:22082   */\n      swap1\n      pop\n        /* \"#utility.yul\":21670:22089   */\n      swap2\n      swap1\n      pop\n      jump\t// out\n        /* \"#utility.yul\":22095:22514   */\n    tag_94:\n        /* \"#utility.yul\":22261:22265   */\n      0x00\n        /* \"#utility.yul\":22299:22301   */\n      0x20\n        /* \"#utility.yul\":22288:22297   */\n      dup3\n        /* \"#utility.yul\":22284:22302   */\n      add\n        /* \"#utility.yul\":22276:22302   */\n      swap1\n      pop\n        /* \"#utility.yul\":22348:22357   */\n      dup2\n        /* \"#utility.yul\":22342:22346   */\n      dup2\n        /* \"#utility.yul\":22338:22358   */\n      sub\n        /* \"#utility.yul\":22334:22335   */\n      0x00\n        /* \"#utility.yul\":22323:22332   */\n      dup4\n        /* \"#utility.yul\":22319:22336   */\n      add\n        /* \"#utility.yul\":22312:22359   */\n      mstore\n        /* \"#utility.yul\":22376:22507   */\n      tag_565\n        /* \"#utility.yul\":22502:22506   */\n      dup2\n        /* \"#utility.yul\":22376:22507   */\n      tag_485\n      jump\t// in\n    tag_565:\n        /* \"#utility.yul\":22368:22507   */\n      swap1\n      pop\n        /* \"#utility.yul\":22095:22514   */\n      swap2\n      swap1\n      pop\n      jump\t// out\n        /* \"#utility.yul\":22520:22939   */\n    tag_224:\n        /* \"#utility.yul\":22686:22690   */\n      0x00\n        /* \"#utility.yul\":22724:22726   */\n      0x20\n        /* \"#utility.yul\":22713:22722   */\n      dup3\n        /* \"#utility.yul\":22709:22727   */\n      add\n        /* \"#utility.yul\":22701:22727   */\n      swap1\n      pop\n        /* \"#utility.yul\":22773:22782   */\n      dup2\n        /* \"#utility.yul\":22767:22771   */\n      dup2\n        /* \"#utility.yul\":22763:22783   */\n      sub\n        /* \"#utility.yul\":22759:22760   */\n      0x00\n        /* \"#utility.yul\":22748:22757   */\n      dup4\n        /* \"#utility.yul\":22744:22761   */\n      add\n        /* \"#utility.yul\":22737:22784   */\n      mstore\n        /* \"#utility.yul\":22801:22932   */\n      tag_567\n        /* \"#utility.yul\":22927:22931   */\n      dup2\n        /* \"#utility.yul\":22801:22932   */\n      tag_490\n      jump\t// in\n    tag_567:\n        /* \"#utility.yul\":22793:22932   */\n      swap1\n      pop\n        /* \"#utility.yul\":22520:22939   */\n      swap2\n      swap1\n      pop\n      jump\t// out\n        /* \"#utility.yul\":22945:23364   */\n    tag_60:\n        /* \"#utility.yul\":23111:23115   */\n      0x00\n        /* \"#utility.yul\":23149:23151   */\n      0x20\n        /* \"#utility.yul\":23138:23147   */\n      dup3\n        /* \"#utility.yul\":23134:23152   */\n      add\n        /* \"#utility.yul\":23126:23152   */\n      swap1\n      pop\n        /* \"#utility.yul\":23198:23207   */\n      dup2\n        /* \"#utility.yul\":23192:23196   */\n      dup2\n        /* \"#utility.yul\":23188:23208   */\n      sub\n        /* \"#utility.yul\":23184:23185   */\n      0x00\n        /* \"#utility.yul\":23173:23182   */\n      dup4\n        /* \"#utility.yul\":23169:23186   */\n      add\n        /* \"#utility.yul\":23162:23209   */\n      mstore\n        /* \"#utility.yul\":23226:23357   */\n      tag_569\n        /* \"#utility.yul\":23352:23356   */\n      dup2\n        /* \"#utility.yul\":23226:23357   */\n      tag_495\n      jump\t// in\n    tag_569:\n        /* \"#utility.yul\":23218:23357   */\n      swap1\n      pop\n        /* \"#utility.yul\":22945:23364   */\n      swap2\n      swap1\n      pop\n      jump\t// out\n        /* \"#utility.yul\":23370:23789   */\n    tag_214:\n        /* \"#utility.yul\":23536:23540   */\n      0x00\n        /* \"#utility.yul\":23574:23576   */\n      0x20\n        /* \"#utility.yul\":23563:23572   */\n      dup3\n        /* \"#utility.yul\":23559:23577   */\n      add\n        /* \"#utility.yul\":23551:23577   */\n      swap1\n      pop\n        /* \"#utility.yul\":23623:23632   */\n      dup2\n        /* \"#utility.yul\":23617:23621   */\n      dup2\n        /* \"#utility.yul\":23613:23633   */\n      sub\n        /* \"#utility.yul\":23609:23610   */\n      0x00\n        /* \"#utility.yul\":23598:23607   */\n      dup4\n        /* \"#utility.yul\":23594:23611   */\n      add\n        /* \"#utility.yul\":23587:23634   */\n      mstore\n        /* \"#utility.yul\":23651:23782   */\n      tag_571\n        /* \"#utility.yul\":23777:23781   */\n      dup2\n        /* \"#utility.yul\":23651:23782   */\n      tag_500\n      jump\t// in\n    tag_571:\n        /* \"#utility.yul\":23643:23782   */\n      swap1\n      pop\n        /* \"#utility.yul\":23370:23789   */\n      swap2\n      swap1\n      pop\n      jump\t// out\n        /* \"#utility.yul\":23795:24274   */\n    tag_250:\n        /* \"#utility.yul\":23964:23968   */\n      0x00\n        /* \"#utility.yul\":24002:24004   */\n      0x40\n        /* \"#utility.yul\":23991:24000   */\n      dup3\n        /* \"#utility.yul\":23987:24005   */\n      add\n        /* \"#utility.yul\":23979:24005   */\n      swap1\n      pop\n        /* \"#utility.yul\":24015:24086   */\n      tag_573\n        /* \"#utility.yul\":24083:24084   */\n      0x00\n        /* \"#utility.yul\":24072:24081   */\n      dup4\n        /* \"#utility.yul\":24068:24085   */\n      add\n        /* \"#utility.yul\":24059:24065   */\n      dup6\n        /* \"#utility.yul\":24015:24086   */\n      tag_516\n      jump\t// in\n    tag_573:\n        /* \"#utility.yul\":24133:24142   */\n      dup2\n        /* \"#utility.yul\":24127:24131   */\n      dup2\n        /* \"#utility.yul\":24123:24143   */\n      sub\n        /* \"#utility.yul\":24118:24120   */\n      0x20\n        /* \"#utility.yul\":24107:24116   */\n      dup4\n        /* \"#utility.yul\":24103:24121   */\n      add\n        /* \"#utility.yul\":24096:24144   */\n      mstore\n        /* \"#utility.yul\":24161:24267   */\n      tag_574\n        /* \"#utility.yul\":24262:24266   */\n      dup2\n        /* \"#utility.yul\":24253:24259   */\n      dup5\n        /* \"#utility.yul\":24161:24267   */\n      tag_382\n      jump\t// in\n    tag_574:\n        /* \"#utility.yul\":24153:24267   */\n      swap1\n      pop\n        /* \"#utility.yul\":23795:24274   */\n      swap4\n      swap3\n      pop\n      pop\n      pop\n      jump\t// out\n        /* \"#utility.yul\":24280:25038   */\n    tag_143:\n        /* \"#utility.yul\":24559:24563   */\n      0x00\n        /* \"#utility.yul\":24597:24600   */\n      0xc0\n        /* \"#utility.yul\":24586:24595   */\n      dup3\n        /* \"#utility.yul\":24582:24601   */\n      add\n        /* \"#utility.yul\":24574:24601   */\n      swap1\n      pop\n        /* \"#utility.yul\":24611:24682   */\n      tag_576\n        /* \"#utility.yul\":24679:24680   */\n      0x00\n        /* \"#utility.yul\":24668:24677   */\n      dup4\n        /* \"#utility.yul\":24664:24681   */\n      add\n        /* \"#utility.yul\":24655:24661   */\n      dup8\n        /* \"#utility.yul\":24611:24682   */\n      tag_516\n      jump\t// in\n    tag_576:\n        /* \"#utility.yul\":24692:24815   */\n      tag_577\n        /* \"#utility.yul\":24811:24813   */\n      0x20\n        /* \"#utility.yul\":24800:24809   */\n      dup4\n        /* \"#utility.yul\":24796:24814   */\n      add\n        /* \"#utility.yul\":24787:24793   */\n      dup7\n        /* \"#utility.yul\":24692:24815   */\n      tag_509\n      jump\t// in\n    tag_577:\n        /* \"#utility.yul\":24825:24948   */\n      tag_578\n        /* \"#utility.yul\":24944:24946   */\n      0x60\n        /* \"#utility.yul\":24933:24942   */\n      dup4\n        /* \"#utility.yul\":24929:24947   */\n      add\n        /* \"#utility.yul\":24920:24926   */\n      dup6\n        /* \"#utility.yul\":24825:24948   */\n      tag_509\n      jump\t// in\n    tag_578:\n        /* \"#utility.yul\":24958:25031   */\n      tag_579\n        /* \"#utility.yul\":25026:25029   */\n      0xa0\n        /* \"#utility.yul\":25015:25024   */\n      dup4\n        /* \"#utility.yul\":25011:25030   */\n      add\n        /* \"#utility.yul\":25002:25008   */\n      dup5\n        /* \"#utility.yul\":24958:25031   */\n      tag_516\n      jump\t// in\n    tag_579:\n        /* \"#utility.yul\":24280:25038   */\n      swap6\n      swap5\n      pop\n      pop\n      pop\n      pop\n      pop\n      jump\t// out\n        /* \"#utility.yul\":25044:25376   */\n    tag_105:\n        /* \"#utility.yul\":25165:25169   */\n      0x00\n        /* \"#utility.yul\":25203:25205   */\n      0x40\n        /* \"#utility.yul\":25192:25201   */\n      dup3\n        /* \"#utility.yul\":25188:25206   */\n      add\n        /* \"#utility.yul\":25180:25206   */\n      swap1\n      pop\n        /* \"#utility.yul\":25216:25287   */\n      tag_581\n        /* \"#utility.yul\":25284:25285   */\n      0x00\n        /* \"#utility.yul\":25273:25282   */\n      dup4\n        /* \"#utility.yul\":25269:25286   */\n      add\n        /* \"#utility.yul\":25260:25266   */\n      dup6\n        /* \"#utility.yul\":25216:25287   */\n      tag_516\n      jump\t// in\n    tag_581:\n        /* \"#utility.yul\":25297:25369   */\n      tag_582\n        /* \"#utility.yul\":25365:25367   */\n      0x20\n        /* \"#utility.yul\":25354:25363   */\n      dup4\n        /* \"#utility.yul\":25350:25368   */\n      add\n        /* \"#utility.yul\":25341:25347   */\n      dup5\n        /* \"#utility.yul\":25297:25369   */\n      tag_516\n      jump\t// in\n    tag_582:\n        /* \"#utility.yul\":25044:25376   */\n      swap4\n      swap3\n      pop\n      pop\n      pop\n      jump\t// out\n        /* \"#utility.yul\":25382:25840   */\n    tag_164:\n        /* \"#utility.yul\":25539:25543   */\n      0x00\n        /* \"#utility.yul\":25577:25579   */\n      0x60\n        /* \"#utility.yul\":25566:25575   */\n      dup3\n        /* \"#utility.yul\":25562:25580   */\n      add\n        /* \"#utility.yul\":25554:25580   */\n      swap1\n      pop\n        /* \"#utility.yul\":25590:25661   */\n      tag_584\n        /* \"#utility.yul\":25658:25659   */\n      0x00\n        /* \"#utility.yul\":25647:25656   */\n      dup4\n        /* \"#utility.yul\":25643:25660   */\n      add\n        /* \"#utility.yul\":25634:25640   */\n      dup7\n        /* \"#utility.yul\":25590:25661   */\n      tag_516\n      jump\t// in\n    tag_584:\n        /* \"#utility.yul\":25671:25743   */\n      tag_585\n        /* \"#utility.yul\":25739:25741   */\n      0x20\n        /* \"#utility.yul\":25728:25737   */\n      dup4\n        /* \"#utility.yul\":25724:25742   */\n      add\n        /* \"#utility.yul\":25715:25721   */\n      dup6\n        /* \"#utility.yul\":25671:25743   */\n      tag_516\n      jump\t// in\n    tag_585:\n        /* \"#utility.yul\":25753:25833   */\n      tag_586\n        /* \"#utility.yul\":25829:25831   */\n      0x40\n        /* \"#utility.yul\":25818:25827   */\n      dup4\n        /* \"#utility.yul\":25814:25832   */\n      add\n        /* \"#utility.yul\":25805:25811   */\n      dup5\n        /* \"#utility.yul\":25753:25833   */\n      tag_410\n      jump\t// in\n    tag_586:\n        /* \"#utility.yul\":25382:25840   */\n      swap5\n      swap4\n      pop\n      pop\n      pop\n      pop\n      jump\t// out\n        /* \"#utility.yul\":25846:26288   */\n    tag_183:\n        /* \"#utility.yul\":25995:25999   */\n      0x00\n        /* \"#utility.yul\":26033:26035   */\n      0x60\n        /* \"#utility.yul\":26022:26031   */\n      dup3\n        /* \"#utility.yul\":26018:26036   */\n      add\n        /* \"#utility.yul\":26010:26036   */\n      swap1\n      pop\n        /* \"#utility.yul\":26046:26117   */\n      tag_588\n        /* \"#utility.yul\":26114:26115   */\n      0x00\n        /* \"#utility.yul\":26103:26112   */\n      dup4\n        /* \"#utility.yul\":26099:26116   */\n      add\n        /* \"#utility.yul\":26090:26096   */\n      dup7\n        /* \"#utility.yul\":26046:26117   */\n      tag_516\n      jump\t// in\n    tag_588:\n        /* \"#utility.yul\":26127:26199   */\n      tag_589\n        /* \"#utility.yul\":26195:26197   */\n      0x20\n        /* \"#utility.yul\":26184:26193   */\n      dup4\n        /* \"#utility.yul\":26180:26198   */\n      add\n        /* \"#utility.yul\":26171:26177   */\n      dup6\n        /* \"#utility.yul\":26127:26199   */\n      tag_516\n      jump\t// in\n    tag_589:\n        /* \"#utility.yul\":26209:26281   */\n      tag_590\n        /* \"#utility.yul\":26277:26279   */\n      0x40\n        /* \"#utility.yul\":26266:26275   */\n      dup4\n        /* \"#utility.yul\":26262:26280   */\n      add\n        /* \"#utility.yul\":26253:26259   */\n      dup5\n        /* \"#utility.yul\":26209:26281   */\n      tag_516\n      jump\t// in\n    tag_590:\n        /* \"#utility.yul\":25846:26288   */\n      swap5\n      swap4\n      pop\n      pop\n      pop\n      pop\n      jump\t// out\n        /* \"#utility.yul\":26294:26423   */\n    tag_317:\n        /* \"#utility.yul\":26328:26334   */\n      0x00\n        /* \"#utility.yul\":26355:26375   */\n      tag_592\n      tag_593\n      jump\t// in\n    tag_592:\n        /* \"#utility.yul\":26345:26375   */\n      swap1\n      pop\n        /* \"#utility.yul\":26384:26417   */\n      tag_594\n        /* \"#utility.yul\":26412:26416   */\n      dup3\n        /* \"#utility.yul\":26404:26410   */\n      dup3\n        /* \"#utility.yul\":26384:26417   */\n      tag_595\n      jump\t// in\n    tag_594:\n        /* \"#utility.yul\":26294:26423   */\n      swap2\n      swap1\n      pop\n      jump\t// out\n        /* \"#utility.yul\":26429:26504   */\n    tag_593:\n        /* \"#utility.yul\":26462:26468   */\n      0x00\n        /* \"#utility.yul\":26495:26497   */\n      0x40\n        /* \"#utility.yul\":26489:26498   */\n      mload\n        /* \"#utility.yul\":26479:26498   */\n      swap1\n      pop\n        /* \"#utility.yul\":26429:26504   */\n      swap1\n      jump\t// out\n        /* \"#utility.yul\":26510:26820   */\n    tag_316:\n        /* \"#utility.yul\":26586:26590   */\n      0x00\n        /* \"#utility.yul\":26676:26694   */\n      0xffffffffffffffff\n        /* \"#utility.yul\":26668:26674   */\n      dup3\n        /* \"#utility.yul\":26665:26695   */\n      gt\n        /* \"#utility.yul\":26662:26718   */\n      iszero\n      tag_598\n      jumpi\n        /* \"#utility.yul\":26698:26716   */\n      tag_599\n      tag_600\n      jump\t// in\n    tag_599:\n        /* \"#utility.yul\":26662:26718   */\n    tag_598:\n        /* \"#utility.yul\":26748:26752   */\n      0x20\n        /* \"#utility.yul\":26740:26746   */\n      dup3\n        /* \"#utility.yul\":26736:26753   */\n      mul\n        /* \"#utility.yul\":26728:26753   */\n      swap1\n      pop\n        /* \"#utility.yul\":26808:26812   */\n      0x20\n        /* \"#utility.yul\":26802:26806   */\n      dup2\n        /* \"#utility.yul\":26798:26813   */\n      add\n        /* \"#utility.yul\":26790:26813   */\n      swap1\n      pop\n        /* \"#utility.yul\":26510:26820   */\n      swap2\n      swap1\n      pop\n      jump\t// out\n        /* \"#utility.yul\":26826:26957   */\n    tag_389:\n        /* \"#utility.yul\":26892:26896   */\n      0x00\n        /* \"#utility.yul\":26915:26918   */\n      dup2\n        /* \"#utility.yul\":26907:26918   */\n      swap1\n      pop\n        /* \"#utility.yul\":26945:26949   */\n      0x20\n        /* \"#utility.yul\":26940:26943   */\n      dup3\n        /* \"#utility.yul\":26936:26950   */\n      add\n        /* \"#utility.yul\":26928:26950   */\n      swap1\n      pop\n        /* \"#utility.yul\":26826:26957   */\n      swap2\n      swap1\n      pop\n      jump\t// out\n        /* \"#utility.yul\":26963:27076   */\n    tag_385:\n        /* \"#utility.yul\":27029:27035   */\n      0x00\n        /* \"#utility.yul\":27063:27068   */\n      dup2\n        /* \"#utility.yul\":27057:27069   */\n      mload\n        /* \"#utility.yul\":27047:27069   */\n      swap1\n      pop\n        /* \"#utility.yul\":26963:27076   */\n      swap2\n      swap1\n      pop\n      jump\t// out\n        /* \"#utility.yul\":27082:27194   */\n    tag_395:\n        /* \"#utility.yul\":27151:27155   */\n      0x00\n        /* \"#utility.yul\":27183:27187   */\n      0x20\n        /* \"#utility.yul\":27178:27181   */\n      dup3\n        /* \"#utility.yul\":27174:27188   */\n      add\n        /* \"#utility.yul\":27166:27188   */\n      swap1\n      pop\n        /* \"#utility.yul\":27082:27194   */\n      swap2\n      swap1\n      pop\n      jump\t// out\n        /* \"#utility.yul\":27200:27383   */\n    tag_387:\n        /* \"#utility.yul\":27298:27309   */\n      0x00\n        /* \"#utility.yul\":27332:27338   */\n      dup3\n        /* \"#utility.yul\":27327:27330   */\n      dup3\n        /* \"#utility.yul\":27320:27339   */\n      mstore\n        /* \"#utility.yul\":27372:27376   */\n      0x20\n        /* \"#utility.yul\":27367:27370   */\n      dup3\n        /* \"#utility.yul\":27363:27377   */\n      add\n        /* \"#utility.yul\":27348:27377   */\n      swap1\n      pop\n        /* \"#utility.yul\":27200:27383   */\n      swap3\n      swap2\n      pop\n      pop\n      jump\t// out\n        /* \"#utility.yul\":27389:27558   */\n    tag_417:\n        /* \"#utility.yul\":27473:27484   */\n      0x00\n        /* \"#utility.yul\":27507:27513   */\n      dup3\n        /* \"#utility.yul\":27502:27505   */\n      dup3\n        /* \"#utility.yul\":27495:27514   */\n      mstore\n        /* \"#utility.yul\":27547:27551   */\n      0x20\n        /* \"#utility.yul\":27542:27545   */\n      dup3\n        /* \"#utility.yul\":27538:27552   */\n      add\n        /* \"#utility.yul\":27523:27552   */\n      swap1\n      pop\n        /* \"#utility.yul\":27389:27558   */\n      swap3\n      swap2\n      pop\n      pop\n      jump\t// out\n        /* \"#utility.yul\":27564:28089   */\n    tag_245:\n        /* \"#utility.yul\":27603:27606   */\n      0x00\n        /* \"#utility.yul\":27622:27641   */\n      tag_607\n        /* \"#utility.yul\":27639:27640   */\n      dup3\n        /* \"#utility.yul\":27622:27641   */\n      tag_406\n      jump\t// in\n    tag_607:\n        /* \"#utility.yul\":27617:27641   */\n      swap2\n      pop\n        /* \"#utility.yul\":27655:27674   */\n      tag_608\n        /* \"#utility.yul\":27672:27673   */\n      dup4\n        /* \"#utility.yul\":27655:27674   */\n      tag_406\n      jump\t// in\n    tag_608:\n        /* \"#utility.yul\":27650:27674   */\n      swap3\n      pop\n        /* \"#utility.yul\":27843:27844   */\n      dup2\n        /* \"#utility.yul\":27775:27841   */\n      0x7fffffffffffffffffffffffffffffffffffffffffffffffffffffffffffffff\n        /* \"#utility.yul\":27771:27845   */\n      sub\n        /* \"#utility.yul\":27768:27769   */\n      dup4\n        /* \"#utility.yul\":27764:27846   */\n      sgt\n        /* \"#utility.yul\":27759:27760   */\n      0x00\n        /* \"#utility.yul\":27756:27757   */\n      dup4\n        /* \"#utility.yul\":27752:27761   */\n      slt\n        /* \"#utility.yul\":27745:27762   */\n      iszero\n        /* \"#utility.yul\":27741:27847   */\n      and\n        /* \"#utility.yul\":27738:27870   */\n      iszero\n      tag_609\n      jumpi\n        /* \"#utility.yul\":27850:27868   */\n      tag_610\n      tag_611\n      jump\t// in\n    tag_610:\n        /* \"#utility.yul\":27738:27870   */\n    tag_609:\n        /* \"#utility.yul\":28030:28031   */\n      dup2\n        /* \"#utility.yul\":27962:28028   */\n      0x8000000000000000000000000000000000000000000000000000000000000000\n        /* \"#utility.yul\":27958:28032   */\n      sub\n        /* \"#utility.yul\":27955:27956   */\n      dup4\n        /* \"#utility.yul\":27951:28033   */\n      slt\n        /* \"#utility.yul\":27947:27948   */\n      0x00\n        /* \"#utility.yul\":27944:27945   */\n      dup4\n        /* \"#utility.yul\":27940:27949   */\n      slt\n        /* \"#utility.yul\":27936:28034   */\n      and\n        /* \"#utility.yul\":27933:28057   */\n      iszero\n      tag_612\n      jumpi\n        /* \"#utility.yul\":28037:28055   */\n      tag_613\n      tag_611\n      jump\t// in\n    tag_613:\n        /* \"#utility.yul\":27933:28057   */\n    tag_612:\n        /* \"#utility.yul\":28081:28082   */\n      dup3\n        /* \"#utility.yul\":28078:28079   */\n      dup3\n        /* \"#utility.yul\":28074:28083   */\n      add\n        /* \"#utility.yul\":28067:28083   */\n      swap1\n      pop\n        /* \"#utility.yul\":27564:28089   */\n      swap3\n      swap2\n      pop\n      pop\n      jump\t// out\n        /* \"#utility.yul\":28095:28400   */\n    tag_266:\n        /* \"#utility.yul\":28135:28138   */\n      0x00\n        /* \"#utility.yul\":28154:28174   */\n      tag_615\n        /* \"#utility.yul\":28172:28173   */\n      dup3\n        /* \"#utility.yul\":28154:28174   */\n      tag_519\n      jump\t// in\n    tag_615:\n        /* \"#utility.yul\":28149:28174   */\n      swap2\n      pop\n        /* \"#utility.yul\":28188:28208   */\n      tag_616\n        /* \"#utility.yul\":28206:28207   */\n      dup4\n        /* \"#utility.yul\":28188:28208   */\n      tag_519\n      jump\t// in\n    tag_616:\n        /* \"#utility.yul\":28183:28208   */\n      swap3\n      pop\n        /* \"#utility.yul\":28342:28343   */\n      dup3\n        /* \"#utility.yul\":28274:28340   */\n      0xffffffffffffffffffffffffffffffffffffffffffffffffffffffffffffffff\n        /* \"#utility.yul\":28270:28344   */\n      sub\n        /* \"#utility.yul\":28267:28268   */\n      dup3\n        /* \"#utility.yul\":28264:28345   */\n      gt\n        /* \"#utility.yul\":28261:28368   */\n      iszero\n      tag_617\n      jumpi\n        /* \"#utility.yul\":28348:28366   */\n      tag_618\n      tag_611\n      jump\t// in\n    tag_618:\n        /* \"#utility.yul\":28261:28368   */\n    tag_617:\n        /* \"#utility.yul\":28392:28393   */\n      dup3\n        /* \"#utility.yul\":28389:28390   */\n      dup3\n        /* \"#utility.yul\":28385:28394   */\n      add\n        /* \"#utility.yul\":28378:28394   */\n      swap1\n      pop\n        /* \"#utility.yul\":28095:28400   */\n      swap3\n      swap2\n      pop\n      pop\n      jump\t// out\n        /* \"#utility.yul\":28406:29397   */\n    tag_236:\n        /* \"#utility.yul\":28445:28452   */\n      0x00\n        /* \"#utility.yul\":28468:28487   */\n      tag_620\n        /* \"#utility.yul\":28485:28486   */\n      dup3\n        /* \"#utility.yul\":28468:28487   */\n      tag_406\n      jump\t// in\n    tag_620:\n        /* \"#utility.yul\":28463:28487   */\n      swap2\n      pop\n        /* \"#utility.yul\":28501:28520   */\n      tag_621\n        /* \"#utility.yul\":28518:28519   */\n      dup4\n        /* \"#utility.yul\":28501:28520   */\n      tag_406\n      jump\t// in\n    tag_621:\n        /* \"#utility.yul\":28496:28520   */\n      swap3\n      pop\n        /* \"#utility.yul\":28702:28703   */\n      dup3\n        /* \"#utility.yul\":28634:28700   */\n      0x7fffffffffffffffffffffffffffffffffffffffffffffffffffffffffffffff\n        /* \"#utility.yul\":28630:28704   */\n      div\n        /* \"#utility.yul\":28627:28628   */\n      dup3\n        /* \"#utility.yul\":28624:28705   */\n      gt\n        /* \"#utility.yul\":28619:28620   */\n      0x00\n        /* \"#utility.yul\":28616:28617   */\n      dup5\n        /* \"#utility.yul\":28612:28621   */\n      sgt\n        /* \"#utility.yul\":28608:28609   */\n      0x00\n        /* \"#utility.yul\":28605:28606   */\n      dup5\n        /* \"#utility.yul\":28601:28610   */\n      sgt\n        /* \"#utility.yul\":28597:28622   */\n      and\n        /* \"#utility.yul\":28593:28706   */\n      and\n        /* \"#utility.yul\":28590:28729   */\n      iszero\n      tag_622\n      jumpi\n        /* \"#utility.yul\":28709:28727   */\n      tag_623\n      tag_611\n      jump\t// in\n    tag_623:\n        /* \"#utility.yul\":28590:28729   */\n    tag_622:\n        /* \"#utility.yul\":28913:28914   */\n      dup2\n        /* \"#utility.yul\":28845:28911   */\n      0x8000000000000000000000000000000000000000000000000000000000000000\n        /* \"#utility.yul\":28840:28915   */\n      sdiv\n        /* \"#utility.yul\":28837:28838   */\n      dup4\n        /* \"#utility.yul\":28833:28916   */\n      slt\n        /* \"#utility.yul\":28828:28829   */\n      0x00\n        /* \"#utility.yul\":28825:28826   */\n      dup5\n        /* \"#utility.yul\":28821:28830   */\n      slt\n        /* \"#utility.yul\":28817:28818   */\n      0x00\n        /* \"#utility.yul\":28814:28815   */\n      dup5\n        /* \"#utility.yul\":28810:28819   */\n      sgt\n        /* \"#utility.yul\":28806:28831   */\n      and\n        /* \"#utility.yul\":28802:28917   */\n      and\n        /* \"#utility.yul\":28799:28940   */\n      iszero\n      tag_624\n      jumpi\n        /* \"#utility.yul\":28920:28938   */\n      tag_625\n      tag_611\n      jump\t// in\n    tag_625:\n        /* \"#utility.yul\":28799:28940   */\n    tag_624:\n        /* \"#utility.yul\":29124:29125   */\n      dup3\n        /* \"#utility.yul\":29056:29122   */\n      0x8000000000000000000000000000000000000000000000000000000000000000\n        /* \"#utility.yul\":29051:29126   */\n      sdiv\n        /* \"#utility.yul\":29048:29049   */\n      dup3\n        /* \"#utility.yul\":29044:29127   */\n      slt\n        /* \"#utility.yul\":29039:29040   */\n      0x00\n        /* \"#utility.yul\":29036:29037   */\n      dup5\n        /* \"#utility.yul\":29032:29041   */\n      sgt\n        /* \"#utility.yul\":29028:29029   */\n      0x00\n        /* \"#utility.yul\":29025:29026   */\n      dup5\n        /* \"#utility.yul\":29021:29030   */\n      slt\n        /* \"#utility.yul\":29017:29042   */\n      and\n        /* \"#utility.yul\":29013:29128   */\n      and\n        /* \"#utility.yul\":29010:29151   */\n      iszero\n      tag_626\n      jumpi\n        /* \"#utility.yul\":29131:29149   */\n      tag_627\n      tag_611\n      jump\t// in\n    tag_627:\n        /* \"#utility.yul\":29010:29151   */\n    tag_626:\n        /* \"#utility.yul\":29334:29335   */\n      dup3\n        /* \"#utility.yul\":29266:29332   */\n      0x7fffffffffffffffffffffffffffffffffffffffffffffffffffffffffffffff\n        /* \"#utility.yul\":29261:29336   */\n      sdiv\n        /* \"#utility.yul\":29258:29259   */\n      dup3\n        /* \"#utility.yul\":29254:29337   */\n      slt\n        /* \"#utility.yul\":29249:29250   */\n      0x00\n        /* \"#utility.yul\":29246:29247   */\n      dup5\n        /* \"#utility.yul\":29242:29251   */\n      slt\n        /* \"#utility.yul\":29238:29239   */\n      0x00\n        /* \"#utility.yul\":29235:29236   */\n      dup5\n        /* \"#utility.yul\":29231:29240   */\n      slt\n        /* \"#utility.yul\":29227:29252   */\n      and\n        /* \"#utility.yul\":29223:29338   */\n      and\n        /* \"#utility.yul\":29220:29361   */\n      iszero\n      tag_628\n      jumpi\n        /* \"#utility.yul\":29341:29359   */\n      tag_629\n      tag_611\n      jump\t// in\n    tag_629:\n        /* \"#utility.yul\":29220:29361   */\n    tag_628:\n        /* \"#utility.yul\":29389:29390   */\n      dup3\n        /* \"#utility.yul\":29386:29387   */\n      dup3\n        /* \"#utility.yul\":29382:29391   */\n      mul\n        /* \"#utility.yul\":29371:29391   */\n      swap1\n      pop\n        /* \"#utility.yul\":28406:29397   */\n      swap3\n      swap2\n      pop\n      pop\n      jump\t// out\n        /* \"#utility.yul\":29403:29930   */\n    tag_231:\n        /* \"#utility.yul\":29442:29446   */\n      0x00\n        /* \"#utility.yul\":29462:29481   */\n      tag_631\n        /* \"#utility.yul\":29479:29480   */\n      dup3\n        /* \"#utility.yul\":29462:29481   */\n      tag_406\n      jump\t// in\n    tag_631:\n        /* \"#utility.yul\":29457:29481   */\n      swap2\n      pop\n        /* \"#utility.yul\":29495:29514   */\n      tag_632\n        /* \"#utility.yul\":29512:29513   */\n      dup4\n        /* \"#utility.yul\":29495:29514   */\n      tag_406\n      jump\t// in\n    tag_632:\n        /* \"#utility.yul\":29490:29514   */\n      swap3\n      pop\n        /* \"#utility.yul\":29684:29685   */\n      dup3\n        /* \"#utility.yul\":29616:29682   */\n      0x8000000000000000000000000000000000000000000000000000000000000000\n        /* \"#utility.yul\":29612:29686   */\n      add\n        /* \"#utility.yul\":29609:29610   */\n      dup3\n        /* \"#utility.yul\":29605:29687   */\n      slt\n        /* \"#utility.yul\":29600:29601   */\n      0x00\n        /* \"#utility.yul\":29597:29598   */\n      dup5\n        /* \"#utility.yul\":29593:29602   */\n      slt\n        /* \"#utility.yul\":29586:29603   */\n      iszero\n        /* \"#utility.yul\":29582:29688   */\n      and\n        /* \"#utility.yul\":29579:29711   */\n      iszero\n      tag_633\n      jumpi\n        /* \"#utility.yul\":29691:29709   */\n      tag_634\n      tag_611\n      jump\t// in\n    tag_634:\n        /* \"#utility.yul\":29579:29711   */\n    tag_633:\n        /* \"#utility.yul\":29870:29871   */\n      dup3\n        /* \"#utility.yul\":29802:29868   */\n      0x7fffffffffffffffffffffffffffffffffffffffffffffffffffffffffffffff\n        /* \"#utility.yul\":29798:29872   */\n      add\n        /* \"#utility.yul\":29795:29796   */\n      dup3\n        /* \"#utility.yul\":29791:29873   */\n      sgt\n        /* \"#utility.yul\":29787:29788   */\n      0x00\n        /* \"#utility.yul\":29784:29785   */\n      dup5\n        /* \"#utility.yul\":29780:29789   */\n      slt\n        /* \"#utility.yul\":29776:29874   */\n      and\n        /* \"#utility.yul\":29773:29897   */\n      iszero\n      tag_635\n      jumpi\n        /* \"#utility.yul\":29877:29895   */\n      tag_636\n      tag_611\n      jump\t// in\n    tag_636:\n        /* \"#utility.yul\":29773:29897   */\n    tag_635:\n        /* \"#utility.yul\":29922:29923   */\n      dup3\n        /* \"#utility.yul\":29919:29920   */\n      dup3\n        /* \"#utility.yul\":29915:29924   */\n      sub\n        /* \"#utility.yul\":29907:29924   */\n      swap1\n      pop\n        /* \"#utility.yul\":29403:29930   */\n      swap3\n      swap2\n      pop\n      pop\n      jump\t// out\n        /* \"#utility.yul\":29936:30127   */\n    tag_201:\n        /* \"#utility.yul\":29976:29980   */\n      0x00\n        /* \"#utility.yul\":29996:30016   */\n      tag_638\n        /* \"#utility.yul\":30014:30015   */\n      dup3\n        /* \"#utility.yul\":29996:30016   */\n      tag_519\n      jump\t// in\n    tag_638:\n        /* \"#utility.yul\":29991:30016   */\n      swap2\n      pop\n        /* \"#utility.yul\":30030:30050   */\n      tag_639\n        /* \"#utility.yul\":30048:30049   */\n      dup4\n        /* \"#utility.yul\":30030:30050   */\n      tag_519\n      jump\t// in\n    tag_639:\n        /* \"#utility.yul\":30025:30050   */\n      swap3\n      pop\n        /* \"#utility.yul\":30069:30070   */\n      dup3\n        /* \"#utility.yul\":30066:30067   */\n      dup3\n        /* \"#utility.yul\":30063:30071   */\n      lt\n        /* \"#utility.yul\":30060:30094   */\n      iszero\n      tag_640\n      jumpi\n        /* \"#utility.yul\":30074:30092   */\n      tag_641\n      tag_611\n      jump\t// in\n    tag_641:\n        /* \"#utility.yul\":30060:30094   */\n    tag_640:\n        /* \"#utility.yul\":30119:30120   */\n      dup3\n        /* \"#utility.yul\":30116:30117   */\n      dup3\n        /* \"#utility.yul\":30112:30121   */\n      sub\n        /* \"#utility.yul\":30104:30121   */\n      swap1\n      pop\n        /* \"#utility.yul\":29936:30127   */\n      swap3\n      swap2\n      pop\n      pop\n      jump\t// out\n        /* \"#utility.yul\":30133:30222   */\n    tag_642:\n        /* \"#utility.yul\":30182:30189   */\n      0x00\n        /* \"#utility.yul\":30211:30216   */\n      dup2\n        /* \"#utility.yul\":30200:30216   */\n      swap1\n      pop\n        /* \"#utility.yul\":30133:30222   */\n      swap2\n      swap1\n      pop\n      jump\t// out\n        /* \"#utility.yul\":30228:30324   */\n    tag_381:\n        /* \"#utility.yul\":30265:30272   */\n      0x00\n        /* \"#utility.yul\":30294:30318   */\n      tag_645\n        /* \"#utility.yul\":30312:30317   */\n      dup3\n        /* \"#utility.yul\":30294:30318   */\n      tag_646\n      jump\t// in\n    tag_645:\n        /* \"#utility.yul\":30283:30318   */\n      swap1\n      pop\n        /* \"#utility.yul\":30228:30324   */\n      swap2\n      swap1\n      pop\n      jump\t// out\n        /* \"#utility.yul\":30330:30420   */\n    tag_399:\n        /* \"#utility.yul\":30364:30371   */\n      0x00\n        /* \"#utility.yul\":30407:30412   */\n      dup2\n        /* \"#utility.yul\":30400:30413   */\n      iszero\n        /* \"#utility.yul\":30393:30414   */\n      iszero\n        /* \"#utility.yul\":30382:30414   */\n      swap1\n      pop\n        /* \"#utility.yul\":30330:30420   */\n      swap2\n      swap1\n      pop\n      jump\t// out\n        /* \"#utility.yul\":30426:30553   */\n    tag_648:\n        /* \"#utility.yul\":30471:30478   */\n      0x00\n        /* \"#utility.yul\":30500:30505   */\n      dup2\n        /* \"#utility.yul\":30489:30505   */\n      swap1\n      pop\n        /* \"#utility.yul\":30506:30547   */\n      tag_650\n        /* \"#utility.yul\":30541:30546   */\n      dup3\n        /* \"#utility.yul\":30506:30547   */\n      tag_651\n      jump\t// in\n    tag_650:\n        /* \"#utility.yul\":30426:30553   */\n      swap2\n      swap1\n      pop\n      jump\t// out\n        /* \"#utility.yul\":30559:30635   */\n    tag_406:\n        /* \"#utility.yul\":30595:30602   */\n      0x00\n        /* \"#utility.yul\":30624:30629   */\n      dup2\n        /* \"#utility.yul\":30613:30629   */\n      swap1\n      pop\n        /* \"#utility.yul\":30559:30635   */\n      swap2\n      swap1\n      pop\n      jump\t// out\n        /* \"#utility.yul\":30641:30767   */\n    tag_646:\n        /* \"#utility.yul\":30678:30685   */\n      0x00\n        /* \"#utility.yul\":30718:30760   */\n      0xffffffffffffffffffffffffffffffffffffffff\n        /* \"#utility.yul\":30711:30716   */\n      dup3\n        /* \"#utility.yul\":30707:30761   */\n      and\n        /* \"#utility.yul\":30696:30761   */\n      swap1\n      pop\n        /* \"#utility.yul\":30641:30767   */\n      swap2\n      swap1\n      pop\n      jump\t// out\n        /* \"#utility.yul\":30773:30850   */\n    tag_519:\n        /* \"#utility.yul\":30810:30817   */\n      0x00\n        /* \"#utility.yul\":30839:30844   */\n      dup2\n        /* \"#utility.yul\":30828:30844   */\n      swap1\n      pop\n        /* \"#utility.yul\":30773:30850   */\n      swap2\n      swap1\n      pop\n      jump\t// out\n        /* \"#utility.yul\":30856:30983   */\n    tag_403:\n        /* \"#utility.yul\":30912:30921   */\n      0x00\n        /* \"#utility.yul\":30945:30977   */\n      tag_656\n        /* \"#utility.yul\":30971:30976   */\n      dup3\n        /* \"#utility.yul\":30945:30977   */\n      tag_648\n      jump\t// in\n    tag_656:\n        /* \"#utility.yul\":30932:30977   */\n      swap1\n      pop\n        /* \"#utility.yul\":30856:30983   */\n      swap2\n      swap1\n      pop\n      jump\t// out\n        /* \"#utility.yul\":30989:31110   */\n    tag_413:\n        /* \"#utility.yul\":31047:31056   */\n      0x00\n        /* \"#utility.yul\":31080:31104   */\n      tag_658\n        /* \"#utility.yul\":31098:31103   */\n      dup3\n        /* \"#utility.yul\":31080:31104   */\n      tag_519\n      jump\t// in\n    tag_658:\n        /* \"#utility.yul\":31067:31104   */\n      swap1\n      pop\n        /* \"#utility.yul\":30989:31110   */\n      swap2\n      swap1\n      pop\n      jump\t// out\n        /* \"#utility.yul\":31116:31280   */\n    tag_512:\n        /* \"#utility.yul\":31184:31189   */\n      0x00\n        /* \"#utility.yul\":31209:31274   */\n      tag_660\n        /* \"#utility.yul\":31239:31273   */\n      tag_661\n        /* \"#utility.yul\":31262:31272   */\n      dup4\n        /* \"#utility.yul\":31239:31273   */\n      tag_662\n      jump\t// in\n    tag_661:\n        /* \"#utility.yul\":31209:31274   */\n      tag_642\n      jump\t// in\n    tag_660:\n        /* \"#utility.yul\":31200:31274   */\n      swap1\n      pop\n        /* \"#utility.yul\":31116:31280   */\n      swap2\n      swap1\n      pop\n      jump\t// out\n        /* \"#utility.yul\":31286:31567   */\n    tag_595:\n        /* \"#utility.yul\":31369:31396   */\n      tag_664\n        /* \"#utility.yul\":31391:31395   */\n      dup3\n        /* \"#utility.yul\":31369:31396   */\n      tag_665\n      jump\t// in\n    tag_664:\n        /* \"#utility.yul\":31361:31367   */\n      dup2\n        /* \"#utility.yul\":31357:31397   */\n      add\n        /* \"#utility.yul\":31499:31505   */\n      dup2\n        /* \"#utility.yul\":31487:31497   */\n      dup2\n        /* \"#utility.yul\":31484:31506   */\n      lt\n        /* \"#utility.yul\":31463:31481   */\n      0xffffffffffffffff\n        /* \"#utility.yul\":31451:31461   */\n      dup3\n        /* \"#utility.yul\":31448:31482   */\n      gt\n        /* \"#utility.yul\":31445:31507   */\n      or\n        /* \"#utility.yul\":31442:31530   */\n      iszero\n      tag_666\n      jumpi\n        /* \"#utility.yul\":31510:31528   */\n      tag_667\n      tag_600\n      jump\t// in\n    tag_667:\n        /* \"#utility.yul\":31442:31530   */\n    tag_666:\n        /* \"#utility.yul\":31550:31560   */\n      dup1\n        /* \"#utility.yul\":31546:31548   */\n      0x40\n        /* \"#utility.yul\":31539:31561   */\n      mstore\n        /* \"#utility.yul\":31329:31567   */\n      pop\n        /* \"#utility.yul\":31286:31567   */\n      pop\n      pop\n      jump\t// out\n        /* \"#utility.yul\":31573:31806   */\n    tag_145:\n        /* \"#utility.yul\":31612:31615   */\n      0x00\n        /* \"#utility.yul\":31635:31659   */\n      tag_669\n        /* \"#utility.yul\":31653:31658   */\n      dup3\n        /* \"#utility.yul\":31635:31659   */\n      tag_519\n      jump\t// in\n    tag_669:\n        /* \"#utility.yul\":31626:31659   */\n      swap2\n      pop\n        /* \"#utility.yul\":31681:31747   */\n      0xffffffffffffffffffffffffffffffffffffffffffffffffffffffffffffffff\n        /* \"#utility.yul\":31674:31679   */\n      dup3\n        /* \"#utility.yul\":31671:31748   */\n      eq\n        /* \"#utility.yul\":31668:31771   */\n      iszero\n      tag_670\n      jumpi\n        /* \"#utility.yul\":31751:31769   */\n      tag_671\n      tag_611\n      jump\t// in\n    tag_671:\n        /* \"#utility.yul\":31668:31771   */\n    tag_670:\n        /* \"#utility.yul\":31798:31799   */\n      0x01\n        /* \"#utility.yul\":31791:31796   */\n      dup3\n        /* \"#utility.yul\":31787:31800   */\n      add\n        /* \"#utility.yul\":31780:31800   */\n      swap1\n      pop\n        /* \"#utility.yul\":31573:31806   */\n      swap2\n      swap1\n      pop\n      jump\t// out\n        /* \"#utility.yul\":31812:31992   */\n    tag_611:\n        /* \"#utility.yul\":31860:31937   */\n      0x4e487b7100000000000000000000000000000000000000000000000000000000\n        /* \"#utility.yul\":31857:31858   */\n      0x00\n        /* \"#utility.yul\":31850:31938   */\n      mstore\n        /* \"#utility.yul\":31957:31961   */\n      0x11\n        /* \"#utility.yul\":31954:31955   */\n      0x04\n        /* \"#utility.yul\":31947:31962   */\n      mstore\n        /* \"#utility.yul\":31981:31985   */\n      0x24\n        /* \"#utility.yul\":31978:31979   */\n      0x00\n        /* \"#utility.yul\":31971:31986   */\n      revert\n        /* \"#utility.yul\":31998:32178   */\n    tag_63:\n        /* \"#utility.yul\":32046:32123   */\n      0x4e487b7100000000000000000000000000000000000000000000000000000000\n        /* \"#utility.yul\":32043:32044   */\n      0x00\n        /* \"#utility.yul\":32036:32124   */\n      mstore\n        /* \"#utility.yul\":32143:32147   */\n      0x21\n        /* \"#utility.yul\":32140:32141   */\n      0x04\n        /* \"#utility.yul\":32133:32148   */\n      mstore\n        /* \"#utility.yul\":32167:32171   */\n      0x24\n        /* \"#utility.yul\":32164:32165   */\n      0x00\n        /* \"#utility.yul\":32157:32172   */\n      revert\n        /* \"#utility.yul\":32184:32364   */\n    tag_74:\n        /* \"#utility.yul\":32232:32309   */\n      0x4e487b7100000000000000000000000000000000000000000000000000000000\n        /* \"#utility.yul\":32229:32230   */\n      0x00\n        /* \"#utility.yul\":32222:32310   */\n      mstore\n        /* \"#utility.yul\":32329:32333   */\n      0x32\n        /* \"#utility.yul\":32326:32327   */\n      0x04\n        /* \"#utility.yul\":32319:32334   */\n      mstore\n        /* \"#utility.yul\":32353:32357   */\n      0x24\n        /* \"#utility.yul\":32350:32351   */\n      0x00\n        /* \"#utility.yul\":32343:32358   */\n      revert\n        /* \"#utility.yul\":32370:32550   */\n    tag_600:\n        /* \"#utility.yul\":32418:32495   */\n      0x4e487b7100000000000000000000000000000000000000000000000000000000\n        /* \"#utility.yul\":32415:32416   */\n      0x00\n        /* \"#utility.yul\":32408:32496   */\n      mstore\n        /* \"#utility.yul\":32515:32519   */\n      0x41\n        /* \"#utility.yul\":32512:32513   */\n      0x04\n        /* \"#utility.yul\":32505:32520   */\n      mstore\n        /* \"#utility.yul\":32539:32543   */\n      0x24\n        /* \"#utility.yul\":32536:32537   */\n      0x00\n        /* \"#utility.yul\":32529:32544   */\n      revert\n        /* \"#utility.yul\":32556:32673   */\n    tag_334:\n        /* \"#utility.yul\":32665:32666   */\n      0x00\n        /* \"#utility.yul\":32662:32663   */\n      dup1\n        /* \"#utility.yul\":32655:32667   */\n      revert\n        /* \"#utility.yul\":32679:32796   */\n    tag_320:\n        /* \"#utility.yul\":32788:32789   */\n      0x00\n        /* \"#utility.yul\":32785:32786   */\n      dup1\n        /* \"#utility.yul\":32778:32790   */\n      revert\n        /* \"#utility.yul\":32802:32919   */\n    tag_353:\n        /* \"#utility.yul\":32911:32912   */\n      0x00\n        /* \"#utility.yul\":32908:32909   */\n      dup1\n        /* \"#utility.yul\":32901:32913   */\n      revert\n        /* \"#utility.yul\":32925:33042   */\n    tag_346:\n        /* \"#utility.yul\":33034:33035   */\n      0x00\n        /* \"#utility.yul\":33031:33032   */\n      dup1\n        /* \"#utility.yul\":33024:33036   */\n      revert\n        /* \"#utility.yul\":33048:33150   */\n    tag_665:\n        /* \"#utility.yul\":33089:33095   */\n      0x00\n        /* \"#utility.yul\":33140:33142   */\n      0x1f\n        /* \"#utility.yul\":33136:33143   */\n      not\n        /* \"#utility.yul\":33131:33133   */\n      0x1f\n        /* \"#utility.yul\":33124:33129   */\n      dup4\n        /* \"#utility.yul\":33120:33134   */\n      add\n        /* \"#utility.yul\":33116:33144   */\n      and\n        /* \"#utility.yul\":33106:33144   */\n      swap1\n      pop\n        /* \"#utility.yul\":33048:33150   */\n      swap2\n      swap1\n      pop\n      jump\t// out\n        /* \"#utility.yul\":33156:33258   */\n    tag_662:\n        /* \"#utility.yul\":33198:33206   */\n      0x00\n        /* \"#utility.yul\":33245:33250   */\n      dup2\n        /* \"#utility.yul\":33242:33243   */\n      0x00\n        /* \"#utility.yul\":33238:33251   */\n      shr\n        /* \"#utility.yul\":33217:33251   */\n      swap1\n      pop\n        /* \"#utility.yul\":33156:33258   */\n      swap2\n      swap1\n      pop\n      jump\t// out\n        /* \"#utility.yul\":33264:33444   */\n    tag_419:\n        /* \"#utility.yul\":33404:33436   */\n      0x4574686572206e65656420746f2062652073656e7420746f2072657365740000\n        /* \"#utility.yul\":33400:33401   */\n      0x00\n        /* \"#utility.yul\":33392:33398   */\n      dup3\n        /* \"#utility.yul\":33388:33402   */\n      add\n        /* \"#utility.yul\":33381:33437   */\n      mstore\n        /* \"#utility.yul\":33264:33444   */\n      pop\n      jump\t// out\n        /* \"#utility.yul\":33450:33624   */\n    tag_424:\n        /* \"#utility.yul\":33590:33616   */\n      0x4e65656420746f2062652061207573657220746f207061790000000000000000\n        /* \"#utility.yul\":33586:33587   */\n      0x00\n        /* \"#utility.yul\":33578:33584   */\n      dup3\n        /* \"#utility.yul\":33574:33588   */\n      add\n        /* \"#utility.yul\":33567:33617   */\n      mstore\n        /* \"#utility.yul\":33450:33624   */\n      pop\n      jump\t// out\n        /* \"#utility.yul\":33630:33862   */\n    tag_429:\n        /* \"#utility.yul\":33770:33804   */\n      0x5269646572206e6565647320746f206861766520616e2061737369676e656420\n        /* \"#utility.yul\":33766:33767   */\n      0x00\n        /* \"#utility.yul\":33758:33764   */\n      dup3\n        /* \"#utility.yul\":33754:33768   */\n      add\n        /* \"#utility.yul\":33747:33805   */\n      mstore\n        /* \"#utility.yul\":33839:33854   */\n      0x64726976657220746f2070617900000000000000000000000000000000000000\n        /* \"#utility.yul\":33834:33836   */\n      0x20\n        /* \"#utility.yul\":33826:33832   */\n      dup3\n        /* \"#utility.yul\":33822:33837   */\n      add\n        /* \"#utility.yul\":33815:33855   */\n      mstore\n        /* \"#utility.yul\":33630:33862   */\n      pop\n      jump\t// out\n        /* \"#utility.yul\":33868:34100   */\n    tag_434:\n        /* \"#utility.yul\":34008:34042   */\n      0x55736572206e6565647320746f20626520696e20647269766572206d6f646520\n        /* \"#utility.yul\":34004:34005   */\n      0x00\n        /* \"#utility.yul\":33996:34002   */\n      dup3\n        /* \"#utility.yul\":33992:34006   */\n      add\n        /* \"#utility.yul\":33985:34043   */\n      mstore\n        /* \"#utility.yul\":34077:34092   */\n      0x746f207069636b20726964657200000000000000000000000000000000000000\n        /* \"#utility.yul\":34072:34074   */\n      0x20\n        /* \"#utility.yul\":34064:34070   */\n      dup3\n        /* \"#utility.yul\":34060:34075   */\n      add\n        /* \"#utility.yul\":34053:34093   */\n      mstore\n        /* \"#utility.yul\":33868:34100   */\n      pop\n      jump\t// out\n        /* \"#utility.yul\":34106:34276   */\n    tag_439:\n        /* \"#utility.yul\":34246:34268   */\n      0x726964657220616c726561647920706169726564000000000000000000000000\n        /* \"#utility.yul\":34242:34243   */\n      0x00\n        /* \"#utility.yul\":34234:34240   */\n      dup3\n        /* \"#utility.yul\":34230:34244   */\n      add\n        /* \"#utility.yul\":34223:34269   */\n      mstore\n        /* \"#utility.yul\":34106:34276   */\n      pop\n      jump\t// out\n        /* \"#utility.yul\":34282:34452   */\n    tag_444:\n        /* \"#utility.yul\":34422:34444   */\n      0x43616e6e6f74207069636b20796f757273656c66000000000000000000000000\n        /* \"#utility.yul\":34418:34419   */\n      0x00\n        /* \"#utility.yul\":34410:34416   */\n      dup3\n        /* \"#utility.yul\":34406:34420   */\n      add\n        /* \"#utility.yul\":34399:34445   */\n      mstore\n        /* \"#utility.yul\":34282:34452   */\n      pop\n      jump\t// out\n        /* \"#utility.yul\":34458:34692   */\n    tag_449:\n        /* \"#utility.yul\":34598:34632   */\n      0x55736572206e6565647320746f20626520696e20647269766572206d6f646520\n        /* \"#utility.yul\":34594:34595   */\n      0x00\n        /* \"#utility.yul\":34586:34592   */\n      dup3\n        /* \"#utility.yul\":34582:34596   */\n      add\n        /* \"#utility.yul\":34575:34633   */\n      mstore\n        /* \"#utility.yul\":34667:34684   */\n      0x746f20696e666f726d2072696465720000000000000000000000000000000000\n        /* \"#utility.yul\":34662:34664   */\n      0x20\n        /* \"#utility.yul\":34654:34660   */\n      dup3\n        /* \"#utility.yul\":34650:34665   */\n      add\n        /* \"#utility.yul\":34643:34685   */\n      mstore\n        /* \"#utility.yul\":34458:34692   */\n      pop\n      jump\t// out\n        /* \"#utility.yul\":34698:34929   */\n    tag_454:\n        /* \"#utility.yul\":34838:34872   */\n      0x55736572206e6565647320746f20626520696e207269646572206d6f64652074\n        /* \"#utility.yul\":34834:34835   */\n      0x00\n        /* \"#utility.yul\":34826:34832   */\n      dup3\n        /* \"#utility.yul\":34822:34836   */\n      add\n        /* \"#utility.yul\":34815:34873   */\n      mstore\n        /* \"#utility.yul\":34907:34921   */\n      0x6f20706179206472697665720000000000000000000000000000000000000000\n        /* \"#utility.yul\":34902:34904   */\n      0x20\n        /* \"#utility.yul\":34894:34900   */\n      dup3\n        /* \"#utility.yul\":34890:34905   */\n      add\n        /* \"#utility.yul\":34883:34922   */\n      mstore\n        /* \"#utility.yul\":34698:34929   */\n      pop\n      jump\t// out\n        /* \"#utility.yul\":34935:35156   */\n    tag_459:\n        /* \"#utility.yul\":35075:35109   */\n      0x4e65656420746f2062652061207573657220746f20636f6d706c657465207269\n        /* \"#utility.yul\":35071:35072   */\n      0x00\n        /* \"#utility.yul\":35063:35069   */\n      dup3\n        /* \"#utility.yul\":35059:35073   */\n      add\n        /* \"#utility.yul\":35052:35110   */\n      mstore\n        /* \"#utility.yul\":35144:35148   */\n      0x6465000000000000000000000000000000000000000000000000000000000000\n        /* \"#utility.yul\":35139:35141   */\n      0x20\n        /* \"#utility.yul\":35131:35137   */\n      dup3\n        /* \"#utility.yul\":35127:35142   */\n      add\n        /* \"#utility.yul\":35120:35149   */\n      mstore\n        /* \"#utility.yul\":34935:35156   */\n      pop\n      jump\t// out\n        /* \"#utility.yul\":35162:35338   */\n    tag_464:\n        /* \"#utility.yul\":35302:35330   */\n      0x596f752061726520746f6f206c61746520746f20617272697665000000000000\n        /* \"#utility.yul\":35298:35299   */\n      0x00\n        /* \"#utility.yul\":35290:35296   */\n      dup3\n        /* \"#utility.yul\":35286:35300   */\n      add\n        /* \"#utility.yul\":35279:35331   */\n      mstore\n        /* \"#utility.yul\":35162:35338   */\n      pop\n      jump\t// out\n        /* \"#utility.yul\":35344:35517   */\n    tag_469:\n        /* \"#utility.yul\":35484:35509   */\n      0x6472697665722063757272656e746c7920706169726564000000000000000000\n        /* \"#utility.yul\":35480:35481   */\n      0x00\n        /* \"#utility.yul\":35472:35478   */\n      dup3\n        /* \"#utility.yul\":35468:35482   */\n      add\n        /* \"#utility.yul\":35461:35510   */\n      mstore\n        /* \"#utility.yul\":35344:35517   */\n      pop\n      jump\t// out\n        /* \"#utility.yul\":35523:35757   */\n    tag_474:\n        /* \"#utility.yul\":35663:35697   */\n      0x596f7520617265206d6f7265207468617420302e32206d696c65732061776179\n        /* \"#utility.yul\":35659:35660   */\n      0x00\n        /* \"#utility.yul\":35651:35657   */\n      dup3\n        /* \"#utility.yul\":35647:35661   */\n      add\n        /* \"#utility.yul\":35640:35698   */\n      mstore\n        /* \"#utility.yul\":35732:35749   */\n      0x2066726f6d207468652072696465720000000000000000000000000000000000\n        /* \"#utility.yul\":35727:35729   */\n      0x20\n        /* \"#utility.yul\":35719:35725   */\n      dup3\n        /* \"#utility.yul\":35715:35730   */\n      add\n        /* \"#utility.yul\":35708:35750   */\n      mstore\n        /* \"#utility.yul\":35523:35757   */\n      pop\n      jump\t// out\n        /* \"#utility.yul\":35763:35992   */\n    tag_479:\n        /* \"#utility.yul\":35903:35937   */\n      0x4e65656420746f20626520616e20616374697665207573657220746f20636f6d\n        /* \"#utility.yul\":35899:35900   */\n      0x00\n        /* \"#utility.yul\":35891:35897   */\n      dup3\n        /* \"#utility.yul\":35887:35901   */\n      add\n        /* \"#utility.yul\":35880:35938   */\n      mstore\n        /* \"#utility.yul\":35972:35984   */\n      0x706c657465207269646500000000000000000000000000000000000000000000\n        /* \"#utility.yul\":35967:35969   */\n      0x20\n        /* \"#utility.yul\":35959:35965   */\n      dup3\n        /* \"#utility.yul\":35955:35970   */\n      add\n        /* \"#utility.yul\":35948:35985   */\n      mstore\n        /* \"#utility.yul\":35763:35992   */\n      pop\n      jump\t// out\n        /* \"#utility.yul\":35998:36177   */\n    tag_484:\n        /* \"#utility.yul\":36138:36169   */\n      0x4f76657264726166742066726f6d20696e697469616c20657363726f77000000\n        /* \"#utility.yul\":36134:36135   */\n      0x00\n        /* \"#utility.yul\":36126:36132   */\n      dup3\n        /* \"#utility.yul\":36122:36136   */\n      add\n        /* \"#utility.yul\":36115:36170   */\n      mstore\n        /* \"#utility.yul\":35998:36177   */\n      pop\n      jump\t// out\n        /* \"#utility.yul\":36183:36405   */\n    tag_489:\n        /* \"#utility.yul\":36323:36357   */\n      0x75736572206265696e67207069636b65642068617320746f2062652061207269\n        /* \"#utility.yul\":36319:36320   */\n      0x00\n        /* \"#utility.yul\":36311:36317   */\n      dup3\n        /* \"#utility.yul\":36307:36321   */\n      add\n        /* \"#utility.yul\":36300:36358   */\n      mstore\n        /* \"#utility.yul\":36392:36397   */\n      0x6465720000000000000000000000000000000000000000000000000000000000\n        /* \"#utility.yul\":36387:36389   */\n      0x20\n        /* \"#utility.yul\":36379:36385   */\n      dup3\n        /* \"#utility.yul\":36375:36390   */\n      add\n        /* \"#utility.yul\":36368:36398   */\n      mstore\n        /* \"#utility.yul\":36183:36405   */\n      pop\n      jump\t// out\n        /* \"#utility.yul\":36411:36646   */\n    tag_494:\n        /* \"#utility.yul\":36551:36585   */\n      0x447269766572206e6565647320746f206861766520616e2061737369676e6564\n        /* \"#utility.yul\":36547:36548   */\n      0x00\n        /* \"#utility.yul\":36539:36545   */\n      dup3\n        /* \"#utility.yul\":36535:36549   */\n      add\n        /* \"#utility.yul\":36528:36586   */\n      mstore\n        /* \"#utility.yul\":36620:36638   */\n      0x20726964657220746f20696e666f726d00000000000000000000000000000000\n        /* \"#utility.yul\":36615:36617   */\n      0x20\n        /* \"#utility.yul\":36607:36613   */\n      dup3\n        /* \"#utility.yul\":36603:36618   */\n      add\n        /* \"#utility.yul\":36596:36639   */\n      mstore\n        /* \"#utility.yul\":36411:36646   */\n      pop\n      jump\t// out\n        /* \"#utility.yul\":36652:36872   */\n    tag_499:\n        /* \"#utility.yul\":36792:36826   */\n      0x4e65656420746f2062652061207573657220746f2073656c6563742072696465\n        /* \"#utility.yul\":36788:36789   */\n      0x00\n        /* \"#utility.yul\":36780:36786   */\n      dup3\n        /* \"#utility.yul\":36776:36790   */\n      add\n        /* \"#utility.yul\":36769:36827   */\n      mstore\n        /* \"#utility.yul\":36861:36864   */\n      0x7200000000000000000000000000000000000000000000000000000000000000\n        /* \"#utility.yul\":36856:36858   */\n      0x20\n        /* \"#utility.yul\":36848:36854   */\n      dup3\n        /* \"#utility.yul\":36844:36859   */\n      add\n        /* \"#utility.yul\":36837:36865   */\n      mstore\n        /* \"#utility.yul\":36652:36872   */\n      pop\n      jump\t// out\n        /* \"#utility.yul\":36878:37098   */\n    tag_504:\n        /* \"#utility.yul\":37018:37052   */\n      0x4e65656420746f2062652061207573657220746f20696e666f726d2072696465\n        /* \"#utility.yul\":37014:37015   */\n      0x00\n        /* \"#utility.yul\":37006:37012   */\n      dup3\n        /* \"#utility.yul\":37002:37016   */\n      add\n        /* \"#utility.yul\":36995:37053   */\n      mstore\n        /* \"#utility.yul\":37087:37090   */\n      0x7200000000000000000000000000000000000000000000000000000000000000\n        /* \"#utility.yul\":37082:37084   */\n      0x20\n        /* \"#utility.yul\":37074:37080   */\n      dup3\n        /* \"#utility.yul\":37070:37085   */\n      add\n        /* \"#utility.yul\":37063:37091   */\n      mstore\n        /* \"#utility.yul\":36878:37098   */\n      pop\n      jump\t// out\n        /* \"#utility.yul\":37104:37217   */\n    tag_651:\n        /* \"#utility.yul\":37185:37186   */\n      0x03\n        /* \"#utility.yul\":37178:37183   */\n      dup2\n        /* \"#utility.yul\":37175:37187   */\n      lt\n        /* \"#utility.yul\":37165:37211   */\n      tag_701\n      jumpi\n        /* \"#utility.yul\":37191:37209   */\n      tag_702\n      tag_63\n      jump\t// in\n    tag_702:\n        /* \"#utility.yul\":37165:37211   */\n    tag_701:\n        /* \"#utility.yul\":37104:37217   */\n      pop\n      jump\t// out\n        /* \"#utility.yul\":37223:37345   */\n    tag_329:\n        /* \"#utility.yul\":37296:37320   */\n      tag_704\n        /* \"#utility.yul\":37314:37319   */\n      dup2\n        /* \"#utility.yul\":37296:37320   */\n      tag_381\n      jump\t// in\n    tag_704:\n        /* \"#utility.yul\":37289:37294   */\n      dup2\n        /* \"#utility.yul\":37286:37321   */\n      eq\n        /* \"#utility.yul\":37276:37339   */\n      tag_705\n      jumpi\n        /* \"#utility.yul\":37335:37336   */\n      0x00\n        /* \"#utility.yul\":37332:37333   */\n      dup1\n        /* \"#utility.yul\":37325:37337   */\n      revert\n        /* \"#utility.yul\":37276:37339   */\n    tag_705:\n        /* \"#utility.yul\":37223:37345   */\n      pop\n      jump\t// out\n        /* \"#utility.yul\":37351:37471   */\n    tag_338:\n        /* \"#utility.yul\":37423:37446   */\n      tag_707\n        /* \"#utility.yul\":37440:37445   */\n      dup2\n        /* \"#utility.yul\":37423:37446   */\n      tag_406\n      jump\t// in\n    tag_707:\n        /* \"#utility.yul\":37416:37421   */\n      dup2\n        /* \"#utility.yul\":37413:37447   */\n      eq\n        /* \"#utility.yul\":37403:37465   */\n      tag_708\n      jumpi\n        /* \"#utility.yul\":37461:37462   */\n      0x00\n        /* \"#utility.yul\":37458:37459   */\n      dup1\n        /* \"#utility.yul\":37451:37463   */\n      revert\n        /* \"#utility.yul\":37403:37465   */\n    tag_708:\n        /* \"#utility.yul\":37351:37471   */\n      pop\n      jump\t// out\n        /* \"#utility.yul\":37477:37599   */\n    tag_342:\n        /* \"#utility.yul\":37550:37574   */\n      tag_710\n        /* \"#utility.yul\":37568:37573   */\n      dup2\n        /* \"#utility.yul\":37550:37574   */\n      tag_519\n      jump\t// in\n    tag_710:\n        /* \"#utility.yul\":37543:37548   */\n      dup2\n        /* \"#utility.yul\":37540:37575   */\n      eq\n        /* \"#utility.yul\":37530:37593   */\n      tag_711\n      jumpi\n        /* \"#utility.yul\":37589:37590   */\n      0x00\n        /* \"#utility.yul\":37586:37587   */\n      dup1\n        /* \"#utility.yul\":37579:37591   */\n      revert\n        /* \"#utility.yul\":37530:37593   */\n    tag_711:\n        /* \"#utility.yul\":37477:37599   */\n      pop\n      jump\t// out\n\n    auxdata: 0xa26469706673582212206dc8e214e765a6324584f5e5bb8dd3b02c17b08ca3411b39522c4005ff947af064736f6c63430008070033\n}\n",
				"bytecode": {
					"linkReferences": {},
					"object": "608060405234801561001057600080fd5b50615348806100206000396000f3fe6080604052600436106100915760003560e01c8063a797873811610059578063a797873814610134578063a87430ba1461015d578063ba2b3906146101a4578063de9e7da0146101ae578063f2c9ecd8146101d757610091565b8063315a9f011461009657806341664ebf146100bf57806354dee961146100d65780639e5d3610146100e05780639f4216e8146100f7575b600080fd5b3480156100a257600080fd5b506100bd60048036038101906100b89190614082565b610202565b005b3480156100cb57600080fd5b506100d4610a61565b005b6100de610f98565b005b3480156100ec57600080fd5b506100f5611b50565b005b34801561010357600080fd5b5061011e60048036038101906101199190614055565b6121a6565b60405161012b919061448d565b60405180910390f35b34801561014057600080fd5b5061015b60048036038101906101569190613f81565b6121e5565b005b34801561016957600080fd5b50610184600480360381019061017f9190613f54565b612a0f565b60405161019b9b9a999897969594939291906144a8565b60405180910390f35b6101ac612af9565b005b3480156101ba57600080fd5b506101d560048036038101906101d09190613fca565b61332d565b005b3480156101e357600080fd5b506101ec613a55565b6040516101f99190614555565b60405180910390f35b600115156000803373ffffffffffffffffffffffffffffffffffffffff1673ffffffffffffffffffffffffffffffffffffffff16815260200190815260200160002060000160009054906101000a900460ff16151514610297576040517f08c379a000000000000000000000000000000000000000000000000000000000815260040161028e90614770565b60405180910390fd5b6002808111156102aa576102a9614d76565b5b6000803373ffffffffffffffffffffffffffffffffffffffff1673ffffffffffffffffffffffffffffffffffffffff16815260200190815260200160002060020160009054906101000a900460ff16600281111561030b5761030a614d76565b5b1461034b576040517f08c379a0000000000000000000000000000000000000000000000000000000008152600401610342906145d0565b60405180910390fd5b600073ffffffffffffffffffffffffffffffffffffffff166000803373ffffffffffffffffffffffffffffffffffffffff1673ffffffffffffffffffffffffffffffffffffffff16815260200190815260200160002060020160019054906101000a900473ffffffffffffffffffffffffffffffffffffffff1673ffffffffffffffffffffffffffffffffffffffff161461041b576040517f08c379a0000000000000000000000000000000000000000000000000000000008152600401610412906146b0565b60405180910390fd5b3373ffffffffffffffffffffffffffffffffffffffff166001838154811061044657610445614da5565b5b9060005260206000200160009054906101000a900473ffffffffffffffffffffffffffffffffffffffff1673ffffffffffffffffffffffffffffffffffffffff1614156104c8576040517f08c379a00000000000000000000000000000000000000000000000000000000081526004016104bf90614610565b60405180910390fd5b600073ffffffffffffffffffffffffffffffffffffffff16600080600185815481106104f7576104f6614da5565b5b9060005260206000200160009054906101000a900473ffffffffffffffffffffffffffffffffffffffff1673ffffffffffffffffffffffffffffffffffffffff1673ffffffffffffffffffffffffffffffffffffffff16815260200190815260200160002060020160019054906101000a900473ffffffffffffffffffffffffffffffffffffffff1673ffffffffffffffffffffffffffffffffffffffff16146105d6576040517f08c379a00000000000000000000000000000000000000000000000000000000081526004016105cd906145f0565b60405180910390fd5b600160028111156105ea576105e9614d76565b5b6000806001858154811061060157610600614da5565b5b9060005260206000200160009054906101000a900473ffffffffffffffffffffffffffffffffffffffff1673ffffffffffffffffffffffffffffffffffffffff1673ffffffffffffffffffffffffffffffffffffffff16815260200190815260200160002060020160009054906101000a900460ff16600281111561068957610688614d76565b5b146106c9576040517f08c379a00000000000000000000000000000000000000000000000000000000081526004016106c090614730565b60405180910390fd5b33600080600185815481106106e1576106e0614da5565b5b9060005260206000200160009054906101000a900473ffffffffffffffffffffffffffffffffffffffff1673ffffffffffffffffffffffffffffffffffffffff1673ffffffffffffffffffffffffffffffffffffffff16815260200190815260200160002060020160016101000a81548173ffffffffffffffffffffffffffffffffffffffff021916908373ffffffffffffffffffffffffffffffffffffffff1602179055506001828154811061079b5761079a614da5565b5b9060005260206000200160009054906101000a900473ffffffffffffffffffffffffffffffffffffffff166000803373ffffffffffffffffffffffffffffffffffffffff1673ffffffffffffffffffffffffffffffffffffffff16815260200190815260200160002060020160016101000a81548173ffffffffffffffffffffffffffffffffffffffff021916908373ffffffffffffffffffffffffffffffffffffffff160217905550806000803373ffffffffffffffffffffffffffffffffffffffff1673ffffffffffffffffffffffffffffffffffffffff1681526020019081526020016000206007018190555080600080600185815481106108a3576108a2614da5565b5b9060005260206000200160009054906101000a900473ffffffffffffffffffffffffffffffffffffffff1673ffffffffffffffffffffffffffffffffffffffff1673ffffffffffffffffffffffffffffffffffffffff1681526020019081526020016000206007018190555060008060003373ffffffffffffffffffffffffffffffffffffffff1673ffffffffffffffffffffffffffffffffffffffff16815260200190815260200160002060080160006101000a81548160ff02191690831515021790555060008060008060003373ffffffffffffffffffffffffffffffffffffffff1673ffffffffffffffffffffffffffffffffffffffff16815260200190815260200160002060020160019054906101000a900473ffffffffffffffffffffffffffffffffffffffff1673ffffffffffffffffffffffffffffffffffffffff1673ffffffffffffffffffffffffffffffffffffffff16815260200190815260200160002060080160006101000a81548160ff0219169083151502179055507fd492064edf7fcac5d4cf828f131afa14b0a5784d8bfdb01853e176cf5b0e2ec38282604051610a55929190614825565b60405180910390a15050565b600115156000803373ffffffffffffffffffffffffffffffffffffffff1673ffffffffffffffffffffffffffffffffffffffff16815260200190815260200160002060000160009054906101000a900460ff16151514610af6576040517f08c379a0000000000000000000000000000000000000000000000000000000008152600401610aed90614770565b60405180910390fd5b600280811115610b0957610b08614d76565b5b6000803373ffffffffffffffffffffffffffffffffffffffff1673ffffffffffffffffffffffffffffffffffffffff16815260200190815260200160002060020160009054906101000a900460ff166002811115610b6a57610b69614d76565b5b14610baa576040517f08c379a0000000000000000000000000000000000000000000000000000000008152600401610ba1906145d0565b60405180910390fd5b60005b600180549050811015610f9557600073ffffffffffffffffffffffffffffffffffffffff1660008060018481548110610be957610be8614da5565b5b9060005260206000200160009054906101000a900473ffffffffffffffffffffffffffffffffffffffff1673ffffffffffffffffffffffffffffffffffffffff1673ffffffffffffffffffffffffffffffffffffffff16815260200190815260200160002060020160019054906101000a900473ffffffffffffffffffffffffffffffffffffffff1673ffffffffffffffffffffffffffffffffffffffff16148015610d45575060016002811115610ca457610ca3614d76565b5b60008060018481548110610cbb57610cba614da5565b5b9060005260206000200160009054906101000a900473ffffffffffffffffffffffffffffffffffffffff1673ffffffffffffffffffffffffffffffffffffffff1673ffffffffffffffffffffffffffffffffffffffff16815260200190815260200160002060020160009054906101000a900460ff166002811115610d4357610d42614d76565b5b145b15610f82577f371a7676ba1a3c7f898deecee12f15abf07a92560af6d3f0a10f35d07189084f60008060018481548110610d8257610d81614da5565b5b9060005260206000200160009054906101000a900473ffffffffffffffffffffffffffffffffffffffff1673ffffffffffffffffffffffffffffffffffffffff1673ffffffffffffffffffffffffffffffffffffffff1681526020019081526020016000206001015460008060018581548110610e0257610e01614da5565b5b9060005260206000200160009054906101000a900473ffffffffffffffffffffffffffffffffffffffff1673ffffffffffffffffffffffffffffffffffffffff1673ffffffffffffffffffffffffffffffffffffffff16815260200190815260200160002060030160008060018681548110610e8157610e80614da5565b5b9060005260206000200160009054906101000a900473ffffffffffffffffffffffffffffffffffffffff1673ffffffffffffffffffffffffffffffffffffffff1673ffffffffffffffffffffffffffffffffffffffff16815260200190815260200160002060050160008060018781548110610f0057610eff614da5565b5b9060005260206000200160009054906101000a900473ffffffffffffffffffffffffffffffffffffffff1673ffffffffffffffffffffffffffffffffffffffff1673ffffffffffffffffffffffffffffffffffffffff16815260200190815260200160002060090154604051610f7994939291906147e0565b60405180910390a15b8080610f8d90614cfe565b915050610bad565b50565b600115156000803373ffffffffffffffffffffffffffffffffffffffff1673ffffffffffffffffffffffffffffffffffffffff16815260200190815260200160002060000160009054906101000a900460ff1615151461102d576040517f08c379a000000000000000000000000000000000000000000000000000000000815260040161102490614670565b60405180910390fd5b6000600281111561104157611040614d76565b5b6000803373ffffffffffffffffffffffffffffffffffffffff1673ffffffffffffffffffffffffffffffffffffffff16815260200190815260200160002060020160009054906101000a900460ff1660028111156110a2576110a1614d76565b5b14156110e3576040517f08c379a00000000000000000000000000000000000000000000000000000000081526004016110da906146f0565b60405180910390fd5b6000341015611127576040517f08c379a000000000000000000000000000000000000000000000000000000000815260040161111e90614570565b60405180910390fd5b600115156000803373ffffffffffffffffffffffffffffffffffffffff1673ffffffffffffffffffffffffffffffffffffffff16815260200190815260200160002060080160019054906101000a900460ff16151514156112f6573373ffffffffffffffffffffffffffffffffffffffff166108fc349081150290604051600060405180830381858888f193505050501580156111c8573d6000803e3d6000fd5b507f5b1b690b017b49e02e426b145ec66a70f4259c7a0a7bfb5609363922cec65eef6000803373ffffffffffffffffffffffffffffffffffffffff1673ffffffffffffffffffffffffffffffffffffffff168152602001908152602001600020600101546000808060003373ffffffffffffffffffffffffffffffffffffffff1673ffffffffffffffffffffffffffffffffffffffff16815260200190815260200160002060020160019054906101000a900473ffffffffffffffffffffffffffffffffffffffff1673ffffffffffffffffffffffffffffffffffffffff1673ffffffffffffffffffffffffffffffffffffffff1681526020019081526020016000206001015460006040516112e09392919061484e565b60405180910390a16112f133613b22565b611b4e565b6001600281111561130a57611309614d76565b5b6000803373ffffffffffffffffffffffffffffffffffffffff1673ffffffffffffffffffffffffffffffffffffffff16815260200190815260200160002060020160009054906101000a900460ff16600281111561136b5761136a614d76565b5b141561176157600015156000803373ffffffffffffffffffffffffffffffffffffffff1673ffffffffffffffffffffffffffffffffffffffff16815260200190815260200160002060080160009054906101000a900460ff16151514801561141357506000803373ffffffffffffffffffffffffffffffffffffffff1673ffffffffffffffffffffffffffffffffffffffff1681526020019081526020016000206007015442115b1561158c573373ffffffffffffffffffffffffffffffffffffffff166108fc349081150290604051600060405180830381858888f1935050505015801561145e573d6000803e3d6000fd5b507f5b1b690b017b49e02e426b145ec66a70f4259c7a0a7bfb5609363922cec65eef6000803373ffffffffffffffffffffffffffffffffffffffff1673ffffffffffffffffffffffffffffffffffffffff168152602001908152602001600020600101546000808060003373ffffffffffffffffffffffffffffffffffffffff1673ffffffffffffffffffffffffffffffffffffffff16815260200190815260200160002060020160019054906101000a900473ffffffffffffffffffffffffffffffffffffffff1673ffffffffffffffffffffffffffffffffffffffff1673ffffffffffffffffffffffffffffffffffffffff1681526020019081526020016000206001015460006040516115769392919061484e565b60405180910390a161158733613b22565b61175c565b6000803373ffffffffffffffffffffffffffffffffffffffff1673ffffffffffffffffffffffffffffffffffffffff16815260200190815260200160002060020160019054906101000a900473ffffffffffffffffffffffffffffffffffffffff1673ffffffffffffffffffffffffffffffffffffffff166108fc349081150290604051600060405180830381858888f19350505050158015611633573d6000803e3d6000fd5b507f5b1b690b017b49e02e426b145ec66a70f4259c7a0a7bfb5609363922cec65eef6000803373ffffffffffffffffffffffffffffffffffffffff1673ffffffffffffffffffffffffffffffffffffffff168152602001908152602001600020600101546000808060003373ffffffffffffffffffffffffffffffffffffffff1673ffffffffffffffffffffffffffffffffffffffff16815260200190815260200160002060020160019054906101000a900473ffffffffffffffffffffffffffffffffffffffff1673ffffffffffffffffffffffffffffffffffffffff1673ffffffffffffffffffffffffffffffffffffffff168152602001908152602001600020600101543460405161174a93929190614885565b60405180910390a161175b33613b22565b5b611b4d565b600115156000803373ffffffffffffffffffffffffffffffffffffffff1673ffffffffffffffffffffffffffffffffffffffff16815260200190815260200160002060080160009054906101000a900460ff16151514801561180357506000803373ffffffffffffffffffffffffffffffffffffffff1673ffffffffffffffffffffffffffffffffffffffff1681526020019081526020016000206007015442115b1561197c573373ffffffffffffffffffffffffffffffffffffffff166108fc349081150290604051600060405180830381858888f1935050505015801561184e573d6000803e3d6000fd5b507f5b1b690b017b49e02e426b145ec66a70f4259c7a0a7bfb5609363922cec65eef6000803373ffffffffffffffffffffffffffffffffffffffff1673ffffffffffffffffffffffffffffffffffffffff168152602001908152602001600020600101546000808060003373ffffffffffffffffffffffffffffffffffffffff1673ffffffffffffffffffffffffffffffffffffffff16815260200190815260200160002060020160019054906101000a900473ffffffffffffffffffffffffffffffffffffffff1673ffffffffffffffffffffffffffffffffffffffff1673ffffffffffffffffffffffffffffffffffffffff1681526020019081526020016000206001015460006040516119669392919061484e565b60405180910390a161197733613b22565b611b4c565b6000803373ffffffffffffffffffffffffffffffffffffffff1673ffffffffffffffffffffffffffffffffffffffff16815260200190815260200160002060020160019054906101000a900473ffffffffffffffffffffffffffffffffffffffff1673ffffffffffffffffffffffffffffffffffffffff166108fc349081150290604051600060405180830381858888f19350505050158015611a23573d6000803e3d6000fd5b507f5b1b690b017b49e02e426b145ec66a70f4259c7a0a7bfb5609363922cec65eef6000803373ffffffffffffffffffffffffffffffffffffffff1673ffffffffffffffffffffffffffffffffffffffff168152602001908152602001600020600101546000808060003373ffffffffffffffffffffffffffffffffffffffff1673ffffffffffffffffffffffffffffffffffffffff16815260200190815260200160002060020160019054906101000a900473ffffffffffffffffffffffffffffffffffffffff1673ffffffffffffffffffffffffffffffffffffffff1673ffffffffffffffffffffffffffffffffffffffff1681526020019081526020016000206001015434604051611b3a93929190614885565b60405180910390a1611b4b33613b22565b5b5b5b565b600015156000803373ffffffffffffffffffffffffffffffffffffffff1673ffffffffffffffffffffffffffffffffffffffff16815260200190815260200160002060000160009054906101000a900460ff1615151415611e51576001339080600181540180825580915050600190039060005260206000200160009091909190916101000a81548173ffffffffffffffffffffffffffffffffffffffff021916908373ffffffffffffffffffffffffffffffffffffffff16021790555060405180610160016040528060011515815260200160018080549050611c349190614bec565b8152602001600280811115611c4c57611c4b614d76565b5b8152602001600073ffffffffffffffffffffffffffffffffffffffff1681526020016040518060400160405280600081526020016000815250815260200160405180604001604052806000815260200160008152508152602001600081526020016001151581526020016000151581526020016000815260200160008152506000803373ffffffffffffffffffffffffffffffffffffffff1673ffffffffffffffffffffffffffffffffffffffff16815260200190815260200160002060008201518160000160006101000a81548160ff0219169083151502179055506020820151816001015560408201518160020160006101000a81548160ff02191690836002811115611d5e57611d5d614d76565b5b021790555060608201518160020160016101000a81548173ffffffffffffffffffffffffffffffffffffffff021916908373ffffffffffffffffffffffffffffffffffffffff1602179055506080820151816003016000820151816000015560208201518160010155505060a0820151816005016000820151816000015560208201518160010155505060c0820151816007015560e08201518160080160006101000a81548160ff0219169083151502179055506101008201518160080160016101000a81548160ff021916908315150217905550610120820151816009015561014082015181600a01559050506121a4565b60026000803373ffffffffffffffffffffffffffffffffffffffff1673ffffffffffffffffffffffffffffffffffffffff16815260200190815260200160002060020160006101000a81548160ff02191690836002811115611eb657611eb5614d76565b5b021790555060008060003373ffffffffffffffffffffffffffffffffffffffff1673ffffffffffffffffffffffffffffffffffffffff16815260200190815260200160002060020160016101000a81548173ffffffffffffffffffffffffffffffffffffffff021916908373ffffffffffffffffffffffffffffffffffffffff16021790555060405180604001604052806000815260200160008152506000803373ffffffffffffffffffffffffffffffffffffffff1673ffffffffffffffffffffffffffffffffffffffff168152602001908152602001600020600301600082015181600001556020820151816001015590505060405180604001604052806000815260200160008152506000803373ffffffffffffffffffffffffffffffffffffffff1673ffffffffffffffffffffffffffffffffffffffff168152602001908152602001600020600501600082015181600001556020820151816001015590505060008060003373ffffffffffffffffffffffffffffffffffffffff1673ffffffffffffffffffffffffffffffffffffffff1681526020019081526020016000206009018190555060008060003373ffffffffffffffffffffffffffffffffffffffff1673ffffffffffffffffffffffffffffffffffffffff1681526020019081526020016000206007018190555060016000803373ffffffffffffffffffffffffffffffffffffffff1673ffffffffffffffffffffffffffffffffffffffff16815260200190815260200160002060080160006101000a81548160ff02191690831515021790555060008060003373ffffffffffffffffffffffffffffffffffffffff1673ffffffffffffffffffffffffffffffffffffffff16815260200190815260200160002060080160016101000a81548160ff02191690831515021790555060008060003373ffffffffffffffffffffffffffffffffffffffff1673ffffffffffffffffffffffffffffffffffffffff168152602001908152602001600020600a01819055505b565b600181815481106121b657600080fd5b906000526020600020016000915054906101000a900473ffffffffffffffffffffffffffffffffffffffff1681565b600115156000803373ffffffffffffffffffffffffffffffffffffffff1673ffffffffffffffffffffffffffffffffffffffff16815260200190815260200160002060000160009054906101000a900460ff1615151461227a576040517f08c379a000000000000000000000000000000000000000000000000000000000815260040161227190614790565b60405180910390fd5b60028081111561228d5761228c614d76565b5b6000803373ffffffffffffffffffffffffffffffffffffffff1673ffffffffffffffffffffffffffffffffffffffff16815260200190815260200160002060020160009054906101000a900460ff1660028111156122ee576122ed614d76565b5b1461232e576040517f08c379a000000000000000000000000000000000000000000000000000000000815260040161232590614630565b60405180910390fd5b600073ffffffffffffffffffffffffffffffffffffffff166000803373ffffffffffffffffffffffffffffffffffffffff1673ffffffffffffffffffffffffffffffffffffffff16815260200190815260200160002060020160019054906101000a900473ffffffffffffffffffffffffffffffffffffffff1673ffffffffffffffffffffffffffffffffffffffff1614156123ff576040517f08c379a00000000000000000000000000000000000000000000000000000000081526004016123f690614750565b60405180910390fd5b6000803373ffffffffffffffffffffffffffffffffffffffff1673ffffffffffffffffffffffffffffffffffffffff16815260200190815260200160002060070154421115612483576040517f08c379a000000000000000000000000000000000000000000000000000000000815260040161247a90614690565b60405180910390fd5b60008060008060003373ffffffffffffffffffffffffffffffffffffffff1673ffffffffffffffffffffffffffffffffffffffff16815260200190815260200160002060020160019054906101000a900473ffffffffffffffffffffffffffffffffffffffff1673ffffffffffffffffffffffffffffffffffffffff1673ffffffffffffffffffffffffffffffffffffffff168152602001908152602001600020600301600101548260018151811061253f5761253e614da5565b5b60200260200101516125519190614b58565b6000808060003373ffffffffffffffffffffffffffffffffffffffff1673ffffffffffffffffffffffffffffffffffffffff16815260200190815260200160002060020160019054906101000a900473ffffffffffffffffffffffffffffffffffffffff1673ffffffffffffffffffffffffffffffffffffffff1673ffffffffffffffffffffffffffffffffffffffff168152602001908152602001600020600301600101548360018151811061260b5761260a614da5565b5b602002602001015161261d9190614b58565b6126279190614a41565b6000808060003373ffffffffffffffffffffffffffffffffffffffff1673ffffffffffffffffffffffffffffffffffffffff16815260200190815260200160002060020160019054906101000a900473ffffffffffffffffffffffffffffffffffffffff1673ffffffffffffffffffffffffffffffffffffffff1673ffffffffffffffffffffffffffffffffffffffff16815260200190815260200160002060030160000154836000815181106126e1576126e0614da5565b5b60200260200101516126f39190614b58565b6000808060003373ffffffffffffffffffffffffffffffffffffffff1673ffffffffffffffffffffffffffffffffffffffff16815260200190815260200160002060020160019054906101000a900473ffffffffffffffffffffffffffffffffffffffff1673ffffffffffffffffffffffffffffffffffffffff1673ffffffffffffffffffffffffffffffffffffffff16815260200190815260200160002060030160000154846000815181106127ad576127ac614da5565b5b60200260200101516127bf9190614b58565b6127c99190614a41565b6127d39190614957565b905062cfe1da81131561281b576040517f08c379a0000000000000000000000000000000000000000000000000000000008152600401612812906146d0565b60405180910390fd5b60016000803373ffffffffffffffffffffffffffffffffffffffff1673ffffffffffffffffffffffffffffffffffffffff16815260200190815260200160002060080160006101000a81548160ff02191690831515021790555060016000808060003373ffffffffffffffffffffffffffffffffffffffff1673ffffffffffffffffffffffffffffffffffffffff16815260200190815260200160002060020160019054906101000a900473ffffffffffffffffffffffffffffffffffffffff1673ffffffffffffffffffffffffffffffffffffffff1673ffffffffffffffffffffffffffffffffffffffff16815260200190815260200160002060080160006101000a81548160ff0219169083151502179055507ffecc381fcca04c8371dac7b0998f7810a51c75d32acbb1f415ceb7215b2965b56000808060003373ffffffffffffffffffffffffffffffffffffffff1673ffffffffffffffffffffffffffffffffffffffff16815260200190815260200160002060020160019054906101000a900473ffffffffffffffffffffffffffffffffffffffff1673ffffffffffffffffffffffffffffffffffffffff1673ffffffffffffffffffffffffffffffffffffffff1681526020019081526020016000206001015483604051612a039291906147b0565b60405180910390a15050565b60006020528060005260406000206000915090508060000160009054906101000a900460ff16908060010154908060020160009054906101000a900460ff16908060020160019054906101000a900473ffffffffffffffffffffffffffffffffffffffff16908060030160405180604001604052908160008201548152602001600182015481525050908060050160405180604001604052908160008201548152602001600182015481525050908060070154908060080160009054906101000a900460ff16908060080160019054906101000a900460ff169080600901549080600a015490508b565b600115156000803373ffffffffffffffffffffffffffffffffffffffff1673ffffffffffffffffffffffffffffffffffffffff16815260200190815260200160002060000160009054906101000a900460ff16151514612b8e576040517f08c379a0000000000000000000000000000000000000000000000000000000008152600401612b8590614590565b60405180910390fd5b60016002811115612ba257612ba1614d76565b5b6000803373ffffffffffffffffffffffffffffffffffffffff1673ffffffffffffffffffffffffffffffffffffffff16815260200190815260200160002060020160009054906101000a900460ff166002811115612c0357612c02614d76565b5b14612c43576040517f08c379a0000000000000000000000000000000000000000000000000000000008152600401612c3a90614650565b60405180910390fd5b600073ffffffffffffffffffffffffffffffffffffffff166000803373ffffffffffffffffffffffffffffffffffffffff1673ffffffffffffffffffffffffffffffffffffffff16815260200190815260200160002060020160019054906101000a900473ffffffffffffffffffffffffffffffffffffffff1673ffffffffffffffffffffffffffffffffffffffff161415612d14576040517f08c379a0000000000000000000000000000000000000000000000000000000008152600401612d0b906145b0565b60405180910390fd5b6000803373ffffffffffffffffffffffffffffffffffffffff1673ffffffffffffffffffffffffffffffffffffffff16815260200190815260200160002060090154346000803373ffffffffffffffffffffffffffffffffffffffff1673ffffffffffffffffffffffffffffffffffffffff168152602001908152602001600020600a0154612da391906149eb565b1115612de4576040517f08c379a0000000000000000000000000000000000000000000000000000000008152600401612ddb90614710565b60405180910390fd5b60016000803373ffffffffffffffffffffffffffffffffffffffff1673ffffffffffffffffffffffffffffffffffffffff16815260200190815260200160002060080160016101000a81548160ff02191690831515021790555060016000808060003373ffffffffffffffffffffffffffffffffffffffff1673ffffffffffffffffffffffffffffffffffffffff16815260200190815260200160002060020160019054906101000a900473ffffffffffffffffffffffffffffffffffffffff1673ffffffffffffffffffffffffffffffffffffffff1673ffffffffffffffffffffffffffffffffffffffff16815260200190815260200160002060080160016101000a81548160ff0219169083151502179055506000803373ffffffffffffffffffffffffffffffffffffffff1673ffffffffffffffffffffffffffffffffffffffff16815260200190815260200160002060020160019054906101000a900473ffffffffffffffffffffffffffffffffffffffff1673ffffffffffffffffffffffffffffffffffffffff166108fc349081150290604051600060405180830381858888f19350505050158015612fa0573d6000803e3d6000fd5b50346000803373ffffffffffffffffffffffffffffffffffffffff1673ffffffffffffffffffffffffffffffffffffffff168152602001908152602001600020600a0154612fee91906149eb565b6000803373ffffffffffffffffffffffffffffffffffffffff1673ffffffffffffffffffffffffffffffffffffffff168152602001908152602001600020600a01819055507fed8e6f0ab8a4d39cb413959065b15ac270c5baec57aee722c1268880c0b1f3d56000808060003373ffffffffffffffffffffffffffffffffffffffff1673ffffffffffffffffffffffffffffffffffffffff16815260200190815260200160002060020160019054906101000a900473ffffffffffffffffffffffffffffffffffffffff1673ffffffffffffffffffffffffffffffffffffffff1673ffffffffffffffffffffffffffffffffffffffff1681526020019081526020016000206001015434604051613106929190614825565b60405180910390a16000803373ffffffffffffffffffffffffffffffffffffffff1673ffffffffffffffffffffffffffffffffffffffff168152602001908152602001600020600901546000803373ffffffffffffffffffffffffffffffffffffffff1673ffffffffffffffffffffffffffffffffffffffff168152602001908152602001600020600a0154141561332b577f5b1b690b017b49e02e426b145ec66a70f4259c7a0a7bfb5609363922cec65eef6000803373ffffffffffffffffffffffffffffffffffffffff1673ffffffffffffffffffffffffffffffffffffffff168152602001908152602001600020600101546000808060003373ffffffffffffffffffffffffffffffffffffffff1673ffffffffffffffffffffffffffffffffffffffff16815260200190815260200160002060020160019054906101000a900473ffffffffffffffffffffffffffffffffffffffff1673ffffffffffffffffffffffffffffffffffffffff1673ffffffffffffffffffffffffffffffffffffffff1681526020019081526020016000206001015460006040516132af9392919061484e565b60405180910390a16133216000803373ffffffffffffffffffffffffffffffffffffffff1673ffffffffffffffffffffffffffffffffffffffff16815260200190815260200160002060020160019054906101000a900473ffffffffffffffffffffffffffffffffffffffff16613b22565b61332a33613b22565b5b565b600015156000803373ffffffffffffffffffffffffffffffffffffffff1673ffffffffffffffffffffffffffffffffffffffff16815260200190815260200160002060000160009054906101000a900460ff1615151415613696576001339080600181540180825580915050600190039060005260206000200160009091909190916101000a81548173ffffffffffffffffffffffffffffffffffffffff021916908373ffffffffffffffffffffffffffffffffffffffff160217905550604051806101600160405280600115158152602001600180805490506134119190614bec565b81526020016001600281111561342a57613429614d76565b5b8152602001600073ffffffffffffffffffffffffffffffffffffffff16815260200160405180604001604052808660008151811061346b5761346a614da5565b5b602002602001015181526020018660018151811061348c5761348b614da5565b5b602002602001015181525081526020016040518060400160405280856000815181106134bb576134ba614da5565b5b60200260200101518152602001856001815181106134dc576134db614da5565b5b602002602001015181525081526020016000815260200160001515815260200160001515815260200182815260200160008152506000803373ffffffffffffffffffffffffffffffffffffffff1673ffffffffffffffffffffffffffffffffffffffff16815260200190815260200160002060008201518160000160006101000a81548160ff0219169083151502179055506020820151816001015560408201518160020160006101000a81548160ff021916908360028111156135a3576135a2614d76565b5b021790555060608201518160020160016101000a81548173ffffffffffffffffffffffffffffffffffffffff021916908373ffffffffffffffffffffffffffffffffffffffff1602179055506080820151816003016000820151816000015560208201518160010155505060a0820151816005016000820151816000015560208201518160010155505060c0820151816007015560e08201518160080160006101000a81548160ff0219169083151502179055506101008201518160080160016101000a81548160ff021916908315150217905550610120820151816009015561014082015181600a0155905050613a50565b60016000803373ffffffffffffffffffffffffffffffffffffffff1673ffffffffffffffffffffffffffffffffffffffff16815260200190815260200160002060020160006101000a81548160ff021916908360028111156136fb576136fa614d76565b5b021790555060008060003373ffffffffffffffffffffffffffffffffffffffff1673ffffffffffffffffffffffffffffffffffffffff16815260200190815260200160002060020160016101000a81548173ffffffffffffffffffffffffffffffffffffffff021916908373ffffffffffffffffffffffffffffffffffffffff1602179055506040518060400160405280846000815181106137a05761379f614da5565b5b60200260200101518152602001846001815181106137c1576137c0614da5565b5b60200260200101518152506000803373ffffffffffffffffffffffffffffffffffffffff1673ffffffffffffffffffffffffffffffffffffffff168152602001908152602001600020600301600082015181600001556020820151816001015590505060405180604001604052808360008151811061384357613842614da5565b5b602002602001015181526020018360018151811061386457613863614da5565b5b60200260200101518152506000803373ffffffffffffffffffffffffffffffffffffffff1673ffffffffffffffffffffffffffffffffffffffff1681526020019081526020016000206005016000820151816000015560208201518160010155905050806000803373ffffffffffffffffffffffffffffffffffffffff1673ffffffffffffffffffffffffffffffffffffffff1681526020019081526020016000206009018190555060008060003373ffffffffffffffffffffffffffffffffffffffff1673ffffffffffffffffffffffffffffffffffffffff1681526020019081526020016000206007018190555060008060003373ffffffffffffffffffffffffffffffffffffffff1673ffffffffffffffffffffffffffffffffffffffff16815260200190815260200160002060080160006101000a81548160ff02191690831515021790555060008060003373ffffffffffffffffffffffffffffffffffffffff1673ffffffffffffffffffffffffffffffffffffffff16815260200190815260200160002060080160016101000a81548160ff02191690831515021790555060008060003373ffffffffffffffffffffffffffffffffffffffff1673ffffffffffffffffffffffffffffffffffffffff168152602001908152602001600020600a01819055505b505050565b6000600115156000803373ffffffffffffffffffffffffffffffffffffffff1673ffffffffffffffffffffffffffffffffffffffff16815260200190815260200160002060000160009054906101000a900460ff1615151415613afb576000803373ffffffffffffffffffffffffffffffffffffffff1673ffffffffffffffffffffffffffffffffffffffff168152602001908152602001600020600101549050613b1f565b7fffffffffffffffffffffffffffffffffffffffffffffffffffffffffffffffff90505b90565b60008060008373ffffffffffffffffffffffffffffffffffffffff1673ffffffffffffffffffffffffffffffffffffffff16815260200190815260200160002060020160006101000a81548160ff02191690836002811115613b8757613b86614d76565b5b021790555060008060008373ffffffffffffffffffffffffffffffffffffffff1673ffffffffffffffffffffffffffffffffffffffff16815260200190815260200160002060020160016101000a81548173ffffffffffffffffffffffffffffffffffffffff021916908373ffffffffffffffffffffffffffffffffffffffff16021790555060405180604001604052806000815260200160008152506000808373ffffffffffffffffffffffffffffffffffffffff1673ffffffffffffffffffffffffffffffffffffffff168152602001908152602001600020600301600082015181600001556020820151816001015590505060405180604001604052806000815260200160008152506000808373ffffffffffffffffffffffffffffffffffffffff1673ffffffffffffffffffffffffffffffffffffffff168152602001908152602001600020600501600082015181600001556020820151816001015590505060008060008373ffffffffffffffffffffffffffffffffffffffff1673ffffffffffffffffffffffffffffffffffffffff1681526020019081526020016000206007018190555060008060008373ffffffffffffffffffffffffffffffffffffffff1673ffffffffffffffffffffffffffffffffffffffff16815260200190815260200160002060080160006101000a81548160ff02191690831515021790555060008060008373ffffffffffffffffffffffffffffffffffffffff1673ffffffffffffffffffffffffffffffffffffffff16815260200190815260200160002060080160016101000a81548160ff02191690831515021790555060008060008373ffffffffffffffffffffffffffffffffffffffff1673ffffffffffffffffffffffffffffffffffffffff1681526020019081526020016000206009018190555060008060008373ffffffffffffffffffffffffffffffffffffffff1673ffffffffffffffffffffffffffffffffffffffff168152602001908152602001600020600a018190555050565b6000613e8a613e85846148e1565b6148bc565b90508083825260208201905082856020860282011115613ead57613eac614e08565b5b60005b85811015613edd5781613ec38882613f2a565b845260208401935060208301925050600181019050613eb0565b5050509392505050565b600081359050613ef6816152cd565b92915050565b600082601f830112613f1157613f10614e03565b5b8135613f21848260208601613e77565b91505092915050565b600081359050613f39816152e4565b92915050565b600081359050613f4e816152fb565b92915050565b600060208284031215613f6a57613f69614e12565b5b6000613f7884828501613ee7565b91505092915050565b600060208284031215613f9757613f96614e12565b5b600082013567ffffffffffffffff811115613fb557613fb4614e0d565b5b613fc184828501613efc565b91505092915050565b600080600060608486031215613fe357613fe2614e12565b5b600084013567ffffffffffffffff81111561400157614000614e0d565b5b61400d86828701613efc565b935050602084013567ffffffffffffffff81111561402e5761402d614e0d565b5b61403a86828701613efc565b925050604061404b86828701613f3f565b9150509250925092565b60006020828403121561406b5761406a614e12565b5b600061407984828501613f3f565b91505092915050565b6000806040838503121561409957614098614e12565b5b60006140a785828601613f3f565b92505060206140b885828601613f3f565b9150509250929050565b60006140ce8383614165565b60208301905092915050565b6140e381614c2a565b82525050565b60006140f48261491d565b6140fe8185614935565b93506141098361490d565b8060005b8381101561413a57815161412188826140c2565b975061412c83614928565b92505060018101905061410d565b5085935050505092915050565b61415081614c3c565b82525050565b61415f81614c8f565b82525050565b61416e81614c5b565b82525050565b61417d81614c5b565b82525050565b61418c81614ca1565b82525050565b600061419f601e83614946565b91506141aa82614e35565b602082019050919050565b60006141c2601883614946565b91506141cd82614e5e565b602082019050919050565b60006141e5602d83614946565b91506141f082614e87565b604082019050919050565b6000614208602d83614946565b915061421382614ed6565b604082019050919050565b600061422b601483614946565b915061423682614f25565b602082019050919050565b600061424e601483614946565b915061425982614f4e565b602082019050919050565b6000614271602f83614946565b915061427c82614f77565b604082019050919050565b6000614294602c83614946565b915061429f82614fc6565b604082019050919050565b60006142b7602283614946565b91506142c282615015565b604082019050919050565b60006142da601a83614946565b91506142e582615064565b602082019050919050565b60006142fd601783614946565b91506143088261508d565b602082019050919050565b6000614320602f83614946565b915061432b826150b6565b604082019050919050565b6000614343602a83614946565b915061434e82615105565b604082019050919050565b6000614366601d83614946565b915061437182615154565b602082019050919050565b6000614389602383614946565b91506143948261517d565b604082019050919050565b60006143ac603083614946565b91506143b7826151cc565b604082019050919050565b60006143cf602183614946565b91506143da8261521b565b604082019050919050565b60006143f2602183614946565b91506143fd8261526a565b604082019050919050565b60408201600082015161441e6000850182614165565b5060208201516144316020850182614165565b50505050565b60408201600080830154905061444c81614cb3565b6144596000860182614165565b506001830154905061446a81614cb3565b6144776020860182614165565b5050505050565b61448781614c85565b82525050565b60006020820190506144a260008301846140da565b92915050565b60006101a0820190506144be600083018e614147565b6144cb602083018d61447e565b6144d8604083018c614156565b6144e5606083018b6140da565b6144f2608083018a614408565b6144ff60c0830189614408565b61450d61010083018861447e565b61451b610120830187614147565b614529610140830186614147565b61453761016083018561447e565b61454561018083018461447e565b9c9b505050505050505050505050565b600060208201905061456a6000830184614174565b92915050565b6000602082019050818103600083015261458981614192565b9050919050565b600060208201905081810360008301526145a9816141b5565b9050919050565b600060208201905081810360008301526145c9816141d8565b9050919050565b600060208201905081810360008301526145e9816141fb565b9050919050565b600060208201905081810360008301526146098161421e565b9050919050565b6000602082019050818103600083015261462981614241565b9050919050565b6000602082019050818103600083015261464981614264565b9050919050565b6000602082019050818103600083015261466981614287565b9050919050565b60006020820190508181036000830152614689816142aa565b9050919050565b600060208201905081810360008301526146a9816142cd565b9050919050565b600060208201905081810360008301526146c9816142f0565b9050919050565b600060208201905081810360008301526146e981614313565b9050919050565b6000602082019050818103600083015261470981614336565b9050919050565b6000602082019050818103600083015261472981614359565b9050919050565b600060208201905081810360008301526147498161437c565b9050919050565b600060208201905081810360008301526147698161439f565b9050919050565b60006020820190508181036000830152614789816143c2565b9050919050565b600060208201905081810360008301526147a9816143e5565b9050919050565b60006040820190506147c5600083018561447e565b81810360208301526147d781846140e9565b90509392505050565b600060c0820190506147f5600083018761447e565b6148026020830186614437565b61480f6060830185614437565b61481c60a083018461447e565b95945050505050565b600060408201905061483a600083018561447e565b614847602083018461447e565b9392505050565b6000606082019050614863600083018661447e565b614870602083018561447e565b61487d6040830184614183565b949350505050565b600060608201905061489a600083018661447e565b6148a7602083018561447e565b6148b4604083018461447e565b949350505050565b60006148c66148d7565b90506148d28282614ccd565b919050565b6000604051905090565b600067ffffffffffffffff8211156148fc576148fb614dd4565b5b602082029050602081019050919050565b6000819050602082019050919050565b600081519050919050565b6000602082019050919050565b600082825260208201905092915050565b600082825260208201905092915050565b600061496282614c5b565b915061496d83614c5b565b9250817f7fffffffffffffffffffffffffffffffffffffffffffffffffffffffffffffff038313600083121516156149a8576149a7614d47565b5b817f80000000000000000000000000000000000000000000000000000000000000000383126000831216156149e0576149df614d47565b5b828201905092915050565b60006149f682614c85565b9150614a0183614c85565b9250827fffffffffffffffffffffffffffffffffffffffffffffffffffffffffffffffff03821115614a3657614a35614d47565b5b828201905092915050565b6000614a4c82614c5b565b9150614a5783614c5b565b9250827f7fffffffffffffffffffffffffffffffffffffffffffffffffffffffffffffff0482116000841360008413161615614a9657614a95614d47565b5b817f80000000000000000000000000000000000000000000000000000000000000000583126000841260008413161615614ad357614ad2614d47565b5b827f80000000000000000000000000000000000000000000000000000000000000000582126000841360008412161615614b1057614b0f614d47565b5b827f7fffffffffffffffffffffffffffffffffffffffffffffffffffffffffffffff0582126000841260008412161615614b4d57614b4c614d47565b5b828202905092915050565b6000614b6382614c5b565b9150614b6e83614c5b565b9250827f800000000000000000000000000000000000000000000000000000000000000001821260008412151615614ba957614ba8614d47565b5b827f7fffffffffffffffffffffffffffffffffffffffffffffffffffffffffffffff018213600084121615614be157614be0614d47565b5b828203905092915050565b6000614bf782614c85565b9150614c0283614c85565b925082821015614c1557614c14614d47565b5b828203905092915050565b6000819050919050565b6000614c3582614c65565b9050919050565b60008115159050919050565b6000819050614c56826152b9565b919050565b6000819050919050565b600073ffffffffffffffffffffffffffffffffffffffff82169050919050565b6000819050919050565b6000614c9a82614c48565b9050919050565b6000614cac82614c85565b9050919050565b6000614cc6614cc183614e28565b614c20565b9050919050565b614cd682614e17565b810181811067ffffffffffffffff82111715614cf557614cf4614dd4565b5b80604052505050565b6000614d0982614c85565b91507fffffffffffffffffffffffffffffffffffffffffffffffffffffffffffffffff821415614d3c57614d3b614d47565b5b600182019050919050565b7f4e487b7100000000000000000000000000000000000000000000000000000000600052601160045260246000fd5b7f4e487b7100000000000000000000000000000000000000000000000000000000600052602160045260246000fd5b7f4e487b7100000000000000000000000000000000000000000000000000000000600052603260045260246000fd5b7f4e487b7100000000000000000000000000000000000000000000000000000000600052604160045260246000fd5b600080fd5b600080fd5b600080fd5b600080fd5b6000601f19601f8301169050919050565b60008160001c9050919050565b7f4574686572206e65656420746f2062652073656e7420746f2072657365740000600082015250565b7f4e65656420746f2062652061207573657220746f207061790000000000000000600082015250565b7f5269646572206e6565647320746f206861766520616e2061737369676e65642060008201527f64726976657220746f2070617900000000000000000000000000000000000000602082015250565b7f55736572206e6565647320746f20626520696e20647269766572206d6f64652060008201527f746f207069636b20726964657200000000000000000000000000000000000000602082015250565b7f726964657220616c726561647920706169726564000000000000000000000000600082015250565b7f43616e6e6f74207069636b20796f757273656c66000000000000000000000000600082015250565b7f55736572206e6565647320746f20626520696e20647269766572206d6f64652060008201527f746f20696e666f726d2072696465720000000000000000000000000000000000602082015250565b7f55736572206e6565647320746f20626520696e207269646572206d6f6465207460008201527f6f20706179206472697665720000000000000000000000000000000000000000602082015250565b7f4e65656420746f2062652061207573657220746f20636f6d706c65746520726960008201527f6465000000000000000000000000000000000000000000000000000000000000602082015250565b7f596f752061726520746f6f206c61746520746f20617272697665000000000000600082015250565b7f6472697665722063757272656e746c7920706169726564000000000000000000600082015250565b7f596f7520617265206d6f7265207468617420302e32206d696c6573206177617960008201527f2066726f6d207468652072696465720000000000000000000000000000000000602082015250565b7f4e65656420746f20626520616e20616374697665207573657220746f20636f6d60008201527f706c657465207269646500000000000000000000000000000000000000000000602082015250565b7f4f76657264726166742066726f6d20696e697469616c20657363726f77000000600082015250565b7f75736572206265696e67207069636b65642068617320746f206265206120726960008201527f6465720000000000000000000000000000000000000000000000000000000000602082015250565b7f447269766572206e6565647320746f206861766520616e2061737369676e656460008201527f20726964657220746f20696e666f726d00000000000000000000000000000000602082015250565b7f4e65656420746f2062652061207573657220746f2073656c656374207269646560008201527f7200000000000000000000000000000000000000000000000000000000000000602082015250565b7f4e65656420746f2062652061207573657220746f20696e666f726d207269646560008201527f7200000000000000000000000000000000000000000000000000000000000000602082015250565b600381106152ca576152c9614d76565b5b50565b6152d681614c2a565b81146152e157600080fd5b50565b6152ed81614c5b565b81146152f857600080fd5b50565b61530481614c85565b811461530f57600080fd5b5056fea26469706673582212206dc8e214e765a6324584f5e5bb8dd3b02c17b08ca3411b39522c4005ff947af064736f6c63430008070033",
					"opcodes": "PUSH1 0x80 PUSH1 0x40 MSTORE CALLVALUE DUP1 ISZERO PUSH2 0x10 JUMPI PUSH1 0x0 DUP1 REVERT JUMPDEST POP PUSH2 0x5348 DUP1 PUSH2 0x20 PUSH1 0x0 CODECOPY PUSH1 0x0 RETURN INVALID PUSH1 0x80 PUSH1 0x40 MSTORE PUSH1 0x4 CALLDATASIZE LT PUSH2 0x91 JUMPI PUSH1 0x0 CALLDATALOAD PUSH1 0xE0 SHR DUP1 PUSH4 0xA7978738 GT PUSH2 0x59 JUMPI DUP1 PUSH4 0xA7978738 EQ PUSH2 0x134 JUMPI DUP1 PUSH4 0xA87430BA EQ PUSH2 0x15D JUMPI DUP1 PUSH4 0xBA2B3906 EQ PUSH2 0x1A4 JUMPI DUP1 PUSH4 0xDE9E7DA0 EQ PUSH2 0x1AE JUMPI DUP1 PUSH4 0xF2C9ECD8 EQ PUSH2 0x1D7 JUMPI PUSH2 0x91 JUMP JUMPDEST DUP1 PUSH4 0x315A9F01 EQ PUSH2 0x96 JUMPI DUP1 PUSH4 0x41664EBF EQ PUSH2 0xBF JUMPI DUP1 PUSH4 0x54DEE961 EQ PUSH2 0xD6 JUMPI DUP1 PUSH4 0x9E5D3610 EQ PUSH2 0xE0 JUMPI DUP1 PUSH4 0x9F4216E8 EQ PUSH2 0xF7 JUMPI JUMPDEST PUSH1 0x0 DUP1 REVERT JUMPDEST CALLVALUE DUP1 ISZERO PUSH2 0xA2 JUMPI PUSH1 0x0 DUP1 REVERT JUMPDEST POP PUSH2 0xBD PUSH1 0x4 DUP1 CALLDATASIZE SUB DUP2 ADD SWAP1 PUSH2 0xB8 SWAP2 SWAP1 PUSH2 0x4082 JUMP JUMPDEST PUSH2 0x202 JUMP JUMPDEST STOP JUMPDEST CALLVALUE DUP1 ISZERO PUSH2 0xCB JUMPI PUSH1 0x0 DUP1 REVERT JUMPDEST POP PUSH2 0xD4 PUSH2 0xA61 JUMP JUMPDEST STOP JUMPDEST PUSH2 0xDE PUSH2 0xF98 JUMP JUMPDEST STOP JUMPDEST CALLVALUE DUP1 ISZERO PUSH2 0xEC JUMPI PUSH1 0x0 DUP1 REVERT JUMPDEST POP PUSH2 0xF5 PUSH2 0x1B50 JUMP JUMPDEST STOP JUMPDEST CALLVALUE DUP1 ISZERO PUSH2 0x103 JUMPI PUSH1 0x0 DUP1 REVERT JUMPDEST POP PUSH2 0x11E PUSH1 0x4 DUP1 CALLDATASIZE SUB DUP2 ADD SWAP1 PUSH2 0x119 SWAP2 SWAP1 PUSH2 0x4055 JUMP JUMPDEST PUSH2 0x21A6 JUMP JUMPDEST PUSH1 0x40 MLOAD PUSH2 0x12B SWAP2 SWAP1 PUSH2 0x448D JUMP JUMPDEST PUSH1 0x40 MLOAD DUP1 SWAP2 SUB SWAP1 RETURN JUMPDEST CALLVALUE DUP1 ISZERO PUSH2 0x140 JUMPI PUSH1 0x0 DUP1 REVERT JUMPDEST POP PUSH2 0x15B PUSH1 0x4 DUP1 CALLDATASIZE SUB DUP2 ADD SWAP1 PUSH2 0x156 SWAP2 SWAP1 PUSH2 0x3F81 JUMP JUMPDEST PUSH2 0x21E5 JUMP JUMPDEST STOP JUMPDEST CALLVALUE DUP1 ISZERO PUSH2 0x169 JUMPI PUSH1 0x0 DUP1 REVERT JUMPDEST POP PUSH2 0x184 PUSH1 0x4 DUP1 CALLDATASIZE SUB DUP2 ADD SWAP1 PUSH2 0x17F SWAP2 SWAP1 PUSH2 0x3F54 JUMP JUMPDEST PUSH2 0x2A0F JUMP JUMPDEST PUSH1 0x40 MLOAD PUSH2 0x19B SWAP12 SWAP11 SWAP10 SWAP9 SWAP8 SWAP7 SWAP6 SWAP5 SWAP4 SWAP3 SWAP2 SWAP1 PUSH2 0x44A8 JUMP JUMPDEST PUSH1 0x40 MLOAD DUP1 SWAP2 SUB SWAP1 RETURN JUMPDEST PUSH2 0x1AC PUSH2 0x2AF9 JUMP JUMPDEST STOP JUMPDEST CALLVALUE DUP1 ISZERO PUSH2 0x1BA JUMPI PUSH1 0x0 DUP1 REVERT JUMPDEST POP PUSH2 0x1D5 PUSH1 0x4 DUP1 CALLDATASIZE SUB DUP2 ADD SWAP1 PUSH2 0x1D0 SWAP2 SWAP1 PUSH2 0x3FCA JUMP JUMPDEST PUSH2 0x332D JUMP JUMPDEST STOP JUMPDEST CALLVALUE DUP1 ISZERO PUSH2 0x1E3 JUMPI PUSH1 0x0 DUP1 REVERT JUMPDEST POP PUSH2 0x1EC PUSH2 0x3A55 JUMP JUMPDEST PUSH1 0x40 MLOAD PUSH2 0x1F9 SWAP2 SWAP1 PUSH2 0x4555 JUMP JUMPDEST PUSH1 0x40 MLOAD DUP1 SWAP2 SUB SWAP1 RETURN JUMPDEST PUSH1 0x1 ISZERO ISZERO PUSH1 0x0 DUP1 CALLER PUSH20 0xFFFFFFFFFFFFFFFFFFFFFFFFFFFFFFFFFFFFFFFF AND PUSH20 0xFFFFFFFFFFFFFFFFFFFFFFFFFFFFFFFFFFFFFFFF AND DUP2 MSTORE PUSH1 0x20 ADD SWAP1 DUP2 MSTORE PUSH1 0x20 ADD PUSH1 0x0 KECCAK256 PUSH1 0x0 ADD PUSH1 0x0 SWAP1 SLOAD SWAP1 PUSH2 0x100 EXP SWAP1 DIV PUSH1 0xFF AND ISZERO ISZERO EQ PUSH2 0x297 JUMPI PUSH1 0x40 MLOAD PUSH32 0x8C379A000000000000000000000000000000000000000000000000000000000 DUP2 MSTORE PUSH1 0x4 ADD PUSH2 0x28E SWAP1 PUSH2 0x4770 JUMP JUMPDEST PUSH1 0x40 MLOAD DUP1 SWAP2 SUB SWAP1 REVERT JUMPDEST PUSH1 0x2 DUP1 DUP2 GT ISZERO PUSH2 0x2AA JUMPI PUSH2 0x2A9 PUSH2 0x4D76 JUMP JUMPDEST JUMPDEST PUSH1 0x0 DUP1 CALLER PUSH20 0xFFFFFFFFFFFFFFFFFFFFFFFFFFFFFFFFFFFFFFFF AND PUSH20 0xFFFFFFFFFFFFFFFFFFFFFFFFFFFFFFFFFFFFFFFF AND DUP2 MSTORE PUSH1 0x20 ADD SWAP1 DUP2 MSTORE PUSH1 0x20 ADD PUSH1 0x0 KECCAK256 PUSH1 0x2 ADD PUSH1 0x0 SWAP1 SLOAD SWAP1 PUSH2 0x100 EXP SWAP1 DIV PUSH1 0xFF AND PUSH1 0x2 DUP2 GT ISZERO PUSH2 0x30B JUMPI PUSH2 0x30A PUSH2 0x4D76 JUMP JUMPDEST JUMPDEST EQ PUSH2 0x34B JUMPI PUSH1 0x40 MLOAD PUSH32 0x8C379A000000000000000000000000000000000000000000000000000000000 DUP2 MSTORE PUSH1 0x4 ADD PUSH2 0x342 SWAP1 PUSH2 0x45D0 JUMP JUMPDEST PUSH1 0x40 MLOAD DUP1 SWAP2 SUB SWAP1 REVERT JUMPDEST PUSH1 0x0 PUSH20 0xFFFFFFFFFFFFFFFFFFFFFFFFFFFFFFFFFFFFFFFF AND PUSH1 0x0 DUP1 CALLER PUSH20 0xFFFFFFFFFFFFFFFFFFFFFFFFFFFFFFFFFFFFFFFF AND PUSH20 0xFFFFFFFFFFFFFFFFFFFFFFFFFFFFFFFFFFFFFFFF AND DUP2 MSTORE PUSH1 0x20 ADD SWAP1 DUP2 MSTORE PUSH1 0x20 ADD PUSH1 0x0 KECCAK256 PUSH1 0x2 ADD PUSH1 0x1 SWAP1 SLOAD SWAP1 PUSH2 0x100 EXP SWAP1 DIV PUSH20 0xFFFFFFFFFFFFFFFFFFFFFFFFFFFFFFFFFFFFFFFF AND PUSH20 0xFFFFFFFFFFFFFFFFFFFFFFFFFFFFFFFFFFFFFFFF AND EQ PUSH2 0x41B JUMPI PUSH1 0x40 MLOAD PUSH32 0x8C379A000000000000000000000000000000000000000000000000000000000 DUP2 MSTORE PUSH1 0x4 ADD PUSH2 0x412 SWAP1 PUSH2 0x46B0 JUMP JUMPDEST PUSH1 0x40 MLOAD DUP1 SWAP2 SUB SWAP1 REVERT JUMPDEST CALLER PUSH20 0xFFFFFFFFFFFFFFFFFFFFFFFFFFFFFFFFFFFFFFFF AND PUSH1 0x1 DUP4 DUP2 SLOAD DUP2 LT PUSH2 0x446 JUMPI PUSH2 0x445 PUSH2 0x4DA5 JUMP JUMPDEST JUMPDEST SWAP1 PUSH1 0x0 MSTORE PUSH1 0x20 PUSH1 0x0 KECCAK256 ADD PUSH1 0x0 SWAP1 SLOAD SWAP1 PUSH2 0x100 EXP SWAP1 DIV PUSH20 0xFFFFFFFFFFFFFFFFFFFFFFFFFFFFFFFFFFFFFFFF AND PUSH20 0xFFFFFFFFFFFFFFFFFFFFFFFFFFFFFFFFFFFFFFFF AND EQ ISZERO PUSH2 0x4C8 JUMPI PUSH1 0x40 MLOAD PUSH32 0x8C379A000000000000000000000000000000000000000000000000000000000 DUP2 MSTORE PUSH1 0x4 ADD PUSH2 0x4BF SWAP1 PUSH2 0x4610 JUMP JUMPDEST PUSH1 0x40 MLOAD DUP1 SWAP2 SUB SWAP1 REVERT JUMPDEST PUSH1 0x0 PUSH20 0xFFFFFFFFFFFFFFFFFFFFFFFFFFFFFFFFFFFFFFFF AND PUSH1 0x0 DUP1 PUSH1 0x1 DUP6 DUP2 SLOAD DUP2 LT PUSH2 0x4F7 JUMPI PUSH2 0x4F6 PUSH2 0x4DA5 JUMP JUMPDEST JUMPDEST SWAP1 PUSH1 0x0 MSTORE PUSH1 0x20 PUSH1 0x0 KECCAK256 ADD PUSH1 0x0 SWAP1 SLOAD SWAP1 PUSH2 0x100 EXP SWAP1 DIV PUSH20 0xFFFFFFFFFFFFFFFFFFFFFFFFFFFFFFFFFFFFFFFF AND PUSH20 0xFFFFFFFFFFFFFFFFFFFFFFFFFFFFFFFFFFFFFFFF AND PUSH20 0xFFFFFFFFFFFFFFFFFFFFFFFFFFFFFFFFFFFFFFFF AND DUP2 MSTORE PUSH1 0x20 ADD SWAP1 DUP2 MSTORE PUSH1 0x20 ADD PUSH1 0x0 KECCAK256 PUSH1 0x2 ADD PUSH1 0x1 SWAP1 SLOAD SWAP1 PUSH2 0x100 EXP SWAP1 DIV PUSH20 0xFFFFFFFFFFFFFFFFFFFFFFFFFFFFFFFFFFFFFFFF AND PUSH20 0xFFFFFFFFFFFFFFFFFFFFFFFFFFFFFFFFFFFFFFFF AND EQ PUSH2 0x5D6 JUMPI PUSH1 0x40 MLOAD PUSH32 0x8C379A000000000000000000000000000000000000000000000000000000000 DUP2 MSTORE PUSH1 0x4 ADD PUSH2 0x5CD SWAP1 PUSH2 0x45F0 JUMP JUMPDEST PUSH1 0x40 MLOAD DUP1 SWAP2 SUB SWAP1 REVERT JUMPDEST PUSH1 0x1 PUSH1 0x2 DUP2 GT ISZERO PUSH2 0x5EA JUMPI PUSH2 0x5E9 PUSH2 0x4D76 JUMP JUMPDEST JUMPDEST PUSH1 0x0 DUP1 PUSH1 0x1 DUP6 DUP2 SLOAD DUP2 LT PUSH2 0x601 JUMPI PUSH2 0x600 PUSH2 0x4DA5 JUMP JUMPDEST JUMPDEST SWAP1 PUSH1 0x0 MSTORE PUSH1 0x20 PUSH1 0x0 KECCAK256 ADD PUSH1 0x0 SWAP1 SLOAD SWAP1 PUSH2 0x100 EXP SWAP1 DIV PUSH20 0xFFFFFFFFFFFFFFFFFFFFFFFFFFFFFFFFFFFFFFFF AND PUSH20 0xFFFFFFFFFFFFFFFFFFFFFFFFFFFFFFFFFFFFFFFF AND PUSH20 0xFFFFFFFFFFFFFFFFFFFFFFFFFFFFFFFFFFFFFFFF AND DUP2 MSTORE PUSH1 0x20 ADD SWAP1 DUP2 MSTORE PUSH1 0x20 ADD PUSH1 0x0 KECCAK256 PUSH1 0x2 ADD PUSH1 0x0 SWAP1 SLOAD SWAP1 PUSH2 0x100 EXP SWAP1 DIV PUSH1 0xFF AND PUSH1 0x2 DUP2 GT ISZERO PUSH2 0x689 JUMPI PUSH2 0x688 PUSH2 0x4D76 JUMP JUMPDEST JUMPDEST EQ PUSH2 0x6C9 JUMPI PUSH1 0x40 MLOAD PUSH32 0x8C379A000000000000000000000000000000000000000000000000000000000 DUP2 MSTORE PUSH1 0x4 ADD PUSH2 0x6C0 SWAP1 PUSH2 0x4730 JUMP JUMPDEST PUSH1 0x40 MLOAD DUP1 SWAP2 SUB SWAP1 REVERT JUMPDEST CALLER PUSH1 0x0 DUP1 PUSH1 0x1 DUP6 DUP2 SLOAD DUP2 LT PUSH2 0x6E1 JUMPI PUSH2 0x6E0 PUSH2 0x4DA5 JUMP JUMPDEST JUMPDEST SWAP1 PUSH1 0x0 MSTORE PUSH1 0x20 PUSH1 0x0 KECCAK256 ADD PUSH1 0x0 SWAP1 SLOAD SWAP1 PUSH2 0x100 EXP SWAP1 DIV PUSH20 0xFFFFFFFFFFFFFFFFFFFFFFFFFFFFFFFFFFFFFFFF AND PUSH20 0xFFFFFFFFFFFFFFFFFFFFFFFFFFFFFFFFFFFFFFFF AND PUSH20 0xFFFFFFFFFFFFFFFFFFFFFFFFFFFFFFFFFFFFFFFF AND DUP2 MSTORE PUSH1 0x20 ADD SWAP1 DUP2 MSTORE PUSH1 0x20 ADD PUSH1 0x0 KECCAK256 PUSH1 0x2 ADD PUSH1 0x1 PUSH2 0x100 EXP DUP2 SLOAD DUP2 PUSH20 0xFFFFFFFFFFFFFFFFFFFFFFFFFFFFFFFFFFFFFFFF MUL NOT AND SWAP1 DUP4 PUSH20 0xFFFFFFFFFFFFFFFFFFFFFFFFFFFFFFFFFFFFFFFF AND MUL OR SWAP1 SSTORE POP PUSH1 0x1 DUP3 DUP2 SLOAD DUP2 LT PUSH2 0x79B JUMPI PUSH2 0x79A PUSH2 0x4DA5 JUMP JUMPDEST JUMPDEST SWAP1 PUSH1 0x0 MSTORE PUSH1 0x20 PUSH1 0x0 KECCAK256 ADD PUSH1 0x0 SWAP1 SLOAD SWAP1 PUSH2 0x100 EXP SWAP1 DIV PUSH20 0xFFFFFFFFFFFFFFFFFFFFFFFFFFFFFFFFFFFFFFFF AND PUSH1 0x0 DUP1 CALLER PUSH20 0xFFFFFFFFFFFFFFFFFFFFFFFFFFFFFFFFFFFFFFFF AND PUSH20 0xFFFFFFFFFFFFFFFFFFFFFFFFFFFFFFFFFFFFFFFF AND DUP2 MSTORE PUSH1 0x20 ADD SWAP1 DUP2 MSTORE PUSH1 0x20 ADD PUSH1 0x0 KECCAK256 PUSH1 0x2 ADD PUSH1 0x1 PUSH2 0x100 EXP DUP2 SLOAD DUP2 PUSH20 0xFFFFFFFFFFFFFFFFFFFFFFFFFFFFFFFFFFFFFFFF MUL NOT AND SWAP1 DUP4 PUSH20 0xFFFFFFFFFFFFFFFFFFFFFFFFFFFFFFFFFFFFFFFF AND MUL OR SWAP1 SSTORE POP DUP1 PUSH1 0x0 DUP1 CALLER PUSH20 0xFFFFFFFFFFFFFFFFFFFFFFFFFFFFFFFFFFFFFFFF AND PUSH20 0xFFFFFFFFFFFFFFFFFFFFFFFFFFFFFFFFFFFFFFFF AND DUP2 MSTORE PUSH1 0x20 ADD SWAP1 DUP2 MSTORE PUSH1 0x20 ADD PUSH1 0x0 KECCAK256 PUSH1 0x7 ADD DUP2 SWAP1 SSTORE POP DUP1 PUSH1 0x0 DUP1 PUSH1 0x1 DUP6 DUP2 SLOAD DUP2 LT PUSH2 0x8A3 JUMPI PUSH2 0x8A2 PUSH2 0x4DA5 JUMP JUMPDEST JUMPDEST SWAP1 PUSH1 0x0 MSTORE PUSH1 0x20 PUSH1 0x0 KECCAK256 ADD PUSH1 0x0 SWAP1 SLOAD SWAP1 PUSH2 0x100 EXP SWAP1 DIV PUSH20 0xFFFFFFFFFFFFFFFFFFFFFFFFFFFFFFFFFFFFFFFF AND PUSH20 0xFFFFFFFFFFFFFFFFFFFFFFFFFFFFFFFFFFFFFFFF AND PUSH20 0xFFFFFFFFFFFFFFFFFFFFFFFFFFFFFFFFFFFFFFFF AND DUP2 MSTORE PUSH1 0x20 ADD SWAP1 DUP2 MSTORE PUSH1 0x20 ADD PUSH1 0x0 KECCAK256 PUSH1 0x7 ADD DUP2 SWAP1 SSTORE POP PUSH1 0x0 DUP1 PUSH1 0x0 CALLER PUSH20 0xFFFFFFFFFFFFFFFFFFFFFFFFFFFFFFFFFFFFFFFF AND PUSH20 0xFFFFFFFFFFFFFFFFFFFFFFFFFFFFFFFFFFFFFFFF AND DUP2 MSTORE PUSH1 0x20 ADD SWAP1 DUP2 MSTORE PUSH1 0x20 ADD PUSH1 0x0 KECCAK256 PUSH1 0x8 ADD PUSH1 0x0 PUSH2 0x100 EXP DUP2 SLOAD DUP2 PUSH1 0xFF MUL NOT AND SWAP1 DUP4 ISZERO ISZERO MUL OR SWAP1 SSTORE POP PUSH1 0x0 DUP1 PUSH1 0x0 DUP1 PUSH1 0x0 CALLER PUSH20 0xFFFFFFFFFFFFFFFFFFFFFFFFFFFFFFFFFFFFFFFF AND PUSH20 0xFFFFFFFFFFFFFFFFFFFFFFFFFFFFFFFFFFFFFFFF AND DUP2 MSTORE PUSH1 0x20 ADD SWAP1 DUP2 MSTORE PUSH1 0x20 ADD PUSH1 0x0 KECCAK256 PUSH1 0x2 ADD PUSH1 0x1 SWAP1 SLOAD SWAP1 PUSH2 0x100 EXP SWAP1 DIV PUSH20 0xFFFFFFFFFFFFFFFFFFFFFFFFFFFFFFFFFFFFFFFF AND PUSH20 0xFFFFFFFFFFFFFFFFFFFFFFFFFFFFFFFFFFFFFFFF AND PUSH20 0xFFFFFFFFFFFFFFFFFFFFFFFFFFFFFFFFFFFFFFFF AND DUP2 MSTORE PUSH1 0x20 ADD SWAP1 DUP2 MSTORE PUSH1 0x20 ADD PUSH1 0x0 KECCAK256 PUSH1 0x8 ADD PUSH1 0x0 PUSH2 0x100 EXP DUP2 SLOAD DUP2 PUSH1 0xFF MUL NOT AND SWAP1 DUP4 ISZERO ISZERO MUL OR SWAP1 SSTORE POP PUSH32 0xD492064EDF7FCAC5D4CF828F131AFA14B0A5784D8BFDB01853E176CF5B0E2EC3 DUP3 DUP3 PUSH1 0x40 MLOAD PUSH2 0xA55 SWAP3 SWAP2 SWAP1 PUSH2 0x4825 JUMP JUMPDEST PUSH1 0x40 MLOAD DUP1 SWAP2 SUB SWAP1 LOG1 POP POP JUMP JUMPDEST PUSH1 0x1 ISZERO ISZERO PUSH1 0x0 DUP1 CALLER PUSH20 0xFFFFFFFFFFFFFFFFFFFFFFFFFFFFFFFFFFFFFFFF AND PUSH20 0xFFFFFFFFFFFFFFFFFFFFFFFFFFFFFFFFFFFFFFFF AND DUP2 MSTORE PUSH1 0x20 ADD SWAP1 DUP2 MSTORE PUSH1 0x20 ADD PUSH1 0x0 KECCAK256 PUSH1 0x0 ADD PUSH1 0x0 SWAP1 SLOAD SWAP1 PUSH2 0x100 EXP SWAP1 DIV PUSH1 0xFF AND ISZERO ISZERO EQ PUSH2 0xAF6 JUMPI PUSH1 0x40 MLOAD PUSH32 0x8C379A000000000000000000000000000000000000000000000000000000000 DUP2 MSTORE PUSH1 0x4 ADD PUSH2 0xAED SWAP1 PUSH2 0x4770 JUMP JUMPDEST PUSH1 0x40 MLOAD DUP1 SWAP2 SUB SWAP1 REVERT JUMPDEST PUSH1 0x2 DUP1 DUP2 GT ISZERO PUSH2 0xB09 JUMPI PUSH2 0xB08 PUSH2 0x4D76 JUMP JUMPDEST JUMPDEST PUSH1 0x0 DUP1 CALLER PUSH20 0xFFFFFFFFFFFFFFFFFFFFFFFFFFFFFFFFFFFFFFFF AND PUSH20 0xFFFFFFFFFFFFFFFFFFFFFFFFFFFFFFFFFFFFFFFF AND DUP2 MSTORE PUSH1 0x20 ADD SWAP1 DUP2 MSTORE PUSH1 0x20 ADD PUSH1 0x0 KECCAK256 PUSH1 0x2 ADD PUSH1 0x0 SWAP1 SLOAD SWAP1 PUSH2 0x100 EXP SWAP1 DIV PUSH1 0xFF AND PUSH1 0x2 DUP2 GT ISZERO PUSH2 0xB6A JUMPI PUSH2 0xB69 PUSH2 0x4D76 JUMP JUMPDEST JUMPDEST EQ PUSH2 0xBAA JUMPI PUSH1 0x40 MLOAD PUSH32 0x8C379A000000000000000000000000000000000000000000000000000000000 DUP2 MSTORE PUSH1 0x4 ADD PUSH2 0xBA1 SWAP1 PUSH2 0x45D0 JUMP JUMPDEST PUSH1 0x40 MLOAD DUP1 SWAP2 SUB SWAP1 REVERT JUMPDEST PUSH1 0x0 JUMPDEST PUSH1 0x1 DUP1 SLOAD SWAP1 POP DUP2 LT ISZERO PUSH2 0xF95 JUMPI PUSH1 0x0 PUSH20 0xFFFFFFFFFFFFFFFFFFFFFFFFFFFFFFFFFFFFFFFF AND PUSH1 0x0 DUP1 PUSH1 0x1 DUP5 DUP2 SLOAD DUP2 LT PUSH2 0xBE9 JUMPI PUSH2 0xBE8 PUSH2 0x4DA5 JUMP JUMPDEST JUMPDEST SWAP1 PUSH1 0x0 MSTORE PUSH1 0x20 PUSH1 0x0 KECCAK256 ADD PUSH1 0x0 SWAP1 SLOAD SWAP1 PUSH2 0x100 EXP SWAP1 DIV PUSH20 0xFFFFFFFFFFFFFFFFFFFFFFFFFFFFFFFFFFFFFFFF AND PUSH20 0xFFFFFFFFFFFFFFFFFFFFFFFFFFFFFFFFFFFFFFFF AND PUSH20 0xFFFFFFFFFFFFFFFFFFFFFFFFFFFFFFFFFFFFFFFF AND DUP2 MSTORE PUSH1 0x20 ADD SWAP1 DUP2 MSTORE PUSH1 0x20 ADD PUSH1 0x0 KECCAK256 PUSH1 0x2 ADD PUSH1 0x1 SWAP1 SLOAD SWAP1 PUSH2 0x100 EXP SWAP1 DIV PUSH20 0xFFFFFFFFFFFFFFFFFFFFFFFFFFFFFFFFFFFFFFFF AND PUSH20 0xFFFFFFFFFFFFFFFFFFFFFFFFFFFFFFFFFFFFFFFF AND EQ DUP1 ISZERO PUSH2 0xD45 JUMPI POP PUSH1 0x1 PUSH1 0x2 DUP2 GT ISZERO PUSH2 0xCA4 JUMPI PUSH2 0xCA3 PUSH2 0x4D76 JUMP JUMPDEST JUMPDEST PUSH1 0x0 DUP1 PUSH1 0x1 DUP5 DUP2 SLOAD DUP2 LT PUSH2 0xCBB JUMPI PUSH2 0xCBA PUSH2 0x4DA5 JUMP JUMPDEST JUMPDEST SWAP1 PUSH1 0x0 MSTORE PUSH1 0x20 PUSH1 0x0 KECCAK256 ADD PUSH1 0x0 SWAP1 SLOAD SWAP1 PUSH2 0x100 EXP SWAP1 DIV PUSH20 0xFFFFFFFFFFFFFFFFFFFFFFFFFFFFFFFFFFFFFFFF AND PUSH20 0xFFFFFFFFFFFFFFFFFFFFFFFFFFFFFFFFFFFFFFFF AND PUSH20 0xFFFFFFFFFFFFFFFFFFFFFFFFFFFFFFFFFFFFFFFF AND DUP2 MSTORE PUSH1 0x20 ADD SWAP1 DUP2 MSTORE PUSH1 0x20 ADD PUSH1 0x0 KECCAK256 PUSH1 0x2 ADD PUSH1 0x0 SWAP1 SLOAD SWAP1 PUSH2 0x100 EXP SWAP1 DIV PUSH1 0xFF AND PUSH1 0x2 DUP2 GT ISZERO PUSH2 0xD43 JUMPI PUSH2 0xD42 PUSH2 0x4D76 JUMP JUMPDEST JUMPDEST EQ JUMPDEST ISZERO PUSH2 0xF82 JUMPI PUSH32 0x371A7676BA1A3C7F898DEECEE12F15ABF07A92560AF6D3F0A10F35D07189084F PUSH1 0x0 DUP1 PUSH1 0x1 DUP5 DUP2 SLOAD DUP2 LT PUSH2 0xD82 JUMPI PUSH2 0xD81 PUSH2 0x4DA5 JUMP JUMPDEST JUMPDEST SWAP1 PUSH1 0x0 MSTORE PUSH1 0x20 PUSH1 0x0 KECCAK256 ADD PUSH1 0x0 SWAP1 SLOAD SWAP1 PUSH2 0x100 EXP SWAP1 DIV PUSH20 0xFFFFFFFFFFFFFFFFFFFFFFFFFFFFFFFFFFFFFFFF AND PUSH20 0xFFFFFFFFFFFFFFFFFFFFFFFFFFFFFFFFFFFFFFFF AND PUSH20 0xFFFFFFFFFFFFFFFFFFFFFFFFFFFFFFFFFFFFFFFF AND DUP2 MSTORE PUSH1 0x20 ADD SWAP1 DUP2 MSTORE PUSH1 0x20 ADD PUSH1 0x0 KECCAK256 PUSH1 0x1 ADD SLOAD PUSH1 0x0 DUP1 PUSH1 0x1 DUP6 DUP2 SLOAD DUP2 LT PUSH2 0xE02 JUMPI PUSH2 0xE01 PUSH2 0x4DA5 JUMP JUMPDEST JUMPDEST SWAP1 PUSH1 0x0 MSTORE PUSH1 0x20 PUSH1 0x0 KECCAK256 ADD PUSH1 0x0 SWAP1 SLOAD SWAP1 PUSH2 0x100 EXP SWAP1 DIV PUSH20 0xFFFFFFFFFFFFFFFFFFFFFFFFFFFFFFFFFFFFFFFF AND PUSH20 0xFFFFFFFFFFFFFFFFFFFFFFFFFFFFFFFFFFFFFFFF AND PUSH20 0xFFFFFFFFFFFFFFFFFFFFFFFFFFFFFFFFFFFFFFFF AND DUP2 MSTORE PUSH1 0x20 ADD SWAP1 DUP2 MSTORE PUSH1 0x20 ADD PUSH1 0x0 KECCAK256 PUSH1 0x3 ADD PUSH1 0x0 DUP1 PUSH1 0x1 DUP7 DUP2 SLOAD DUP2 LT PUSH2 0xE81 JUMPI PUSH2 0xE80 PUSH2 0x4DA5 JUMP JUMPDEST JUMPDEST SWAP1 PUSH1 0x0 MSTORE PUSH1 0x20 PUSH1 0x0 KECCAK256 ADD PUSH1 0x0 SWAP1 SLOAD SWAP1 PUSH2 0x100 EXP SWAP1 DIV PUSH20 0xFFFFFFFFFFFFFFFFFFFFFFFFFFFFFFFFFFFFFFFF AND PUSH20 0xFFFFFFFFFFFFFFFFFFFFFFFFFFFFFFFFFFFFFFFF AND PUSH20 0xFFFFFFFFFFFFFFFFFFFFFFFFFFFFFFFFFFFFFFFF AND DUP2 MSTORE PUSH1 0x20 ADD SWAP1 DUP2 MSTORE PUSH1 0x20 ADD PUSH1 0x0 KECCAK256 PUSH1 0x5 ADD PUSH1 0x0 DUP1 PUSH1 0x1 DUP8 DUP2 SLOAD DUP2 LT PUSH2 0xF00 JUMPI PUSH2 0xEFF PUSH2 0x4DA5 JUMP JUMPDEST JUMPDEST SWAP1 PUSH1 0x0 MSTORE PUSH1 0x20 PUSH1 0x0 KECCAK256 ADD PUSH1 0x0 SWAP1 SLOAD SWAP1 PUSH2 0x100 EXP SWAP1 DIV PUSH20 0xFFFFFFFFFFFFFFFFFFFFFFFFFFFFFFFFFFFFFFFF AND PUSH20 0xFFFFFFFFFFFFFFFFFFFFFFFFFFFFFFFFFFFFFFFF AND PUSH20 0xFFFFFFFFFFFFFFFFFFFFFFFFFFFFFFFFFFFFFFFF AND DUP2 MSTORE PUSH1 0x20 ADD SWAP1 DUP2 MSTORE PUSH1 0x20 ADD PUSH1 0x0 KECCAK256 PUSH1 0x9 ADD SLOAD PUSH1 0x40 MLOAD PUSH2 0xF79 SWAP5 SWAP4 SWAP3 SWAP2 SWAP1 PUSH2 0x47E0 JUMP JUMPDEST PUSH1 0x40 MLOAD DUP1 SWAP2 SUB SWAP1 LOG1 JUMPDEST DUP1 DUP1 PUSH2 0xF8D SWAP1 PUSH2 0x4CFE JUMP JUMPDEST SWAP2 POP POP PUSH2 0xBAD JUMP JUMPDEST POP JUMP JUMPDEST PUSH1 0x1 ISZERO ISZERO PUSH1 0x0 DUP1 CALLER PUSH20 0xFFFFFFFFFFFFFFFFFFFFFFFFFFFFFFFFFFFFFFFF AND PUSH20 0xFFFFFFFFFFFFFFFFFFFFFFFFFFFFFFFFFFFFFFFF AND DUP2 MSTORE PUSH1 0x20 ADD SWAP1 DUP2 MSTORE PUSH1 0x20 ADD PUSH1 0x0 KECCAK256 PUSH1 0x0 ADD PUSH1 0x0 SWAP1 SLOAD SWAP1 PUSH2 0x100 EXP SWAP1 DIV PUSH1 0xFF AND ISZERO ISZERO EQ PUSH2 0x102D JUMPI PUSH1 0x40 MLOAD PUSH32 0x8C379A000000000000000000000000000000000000000000000000000000000 DUP2 MSTORE PUSH1 0x4 ADD PUSH2 0x1024 SWAP1 PUSH2 0x4670 JUMP JUMPDEST PUSH1 0x40 MLOAD DUP1 SWAP2 SUB SWAP1 REVERT JUMPDEST PUSH1 0x0 PUSH1 0x2 DUP2 GT ISZERO PUSH2 0x1041 JUMPI PUSH2 0x1040 PUSH2 0x4D76 JUMP JUMPDEST JUMPDEST PUSH1 0x0 DUP1 CALLER PUSH20 0xFFFFFFFFFFFFFFFFFFFFFFFFFFFFFFFFFFFFFFFF AND PUSH20 0xFFFFFFFFFFFFFFFFFFFFFFFFFFFFFFFFFFFFFFFF AND DUP2 MSTORE PUSH1 0x20 ADD SWAP1 DUP2 MSTORE PUSH1 0x20 ADD PUSH1 0x0 KECCAK256 PUSH1 0x2 ADD PUSH1 0x0 SWAP1 SLOAD SWAP1 PUSH2 0x100 EXP SWAP1 DIV PUSH1 0xFF AND PUSH1 0x2 DUP2 GT ISZERO PUSH2 0x10A2 JUMPI PUSH2 0x10A1 PUSH2 0x4D76 JUMP JUMPDEST JUMPDEST EQ ISZERO PUSH2 0x10E3 JUMPI PUSH1 0x40 MLOAD PUSH32 0x8C379A000000000000000000000000000000000000000000000000000000000 DUP2 MSTORE PUSH1 0x4 ADD PUSH2 0x10DA SWAP1 PUSH2 0x46F0 JUMP JUMPDEST PUSH1 0x40 MLOAD DUP1 SWAP2 SUB SWAP1 REVERT JUMPDEST PUSH1 0x0 CALLVALUE LT ISZERO PUSH2 0x1127 JUMPI PUSH1 0x40 MLOAD PUSH32 0x8C379A000000000000000000000000000000000000000000000000000000000 DUP2 MSTORE PUSH1 0x4 ADD PUSH2 0x111E SWAP1 PUSH2 0x4570 JUMP JUMPDEST PUSH1 0x40 MLOAD DUP1 SWAP2 SUB SWAP1 REVERT JUMPDEST PUSH1 0x1 ISZERO ISZERO PUSH1 0x0 DUP1 CALLER PUSH20 0xFFFFFFFFFFFFFFFFFFFFFFFFFFFFFFFFFFFFFFFF AND PUSH20 0xFFFFFFFFFFFFFFFFFFFFFFFFFFFFFFFFFFFFFFFF AND DUP2 MSTORE PUSH1 0x20 ADD SWAP1 DUP2 MSTORE PUSH1 0x20 ADD PUSH1 0x0 KECCAK256 PUSH1 0x8 ADD PUSH1 0x1 SWAP1 SLOAD SWAP1 PUSH2 0x100 EXP SWAP1 DIV PUSH1 0xFF AND ISZERO ISZERO EQ ISZERO PUSH2 0x12F6 JUMPI CALLER PUSH20 0xFFFFFFFFFFFFFFFFFFFFFFFFFFFFFFFFFFFFFFFF AND PUSH2 0x8FC CALLVALUE SWAP1 DUP2 ISZERO MUL SWAP1 PUSH1 0x40 MLOAD PUSH1 0x0 PUSH1 0x40 MLOAD DUP1 DUP4 SUB DUP2 DUP6 DUP9 DUP9 CALL SWAP4 POP POP POP POP ISZERO DUP1 ISZERO PUSH2 0x11C8 JUMPI RETURNDATASIZE PUSH1 0x0 DUP1 RETURNDATACOPY RETURNDATASIZE PUSH1 0x0 REVERT JUMPDEST POP PUSH32 0x5B1B690B017B49E02E426B145EC66A70F4259C7A0A7BFB5609363922CEC65EEF PUSH1 0x0 DUP1 CALLER PUSH20 0xFFFFFFFFFFFFFFFFFFFFFFFFFFFFFFFFFFFFFFFF AND PUSH20 0xFFFFFFFFFFFFFFFFFFFFFFFFFFFFFFFFFFFFFFFF AND DUP2 MSTORE PUSH1 0x20 ADD SWAP1 DUP2 MSTORE PUSH1 0x20 ADD PUSH1 0x0 KECCAK256 PUSH1 0x1 ADD SLOAD PUSH1 0x0 DUP1 DUP1 PUSH1 0x0 CALLER PUSH20 0xFFFFFFFFFFFFFFFFFFFFFFFFFFFFFFFFFFFFFFFF AND PUSH20 0xFFFFFFFFFFFFFFFFFFFFFFFFFFFFFFFFFFFFFFFF AND DUP2 MSTORE PUSH1 0x20 ADD SWAP1 DUP2 MSTORE PUSH1 0x20 ADD PUSH1 0x0 KECCAK256 PUSH1 0x2 ADD PUSH1 0x1 SWAP1 SLOAD SWAP1 PUSH2 0x100 EXP SWAP1 DIV PUSH20 0xFFFFFFFFFFFFFFFFFFFFFFFFFFFFFFFFFFFFFFFF AND PUSH20 0xFFFFFFFFFFFFFFFFFFFFFFFFFFFFFFFFFFFFFFFF AND PUSH20 0xFFFFFFFFFFFFFFFFFFFFFFFFFFFFFFFFFFFFFFFF AND DUP2 MSTORE PUSH1 0x20 ADD SWAP1 DUP2 MSTORE PUSH1 0x20 ADD PUSH1 0x0 KECCAK256 PUSH1 0x1 ADD SLOAD PUSH1 0x0 PUSH1 0x40 MLOAD PUSH2 0x12E0 SWAP4 SWAP3 SWAP2 SWAP1 PUSH2 0x484E JUMP JUMPDEST PUSH1 0x40 MLOAD DUP1 SWAP2 SUB SWAP1 LOG1 PUSH2 0x12F1 CALLER PUSH2 0x3B22 JUMP JUMPDEST PUSH2 0x1B4E JUMP JUMPDEST PUSH1 0x1 PUSH1 0x2 DUP2 GT ISZERO PUSH2 0x130A JUMPI PUSH2 0x1309 PUSH2 0x4D76 JUMP JUMPDEST JUMPDEST PUSH1 0x0 DUP1 CALLER PUSH20 0xFFFFFFFFFFFFFFFFFFFFFFFFFFFFFFFFFFFFFFFF AND PUSH20 0xFFFFFFFFFFFFFFFFFFFFFFFFFFFFFFFFFFFFFFFF AND DUP2 MSTORE PUSH1 0x20 ADD SWAP1 DUP2 MSTORE PUSH1 0x20 ADD PUSH1 0x0 KECCAK256 PUSH1 0x2 ADD PUSH1 0x0 SWAP1 SLOAD SWAP1 PUSH2 0x100 EXP SWAP1 DIV PUSH1 0xFF AND PUSH1 0x2 DUP2 GT ISZERO PUSH2 0x136B JUMPI PUSH2 0x136A PUSH2 0x4D76 JUMP JUMPDEST JUMPDEST EQ ISZERO PUSH2 0x1761 JUMPI PUSH1 0x0 ISZERO ISZERO PUSH1 0x0 DUP1 CALLER PUSH20 0xFFFFFFFFFFFFFFFFFFFFFFFFFFFFFFFFFFFFFFFF AND PUSH20 0xFFFFFFFFFFFFFFFFFFFFFFFFFFFFFFFFFFFFFFFF AND DUP2 MSTORE PUSH1 0x20 ADD SWAP1 DUP2 MSTORE PUSH1 0x20 ADD PUSH1 0x0 KECCAK256 PUSH1 0x8 ADD PUSH1 0x0 SWAP1 SLOAD SWAP1 PUSH2 0x100 EXP SWAP1 DIV PUSH1 0xFF AND ISZERO ISZERO EQ DUP1 ISZERO PUSH2 0x1413 JUMPI POP PUSH1 0x0 DUP1 CALLER PUSH20 0xFFFFFFFFFFFFFFFFFFFFFFFFFFFFFFFFFFFFFFFF AND PUSH20 0xFFFFFFFFFFFFFFFFFFFFFFFFFFFFFFFFFFFFFFFF AND DUP2 MSTORE PUSH1 0x20 ADD SWAP1 DUP2 MSTORE PUSH1 0x20 ADD PUSH1 0x0 KECCAK256 PUSH1 0x7 ADD SLOAD TIMESTAMP GT JUMPDEST ISZERO PUSH2 0x158C JUMPI CALLER PUSH20 0xFFFFFFFFFFFFFFFFFFFFFFFFFFFFFFFFFFFFFFFF AND PUSH2 0x8FC CALLVALUE SWAP1 DUP2 ISZERO MUL SWAP1 PUSH1 0x40 MLOAD PUSH1 0x0 PUSH1 0x40 MLOAD DUP1 DUP4 SUB DUP2 DUP6 DUP9 DUP9 CALL SWAP4 POP POP POP POP ISZERO DUP1 ISZERO PUSH2 0x145E JUMPI RETURNDATASIZE PUSH1 0x0 DUP1 RETURNDATACOPY RETURNDATASIZE PUSH1 0x0 REVERT JUMPDEST POP PUSH32 0x5B1B690B017B49E02E426B145EC66A70F4259C7A0A7BFB5609363922CEC65EEF PUSH1 0x0 DUP1 CALLER PUSH20 0xFFFFFFFFFFFFFFFFFFFFFFFFFFFFFFFFFFFFFFFF AND PUSH20 0xFFFFFFFFFFFFFFFFFFFFFFFFFFFFFFFFFFFFFFFF AND DUP2 MSTORE PUSH1 0x20 ADD SWAP1 DUP2 MSTORE PUSH1 0x20 ADD PUSH1 0x0 KECCAK256 PUSH1 0x1 ADD SLOAD PUSH1 0x0 DUP1 DUP1 PUSH1 0x0 CALLER PUSH20 0xFFFFFFFFFFFFFFFFFFFFFFFFFFFFFFFFFFFFFFFF AND PUSH20 0xFFFFFFFFFFFFFFFFFFFFFFFFFFFFFFFFFFFFFFFF AND DUP2 MSTORE PUSH1 0x20 ADD SWAP1 DUP2 MSTORE PUSH1 0x20 ADD PUSH1 0x0 KECCAK256 PUSH1 0x2 ADD PUSH1 0x1 SWAP1 SLOAD SWAP1 PUSH2 0x100 EXP SWAP1 DIV PUSH20 0xFFFFFFFFFFFFFFFFFFFFFFFFFFFFFFFFFFFFFFFF AND PUSH20 0xFFFFFFFFFFFFFFFFFFFFFFFFFFFFFFFFFFFFFFFF AND PUSH20 0xFFFFFFFFFFFFFFFFFFFFFFFFFFFFFFFFFFFFFFFF AND DUP2 MSTORE PUSH1 0x20 ADD SWAP1 DUP2 MSTORE PUSH1 0x20 ADD PUSH1 0x0 KECCAK256 PUSH1 0x1 ADD SLOAD PUSH1 0x0 PUSH1 0x40 MLOAD PUSH2 0x1576 SWAP4 SWAP3 SWAP2 SWAP1 PUSH2 0x484E JUMP JUMPDEST PUSH1 0x40 MLOAD DUP1 SWAP2 SUB SWAP1 LOG1 PUSH2 0x1587 CALLER PUSH2 0x3B22 JUMP JUMPDEST PUSH2 0x175C JUMP JUMPDEST PUSH1 0x0 DUP1 CALLER PUSH20 0xFFFFFFFFFFFFFFFFFFFFFFFFFFFFFFFFFFFFFFFF AND PUSH20 0xFFFFFFFFFFFFFFFFFFFFFFFFFFFFFFFFFFFFFFFF AND DUP2 MSTORE PUSH1 0x20 ADD SWAP1 DUP2 MSTORE PUSH1 0x20 ADD PUSH1 0x0 KECCAK256 PUSH1 0x2 ADD PUSH1 0x1 SWAP1 SLOAD SWAP1 PUSH2 0x100 EXP SWAP1 DIV PUSH20 0xFFFFFFFFFFFFFFFFFFFFFFFFFFFFFFFFFFFFFFFF AND PUSH20 0xFFFFFFFFFFFFFFFFFFFFFFFFFFFFFFFFFFFFFFFF AND PUSH2 0x8FC CALLVALUE SWAP1 DUP2 ISZERO MUL SWAP1 PUSH1 0x40 MLOAD PUSH1 0x0 PUSH1 0x40 MLOAD DUP1 DUP4 SUB DUP2 DUP6 DUP9 DUP9 CALL SWAP4 POP POP POP POP ISZERO DUP1 ISZERO PUSH2 0x1633 JUMPI RETURNDATASIZE PUSH1 0x0 DUP1 RETURNDATACOPY RETURNDATASIZE PUSH1 0x0 REVERT JUMPDEST POP PUSH32 0x5B1B690B017B49E02E426B145EC66A70F4259C7A0A7BFB5609363922CEC65EEF PUSH1 0x0 DUP1 CALLER PUSH20 0xFFFFFFFFFFFFFFFFFFFFFFFFFFFFFFFFFFFFFFFF AND PUSH20 0xFFFFFFFFFFFFFFFFFFFFFFFFFFFFFFFFFFFFFFFF AND DUP2 MSTORE PUSH1 0x20 ADD SWAP1 DUP2 MSTORE PUSH1 0x20 ADD PUSH1 0x0 KECCAK256 PUSH1 0x1 ADD SLOAD PUSH1 0x0 DUP1 DUP1 PUSH1 0x0 CALLER PUSH20 0xFFFFFFFFFFFFFFFFFFFFFFFFFFFFFFFFFFFFFFFF AND PUSH20 0xFFFFFFFFFFFFFFFFFFFFFFFFFFFFFFFFFFFFFFFF AND DUP2 MSTORE PUSH1 0x20 ADD SWAP1 DUP2 MSTORE PUSH1 0x20 ADD PUSH1 0x0 KECCAK256 PUSH1 0x2 ADD PUSH1 0x1 SWAP1 SLOAD SWAP1 PUSH2 0x100 EXP SWAP1 DIV PUSH20 0xFFFFFFFFFFFFFFFFFFFFFFFFFFFFFFFFFFFFFFFF AND PUSH20 0xFFFFFFFFFFFFFFFFFFFFFFFFFFFFFFFFFFFFFFFF AND PUSH20 0xFFFFFFFFFFFFFFFFFFFFFFFFFFFFFFFFFFFFFFFF AND DUP2 MSTORE PUSH1 0x20 ADD SWAP1 DUP2 MSTORE PUSH1 0x20 ADD PUSH1 0x0 KECCAK256 PUSH1 0x1 ADD SLOAD CALLVALUE PUSH1 0x40 MLOAD PUSH2 0x174A SWAP4 SWAP3 SWAP2 SWAP1 PUSH2 0x4885 JUMP JUMPDEST PUSH1 0x40 MLOAD DUP1 SWAP2 SUB SWAP1 LOG1 PUSH2 0x175B CALLER PUSH2 0x3B22 JUMP JUMPDEST JUMPDEST PUSH2 0x1B4D JUMP JUMPDEST PUSH1 0x1 ISZERO ISZERO PUSH1 0x0 DUP1 CALLER PUSH20 0xFFFFFFFFFFFFFFFFFFFFFFFFFFFFFFFFFFFFFFFF AND PUSH20 0xFFFFFFFFFFFFFFFFFFFFFFFFFFFFFFFFFFFFFFFF AND DUP2 MSTORE PUSH1 0x20 ADD SWAP1 DUP2 MSTORE PUSH1 0x20 ADD PUSH1 0x0 KECCAK256 PUSH1 0x8 ADD PUSH1 0x0 SWAP1 SLOAD SWAP1 PUSH2 0x100 EXP SWAP1 DIV PUSH1 0xFF AND ISZERO ISZERO EQ DUP1 ISZERO PUSH2 0x1803 JUMPI POP PUSH1 0x0 DUP1 CALLER PUSH20 0xFFFFFFFFFFFFFFFFFFFFFFFFFFFFFFFFFFFFFFFF AND PUSH20 0xFFFFFFFFFFFFFFFFFFFFFFFFFFFFFFFFFFFFFFFF AND DUP2 MSTORE PUSH1 0x20 ADD SWAP1 DUP2 MSTORE PUSH1 0x20 ADD PUSH1 0x0 KECCAK256 PUSH1 0x7 ADD SLOAD TIMESTAMP GT JUMPDEST ISZERO PUSH2 0x197C JUMPI CALLER PUSH20 0xFFFFFFFFFFFFFFFFFFFFFFFFFFFFFFFFFFFFFFFF AND PUSH2 0x8FC CALLVALUE SWAP1 DUP2 ISZERO MUL SWAP1 PUSH1 0x40 MLOAD PUSH1 0x0 PUSH1 0x40 MLOAD DUP1 DUP4 SUB DUP2 DUP6 DUP9 DUP9 CALL SWAP4 POP POP POP POP ISZERO DUP1 ISZERO PUSH2 0x184E JUMPI RETURNDATASIZE PUSH1 0x0 DUP1 RETURNDATACOPY RETURNDATASIZE PUSH1 0x0 REVERT JUMPDEST POP PUSH32 0x5B1B690B017B49E02E426B145EC66A70F4259C7A0A7BFB5609363922CEC65EEF PUSH1 0x0 DUP1 CALLER PUSH20 0xFFFFFFFFFFFFFFFFFFFFFFFFFFFFFFFFFFFFFFFF AND PUSH20 0xFFFFFFFFFFFFFFFFFFFFFFFFFFFFFFFFFFFFFFFF AND DUP2 MSTORE PUSH1 0x20 ADD SWAP1 DUP2 MSTORE PUSH1 0x20 ADD PUSH1 0x0 KECCAK256 PUSH1 0x1 ADD SLOAD PUSH1 0x0 DUP1 DUP1 PUSH1 0x0 CALLER PUSH20 0xFFFFFFFFFFFFFFFFFFFFFFFFFFFFFFFFFFFFFFFF AND PUSH20 0xFFFFFFFFFFFFFFFFFFFFFFFFFFFFFFFFFFFFFFFF AND DUP2 MSTORE PUSH1 0x20 ADD SWAP1 DUP2 MSTORE PUSH1 0x20 ADD PUSH1 0x0 KECCAK256 PUSH1 0x2 ADD PUSH1 0x1 SWAP1 SLOAD SWAP1 PUSH2 0x100 EXP SWAP1 DIV PUSH20 0xFFFFFFFFFFFFFFFFFFFFFFFFFFFFFFFFFFFFFFFF AND PUSH20 0xFFFFFFFFFFFFFFFFFFFFFFFFFFFFFFFFFFFFFFFF AND PUSH20 0xFFFFFFFFFFFFFFFFFFFFFFFFFFFFFFFFFFFFFFFF AND DUP2 MSTORE PUSH1 0x20 ADD SWAP1 DUP2 MSTORE PUSH1 0x20 ADD PUSH1 0x0 KECCAK256 PUSH1 0x1 ADD SLOAD PUSH1 0x0 PUSH1 0x40 MLOAD PUSH2 0x1966 SWAP4 SWAP3 SWAP2 SWAP1 PUSH2 0x484E JUMP JUMPDEST PUSH1 0x40 MLOAD DUP1 SWAP2 SUB SWAP1 LOG1 PUSH2 0x1977 CALLER PUSH2 0x3B22 JUMP JUMPDEST PUSH2 0x1B4C JUMP JUMPDEST PUSH1 0x0 DUP1 CALLER PUSH20 0xFFFFFFFFFFFFFFFFFFFFFFFFFFFFFFFFFFFFFFFF AND PUSH20 0xFFFFFFFFFFFFFFFFFFFFFFFFFFFFFFFFFFFFFFFF AND DUP2 MSTORE PUSH1 0x20 ADD SWAP1 DUP2 MSTORE PUSH1 0x20 ADD PUSH1 0x0 KECCAK256 PUSH1 0x2 ADD PUSH1 0x1 SWAP1 SLOAD SWAP1 PUSH2 0x100 EXP SWAP1 DIV PUSH20 0xFFFFFFFFFFFFFFFFFFFFFFFFFFFFFFFFFFFFFFFF AND PUSH20 0xFFFFFFFFFFFFFFFFFFFFFFFFFFFFFFFFFFFFFFFF AND PUSH2 0x8FC CALLVALUE SWAP1 DUP2 ISZERO MUL SWAP1 PUSH1 0x40 MLOAD PUSH1 0x0 PUSH1 0x40 MLOAD DUP1 DUP4 SUB DUP2 DUP6 DUP9 DUP9 CALL SWAP4 POP POP POP POP ISZERO DUP1 ISZERO PUSH2 0x1A23 JUMPI RETURNDATASIZE PUSH1 0x0 DUP1 RETURNDATACOPY RETURNDATASIZE PUSH1 0x0 REVERT JUMPDEST POP PUSH32 0x5B1B690B017B49E02E426B145EC66A70F4259C7A0A7BFB5609363922CEC65EEF PUSH1 0x0 DUP1 CALLER PUSH20 0xFFFFFFFFFFFFFFFFFFFFFFFFFFFFFFFFFFFFFFFF AND PUSH20 0xFFFFFFFFFFFFFFFFFFFFFFFFFFFFFFFFFFFFFFFF AND DUP2 MSTORE PUSH1 0x20 ADD SWAP1 DUP2 MSTORE PUSH1 0x20 ADD PUSH1 0x0 KECCAK256 PUSH1 0x1 ADD SLOAD PUSH1 0x0 DUP1 DUP1 PUSH1 0x0 CALLER PUSH20 0xFFFFFFFFFFFFFFFFFFFFFFFFFFFFFFFFFFFFFFFF AND PUSH20 0xFFFFFFFFFFFFFFFFFFFFFFFFFFFFFFFFFFFFFFFF AND DUP2 MSTORE PUSH1 0x20 ADD SWAP1 DUP2 MSTORE PUSH1 0x20 ADD PUSH1 0x0 KECCAK256 PUSH1 0x2 ADD PUSH1 0x1 SWAP1 SLOAD SWAP1 PUSH2 0x100 EXP SWAP1 DIV PUSH20 0xFFFFFFFFFFFFFFFFFFFFFFFFFFFFFFFFFFFFFFFF AND PUSH20 0xFFFFFFFFFFFFFFFFFFFFFFFFFFFFFFFFFFFFFFFF AND PUSH20 0xFFFFFFFFFFFFFFFFFFFFFFFFFFFFFFFFFFFFFFFF AND DUP2 MSTORE PUSH1 0x20 ADD SWAP1 DUP2 MSTORE PUSH1 0x20 ADD PUSH1 0x0 KECCAK256 PUSH1 0x1 ADD SLOAD CALLVALUE PUSH1 0x40 MLOAD PUSH2 0x1B3A SWAP4 SWAP3 SWAP2 SWAP1 PUSH2 0x4885 JUMP JUMPDEST PUSH1 0x40 MLOAD DUP1 SWAP2 SUB SWAP1 LOG1 PUSH2 0x1B4B CALLER PUSH2 0x3B22 JUMP JUMPDEST JUMPDEST JUMPDEST JUMPDEST JUMP JUMPDEST PUSH1 0x0 ISZERO ISZERO PUSH1 0x0 DUP1 CALLER PUSH20 0xFFFFFFFFFFFFFFFFFFFFFFFFFFFFFFFFFFFFFFFF AND PUSH20 0xFFFFFFFFFFFFFFFFFFFFFFFFFFFFFFFFFFFFFFFF AND DUP2 MSTORE PUSH1 0x20 ADD SWAP1 DUP2 MSTORE PUSH1 0x20 ADD PUSH1 0x0 KECCAK256 PUSH1 0x0 ADD PUSH1 0x0 SWAP1 SLOAD SWAP1 PUSH2 0x100 EXP SWAP1 DIV PUSH1 0xFF AND ISZERO ISZERO EQ ISZERO PUSH2 0x1E51 JUMPI PUSH1 0x1 CALLER SWAP1 DUP1 PUSH1 0x1 DUP2 SLOAD ADD DUP1 DUP3 SSTORE DUP1 SWAP2 POP POP PUSH1 0x1 SWAP1 SUB SWAP1 PUSH1 0x0 MSTORE PUSH1 0x20 PUSH1 0x0 KECCAK256 ADD PUSH1 0x0 SWAP1 SWAP2 SWAP1 SWAP2 SWAP1 SWAP2 PUSH2 0x100 EXP DUP2 SLOAD DUP2 PUSH20 0xFFFFFFFFFFFFFFFFFFFFFFFFFFFFFFFFFFFFFFFF MUL NOT AND SWAP1 DUP4 PUSH20 0xFFFFFFFFFFFFFFFFFFFFFFFFFFFFFFFFFFFFFFFF AND MUL OR SWAP1 SSTORE POP PUSH1 0x40 MLOAD DUP1 PUSH2 0x160 ADD PUSH1 0x40 MSTORE DUP1 PUSH1 0x1 ISZERO ISZERO DUP2 MSTORE PUSH1 0x20 ADD PUSH1 0x1 DUP1 DUP1 SLOAD SWAP1 POP PUSH2 0x1C34 SWAP2 SWAP1 PUSH2 0x4BEC JUMP JUMPDEST DUP2 MSTORE PUSH1 0x20 ADD PUSH1 0x2 DUP1 DUP2 GT ISZERO PUSH2 0x1C4C JUMPI PUSH2 0x1C4B PUSH2 0x4D76 JUMP JUMPDEST JUMPDEST DUP2 MSTORE PUSH1 0x20 ADD PUSH1 0x0 PUSH20 0xFFFFFFFFFFFFFFFFFFFFFFFFFFFFFFFFFFFFFFFF AND DUP2 MSTORE PUSH1 0x20 ADD PUSH1 0x40 MLOAD DUP1 PUSH1 0x40 ADD PUSH1 0x40 MSTORE DUP1 PUSH1 0x0 DUP2 MSTORE PUSH1 0x20 ADD PUSH1 0x0 DUP2 MSTORE POP DUP2 MSTORE PUSH1 0x20 ADD PUSH1 0x40 MLOAD DUP1 PUSH1 0x40 ADD PUSH1 0x40 MSTORE DUP1 PUSH1 0x0 DUP2 MSTORE PUSH1 0x20 ADD PUSH1 0x0 DUP2 MSTORE POP DUP2 MSTORE PUSH1 0x20 ADD PUSH1 0x0 DUP2 MSTORE PUSH1 0x20 ADD PUSH1 0x1 ISZERO ISZERO DUP2 MSTORE PUSH1 0x20 ADD PUSH1 0x0 ISZERO ISZERO DUP2 MSTORE PUSH1 0x20 ADD PUSH1 0x0 DUP2 MSTORE PUSH1 0x20 ADD PUSH1 0x0 DUP2 MSTORE POP PUSH1 0x0 DUP1 CALLER PUSH20 0xFFFFFFFFFFFFFFFFFFFFFFFFFFFFFFFFFFFFFFFF AND PUSH20 0xFFFFFFFFFFFFFFFFFFFFFFFFFFFFFFFFFFFFFFFF AND DUP2 MSTORE PUSH1 0x20 ADD SWAP1 DUP2 MSTORE PUSH1 0x20 ADD PUSH1 0x0 KECCAK256 PUSH1 0x0 DUP3 ADD MLOAD DUP2 PUSH1 0x0 ADD PUSH1 0x0 PUSH2 0x100 EXP DUP2 SLOAD DUP2 PUSH1 0xFF MUL NOT AND SWAP1 DUP4 ISZERO ISZERO MUL OR SWAP1 SSTORE POP PUSH1 0x20 DUP3 ADD MLOAD DUP2 PUSH1 0x1 ADD SSTORE PUSH1 0x40 DUP3 ADD MLOAD DUP2 PUSH1 0x2 ADD PUSH1 0x0 PUSH2 0x100 EXP DUP2 SLOAD DUP2 PUSH1 0xFF MUL NOT AND SWAP1 DUP4 PUSH1 0x2 DUP2 GT ISZERO PUSH2 0x1D5E JUMPI PUSH2 0x1D5D PUSH2 0x4D76 JUMP JUMPDEST JUMPDEST MUL OR SWAP1 SSTORE POP PUSH1 0x60 DUP3 ADD MLOAD DUP2 PUSH1 0x2 ADD PUSH1 0x1 PUSH2 0x100 EXP DUP2 SLOAD DUP2 PUSH20 0xFFFFFFFFFFFFFFFFFFFFFFFFFFFFFFFFFFFFFFFF MUL NOT AND SWAP1 DUP4 PUSH20 0xFFFFFFFFFFFFFFFFFFFFFFFFFFFFFFFFFFFFFFFF AND MUL OR SWAP1 SSTORE POP PUSH1 0x80 DUP3 ADD MLOAD DUP2 PUSH1 0x3 ADD PUSH1 0x0 DUP3 ADD MLOAD DUP2 PUSH1 0x0 ADD SSTORE PUSH1 0x20 DUP3 ADD MLOAD DUP2 PUSH1 0x1 ADD SSTORE POP POP PUSH1 0xA0 DUP3 ADD MLOAD DUP2 PUSH1 0x5 ADD PUSH1 0x0 DUP3 ADD MLOAD DUP2 PUSH1 0x0 ADD SSTORE PUSH1 0x20 DUP3 ADD MLOAD DUP2 PUSH1 0x1 ADD SSTORE POP POP PUSH1 0xC0 DUP3 ADD MLOAD DUP2 PUSH1 0x7 ADD SSTORE PUSH1 0xE0 DUP3 ADD MLOAD DUP2 PUSH1 0x8 ADD PUSH1 0x0 PUSH2 0x100 EXP DUP2 SLOAD DUP2 PUSH1 0xFF MUL NOT AND SWAP1 DUP4 ISZERO ISZERO MUL OR SWAP1 SSTORE POP PUSH2 0x100 DUP3 ADD MLOAD DUP2 PUSH1 0x8 ADD PUSH1 0x1 PUSH2 0x100 EXP DUP2 SLOAD DUP2 PUSH1 0xFF MUL NOT AND SWAP1 DUP4 ISZERO ISZERO MUL OR SWAP1 SSTORE POP PUSH2 0x120 DUP3 ADD MLOAD DUP2 PUSH1 0x9 ADD SSTORE PUSH2 0x140 DUP3 ADD MLOAD DUP2 PUSH1 0xA ADD SSTORE SWAP1 POP POP PUSH2 0x21A4 JUMP JUMPDEST PUSH1 0x2 PUSH1 0x0 DUP1 CALLER PUSH20 0xFFFFFFFFFFFFFFFFFFFFFFFFFFFFFFFFFFFFFFFF AND PUSH20 0xFFFFFFFFFFFFFFFFFFFFFFFFFFFFFFFFFFFFFFFF AND DUP2 MSTORE PUSH1 0x20 ADD SWAP1 DUP2 MSTORE PUSH1 0x20 ADD PUSH1 0x0 KECCAK256 PUSH1 0x2 ADD PUSH1 0x0 PUSH2 0x100 EXP DUP2 SLOAD DUP2 PUSH1 0xFF MUL NOT AND SWAP1 DUP4 PUSH1 0x2 DUP2 GT ISZERO PUSH2 0x1EB6 JUMPI PUSH2 0x1EB5 PUSH2 0x4D76 JUMP JUMPDEST JUMPDEST MUL OR SWAP1 SSTORE POP PUSH1 0x0 DUP1 PUSH1 0x0 CALLER PUSH20 0xFFFFFFFFFFFFFFFFFFFFFFFFFFFFFFFFFFFFFFFF AND PUSH20 0xFFFFFFFFFFFFFFFFFFFFFFFFFFFFFFFFFFFFFFFF AND DUP2 MSTORE PUSH1 0x20 ADD SWAP1 DUP2 MSTORE PUSH1 0x20 ADD PUSH1 0x0 KECCAK256 PUSH1 0x2 ADD PUSH1 0x1 PUSH2 0x100 EXP DUP2 SLOAD DUP2 PUSH20 0xFFFFFFFFFFFFFFFFFFFFFFFFFFFFFFFFFFFFFFFF MUL NOT AND SWAP1 DUP4 PUSH20 0xFFFFFFFFFFFFFFFFFFFFFFFFFFFFFFFFFFFFFFFF AND MUL OR SWAP1 SSTORE POP PUSH1 0x40 MLOAD DUP1 PUSH1 0x40 ADD PUSH1 0x40 MSTORE DUP1 PUSH1 0x0 DUP2 MSTORE PUSH1 0x20 ADD PUSH1 0x0 DUP2 MSTORE POP PUSH1 0x0 DUP1 CALLER PUSH20 0xFFFFFFFFFFFFFFFFFFFFFFFFFFFFFFFFFFFFFFFF AND PUSH20 0xFFFFFFFFFFFFFFFFFFFFFFFFFFFFFFFFFFFFFFFF AND DUP2 MSTORE PUSH1 0x20 ADD SWAP1 DUP2 MSTORE PUSH1 0x20 ADD PUSH1 0x0 KECCAK256 PUSH1 0x3 ADD PUSH1 0x0 DUP3 ADD MLOAD DUP2 PUSH1 0x0 ADD SSTORE PUSH1 0x20 DUP3 ADD MLOAD DUP2 PUSH1 0x1 ADD SSTORE SWAP1 POP POP PUSH1 0x40 MLOAD DUP1 PUSH1 0x40 ADD PUSH1 0x40 MSTORE DUP1 PUSH1 0x0 DUP2 MSTORE PUSH1 0x20 ADD PUSH1 0x0 DUP2 MSTORE POP PUSH1 0x0 DUP1 CALLER PUSH20 0xFFFFFFFFFFFFFFFFFFFFFFFFFFFFFFFFFFFFFFFF AND PUSH20 0xFFFFFFFFFFFFFFFFFFFFFFFFFFFFFFFFFFFFFFFF AND DUP2 MSTORE PUSH1 0x20 ADD SWAP1 DUP2 MSTORE PUSH1 0x20 ADD PUSH1 0x0 KECCAK256 PUSH1 0x5 ADD PUSH1 0x0 DUP3 ADD MLOAD DUP2 PUSH1 0x0 ADD SSTORE PUSH1 0x20 DUP3 ADD MLOAD DUP2 PUSH1 0x1 ADD SSTORE SWAP1 POP POP PUSH1 0x0 DUP1 PUSH1 0x0 CALLER PUSH20 0xFFFFFFFFFFFFFFFFFFFFFFFFFFFFFFFFFFFFFFFF AND PUSH20 0xFFFFFFFFFFFFFFFFFFFFFFFFFFFFFFFFFFFFFFFF AND DUP2 MSTORE PUSH1 0x20 ADD SWAP1 DUP2 MSTORE PUSH1 0x20 ADD PUSH1 0x0 KECCAK256 PUSH1 0x9 ADD DUP2 SWAP1 SSTORE POP PUSH1 0x0 DUP1 PUSH1 0x0 CALLER PUSH20 0xFFFFFFFFFFFFFFFFFFFFFFFFFFFFFFFFFFFFFFFF AND PUSH20 0xFFFFFFFFFFFFFFFFFFFFFFFFFFFFFFFFFFFFFFFF AND DUP2 MSTORE PUSH1 0x20 ADD SWAP1 DUP2 MSTORE PUSH1 0x20 ADD PUSH1 0x0 KECCAK256 PUSH1 0x7 ADD DUP2 SWAP1 SSTORE POP PUSH1 0x1 PUSH1 0x0 DUP1 CALLER PUSH20 0xFFFFFFFFFFFFFFFFFFFFFFFFFFFFFFFFFFFFFFFF AND PUSH20 0xFFFFFFFFFFFFFFFFFFFFFFFFFFFFFFFFFFFFFFFF AND DUP2 MSTORE PUSH1 0x20 ADD SWAP1 DUP2 MSTORE PUSH1 0x20 ADD PUSH1 0x0 KECCAK256 PUSH1 0x8 ADD PUSH1 0x0 PUSH2 0x100 EXP DUP2 SLOAD DUP2 PUSH1 0xFF MUL NOT AND SWAP1 DUP4 ISZERO ISZERO MUL OR SWAP1 SSTORE POP PUSH1 0x0 DUP1 PUSH1 0x0 CALLER PUSH20 0xFFFFFFFFFFFFFFFFFFFFFFFFFFFFFFFFFFFFFFFF AND PUSH20 0xFFFFFFFFFFFFFFFFFFFFFFFFFFFFFFFFFFFFFFFF AND DUP2 MSTORE PUSH1 0x20 ADD SWAP1 DUP2 MSTORE PUSH1 0x20 ADD PUSH1 0x0 KECCAK256 PUSH1 0x8 ADD PUSH1 0x1 PUSH2 0x100 EXP DUP2 SLOAD DUP2 PUSH1 0xFF MUL NOT AND SWAP1 DUP4 ISZERO ISZERO MUL OR SWAP1 SSTORE POP PUSH1 0x0 DUP1 PUSH1 0x0 CALLER PUSH20 0xFFFFFFFFFFFFFFFFFFFFFFFFFFFFFFFFFFFFFFFF AND PUSH20 0xFFFFFFFFFFFFFFFFFFFFFFFFFFFFFFFFFFFFFFFF AND DUP2 MSTORE PUSH1 0x20 ADD SWAP1 DUP2 MSTORE PUSH1 0x20 ADD PUSH1 0x0 KECCAK256 PUSH1 0xA ADD DUP2 SWAP1 SSTORE POP JUMPDEST JUMP JUMPDEST PUSH1 0x1 DUP2 DUP2 SLOAD DUP2 LT PUSH2 0x21B6 JUMPI PUSH1 0x0 DUP1 REVERT JUMPDEST SWAP1 PUSH1 0x0 MSTORE PUSH1 0x20 PUSH1 0x0 KECCAK256 ADD PUSH1 0x0 SWAP2 POP SLOAD SWAP1 PUSH2 0x100 EXP SWAP1 DIV PUSH20 0xFFFFFFFFFFFFFFFFFFFFFFFFFFFFFFFFFFFFFFFF AND DUP2 JUMP JUMPDEST PUSH1 0x1 ISZERO ISZERO PUSH1 0x0 DUP1 CALLER PUSH20 0xFFFFFFFFFFFFFFFFFFFFFFFFFFFFFFFFFFFFFFFF AND PUSH20 0xFFFFFFFFFFFFFFFFFFFFFFFFFFFFFFFFFFFFFFFF AND DUP2 MSTORE PUSH1 0x20 ADD SWAP1 DUP2 MSTORE PUSH1 0x20 ADD PUSH1 0x0 KECCAK256 PUSH1 0x0 ADD PUSH1 0x0 SWAP1 SLOAD SWAP1 PUSH2 0x100 EXP SWAP1 DIV PUSH1 0xFF AND ISZERO ISZERO EQ PUSH2 0x227A JUMPI PUSH1 0x40 MLOAD PUSH32 0x8C379A000000000000000000000000000000000000000000000000000000000 DUP2 MSTORE PUSH1 0x4 ADD PUSH2 0x2271 SWAP1 PUSH2 0x4790 JUMP JUMPDEST PUSH1 0x40 MLOAD DUP1 SWAP2 SUB SWAP1 REVERT JUMPDEST PUSH1 0x2 DUP1 DUP2 GT ISZERO PUSH2 0x228D JUMPI PUSH2 0x228C PUSH2 0x4D76 JUMP JUMPDEST JUMPDEST PUSH1 0x0 DUP1 CALLER PUSH20 0xFFFFFFFFFFFFFFFFFFFFFFFFFFFFFFFFFFFFFFFF AND PUSH20 0xFFFFFFFFFFFFFFFFFFFFFFFFFFFFFFFFFFFFFFFF AND DUP2 MSTORE PUSH1 0x20 ADD SWAP1 DUP2 MSTORE PUSH1 0x20 ADD PUSH1 0x0 KECCAK256 PUSH1 0x2 ADD PUSH1 0x0 SWAP1 SLOAD SWAP1 PUSH2 0x100 EXP SWAP1 DIV PUSH1 0xFF AND PUSH1 0x2 DUP2 GT ISZERO PUSH2 0x22EE JUMPI PUSH2 0x22ED PUSH2 0x4D76 JUMP JUMPDEST JUMPDEST EQ PUSH2 0x232E JUMPI PUSH1 0x40 MLOAD PUSH32 0x8C379A000000000000000000000000000000000000000000000000000000000 DUP2 MSTORE PUSH1 0x4 ADD PUSH2 0x2325 SWAP1 PUSH2 0x4630 JUMP JUMPDEST PUSH1 0x40 MLOAD DUP1 SWAP2 SUB SWAP1 REVERT JUMPDEST PUSH1 0x0 PUSH20 0xFFFFFFFFFFFFFFFFFFFFFFFFFFFFFFFFFFFFFFFF AND PUSH1 0x0 DUP1 CALLER PUSH20 0xFFFFFFFFFFFFFFFFFFFFFFFFFFFFFFFFFFFFFFFF AND PUSH20 0xFFFFFFFFFFFFFFFFFFFFFFFFFFFFFFFFFFFFFFFF AND DUP2 MSTORE PUSH1 0x20 ADD SWAP1 DUP2 MSTORE PUSH1 0x20 ADD PUSH1 0x0 KECCAK256 PUSH1 0x2 ADD PUSH1 0x1 SWAP1 SLOAD SWAP1 PUSH2 0x100 EXP SWAP1 DIV PUSH20 0xFFFFFFFFFFFFFFFFFFFFFFFFFFFFFFFFFFFFFFFF AND PUSH20 0xFFFFFFFFFFFFFFFFFFFFFFFFFFFFFFFFFFFFFFFF AND EQ ISZERO PUSH2 0x23FF JUMPI PUSH1 0x40 MLOAD PUSH32 0x8C379A000000000000000000000000000000000000000000000000000000000 DUP2 MSTORE PUSH1 0x4 ADD PUSH2 0x23F6 SWAP1 PUSH2 0x4750 JUMP JUMPDEST PUSH1 0x40 MLOAD DUP1 SWAP2 SUB SWAP1 REVERT JUMPDEST PUSH1 0x0 DUP1 CALLER PUSH20 0xFFFFFFFFFFFFFFFFFFFFFFFFFFFFFFFFFFFFFFFF AND PUSH20 0xFFFFFFFFFFFFFFFFFFFFFFFFFFFFFFFFFFFFFFFF AND DUP2 MSTORE PUSH1 0x20 ADD SWAP1 DUP2 MSTORE PUSH1 0x20 ADD PUSH1 0x0 KECCAK256 PUSH1 0x7 ADD SLOAD TIMESTAMP GT ISZERO PUSH2 0x2483 JUMPI PUSH1 0x40 MLOAD PUSH32 0x8C379A000000000000000000000000000000000000000000000000000000000 DUP2 MSTORE PUSH1 0x4 ADD PUSH2 0x247A SWAP1 PUSH2 0x4690 JUMP JUMPDEST PUSH1 0x40 MLOAD DUP1 SWAP2 SUB SWAP1 REVERT JUMPDEST PUSH1 0x0 DUP1 PUSH1 0x0 DUP1 PUSH1 0x0 CALLER PUSH20 0xFFFFFFFFFFFFFFFFFFFFFFFFFFFFFFFFFFFFFFFF AND PUSH20 0xFFFFFFFFFFFFFFFFFFFFFFFFFFFFFFFFFFFFFFFF AND DUP2 MSTORE PUSH1 0x20 ADD SWAP1 DUP2 MSTORE PUSH1 0x20 ADD PUSH1 0x0 KECCAK256 PUSH1 0x2 ADD PUSH1 0x1 SWAP1 SLOAD SWAP1 PUSH2 0x100 EXP SWAP1 DIV PUSH20 0xFFFFFFFFFFFFFFFFFFFFFFFFFFFFFFFFFFFFFFFF AND PUSH20 0xFFFFFFFFFFFFFFFFFFFFFFFFFFFFFFFFFFFFFFFF AND PUSH20 0xFFFFFFFFFFFFFFFFFFFFFFFFFFFFFFFFFFFFFFFF AND DUP2 MSTORE PUSH1 0x20 ADD SWAP1 DUP2 MSTORE PUSH1 0x20 ADD PUSH1 0x0 KECCAK256 PUSH1 0x3 ADD PUSH1 0x1 ADD SLOAD DUP3 PUSH1 0x1 DUP2 MLOAD DUP2 LT PUSH2 0x253F JUMPI PUSH2 0x253E PUSH2 0x4DA5 JUMP JUMPDEST JUMPDEST PUSH1 0x20 MUL PUSH1 0x20 ADD ADD MLOAD PUSH2 0x2551 SWAP2 SWAP1 PUSH2 0x4B58 JUMP JUMPDEST PUSH1 0x0 DUP1 DUP1 PUSH1 0x0 CALLER PUSH20 0xFFFFFFFFFFFFFFFFFFFFFFFFFFFFFFFFFFFFFFFF AND PUSH20 0xFFFFFFFFFFFFFFFFFFFFFFFFFFFFFFFFFFFFFFFF AND DUP2 MSTORE PUSH1 0x20 ADD SWAP1 DUP2 MSTORE PUSH1 0x20 ADD PUSH1 0x0 KECCAK256 PUSH1 0x2 ADD PUSH1 0x1 SWAP1 SLOAD SWAP1 PUSH2 0x100 EXP SWAP1 DIV PUSH20 0xFFFFFFFFFFFFFFFFFFFFFFFFFFFFFFFFFFFFFFFF AND PUSH20 0xFFFFFFFFFFFFFFFFFFFFFFFFFFFFFFFFFFFFFFFF AND PUSH20 0xFFFFFFFFFFFFFFFFFFFFFFFFFFFFFFFFFFFFFFFF AND DUP2 MSTORE PUSH1 0x20 ADD SWAP1 DUP2 MSTORE PUSH1 0x20 ADD PUSH1 0x0 KECCAK256 PUSH1 0x3 ADD PUSH1 0x1 ADD SLOAD DUP4 PUSH1 0x1 DUP2 MLOAD DUP2 LT PUSH2 0x260B JUMPI PUSH2 0x260A PUSH2 0x4DA5 JUMP JUMPDEST JUMPDEST PUSH1 0x20 MUL PUSH1 0x20 ADD ADD MLOAD PUSH2 0x261D SWAP2 SWAP1 PUSH2 0x4B58 JUMP JUMPDEST PUSH2 0x2627 SWAP2 SWAP1 PUSH2 0x4A41 JUMP JUMPDEST PUSH1 0x0 DUP1 DUP1 PUSH1 0x0 CALLER PUSH20 0xFFFFFFFFFFFFFFFFFFFFFFFFFFFFFFFFFFFFFFFF AND PUSH20 0xFFFFFFFFFFFFFFFFFFFFFFFFFFFFFFFFFFFFFFFF AND DUP2 MSTORE PUSH1 0x20 ADD SWAP1 DUP2 MSTORE PUSH1 0x20 ADD PUSH1 0x0 KECCAK256 PUSH1 0x2 ADD PUSH1 0x1 SWAP1 SLOAD SWAP1 PUSH2 0x100 EXP SWAP1 DIV PUSH20 0xFFFFFFFFFFFFFFFFFFFFFFFFFFFFFFFFFFFFFFFF AND PUSH20 0xFFFFFFFFFFFFFFFFFFFFFFFFFFFFFFFFFFFFFFFF AND PUSH20 0xFFFFFFFFFFFFFFFFFFFFFFFFFFFFFFFFFFFFFFFF AND DUP2 MSTORE PUSH1 0x20 ADD SWAP1 DUP2 MSTORE PUSH1 0x20 ADD PUSH1 0x0 KECCAK256 PUSH1 0x3 ADD PUSH1 0x0 ADD SLOAD DUP4 PUSH1 0x0 DUP2 MLOAD DUP2 LT PUSH2 0x26E1 JUMPI PUSH2 0x26E0 PUSH2 0x4DA5 JUMP JUMPDEST JUMPDEST PUSH1 0x20 MUL PUSH1 0x20 ADD ADD MLOAD PUSH2 0x26F3 SWAP2 SWAP1 PUSH2 0x4B58 JUMP JUMPDEST PUSH1 0x0 DUP1 DUP1 PUSH1 0x0 CALLER PUSH20 0xFFFFFFFFFFFFFFFFFFFFFFFFFFFFFFFFFFFFFFFF AND PUSH20 0xFFFFFFFFFFFFFFFFFFFFFFFFFFFFFFFFFFFFFFFF AND DUP2 MSTORE PUSH1 0x20 ADD SWAP1 DUP2 MSTORE PUSH1 0x20 ADD PUSH1 0x0 KECCAK256 PUSH1 0x2 ADD PUSH1 0x1 SWAP1 SLOAD SWAP1 PUSH2 0x100 EXP SWAP1 DIV PUSH20 0xFFFFFFFFFFFFFFFFFFFFFFFFFFFFFFFFFFFFFFFF AND PUSH20 0xFFFFFFFFFFFFFFFFFFFFFFFFFFFFFFFFFFFFFFFF AND PUSH20 0xFFFFFFFFFFFFFFFFFFFFFFFFFFFFFFFFFFFFFFFF AND DUP2 MSTORE PUSH1 0x20 ADD SWAP1 DUP2 MSTORE PUSH1 0x20 ADD PUSH1 0x0 KECCAK256 PUSH1 0x3 ADD PUSH1 0x0 ADD SLOAD DUP5 PUSH1 0x0 DUP2 MLOAD DUP2 LT PUSH2 0x27AD JUMPI PUSH2 0x27AC PUSH2 0x4DA5 JUMP JUMPDEST JUMPDEST PUSH1 0x20 MUL PUSH1 0x20 ADD ADD MLOAD PUSH2 0x27BF SWAP2 SWAP1 PUSH2 0x4B58 JUMP JUMPDEST PUSH2 0x27C9 SWAP2 SWAP1 PUSH2 0x4A41 JUMP JUMPDEST PUSH2 0x27D3 SWAP2 SWAP1 PUSH2 0x4957 JUMP JUMPDEST SWAP1 POP PUSH3 0xCFE1DA DUP2 SGT ISZERO PUSH2 0x281B JUMPI PUSH1 0x40 MLOAD PUSH32 0x8C379A000000000000000000000000000000000000000000000000000000000 DUP2 MSTORE PUSH1 0x4 ADD PUSH2 0x2812 SWAP1 PUSH2 0x46D0 JUMP JUMPDEST PUSH1 0x40 MLOAD DUP1 SWAP2 SUB SWAP1 REVERT JUMPDEST PUSH1 0x1 PUSH1 0x0 DUP1 CALLER PUSH20 0xFFFFFFFFFFFFFFFFFFFFFFFFFFFFFFFFFFFFFFFF AND PUSH20 0xFFFFFFFFFFFFFFFFFFFFFFFFFFFFFFFFFFFFFFFF AND DUP2 MSTORE PUSH1 0x20 ADD SWAP1 DUP2 MSTORE PUSH1 0x20 ADD PUSH1 0x0 KECCAK256 PUSH1 0x8 ADD PUSH1 0x0 PUSH2 0x100 EXP DUP2 SLOAD DUP2 PUSH1 0xFF MUL NOT AND SWAP1 DUP4 ISZERO ISZERO MUL OR SWAP1 SSTORE POP PUSH1 0x1 PUSH1 0x0 DUP1 DUP1 PUSH1 0x0 CALLER PUSH20 0xFFFFFFFFFFFFFFFFFFFFFFFFFFFFFFFFFFFFFFFF AND PUSH20 0xFFFFFFFFFFFFFFFFFFFFFFFFFFFFFFFFFFFFFFFF AND DUP2 MSTORE PUSH1 0x20 ADD SWAP1 DUP2 MSTORE PUSH1 0x20 ADD PUSH1 0x0 KECCAK256 PUSH1 0x2 ADD PUSH1 0x1 SWAP1 SLOAD SWAP1 PUSH2 0x100 EXP SWAP1 DIV PUSH20 0xFFFFFFFFFFFFFFFFFFFFFFFFFFFFFFFFFFFFFFFF AND PUSH20 0xFFFFFFFFFFFFFFFFFFFFFFFFFFFFFFFFFFFFFFFF AND PUSH20 0xFFFFFFFFFFFFFFFFFFFFFFFFFFFFFFFFFFFFFFFF AND DUP2 MSTORE PUSH1 0x20 ADD SWAP1 DUP2 MSTORE PUSH1 0x20 ADD PUSH1 0x0 KECCAK256 PUSH1 0x8 ADD PUSH1 0x0 PUSH2 0x100 EXP DUP2 SLOAD DUP2 PUSH1 0xFF MUL NOT AND SWAP1 DUP4 ISZERO ISZERO MUL OR SWAP1 SSTORE POP PUSH32 0xFECC381FCCA04C8371DAC7B0998F7810A51C75D32ACBB1F415CEB7215B2965B5 PUSH1 0x0 DUP1 DUP1 PUSH1 0x0 CALLER PUSH20 0xFFFFFFFFFFFFFFFFFFFFFFFFFFFFFFFFFFFFFFFF AND PUSH20 0xFFFFFFFFFFFFFFFFFFFFFFFFFFFFFFFFFFFFFFFF AND DUP2 MSTORE PUSH1 0x20 ADD SWAP1 DUP2 MSTORE PUSH1 0x20 ADD PUSH1 0x0 KECCAK256 PUSH1 0x2 ADD PUSH1 0x1 SWAP1 SLOAD SWAP1 PUSH2 0x100 EXP SWAP1 DIV PUSH20 0xFFFFFFFFFFFFFFFFFFFFFFFFFFFFFFFFFFFFFFFF AND PUSH20 0xFFFFFFFFFFFFFFFFFFFFFFFFFFFFFFFFFFFFFFFF AND PUSH20 0xFFFFFFFFFFFFFFFFFFFFFFFFFFFFFFFFFFFFFFFF AND DUP2 MSTORE PUSH1 0x20 ADD SWAP1 DUP2 MSTORE PUSH1 0x20 ADD PUSH1 0x0 KECCAK256 PUSH1 0x1 ADD SLOAD DUP4 PUSH1 0x40 MLOAD PUSH2 0x2A03 SWAP3 SWAP2 SWAP1 PUSH2 0x47B0 JUMP JUMPDEST PUSH1 0x40 MLOAD DUP1 SWAP2 SUB SWAP1 LOG1 POP POP JUMP JUMPDEST PUSH1 0x0 PUSH1 0x20 MSTORE DUP1 PUSH1 0x0 MSTORE PUSH1 0x40 PUSH1 0x0 KECCAK256 PUSH1 0x0 SWAP2 POP SWAP1 POP DUP1 PUSH1 0x0 ADD PUSH1 0x0 SWAP1 SLOAD SWAP1 PUSH2 0x100 EXP SWAP1 DIV PUSH1 0xFF AND SWAP1 DUP1 PUSH1 0x1 ADD SLOAD SWAP1 DUP1 PUSH1 0x2 ADD PUSH1 0x0 SWAP1 SLOAD SWAP1 PUSH2 0x100 EXP SWAP1 DIV PUSH1 0xFF AND SWAP1 DUP1 PUSH1 0x2 ADD PUSH1 0x1 SWAP1 SLOAD SWAP1 PUSH2 0x100 EXP SWAP1 DIV PUSH20 0xFFFFFFFFFFFFFFFFFFFFFFFFFFFFFFFFFFFFFFFF AND SWAP1 DUP1 PUSH1 0x3 ADD PUSH1 0x40 MLOAD DUP1 PUSH1 0x40 ADD PUSH1 0x40 MSTORE SWAP1 DUP2 PUSH1 0x0 DUP3 ADD SLOAD DUP2 MSTORE PUSH1 0x20 ADD PUSH1 0x1 DUP3 ADD SLOAD DUP2 MSTORE POP POP SWAP1 DUP1 PUSH1 0x5 ADD PUSH1 0x40 MLOAD DUP1 PUSH1 0x40 ADD PUSH1 0x40 MSTORE SWAP1 DUP2 PUSH1 0x0 DUP3 ADD SLOAD DUP2 MSTORE PUSH1 0x20 ADD PUSH1 0x1 DUP3 ADD SLOAD DUP2 MSTORE POP POP SWAP1 DUP1 PUSH1 0x7 ADD SLOAD SWAP1 DUP1 PUSH1 0x8 ADD PUSH1 0x0 SWAP1 SLOAD SWAP1 PUSH2 0x100 EXP SWAP1 DIV PUSH1 0xFF AND SWAP1 DUP1 PUSH1 0x8 ADD PUSH1 0x1 SWAP1 SLOAD SWAP1 PUSH2 0x100 EXP SWAP1 DIV PUSH1 0xFF AND SWAP1 DUP1 PUSH1 0x9 ADD SLOAD SWAP1 DUP1 PUSH1 0xA ADD SLOAD SWAP1 POP DUP12 JUMP JUMPDEST PUSH1 0x1 ISZERO ISZERO PUSH1 0x0 DUP1 CALLER PUSH20 0xFFFFFFFFFFFFFFFFFFFFFFFFFFFFFFFFFFFFFFFF AND PUSH20 0xFFFFFFFFFFFFFFFFFFFFFFFFFFFFFFFFFFFFFFFF AND DUP2 MSTORE PUSH1 0x20 ADD SWAP1 DUP2 MSTORE PUSH1 0x20 ADD PUSH1 0x0 KECCAK256 PUSH1 0x0 ADD PUSH1 0x0 SWAP1 SLOAD SWAP1 PUSH2 0x100 EXP SWAP1 DIV PUSH1 0xFF AND ISZERO ISZERO EQ PUSH2 0x2B8E JUMPI PUSH1 0x40 MLOAD PUSH32 0x8C379A000000000000000000000000000000000000000000000000000000000 DUP2 MSTORE PUSH1 0x4 ADD PUSH2 0x2B85 SWAP1 PUSH2 0x4590 JUMP JUMPDEST PUSH1 0x40 MLOAD DUP1 SWAP2 SUB SWAP1 REVERT JUMPDEST PUSH1 0x1 PUSH1 0x2 DUP2 GT ISZERO PUSH2 0x2BA2 JUMPI PUSH2 0x2BA1 PUSH2 0x4D76 JUMP JUMPDEST JUMPDEST PUSH1 0x0 DUP1 CALLER PUSH20 0xFFFFFFFFFFFFFFFFFFFFFFFFFFFFFFFFFFFFFFFF AND PUSH20 0xFFFFFFFFFFFFFFFFFFFFFFFFFFFFFFFFFFFFFFFF AND DUP2 MSTORE PUSH1 0x20 ADD SWAP1 DUP2 MSTORE PUSH1 0x20 ADD PUSH1 0x0 KECCAK256 PUSH1 0x2 ADD PUSH1 0x0 SWAP1 SLOAD SWAP1 PUSH2 0x100 EXP SWAP1 DIV PUSH1 0xFF AND PUSH1 0x2 DUP2 GT ISZERO PUSH2 0x2C03 JUMPI PUSH2 0x2C02 PUSH2 0x4D76 JUMP JUMPDEST JUMPDEST EQ PUSH2 0x2C43 JUMPI PUSH1 0x40 MLOAD PUSH32 0x8C379A000000000000000000000000000000000000000000000000000000000 DUP2 MSTORE PUSH1 0x4 ADD PUSH2 0x2C3A SWAP1 PUSH2 0x4650 JUMP JUMPDEST PUSH1 0x40 MLOAD DUP1 SWAP2 SUB SWAP1 REVERT JUMPDEST PUSH1 0x0 PUSH20 0xFFFFFFFFFFFFFFFFFFFFFFFFFFFFFFFFFFFFFFFF AND PUSH1 0x0 DUP1 CALLER PUSH20 0xFFFFFFFFFFFFFFFFFFFFFFFFFFFFFFFFFFFFFFFF AND PUSH20 0xFFFFFFFFFFFFFFFFFFFFFFFFFFFFFFFFFFFFFFFF AND DUP2 MSTORE PUSH1 0x20 ADD SWAP1 DUP2 MSTORE PUSH1 0x20 ADD PUSH1 0x0 KECCAK256 PUSH1 0x2 ADD PUSH1 0x1 SWAP1 SLOAD SWAP1 PUSH2 0x100 EXP SWAP1 DIV PUSH20 0xFFFFFFFFFFFFFFFFFFFFFFFFFFFFFFFFFFFFFFFF AND PUSH20 0xFFFFFFFFFFFFFFFFFFFFFFFFFFFFFFFFFFFFFFFF AND EQ ISZERO PUSH2 0x2D14 JUMPI PUSH1 0x40 MLOAD PUSH32 0x8C379A000000000000000000000000000000000000000000000000000000000 DUP2 MSTORE PUSH1 0x4 ADD PUSH2 0x2D0B SWAP1 PUSH2 0x45B0 JUMP JUMPDEST PUSH1 0x40 MLOAD DUP1 SWAP2 SUB SWAP1 REVERT JUMPDEST PUSH1 0x0 DUP1 CALLER PUSH20 0xFFFFFFFFFFFFFFFFFFFFFFFFFFFFFFFFFFFFFFFF AND PUSH20 0xFFFFFFFFFFFFFFFFFFFFFFFFFFFFFFFFFFFFFFFF AND DUP2 MSTORE PUSH1 0x20 ADD SWAP1 DUP2 MSTORE PUSH1 0x20 ADD PUSH1 0x0 KECCAK256 PUSH1 0x9 ADD SLOAD CALLVALUE PUSH1 0x0 DUP1 CALLER PUSH20 0xFFFFFFFFFFFFFFFFFFFFFFFFFFFFFFFFFFFFFFFF AND PUSH20 0xFFFFFFFFFFFFFFFFFFFFFFFFFFFFFFFFFFFFFFFF AND DUP2 MSTORE PUSH1 0x20 ADD SWAP1 DUP2 MSTORE PUSH1 0x20 ADD PUSH1 0x0 KECCAK256 PUSH1 0xA ADD SLOAD PUSH2 0x2DA3 SWAP2 SWAP1 PUSH2 0x49EB JUMP JUMPDEST GT ISZERO PUSH2 0x2DE4 JUMPI PUSH1 0x40 MLOAD PUSH32 0x8C379A000000000000000000000000000000000000000000000000000000000 DUP2 MSTORE PUSH1 0x4 ADD PUSH2 0x2DDB SWAP1 PUSH2 0x4710 JUMP JUMPDEST PUSH1 0x40 MLOAD DUP1 SWAP2 SUB SWAP1 REVERT JUMPDEST PUSH1 0x1 PUSH1 0x0 DUP1 CALLER PUSH20 0xFFFFFFFFFFFFFFFFFFFFFFFFFFFFFFFFFFFFFFFF AND PUSH20 0xFFFFFFFFFFFFFFFFFFFFFFFFFFFFFFFFFFFFFFFF AND DUP2 MSTORE PUSH1 0x20 ADD SWAP1 DUP2 MSTORE PUSH1 0x20 ADD PUSH1 0x0 KECCAK256 PUSH1 0x8 ADD PUSH1 0x1 PUSH2 0x100 EXP DUP2 SLOAD DUP2 PUSH1 0xFF MUL NOT AND SWAP1 DUP4 ISZERO ISZERO MUL OR SWAP1 SSTORE POP PUSH1 0x1 PUSH1 0x0 DUP1 DUP1 PUSH1 0x0 CALLER PUSH20 0xFFFFFFFFFFFFFFFFFFFFFFFFFFFFFFFFFFFFFFFF AND PUSH20 0xFFFFFFFFFFFFFFFFFFFFFFFFFFFFFFFFFFFFFFFF AND DUP2 MSTORE PUSH1 0x20 ADD SWAP1 DUP2 MSTORE PUSH1 0x20 ADD PUSH1 0x0 KECCAK256 PUSH1 0x2 ADD PUSH1 0x1 SWAP1 SLOAD SWAP1 PUSH2 0x100 EXP SWAP1 DIV PUSH20 0xFFFFFFFFFFFFFFFFFFFFFFFFFFFFFFFFFFFFFFFF AND PUSH20 0xFFFFFFFFFFFFFFFFFFFFFFFFFFFFFFFFFFFFFFFF AND PUSH20 0xFFFFFFFFFFFFFFFFFFFFFFFFFFFFFFFFFFFFFFFF AND DUP2 MSTORE PUSH1 0x20 ADD SWAP1 DUP2 MSTORE PUSH1 0x20 ADD PUSH1 0x0 KECCAK256 PUSH1 0x8 ADD PUSH1 0x1 PUSH2 0x100 EXP DUP2 SLOAD DUP2 PUSH1 0xFF MUL NOT AND SWAP1 DUP4 ISZERO ISZERO MUL OR SWAP1 SSTORE POP PUSH1 0x0 DUP1 CALLER PUSH20 0xFFFFFFFFFFFFFFFFFFFFFFFFFFFFFFFFFFFFFFFF AND PUSH20 0xFFFFFFFFFFFFFFFFFFFFFFFFFFFFFFFFFFFFFFFF AND DUP2 MSTORE PUSH1 0x20 ADD SWAP1 DUP2 MSTORE PUSH1 0x20 ADD PUSH1 0x0 KECCAK256 PUSH1 0x2 ADD PUSH1 0x1 SWAP1 SLOAD SWAP1 PUSH2 0x100 EXP SWAP1 DIV PUSH20 0xFFFFFFFFFFFFFFFFFFFFFFFFFFFFFFFFFFFFFFFF AND PUSH20 0xFFFFFFFFFFFFFFFFFFFFFFFFFFFFFFFFFFFFFFFF AND PUSH2 0x8FC CALLVALUE SWAP1 DUP2 ISZERO MUL SWAP1 PUSH1 0x40 MLOAD PUSH1 0x0 PUSH1 0x40 MLOAD DUP1 DUP4 SUB DUP2 DUP6 DUP9 DUP9 CALL SWAP4 POP POP POP POP ISZERO DUP1 ISZERO PUSH2 0x2FA0 JUMPI RETURNDATASIZE PUSH1 0x0 DUP1 RETURNDATACOPY RETURNDATASIZE PUSH1 0x0 REVERT JUMPDEST POP CALLVALUE PUSH1 0x0 DUP1 CALLER PUSH20 0xFFFFFFFFFFFFFFFFFFFFFFFFFFFFFFFFFFFFFFFF AND PUSH20 0xFFFFFFFFFFFFFFFFFFFFFFFFFFFFFFFFFFFFFFFF AND DUP2 MSTORE PUSH1 0x20 ADD SWAP1 DUP2 MSTORE PUSH1 0x20 ADD PUSH1 0x0 KECCAK256 PUSH1 0xA ADD SLOAD PUSH2 0x2FEE SWAP2 SWAP1 PUSH2 0x49EB JUMP JUMPDEST PUSH1 0x0 DUP1 CALLER PUSH20 0xFFFFFFFFFFFFFFFFFFFFFFFFFFFFFFFFFFFFFFFF AND PUSH20 0xFFFFFFFFFFFFFFFFFFFFFFFFFFFFFFFFFFFFFFFF AND DUP2 MSTORE PUSH1 0x20 ADD SWAP1 DUP2 MSTORE PUSH1 0x20 ADD PUSH1 0x0 KECCAK256 PUSH1 0xA ADD DUP2 SWAP1 SSTORE POP PUSH32 0xED8E6F0AB8A4D39CB413959065B15AC270C5BAEC57AEE722C1268880C0B1F3D5 PUSH1 0x0 DUP1 DUP1 PUSH1 0x0 CALLER PUSH20 0xFFFFFFFFFFFFFFFFFFFFFFFFFFFFFFFFFFFFFFFF AND PUSH20 0xFFFFFFFFFFFFFFFFFFFFFFFFFFFFFFFFFFFFFFFF AND DUP2 MSTORE PUSH1 0x20 ADD SWAP1 DUP2 MSTORE PUSH1 0x20 ADD PUSH1 0x0 KECCAK256 PUSH1 0x2 ADD PUSH1 0x1 SWAP1 SLOAD SWAP1 PUSH2 0x100 EXP SWAP1 DIV PUSH20 0xFFFFFFFFFFFFFFFFFFFFFFFFFFFFFFFFFFFFFFFF AND PUSH20 0xFFFFFFFFFFFFFFFFFFFFFFFFFFFFFFFFFFFFFFFF AND PUSH20 0xFFFFFFFFFFFFFFFFFFFFFFFFFFFFFFFFFFFFFFFF AND DUP2 MSTORE PUSH1 0x20 ADD SWAP1 DUP2 MSTORE PUSH1 0x20 ADD PUSH1 0x0 KECCAK256 PUSH1 0x1 ADD SLOAD CALLVALUE PUSH1 0x40 MLOAD PUSH2 0x3106 SWAP3 SWAP2 SWAP1 PUSH2 0x4825 JUMP JUMPDEST PUSH1 0x40 MLOAD DUP1 SWAP2 SUB SWAP1 LOG1 PUSH1 0x0 DUP1 CALLER PUSH20 0xFFFFFFFFFFFFFFFFFFFFFFFFFFFFFFFFFFFFFFFF AND PUSH20 0xFFFFFFFFFFFFFFFFFFFFFFFFFFFFFFFFFFFFFFFF AND DUP2 MSTORE PUSH1 0x20 ADD SWAP1 DUP2 MSTORE PUSH1 0x20 ADD PUSH1 0x0 KECCAK256 PUSH1 0x9 ADD SLOAD PUSH1 0x0 DUP1 CALLER PUSH20 0xFFFFFFFFFFFFFFFFFFFFFFFFFFFFFFFFFFFFFFFF AND PUSH20 0xFFFFFFFFFFFFFFFFFFFFFFFFFFFFFFFFFFFFFFFF AND DUP2 MSTORE PUSH1 0x20 ADD SWAP1 DUP2 MSTORE PUSH1 0x20 ADD PUSH1 0x0 KECCAK256 PUSH1 0xA ADD SLOAD EQ ISZERO PUSH2 0x332B JUMPI PUSH32 0x5B1B690B017B49E02E426B145EC66A70F4259C7A0A7BFB5609363922CEC65EEF PUSH1 0x0 DUP1 CALLER PUSH20 0xFFFFFFFFFFFFFFFFFFFFFFFFFFFFFFFFFFFFFFFF AND PUSH20 0xFFFFFFFFFFFFFFFFFFFFFFFFFFFFFFFFFFFFFFFF AND DUP2 MSTORE PUSH1 0x20 ADD SWAP1 DUP2 MSTORE PUSH1 0x20 ADD PUSH1 0x0 KECCAK256 PUSH1 0x1 ADD SLOAD PUSH1 0x0 DUP1 DUP1 PUSH1 0x0 CALLER PUSH20 0xFFFFFFFFFFFFFFFFFFFFFFFFFFFFFFFFFFFFFFFF AND PUSH20 0xFFFFFFFFFFFFFFFFFFFFFFFFFFFFFFFFFFFFFFFF AND DUP2 MSTORE PUSH1 0x20 ADD SWAP1 DUP2 MSTORE PUSH1 0x20 ADD PUSH1 0x0 KECCAK256 PUSH1 0x2 ADD PUSH1 0x1 SWAP1 SLOAD SWAP1 PUSH2 0x100 EXP SWAP1 DIV PUSH20 0xFFFFFFFFFFFFFFFFFFFFFFFFFFFFFFFFFFFFFFFF AND PUSH20 0xFFFFFFFFFFFFFFFFFFFFFFFFFFFFFFFFFFFFFFFF AND PUSH20 0xFFFFFFFFFFFFFFFFFFFFFFFFFFFFFFFFFFFFFFFF AND DUP2 MSTORE PUSH1 0x20 ADD SWAP1 DUP2 MSTORE PUSH1 0x20 ADD PUSH1 0x0 KECCAK256 PUSH1 0x1 ADD SLOAD PUSH1 0x0 PUSH1 0x40 MLOAD PUSH2 0x32AF SWAP4 SWAP3 SWAP2 SWAP1 PUSH2 0x484E JUMP JUMPDEST PUSH1 0x40 MLOAD DUP1 SWAP2 SUB SWAP1 LOG1 PUSH2 0x3321 PUSH1 0x0 DUP1 CALLER PUSH20 0xFFFFFFFFFFFFFFFFFFFFFFFFFFFFFFFFFFFFFFFF AND PUSH20 0xFFFFFFFFFFFFFFFFFFFFFFFFFFFFFFFFFFFFFFFF AND DUP2 MSTORE PUSH1 0x20 ADD SWAP1 DUP2 MSTORE PUSH1 0x20 ADD PUSH1 0x0 KECCAK256 PUSH1 0x2 ADD PUSH1 0x1 SWAP1 SLOAD SWAP1 PUSH2 0x100 EXP SWAP1 DIV PUSH20 0xFFFFFFFFFFFFFFFFFFFFFFFFFFFFFFFFFFFFFFFF AND PUSH2 0x3B22 JUMP JUMPDEST PUSH2 0x332A CALLER PUSH2 0x3B22 JUMP JUMPDEST JUMPDEST JUMP JUMPDEST PUSH1 0x0 ISZERO ISZERO PUSH1 0x0 DUP1 CALLER PUSH20 0xFFFFFFFFFFFFFFFFFFFFFFFFFFFFFFFFFFFFFFFF AND PUSH20 0xFFFFFFFFFFFFFFFFFFFFFFFFFFFFFFFFFFFFFFFF AND DUP2 MSTORE PUSH1 0x20 ADD SWAP1 DUP2 MSTORE PUSH1 0x20 ADD PUSH1 0x0 KECCAK256 PUSH1 0x0 ADD PUSH1 0x0 SWAP1 SLOAD SWAP1 PUSH2 0x100 EXP SWAP1 DIV PUSH1 0xFF AND ISZERO ISZERO EQ ISZERO PUSH2 0x3696 JUMPI PUSH1 0x1 CALLER SWAP1 DUP1 PUSH1 0x1 DUP2 SLOAD ADD DUP1 DUP3 SSTORE DUP1 SWAP2 POP POP PUSH1 0x1 SWAP1 SUB SWAP1 PUSH1 0x0 MSTORE PUSH1 0x20 PUSH1 0x0 KECCAK256 ADD PUSH1 0x0 SWAP1 SWAP2 SWAP1 SWAP2 SWAP1 SWAP2 PUSH2 0x100 EXP DUP2 SLOAD DUP2 PUSH20 0xFFFFFFFFFFFFFFFFFFFFFFFFFFFFFFFFFFFFFFFF MUL NOT AND SWAP1 DUP4 PUSH20 0xFFFFFFFFFFFFFFFFFFFFFFFFFFFFFFFFFFFFFFFF AND MUL OR SWAP1 SSTORE POP PUSH1 0x40 MLOAD DUP1 PUSH2 0x160 ADD PUSH1 0x40 MSTORE DUP1 PUSH1 0x1 ISZERO ISZERO DUP2 MSTORE PUSH1 0x20 ADD PUSH1 0x1 DUP1 DUP1 SLOAD SWAP1 POP PUSH2 0x3411 SWAP2 SWAP1 PUSH2 0x4BEC JUMP JUMPDEST DUP2 MSTORE PUSH1 0x20 ADD PUSH1 0x1 PUSH1 0x2 DUP2 GT ISZERO PUSH2 0x342A JUMPI PUSH2 0x3429 PUSH2 0x4D76 JUMP JUMPDEST JUMPDEST DUP2 MSTORE PUSH1 0x20 ADD PUSH1 0x0 PUSH20 0xFFFFFFFFFFFFFFFFFFFFFFFFFFFFFFFFFFFFFFFF AND DUP2 MSTORE PUSH1 0x20 ADD PUSH1 0x40 MLOAD DUP1 PUSH1 0x40 ADD PUSH1 0x40 MSTORE DUP1 DUP7 PUSH1 0x0 DUP2 MLOAD DUP2 LT PUSH2 0x346B JUMPI PUSH2 0x346A PUSH2 0x4DA5 JUMP JUMPDEST JUMPDEST PUSH1 0x20 MUL PUSH1 0x20 ADD ADD MLOAD DUP2 MSTORE PUSH1 0x20 ADD DUP7 PUSH1 0x1 DUP2 MLOAD DUP2 LT PUSH2 0x348C JUMPI PUSH2 0x348B PUSH2 0x4DA5 JUMP JUMPDEST JUMPDEST PUSH1 0x20 MUL PUSH1 0x20 ADD ADD MLOAD DUP2 MSTORE POP DUP2 MSTORE PUSH1 0x20 ADD PUSH1 0x40 MLOAD DUP1 PUSH1 0x40 ADD PUSH1 0x40 MSTORE DUP1 DUP6 PUSH1 0x0 DUP2 MLOAD DUP2 LT PUSH2 0x34BB JUMPI PUSH2 0x34BA PUSH2 0x4DA5 JUMP JUMPDEST JUMPDEST PUSH1 0x20 MUL PUSH1 0x20 ADD ADD MLOAD DUP2 MSTORE PUSH1 0x20 ADD DUP6 PUSH1 0x1 DUP2 MLOAD DUP2 LT PUSH2 0x34DC JUMPI PUSH2 0x34DB PUSH2 0x4DA5 JUMP JUMPDEST JUMPDEST PUSH1 0x20 MUL PUSH1 0x20 ADD ADD MLOAD DUP2 MSTORE POP DUP2 MSTORE PUSH1 0x20 ADD PUSH1 0x0 DUP2 MSTORE PUSH1 0x20 ADD PUSH1 0x0 ISZERO ISZERO DUP2 MSTORE PUSH1 0x20 ADD PUSH1 0x0 ISZERO ISZERO DUP2 MSTORE PUSH1 0x20 ADD DUP3 DUP2 MSTORE PUSH1 0x20 ADD PUSH1 0x0 DUP2 MSTORE POP PUSH1 0x0 DUP1 CALLER PUSH20 0xFFFFFFFFFFFFFFFFFFFFFFFFFFFFFFFFFFFFFFFF AND PUSH20 0xFFFFFFFFFFFFFFFFFFFFFFFFFFFFFFFFFFFFFFFF AND DUP2 MSTORE PUSH1 0x20 ADD SWAP1 DUP2 MSTORE PUSH1 0x20 ADD PUSH1 0x0 KECCAK256 PUSH1 0x0 DUP3 ADD MLOAD DUP2 PUSH1 0x0 ADD PUSH1 0x0 PUSH2 0x100 EXP DUP2 SLOAD DUP2 PUSH1 0xFF MUL NOT AND SWAP1 DUP4 ISZERO ISZERO MUL OR SWAP1 SSTORE POP PUSH1 0x20 DUP3 ADD MLOAD DUP2 PUSH1 0x1 ADD SSTORE PUSH1 0x40 DUP3 ADD MLOAD DUP2 PUSH1 0x2 ADD PUSH1 0x0 PUSH2 0x100 EXP DUP2 SLOAD DUP2 PUSH1 0xFF MUL NOT AND SWAP1 DUP4 PUSH1 0x2 DUP2 GT ISZERO PUSH2 0x35A3 JUMPI PUSH2 0x35A2 PUSH2 0x4D76 JUMP JUMPDEST JUMPDEST MUL OR SWAP1 SSTORE POP PUSH1 0x60 DUP3 ADD MLOAD DUP2 PUSH1 0x2 ADD PUSH1 0x1 PUSH2 0x100 EXP DUP2 SLOAD DUP2 PUSH20 0xFFFFFFFFFFFFFFFFFFFFFFFFFFFFFFFFFFFFFFFF MUL NOT AND SWAP1 DUP4 PUSH20 0xFFFFFFFFFFFFFFFFFFFFFFFFFFFFFFFFFFFFFFFF AND MUL OR SWAP1 SSTORE POP PUSH1 0x80 DUP3 ADD MLOAD DUP2 PUSH1 0x3 ADD PUSH1 0x0 DUP3 ADD MLOAD DUP2 PUSH1 0x0 ADD SSTORE PUSH1 0x20 DUP3 ADD MLOAD DUP2 PUSH1 0x1 ADD SSTORE POP POP PUSH1 0xA0 DUP3 ADD MLOAD DUP2 PUSH1 0x5 ADD PUSH1 0x0 DUP3 ADD MLOAD DUP2 PUSH1 0x0 ADD SSTORE PUSH1 0x20 DUP3 ADD MLOAD DUP2 PUSH1 0x1 ADD SSTORE POP POP PUSH1 0xC0 DUP3 ADD MLOAD DUP2 PUSH1 0x7 ADD SSTORE PUSH1 0xE0 DUP3 ADD MLOAD DUP2 PUSH1 0x8 ADD PUSH1 0x0 PUSH2 0x100 EXP DUP2 SLOAD DUP2 PUSH1 0xFF MUL NOT AND SWAP1 DUP4 ISZERO ISZERO MUL OR SWAP1 SSTORE POP PUSH2 0x100 DUP3 ADD MLOAD DUP2 PUSH1 0x8 ADD PUSH1 0x1 PUSH2 0x100 EXP DUP2 SLOAD DUP2 PUSH1 0xFF MUL NOT AND SWAP1 DUP4 ISZERO ISZERO MUL OR SWAP1 SSTORE POP PUSH2 0x120 DUP3 ADD MLOAD DUP2 PUSH1 0x9 ADD SSTORE PUSH2 0x140 DUP3 ADD MLOAD DUP2 PUSH1 0xA ADD SSTORE SWAP1 POP POP PUSH2 0x3A50 JUMP JUMPDEST PUSH1 0x1 PUSH1 0x0 DUP1 CALLER PUSH20 0xFFFFFFFFFFFFFFFFFFFFFFFFFFFFFFFFFFFFFFFF AND PUSH20 0xFFFFFFFFFFFFFFFFFFFFFFFFFFFFFFFFFFFFFFFF AND DUP2 MSTORE PUSH1 0x20 ADD SWAP1 DUP2 MSTORE PUSH1 0x20 ADD PUSH1 0x0 KECCAK256 PUSH1 0x2 ADD PUSH1 0x0 PUSH2 0x100 EXP DUP2 SLOAD DUP2 PUSH1 0xFF MUL NOT AND SWAP1 DUP4 PUSH1 0x2 DUP2 GT ISZERO PUSH2 0x36FB JUMPI PUSH2 0x36FA PUSH2 0x4D76 JUMP JUMPDEST JUMPDEST MUL OR SWAP1 SSTORE POP PUSH1 0x0 DUP1 PUSH1 0x0 CALLER PUSH20 0xFFFFFFFFFFFFFFFFFFFFFFFFFFFFFFFFFFFFFFFF AND PUSH20 0xFFFFFFFFFFFFFFFFFFFFFFFFFFFFFFFFFFFFFFFF AND DUP2 MSTORE PUSH1 0x20 ADD SWAP1 DUP2 MSTORE PUSH1 0x20 ADD PUSH1 0x0 KECCAK256 PUSH1 0x2 ADD PUSH1 0x1 PUSH2 0x100 EXP DUP2 SLOAD DUP2 PUSH20 0xFFFFFFFFFFFFFFFFFFFFFFFFFFFFFFFFFFFFFFFF MUL NOT AND SWAP1 DUP4 PUSH20 0xFFFFFFFFFFFFFFFFFFFFFFFFFFFFFFFFFFFFFFFF AND MUL OR SWAP1 SSTORE POP PUSH1 0x40 MLOAD DUP1 PUSH1 0x40 ADD PUSH1 0x40 MSTORE DUP1 DUP5 PUSH1 0x0 DUP2 MLOAD DUP2 LT PUSH2 0x37A0 JUMPI PUSH2 0x379F PUSH2 0x4DA5 JUMP JUMPDEST JUMPDEST PUSH1 0x20 MUL PUSH1 0x20 ADD ADD MLOAD DUP2 MSTORE PUSH1 0x20 ADD DUP5 PUSH1 0x1 DUP2 MLOAD DUP2 LT PUSH2 0x37C1 JUMPI PUSH2 0x37C0 PUSH2 0x4DA5 JUMP JUMPDEST JUMPDEST PUSH1 0x20 MUL PUSH1 0x20 ADD ADD MLOAD DUP2 MSTORE POP PUSH1 0x0 DUP1 CALLER PUSH20 0xFFFFFFFFFFFFFFFFFFFFFFFFFFFFFFFFFFFFFFFF AND PUSH20 0xFFFFFFFFFFFFFFFFFFFFFFFFFFFFFFFFFFFFFFFF AND DUP2 MSTORE PUSH1 0x20 ADD SWAP1 DUP2 MSTORE PUSH1 0x20 ADD PUSH1 0x0 KECCAK256 PUSH1 0x3 ADD PUSH1 0x0 DUP3 ADD MLOAD DUP2 PUSH1 0x0 ADD SSTORE PUSH1 0x20 DUP3 ADD MLOAD DUP2 PUSH1 0x1 ADD SSTORE SWAP1 POP POP PUSH1 0x40 MLOAD DUP1 PUSH1 0x40 ADD PUSH1 0x40 MSTORE DUP1 DUP4 PUSH1 0x0 DUP2 MLOAD DUP2 LT PUSH2 0x3843 JUMPI PUSH2 0x3842 PUSH2 0x4DA5 JUMP JUMPDEST JUMPDEST PUSH1 0x20 MUL PUSH1 0x20 ADD ADD MLOAD DUP2 MSTORE PUSH1 0x20 ADD DUP4 PUSH1 0x1 DUP2 MLOAD DUP2 LT PUSH2 0x3864 JUMPI PUSH2 0x3863 PUSH2 0x4DA5 JUMP JUMPDEST JUMPDEST PUSH1 0x20 MUL PUSH1 0x20 ADD ADD MLOAD DUP2 MSTORE POP PUSH1 0x0 DUP1 CALLER PUSH20 0xFFFFFFFFFFFFFFFFFFFFFFFFFFFFFFFFFFFFFFFF AND PUSH20 0xFFFFFFFFFFFFFFFFFFFFFFFFFFFFFFFFFFFFFFFF AND DUP2 MSTORE PUSH1 0x20 ADD SWAP1 DUP2 MSTORE PUSH1 0x20 ADD PUSH1 0x0 KECCAK256 PUSH1 0x5 ADD PUSH1 0x0 DUP3 ADD MLOAD DUP2 PUSH1 0x0 ADD SSTORE PUSH1 0x20 DUP3 ADD MLOAD DUP2 PUSH1 0x1 ADD SSTORE SWAP1 POP POP DUP1 PUSH1 0x0 DUP1 CALLER PUSH20 0xFFFFFFFFFFFFFFFFFFFFFFFFFFFFFFFFFFFFFFFF AND PUSH20 0xFFFFFFFFFFFFFFFFFFFFFFFFFFFFFFFFFFFFFFFF AND DUP2 MSTORE PUSH1 0x20 ADD SWAP1 DUP2 MSTORE PUSH1 0x20 ADD PUSH1 0x0 KECCAK256 PUSH1 0x9 ADD DUP2 SWAP1 SSTORE POP PUSH1 0x0 DUP1 PUSH1 0x0 CALLER PUSH20 0xFFFFFFFFFFFFFFFFFFFFFFFFFFFFFFFFFFFFFFFF AND PUSH20 0xFFFFFFFFFFFFFFFFFFFFFFFFFFFFFFFFFFFFFFFF AND DUP2 MSTORE PUSH1 0x20 ADD SWAP1 DUP2 MSTORE PUSH1 0x20 ADD PUSH1 0x0 KECCAK256 PUSH1 0x7 ADD DUP2 SWAP1 SSTORE POP PUSH1 0x0 DUP1 PUSH1 0x0 CALLER PUSH20 0xFFFFFFFFFFFFFFFFFFFFFFFFFFFFFFFFFFFFFFFF AND PUSH20 0xFFFFFFFFFFFFFFFFFFFFFFFFFFFFFFFFFFFFFFFF AND DUP2 MSTORE PUSH1 0x20 ADD SWAP1 DUP2 MSTORE PUSH1 0x20 ADD PUSH1 0x0 KECCAK256 PUSH1 0x8 ADD PUSH1 0x0 PUSH2 0x100 EXP DUP2 SLOAD DUP2 PUSH1 0xFF MUL NOT AND SWAP1 DUP4 ISZERO ISZERO MUL OR SWAP1 SSTORE POP PUSH1 0x0 DUP1 PUSH1 0x0 CALLER PUSH20 0xFFFFFFFFFFFFFFFFFFFFFFFFFFFFFFFFFFFFFFFF AND PUSH20 0xFFFFFFFFFFFFFFFFFFFFFFFFFFFFFFFFFFFFFFFF AND DUP2 MSTORE PUSH1 0x20 ADD SWAP1 DUP2 MSTORE PUSH1 0x20 ADD PUSH1 0x0 KECCAK256 PUSH1 0x8 ADD PUSH1 0x1 PUSH2 0x100 EXP DUP2 SLOAD DUP2 PUSH1 0xFF MUL NOT AND SWAP1 DUP4 ISZERO ISZERO MUL OR SWAP1 SSTORE POP PUSH1 0x0 DUP1 PUSH1 0x0 CALLER PUSH20 0xFFFFFFFFFFFFFFFFFFFFFFFFFFFFFFFFFFFFFFFF AND PUSH20 0xFFFFFFFFFFFFFFFFFFFFFFFFFFFFFFFFFFFFFFFF AND DUP2 MSTORE PUSH1 0x20 ADD SWAP1 DUP2 MSTORE PUSH1 0x20 ADD PUSH1 0x0 KECCAK256 PUSH1 0xA ADD DUP2 SWAP1 SSTORE POP JUMPDEST POP POP POP JUMP JUMPDEST PUSH1 0x0 PUSH1 0x1 ISZERO ISZERO PUSH1 0x0 DUP1 CALLER PUSH20 0xFFFFFFFFFFFFFFFFFFFFFFFFFFFFFFFFFFFFFFFF AND PUSH20 0xFFFFFFFFFFFFFFFFFFFFFFFFFFFFFFFFFFFFFFFF AND DUP2 MSTORE PUSH1 0x20 ADD SWAP1 DUP2 MSTORE PUSH1 0x20 ADD PUSH1 0x0 KECCAK256 PUSH1 0x0 ADD PUSH1 0x0 SWAP1 SLOAD SWAP1 PUSH2 0x100 EXP SWAP1 DIV PUSH1 0xFF AND ISZERO ISZERO EQ ISZERO PUSH2 0x3AFB JUMPI PUSH1 0x0 DUP1 CALLER PUSH20 0xFFFFFFFFFFFFFFFFFFFFFFFFFFFFFFFFFFFFFFFF AND PUSH20 0xFFFFFFFFFFFFFFFFFFFFFFFFFFFFFFFFFFFFFFFF AND DUP2 MSTORE PUSH1 0x20 ADD SWAP1 DUP2 MSTORE PUSH1 0x20 ADD PUSH1 0x0 KECCAK256 PUSH1 0x1 ADD SLOAD SWAP1 POP PUSH2 0x3B1F JUMP JUMPDEST PUSH32 0xFFFFFFFFFFFFFFFFFFFFFFFFFFFFFFFFFFFFFFFFFFFFFFFFFFFFFFFFFFFFFFFF SWAP1 POP JUMPDEST SWAP1 JUMP JUMPDEST PUSH1 0x0 DUP1 PUSH1 0x0 DUP4 PUSH20 0xFFFFFFFFFFFFFFFFFFFFFFFFFFFFFFFFFFFFFFFF AND PUSH20 0xFFFFFFFFFFFFFFFFFFFFFFFFFFFFFFFFFFFFFFFF AND DUP2 MSTORE PUSH1 0x20 ADD SWAP1 DUP2 MSTORE PUSH1 0x20 ADD PUSH1 0x0 KECCAK256 PUSH1 0x2 ADD PUSH1 0x0 PUSH2 0x100 EXP DUP2 SLOAD DUP2 PUSH1 0xFF MUL NOT AND SWAP1 DUP4 PUSH1 0x2 DUP2 GT ISZERO PUSH2 0x3B87 JUMPI PUSH2 0x3B86 PUSH2 0x4D76 JUMP JUMPDEST JUMPDEST MUL OR SWAP1 SSTORE POP PUSH1 0x0 DUP1 PUSH1 0x0 DUP4 PUSH20 0xFFFFFFFFFFFFFFFFFFFFFFFFFFFFFFFFFFFFFFFF AND PUSH20 0xFFFFFFFFFFFFFFFFFFFFFFFFFFFFFFFFFFFFFFFF AND DUP2 MSTORE PUSH1 0x20 ADD SWAP1 DUP2 MSTORE PUSH1 0x20 ADD PUSH1 0x0 KECCAK256 PUSH1 0x2 ADD PUSH1 0x1 PUSH2 0x100 EXP DUP2 SLOAD DUP2 PUSH20 0xFFFFFFFFFFFFFFFFFFFFFFFFFFFFFFFFFFFFFFFF MUL NOT AND SWAP1 DUP4 PUSH20 0xFFFFFFFFFFFFFFFFFFFFFFFFFFFFFFFFFFFFFFFF AND MUL OR SWAP1 SSTORE POP PUSH1 0x40 MLOAD DUP1 PUSH1 0x40 ADD PUSH1 0x40 MSTORE DUP1 PUSH1 0x0 DUP2 MSTORE PUSH1 0x20 ADD PUSH1 0x0 DUP2 MSTORE POP PUSH1 0x0 DUP1 DUP4 PUSH20 0xFFFFFFFFFFFFFFFFFFFFFFFFFFFFFFFFFFFFFFFF AND PUSH20 0xFFFFFFFFFFFFFFFFFFFFFFFFFFFFFFFFFFFFFFFF AND DUP2 MSTORE PUSH1 0x20 ADD SWAP1 DUP2 MSTORE PUSH1 0x20 ADD PUSH1 0x0 KECCAK256 PUSH1 0x3 ADD PUSH1 0x0 DUP3 ADD MLOAD DUP2 PUSH1 0x0 ADD SSTORE PUSH1 0x20 DUP3 ADD MLOAD DUP2 PUSH1 0x1 ADD SSTORE SWAP1 POP POP PUSH1 0x40 MLOAD DUP1 PUSH1 0x40 ADD PUSH1 0x40 MSTORE DUP1 PUSH1 0x0 DUP2 MSTORE PUSH1 0x20 ADD PUSH1 0x0 DUP2 MSTORE POP PUSH1 0x0 DUP1 DUP4 PUSH20 0xFFFFFFFFFFFFFFFFFFFFFFFFFFFFFFFFFFFFFFFF AND PUSH20 0xFFFFFFFFFFFFFFFFFFFFFFFFFFFFFFFFFFFFFFFF AND DUP2 MSTORE PUSH1 0x20 ADD SWAP1 DUP2 MSTORE PUSH1 0x20 ADD PUSH1 0x0 KECCAK256 PUSH1 0x5 ADD PUSH1 0x0 DUP3 ADD MLOAD DUP2 PUSH1 0x0 ADD SSTORE PUSH1 0x20 DUP3 ADD MLOAD DUP2 PUSH1 0x1 ADD SSTORE SWAP1 POP POP PUSH1 0x0 DUP1 PUSH1 0x0 DUP4 PUSH20 0xFFFFFFFFFFFFFFFFFFFFFFFFFFFFFFFFFFFFFFFF AND PUSH20 0xFFFFFFFFFFFFFFFFFFFFFFFFFFFFFFFFFFFFFFFF AND DUP2 MSTORE PUSH1 0x20 ADD SWAP1 DUP2 MSTORE PUSH1 0x20 ADD PUSH1 0x0 KECCAK256 PUSH1 0x7 ADD DUP2 SWAP1 SSTORE POP PUSH1 0x0 DUP1 PUSH1 0x0 DUP4 PUSH20 0xFFFFFFFFFFFFFFFFFFFFFFFFFFFFFFFFFFFFFFFF AND PUSH20 0xFFFFFFFFFFFFFFFFFFFFFFFFFFFFFFFFFFFFFFFF AND DUP2 MSTORE PUSH1 0x20 ADD SWAP1 DUP2 MSTORE PUSH1 0x20 ADD PUSH1 0x0 KECCAK256 PUSH1 0x8 ADD PUSH1 0x0 PUSH2 0x100 EXP DUP2 SLOAD DUP2 PUSH1 0xFF MUL NOT AND SWAP1 DUP4 ISZERO ISZERO MUL OR SWAP1 SSTORE POP PUSH1 0x0 DUP1 PUSH1 0x0 DUP4 PUSH20 0xFFFFFFFFFFFFFFFFFFFFFFFFFFFFFFFFFFFFFFFF AND PUSH20 0xFFFFFFFFFFFFFFFFFFFFFFFFFFFFFFFFFFFFFFFF AND DUP2 MSTORE PUSH1 0x20 ADD SWAP1 DUP2 MSTORE PUSH1 0x20 ADD PUSH1 0x0 KECCAK256 PUSH1 0x8 ADD PUSH1 0x1 PUSH2 0x100 EXP DUP2 SLOAD DUP2 PUSH1 0xFF MUL NOT AND SWAP1 DUP4 ISZERO ISZERO MUL OR SWAP1 SSTORE POP PUSH1 0x0 DUP1 PUSH1 0x0 DUP4 PUSH20 0xFFFFFFFFFFFFFFFFFFFFFFFFFFFFFFFFFFFFFFFF AND PUSH20 0xFFFFFFFFFFFFFFFFFFFFFFFFFFFFFFFFFFFFFFFF AND DUP2 MSTORE PUSH1 0x20 ADD SWAP1 DUP2 MSTORE PUSH1 0x20 ADD PUSH1 0x0 KECCAK256 PUSH1 0x9 ADD DUP2 SWAP1 SSTORE POP PUSH1 0x0 DUP1 PUSH1 0x0 DUP4 PUSH20 0xFFFFFFFFFFFFFFFFFFFFFFFFFFFFFFFFFFFFFFFF AND PUSH20 0xFFFFFFFFFFFFFFFFFFFFFFFFFFFFFFFFFFFFFFFF AND DUP2 MSTORE PUSH1 0x20 ADD SWAP1 DUP2 MSTORE PUSH1 0x20 ADD PUSH1 0x0 KECCAK256 PUSH1 0xA ADD DUP2 SWAP1 SSTORE POP POP JUMP JUMPDEST PUSH1 0x0 PUSH2 0x3E8A PUSH2 0x3E85 DUP5 PUSH2 0x48E1 JUMP JUMPDEST PUSH2 0x48BC JUMP JUMPDEST SWAP1 POP DUP1 DUP4 DUP3 MSTORE PUSH1 0x20 DUP3 ADD SWAP1 POP DUP3 DUP6 PUSH1 0x20 DUP7 MUL DUP3 ADD GT ISZERO PUSH2 0x3EAD JUMPI PUSH2 0x3EAC PUSH2 0x4E08 JUMP JUMPDEST JUMPDEST PUSH1 0x0 JUMPDEST DUP6 DUP2 LT ISZERO PUSH2 0x3EDD JUMPI DUP2 PUSH2 0x3EC3 DUP9 DUP3 PUSH2 0x3F2A JUMP JUMPDEST DUP5 MSTORE PUSH1 0x20 DUP5 ADD SWAP4 POP PUSH1 0x20 DUP4 ADD SWAP3 POP POP PUSH1 0x1 DUP2 ADD SWAP1 POP PUSH2 0x3EB0 JUMP JUMPDEST POP POP POP SWAP4 SWAP3 POP POP POP JUMP JUMPDEST PUSH1 0x0 DUP2 CALLDATALOAD SWAP1 POP PUSH2 0x3EF6 DUP2 PUSH2 0x52CD JUMP JUMPDEST SWAP3 SWAP2 POP POP JUMP JUMPDEST PUSH1 0x0 DUP3 PUSH1 0x1F DUP4 ADD SLT PUSH2 0x3F11 JUMPI PUSH2 0x3F10 PUSH2 0x4E03 JUMP JUMPDEST JUMPDEST DUP2 CALLDATALOAD PUSH2 0x3F21 DUP5 DUP3 PUSH1 0x20 DUP7 ADD PUSH2 0x3E77 JUMP JUMPDEST SWAP2 POP POP SWAP3 SWAP2 POP POP JUMP JUMPDEST PUSH1 0x0 DUP2 CALLDATALOAD SWAP1 POP PUSH2 0x3F39 DUP2 PUSH2 0x52E4 JUMP JUMPDEST SWAP3 SWAP2 POP POP JUMP JUMPDEST PUSH1 0x0 DUP2 CALLDATALOAD SWAP1 POP PUSH2 0x3F4E DUP2 PUSH2 0x52FB JUMP JUMPDEST SWAP3 SWAP2 POP POP JUMP JUMPDEST PUSH1 0x0 PUSH1 0x20 DUP3 DUP5 SUB SLT ISZERO PUSH2 0x3F6A JUMPI PUSH2 0x3F69 PUSH2 0x4E12 JUMP JUMPDEST JUMPDEST PUSH1 0x0 PUSH2 0x3F78 DUP5 DUP3 DUP6 ADD PUSH2 0x3EE7 JUMP JUMPDEST SWAP2 POP POP SWAP3 SWAP2 POP POP JUMP JUMPDEST PUSH1 0x0 PUSH1 0x20 DUP3 DUP5 SUB SLT ISZERO PUSH2 0x3F97 JUMPI PUSH2 0x3F96 PUSH2 0x4E12 JUMP JUMPDEST JUMPDEST PUSH1 0x0 DUP3 ADD CALLDATALOAD PUSH8 0xFFFFFFFFFFFFFFFF DUP2 GT ISZERO PUSH2 0x3FB5 JUMPI PUSH2 0x3FB4 PUSH2 0x4E0D JUMP JUMPDEST JUMPDEST PUSH2 0x3FC1 DUP5 DUP3 DUP6 ADD PUSH2 0x3EFC JUMP JUMPDEST SWAP2 POP POP SWAP3 SWAP2 POP POP JUMP JUMPDEST PUSH1 0x0 DUP1 PUSH1 0x0 PUSH1 0x60 DUP5 DUP7 SUB SLT ISZERO PUSH2 0x3FE3 JUMPI PUSH2 0x3FE2 PUSH2 0x4E12 JUMP JUMPDEST JUMPDEST PUSH1 0x0 DUP5 ADD CALLDATALOAD PUSH8 0xFFFFFFFFFFFFFFFF DUP2 GT ISZERO PUSH2 0x4001 JUMPI PUSH2 0x4000 PUSH2 0x4E0D JUMP JUMPDEST JUMPDEST PUSH2 0x400D DUP7 DUP3 DUP8 ADD PUSH2 0x3EFC JUMP JUMPDEST SWAP4 POP POP PUSH1 0x20 DUP5 ADD CALLDATALOAD PUSH8 0xFFFFFFFFFFFFFFFF DUP2 GT ISZERO PUSH2 0x402E JUMPI PUSH2 0x402D PUSH2 0x4E0D JUMP JUMPDEST JUMPDEST PUSH2 0x403A DUP7 DUP3 DUP8 ADD PUSH2 0x3EFC JUMP JUMPDEST SWAP3 POP POP PUSH1 0x40 PUSH2 0x404B DUP7 DUP3 DUP8 ADD PUSH2 0x3F3F JUMP JUMPDEST SWAP2 POP POP SWAP3 POP SWAP3 POP SWAP3 JUMP JUMPDEST PUSH1 0x0 PUSH1 0x20 DUP3 DUP5 SUB SLT ISZERO PUSH2 0x406B JUMPI PUSH2 0x406A PUSH2 0x4E12 JUMP JUMPDEST JUMPDEST PUSH1 0x0 PUSH2 0x4079 DUP5 DUP3 DUP6 ADD PUSH2 0x3F3F JUMP JUMPDEST SWAP2 POP POP SWAP3 SWAP2 POP POP JUMP JUMPDEST PUSH1 0x0 DUP1 PUSH1 0x40 DUP4 DUP6 SUB SLT ISZERO PUSH2 0x4099 JUMPI PUSH2 0x4098 PUSH2 0x4E12 JUMP JUMPDEST JUMPDEST PUSH1 0x0 PUSH2 0x40A7 DUP6 DUP3 DUP7 ADD PUSH2 0x3F3F JUMP JUMPDEST SWAP3 POP POP PUSH1 0x20 PUSH2 0x40B8 DUP6 DUP3 DUP7 ADD PUSH2 0x3F3F JUMP JUMPDEST SWAP2 POP POP SWAP3 POP SWAP3 SWAP1 POP JUMP JUMPDEST PUSH1 0x0 PUSH2 0x40CE DUP4 DUP4 PUSH2 0x4165 JUMP JUMPDEST PUSH1 0x20 DUP4 ADD SWAP1 POP SWAP3 SWAP2 POP POP JUMP JUMPDEST PUSH2 0x40E3 DUP2 PUSH2 0x4C2A JUMP JUMPDEST DUP3 MSTORE POP POP JUMP JUMPDEST PUSH1 0x0 PUSH2 0x40F4 DUP3 PUSH2 0x491D JUMP JUMPDEST PUSH2 0x40FE DUP2 DUP6 PUSH2 0x4935 JUMP JUMPDEST SWAP4 POP PUSH2 0x4109 DUP4 PUSH2 0x490D JUMP JUMPDEST DUP1 PUSH1 0x0 JUMPDEST DUP4 DUP2 LT ISZERO PUSH2 0x413A JUMPI DUP2 MLOAD PUSH2 0x4121 DUP9 DUP3 PUSH2 0x40C2 JUMP JUMPDEST SWAP8 POP PUSH2 0x412C DUP4 PUSH2 0x4928 JUMP JUMPDEST SWAP3 POP POP PUSH1 0x1 DUP2 ADD SWAP1 POP PUSH2 0x410D JUMP JUMPDEST POP DUP6 SWAP4 POP POP POP POP SWAP3 SWAP2 POP POP JUMP JUMPDEST PUSH2 0x4150 DUP2 PUSH2 0x4C3C JUMP JUMPDEST DUP3 MSTORE POP POP JUMP JUMPDEST PUSH2 0x415F DUP2 PUSH2 0x4C8F JUMP JUMPDEST DUP3 MSTORE POP POP JUMP JUMPDEST PUSH2 0x416E DUP2 PUSH2 0x4C5B JUMP JUMPDEST DUP3 MSTORE POP POP JUMP JUMPDEST PUSH2 0x417D DUP2 PUSH2 0x4C5B JUMP JUMPDEST DUP3 MSTORE POP POP JUMP JUMPDEST PUSH2 0x418C DUP2 PUSH2 0x4CA1 JUMP JUMPDEST DUP3 MSTORE POP POP JUMP JUMPDEST PUSH1 0x0 PUSH2 0x419F PUSH1 0x1E DUP4 PUSH2 0x4946 JUMP JUMPDEST SWAP2 POP PUSH2 0x41AA DUP3 PUSH2 0x4E35 JUMP JUMPDEST PUSH1 0x20 DUP3 ADD SWAP1 POP SWAP2 SWAP1 POP JUMP JUMPDEST PUSH1 0x0 PUSH2 0x41C2 PUSH1 0x18 DUP4 PUSH2 0x4946 JUMP JUMPDEST SWAP2 POP PUSH2 0x41CD DUP3 PUSH2 0x4E5E JUMP JUMPDEST PUSH1 0x20 DUP3 ADD SWAP1 POP SWAP2 SWAP1 POP JUMP JUMPDEST PUSH1 0x0 PUSH2 0x41E5 PUSH1 0x2D DUP4 PUSH2 0x4946 JUMP JUMPDEST SWAP2 POP PUSH2 0x41F0 DUP3 PUSH2 0x4E87 JUMP JUMPDEST PUSH1 0x40 DUP3 ADD SWAP1 POP SWAP2 SWAP1 POP JUMP JUMPDEST PUSH1 0x0 PUSH2 0x4208 PUSH1 0x2D DUP4 PUSH2 0x4946 JUMP JUMPDEST SWAP2 POP PUSH2 0x4213 DUP3 PUSH2 0x4ED6 JUMP JUMPDEST PUSH1 0x40 DUP3 ADD SWAP1 POP SWAP2 SWAP1 POP JUMP JUMPDEST PUSH1 0x0 PUSH2 0x422B PUSH1 0x14 DUP4 PUSH2 0x4946 JUMP JUMPDEST SWAP2 POP PUSH2 0x4236 DUP3 PUSH2 0x4F25 JUMP JUMPDEST PUSH1 0x20 DUP3 ADD SWAP1 POP SWAP2 SWAP1 POP JUMP JUMPDEST PUSH1 0x0 PUSH2 0x424E PUSH1 0x14 DUP4 PUSH2 0x4946 JUMP JUMPDEST SWAP2 POP PUSH2 0x4259 DUP3 PUSH2 0x4F4E JUMP JUMPDEST PUSH1 0x20 DUP3 ADD SWAP1 POP SWAP2 SWAP1 POP JUMP JUMPDEST PUSH1 0x0 PUSH2 0x4271 PUSH1 0x2F DUP4 PUSH2 0x4946 JUMP JUMPDEST SWAP2 POP PUSH2 0x427C DUP3 PUSH2 0x4F77 JUMP JUMPDEST PUSH1 0x40 DUP3 ADD SWAP1 POP SWAP2 SWAP1 POP JUMP JUMPDEST PUSH1 0x0 PUSH2 0x4294 PUSH1 0x2C DUP4 PUSH2 0x4946 JUMP JUMPDEST SWAP2 POP PUSH2 0x429F DUP3 PUSH2 0x4FC6 JUMP JUMPDEST PUSH1 0x40 DUP3 ADD SWAP1 POP SWAP2 SWAP1 POP JUMP JUMPDEST PUSH1 0x0 PUSH2 0x42B7 PUSH1 0x22 DUP4 PUSH2 0x4946 JUMP JUMPDEST SWAP2 POP PUSH2 0x42C2 DUP3 PUSH2 0x5015 JUMP JUMPDEST PUSH1 0x40 DUP3 ADD SWAP1 POP SWAP2 SWAP1 POP JUMP JUMPDEST PUSH1 0x0 PUSH2 0x42DA PUSH1 0x1A DUP4 PUSH2 0x4946 JUMP JUMPDEST SWAP2 POP PUSH2 0x42E5 DUP3 PUSH2 0x5064 JUMP JUMPDEST PUSH1 0x20 DUP3 ADD SWAP1 POP SWAP2 SWAP1 POP JUMP JUMPDEST PUSH1 0x0 PUSH2 0x42FD PUSH1 0x17 DUP4 PUSH2 0x4946 JUMP JUMPDEST SWAP2 POP PUSH2 0x4308 DUP3 PUSH2 0x508D JUMP JUMPDEST PUSH1 0x20 DUP3 ADD SWAP1 POP SWAP2 SWAP1 POP JUMP JUMPDEST PUSH1 0x0 PUSH2 0x4320 PUSH1 0x2F DUP4 PUSH2 0x4946 JUMP JUMPDEST SWAP2 POP PUSH2 0x432B DUP3 PUSH2 0x50B6 JUMP JUMPDEST PUSH1 0x40 DUP3 ADD SWAP1 POP SWAP2 SWAP1 POP JUMP JUMPDEST PUSH1 0x0 PUSH2 0x4343 PUSH1 0x2A DUP4 PUSH2 0x4946 JUMP JUMPDEST SWAP2 POP PUSH2 0x434E DUP3 PUSH2 0x5105 JUMP JUMPDEST PUSH1 0x40 DUP3 ADD SWAP1 POP SWAP2 SWAP1 POP JUMP JUMPDEST PUSH1 0x0 PUSH2 0x4366 PUSH1 0x1D DUP4 PUSH2 0x4946 JUMP JUMPDEST SWAP2 POP PUSH2 0x4371 DUP3 PUSH2 0x5154 JUMP JUMPDEST PUSH1 0x20 DUP3 ADD SWAP1 POP SWAP2 SWAP1 POP JUMP JUMPDEST PUSH1 0x0 PUSH2 0x4389 PUSH1 0x23 DUP4 PUSH2 0x4946 JUMP JUMPDEST SWAP2 POP PUSH2 0x4394 DUP3 PUSH2 0x517D JUMP JUMPDEST PUSH1 0x40 DUP3 ADD SWAP1 POP SWAP2 SWAP1 POP JUMP JUMPDEST PUSH1 0x0 PUSH2 0x43AC PUSH1 0x30 DUP4 PUSH2 0x4946 JUMP JUMPDEST SWAP2 POP PUSH2 0x43B7 DUP3 PUSH2 0x51CC JUMP JUMPDEST PUSH1 0x40 DUP3 ADD SWAP1 POP SWAP2 SWAP1 POP JUMP JUMPDEST PUSH1 0x0 PUSH2 0x43CF PUSH1 0x21 DUP4 PUSH2 0x4946 JUMP JUMPDEST SWAP2 POP PUSH2 0x43DA DUP3 PUSH2 0x521B JUMP JUMPDEST PUSH1 0x40 DUP3 ADD SWAP1 POP SWAP2 SWAP1 POP JUMP JUMPDEST PUSH1 0x0 PUSH2 0x43F2 PUSH1 0x21 DUP4 PUSH2 0x4946 JUMP JUMPDEST SWAP2 POP PUSH2 0x43FD DUP3 PUSH2 0x526A JUMP JUMPDEST PUSH1 0x40 DUP3 ADD SWAP1 POP SWAP2 SWAP1 POP JUMP JUMPDEST PUSH1 0x40 DUP3 ADD PUSH1 0x0 DUP3 ADD MLOAD PUSH2 0x441E PUSH1 0x0 DUP6 ADD DUP3 PUSH2 0x4165 JUMP JUMPDEST POP PUSH1 0x20 DUP3 ADD MLOAD PUSH2 0x4431 PUSH1 0x20 DUP6 ADD DUP3 PUSH2 0x4165 JUMP JUMPDEST POP POP POP POP JUMP JUMPDEST PUSH1 0x40 DUP3 ADD PUSH1 0x0 DUP1 DUP4 ADD SLOAD SWAP1 POP PUSH2 0x444C DUP2 PUSH2 0x4CB3 JUMP JUMPDEST PUSH2 0x4459 PUSH1 0x0 DUP7 ADD DUP3 PUSH2 0x4165 JUMP JUMPDEST POP PUSH1 0x1 DUP4 ADD SLOAD SWAP1 POP PUSH2 0x446A DUP2 PUSH2 0x4CB3 JUMP JUMPDEST PUSH2 0x4477 PUSH1 0x20 DUP7 ADD DUP3 PUSH2 0x4165 JUMP JUMPDEST POP POP POP POP POP JUMP JUMPDEST PUSH2 0x4487 DUP2 PUSH2 0x4C85 JUMP JUMPDEST DUP3 MSTORE POP POP JUMP JUMPDEST PUSH1 0x0 PUSH1 0x20 DUP3 ADD SWAP1 POP PUSH2 0x44A2 PUSH1 0x0 DUP4 ADD DUP5 PUSH2 0x40DA JUMP JUMPDEST SWAP3 SWAP2 POP POP JUMP JUMPDEST PUSH1 0x0 PUSH2 0x1A0 DUP3 ADD SWAP1 POP PUSH2 0x44BE PUSH1 0x0 DUP4 ADD DUP15 PUSH2 0x4147 JUMP JUMPDEST PUSH2 0x44CB PUSH1 0x20 DUP4 ADD DUP14 PUSH2 0x447E JUMP JUMPDEST PUSH2 0x44D8 PUSH1 0x40 DUP4 ADD DUP13 PUSH2 0x4156 JUMP JUMPDEST PUSH2 0x44E5 PUSH1 0x60 DUP4 ADD DUP12 PUSH2 0x40DA JUMP JUMPDEST PUSH2 0x44F2 PUSH1 0x80 DUP4 ADD DUP11 PUSH2 0x4408 JUMP JUMPDEST PUSH2 0x44FF PUSH1 0xC0 DUP4 ADD DUP10 PUSH2 0x4408 JUMP JUMPDEST PUSH2 0x450D PUSH2 0x100 DUP4 ADD DUP9 PUSH2 0x447E JUMP JUMPDEST PUSH2 0x451B PUSH2 0x120 DUP4 ADD DUP8 PUSH2 0x4147 JUMP JUMPDEST PUSH2 0x4529 PUSH2 0x140 DUP4 ADD DUP7 PUSH2 0x4147 JUMP JUMPDEST PUSH2 0x4537 PUSH2 0x160 DUP4 ADD DUP6 PUSH2 0x447E JUMP JUMPDEST PUSH2 0x4545 PUSH2 0x180 DUP4 ADD DUP5 PUSH2 0x447E JUMP JUMPDEST SWAP13 SWAP12 POP POP POP POP POP POP POP POP POP POP POP POP JUMP JUMPDEST PUSH1 0x0 PUSH1 0x20 DUP3 ADD SWAP1 POP PUSH2 0x456A PUSH1 0x0 DUP4 ADD DUP5 PUSH2 0x4174 JUMP JUMPDEST SWAP3 SWAP2 POP POP JUMP JUMPDEST PUSH1 0x0 PUSH1 0x20 DUP3 ADD SWAP1 POP DUP2 DUP2 SUB PUSH1 0x0 DUP4 ADD MSTORE PUSH2 0x4589 DUP2 PUSH2 0x4192 JUMP JUMPDEST SWAP1 POP SWAP2 SWAP1 POP JUMP JUMPDEST PUSH1 0x0 PUSH1 0x20 DUP3 ADD SWAP1 POP DUP2 DUP2 SUB PUSH1 0x0 DUP4 ADD MSTORE PUSH2 0x45A9 DUP2 PUSH2 0x41B5 JUMP JUMPDEST SWAP1 POP SWAP2 SWAP1 POP JUMP JUMPDEST PUSH1 0x0 PUSH1 0x20 DUP3 ADD SWAP1 POP DUP2 DUP2 SUB PUSH1 0x0 DUP4 ADD MSTORE PUSH2 0x45C9 DUP2 PUSH2 0x41D8 JUMP JUMPDEST SWAP1 POP SWAP2 SWAP1 POP JUMP JUMPDEST PUSH1 0x0 PUSH1 0x20 DUP3 ADD SWAP1 POP DUP2 DUP2 SUB PUSH1 0x0 DUP4 ADD MSTORE PUSH2 0x45E9 DUP2 PUSH2 0x41FB JUMP JUMPDEST SWAP1 POP SWAP2 SWAP1 POP JUMP JUMPDEST PUSH1 0x0 PUSH1 0x20 DUP3 ADD SWAP1 POP DUP2 DUP2 SUB PUSH1 0x0 DUP4 ADD MSTORE PUSH2 0x4609 DUP2 PUSH2 0x421E JUMP JUMPDEST SWAP1 POP SWAP2 SWAP1 POP JUMP JUMPDEST PUSH1 0x0 PUSH1 0x20 DUP3 ADD SWAP1 POP DUP2 DUP2 SUB PUSH1 0x0 DUP4 ADD MSTORE PUSH2 0x4629 DUP2 PUSH2 0x4241 JUMP JUMPDEST SWAP1 POP SWAP2 SWAP1 POP JUMP JUMPDEST PUSH1 0x0 PUSH1 0x20 DUP3 ADD SWAP1 POP DUP2 DUP2 SUB PUSH1 0x0 DUP4 ADD MSTORE PUSH2 0x4649 DUP2 PUSH2 0x4264 JUMP JUMPDEST SWAP1 POP SWAP2 SWAP1 POP JUMP JUMPDEST PUSH1 0x0 PUSH1 0x20 DUP3 ADD SWAP1 POP DUP2 DUP2 SUB PUSH1 0x0 DUP4 ADD MSTORE PUSH2 0x4669 DUP2 PUSH2 0x4287 JUMP JUMPDEST SWAP1 POP SWAP2 SWAP1 POP JUMP JUMPDEST PUSH1 0x0 PUSH1 0x20 DUP3 ADD SWAP1 POP DUP2 DUP2 SUB PUSH1 0x0 DUP4 ADD MSTORE PUSH2 0x4689 DUP2 PUSH2 0x42AA JUMP JUMPDEST SWAP1 POP SWAP2 SWAP1 POP JUMP JUMPDEST PUSH1 0x0 PUSH1 0x20 DUP3 ADD SWAP1 POP DUP2 DUP2 SUB PUSH1 0x0 DUP4 ADD MSTORE PUSH2 0x46A9 DUP2 PUSH2 0x42CD JUMP JUMPDEST SWAP1 POP SWAP2 SWAP1 POP JUMP JUMPDEST PUSH1 0x0 PUSH1 0x20 DUP3 ADD SWAP1 POP DUP2 DUP2 SUB PUSH1 0x0 DUP4 ADD MSTORE PUSH2 0x46C9 DUP2 PUSH2 0x42F0 JUMP JUMPDEST SWAP1 POP SWAP2 SWAP1 POP JUMP JUMPDEST PUSH1 0x0 PUSH1 0x20 DUP3 ADD SWAP1 POP DUP2 DUP2 SUB PUSH1 0x0 DUP4 ADD MSTORE PUSH2 0x46E9 DUP2 PUSH2 0x4313 JUMP JUMPDEST SWAP1 POP SWAP2 SWAP1 POP JUMP JUMPDEST PUSH1 0x0 PUSH1 0x20 DUP3 ADD SWAP1 POP DUP2 DUP2 SUB PUSH1 0x0 DUP4 ADD MSTORE PUSH2 0x4709 DUP2 PUSH2 0x4336 JUMP JUMPDEST SWAP1 POP SWAP2 SWAP1 POP JUMP JUMPDEST PUSH1 0x0 PUSH1 0x20 DUP3 ADD SWAP1 POP DUP2 DUP2 SUB PUSH1 0x0 DUP4 ADD MSTORE PUSH2 0x4729 DUP2 PUSH2 0x4359 JUMP JUMPDEST SWAP1 POP SWAP2 SWAP1 POP JUMP JUMPDEST PUSH1 0x0 PUSH1 0x20 DUP3 ADD SWAP1 POP DUP2 DUP2 SUB PUSH1 0x0 DUP4 ADD MSTORE PUSH2 0x4749 DUP2 PUSH2 0x437C JUMP JUMPDEST SWAP1 POP SWAP2 SWAP1 POP JUMP JUMPDEST PUSH1 0x0 PUSH1 0x20 DUP3 ADD SWAP1 POP DUP2 DUP2 SUB PUSH1 0x0 DUP4 ADD MSTORE PUSH2 0x4769 DUP2 PUSH2 0x439F JUMP JUMPDEST SWAP1 POP SWAP2 SWAP1 POP JUMP JUMPDEST PUSH1 0x0 PUSH1 0x20 DUP3 ADD SWAP1 POP DUP2 DUP2 SUB PUSH1 0x0 DUP4 ADD MSTORE PUSH2 0x4789 DUP2 PUSH2 0x43C2 JUMP JUMPDEST SWAP1 POP SWAP2 SWAP1 POP JUMP JUMPDEST PUSH1 0x0 PUSH1 0x20 DUP3 ADD SWAP1 POP DUP2 DUP2 SUB PUSH1 0x0 DUP4 ADD MSTORE PUSH2 0x47A9 DUP2 PUSH2 0x43E5 JUMP JUMPDEST SWAP1 POP SWAP2 SWAP1 POP JUMP JUMPDEST PUSH1 0x0 PUSH1 0x40 DUP3 ADD SWAP1 POP PUSH2 0x47C5 PUSH1 0x0 DUP4 ADD DUP6 PUSH2 0x447E JUMP JUMPDEST DUP2 DUP2 SUB PUSH1 0x20 DUP4 ADD MSTORE PUSH2 0x47D7 DUP2 DUP5 PUSH2 0x40E9 JUMP JUMPDEST SWAP1 POP SWAP4 SWAP3 POP POP POP JUMP JUMPDEST PUSH1 0x0 PUSH1 0xC0 DUP3 ADD SWAP1 POP PUSH2 0x47F5 PUSH1 0x0 DUP4 ADD DUP8 PUSH2 0x447E JUMP JUMPDEST PUSH2 0x4802 PUSH1 0x20 DUP4 ADD DUP7 PUSH2 0x4437 JUMP JUMPDEST PUSH2 0x480F PUSH1 0x60 DUP4 ADD DUP6 PUSH2 0x4437 JUMP JUMPDEST PUSH2 0x481C PUSH1 0xA0 DUP4 ADD DUP5 PUSH2 0x447E JUMP JUMPDEST SWAP6 SWAP5 POP POP POP POP POP JUMP JUMPDEST PUSH1 0x0 PUSH1 0x40 DUP3 ADD SWAP1 POP PUSH2 0x483A PUSH1 0x0 DUP4 ADD DUP6 PUSH2 0x447E JUMP JUMPDEST PUSH2 0x4847 PUSH1 0x20 DUP4 ADD DUP5 PUSH2 0x447E JUMP JUMPDEST SWAP4 SWAP3 POP POP POP JUMP JUMPDEST PUSH1 0x0 PUSH1 0x60 DUP3 ADD SWAP1 POP PUSH2 0x4863 PUSH1 0x0 DUP4 ADD DUP7 PUSH2 0x447E JUMP JUMPDEST PUSH2 0x4870 PUSH1 0x20 DUP4 ADD DUP6 PUSH2 0x447E JUMP JUMPDEST PUSH2 0x487D PUSH1 0x40 DUP4 ADD DUP5 PUSH2 0x4183 JUMP JUMPDEST SWAP5 SWAP4 POP POP POP POP JUMP JUMPDEST PUSH1 0x0 PUSH1 0x60 DUP3 ADD SWAP1 POP PUSH2 0x489A PUSH1 0x0 DUP4 ADD DUP7 PUSH2 0x447E JUMP JUMPDEST PUSH2 0x48A7 PUSH1 0x20 DUP4 ADD DUP6 PUSH2 0x447E JUMP JUMPDEST PUSH2 0x48B4 PUSH1 0x40 DUP4 ADD DUP5 PUSH2 0x447E JUMP JUMPDEST SWAP5 SWAP4 POP POP POP POP JUMP JUMPDEST PUSH1 0x0 PUSH2 0x48C6 PUSH2 0x48D7 JUMP JUMPDEST SWAP1 POP PUSH2 0x48D2 DUP3 DUP3 PUSH2 0x4CCD JUMP JUMPDEST SWAP2 SWAP1 POP JUMP JUMPDEST PUSH1 0x0 PUSH1 0x40 MLOAD SWAP1 POP SWAP1 JUMP JUMPDEST PUSH1 0x0 PUSH8 0xFFFFFFFFFFFFFFFF DUP3 GT ISZERO PUSH2 0x48FC JUMPI PUSH2 0x48FB PUSH2 0x4DD4 JUMP JUMPDEST JUMPDEST PUSH1 0x20 DUP3 MUL SWAP1 POP PUSH1 0x20 DUP2 ADD SWAP1 POP SWAP2 SWAP1 POP JUMP JUMPDEST PUSH1 0x0 DUP2 SWAP1 POP PUSH1 0x20 DUP3 ADD SWAP1 POP SWAP2 SWAP1 POP JUMP JUMPDEST PUSH1 0x0 DUP2 MLOAD SWAP1 POP SWAP2 SWAP1 POP JUMP JUMPDEST PUSH1 0x0 PUSH1 0x20 DUP3 ADD SWAP1 POP SWAP2 SWAP1 POP JUMP JUMPDEST PUSH1 0x0 DUP3 DUP3 MSTORE PUSH1 0x20 DUP3 ADD SWAP1 POP SWAP3 SWAP2 POP POP JUMP JUMPDEST PUSH1 0x0 DUP3 DUP3 MSTORE PUSH1 0x20 DUP3 ADD SWAP1 POP SWAP3 SWAP2 POP POP JUMP JUMPDEST PUSH1 0x0 PUSH2 0x4962 DUP3 PUSH2 0x4C5B JUMP JUMPDEST SWAP2 POP PUSH2 0x496D DUP4 PUSH2 0x4C5B JUMP JUMPDEST SWAP3 POP DUP2 PUSH32 0x7FFFFFFFFFFFFFFFFFFFFFFFFFFFFFFFFFFFFFFFFFFFFFFFFFFFFFFFFFFFFFFF SUB DUP4 SGT PUSH1 0x0 DUP4 SLT ISZERO AND ISZERO PUSH2 0x49A8 JUMPI PUSH2 0x49A7 PUSH2 0x4D47 JUMP JUMPDEST JUMPDEST DUP2 PUSH32 0x8000000000000000000000000000000000000000000000000000000000000000 SUB DUP4 SLT PUSH1 0x0 DUP4 SLT AND ISZERO PUSH2 0x49E0 JUMPI PUSH2 0x49DF PUSH2 0x4D47 JUMP JUMPDEST JUMPDEST DUP3 DUP3 ADD SWAP1 POP SWAP3 SWAP2 POP POP JUMP JUMPDEST PUSH1 0x0 PUSH2 0x49F6 DUP3 PUSH2 0x4C85 JUMP JUMPDEST SWAP2 POP PUSH2 0x4A01 DUP4 PUSH2 0x4C85 JUMP JUMPDEST SWAP3 POP DUP3 PUSH32 0xFFFFFFFFFFFFFFFFFFFFFFFFFFFFFFFFFFFFFFFFFFFFFFFFFFFFFFFFFFFFFFFF SUB DUP3 GT ISZERO PUSH2 0x4A36 JUMPI PUSH2 0x4A35 PUSH2 0x4D47 JUMP JUMPDEST JUMPDEST DUP3 DUP3 ADD SWAP1 POP SWAP3 SWAP2 POP POP JUMP JUMPDEST PUSH1 0x0 PUSH2 0x4A4C DUP3 PUSH2 0x4C5B JUMP JUMPDEST SWAP2 POP PUSH2 0x4A57 DUP4 PUSH2 0x4C5B JUMP JUMPDEST SWAP3 POP DUP3 PUSH32 0x7FFFFFFFFFFFFFFFFFFFFFFFFFFFFFFFFFFFFFFFFFFFFFFFFFFFFFFFFFFFFFFF DIV DUP3 GT PUSH1 0x0 DUP5 SGT PUSH1 0x0 DUP5 SGT AND AND ISZERO PUSH2 0x4A96 JUMPI PUSH2 0x4A95 PUSH2 0x4D47 JUMP JUMPDEST JUMPDEST DUP2 PUSH32 0x8000000000000000000000000000000000000000000000000000000000000000 SDIV DUP4 SLT PUSH1 0x0 DUP5 SLT PUSH1 0x0 DUP5 SGT AND AND ISZERO PUSH2 0x4AD3 JUMPI PUSH2 0x4AD2 PUSH2 0x4D47 JUMP JUMPDEST JUMPDEST DUP3 PUSH32 0x8000000000000000000000000000000000000000000000000000000000000000 SDIV DUP3 SLT PUSH1 0x0 DUP5 SGT PUSH1 0x0 DUP5 SLT AND AND ISZERO PUSH2 0x4B10 JUMPI PUSH2 0x4B0F PUSH2 0x4D47 JUMP JUMPDEST JUMPDEST DUP3 PUSH32 0x7FFFFFFFFFFFFFFFFFFFFFFFFFFFFFFFFFFFFFFFFFFFFFFFFFFFFFFFFFFFFFFF SDIV DUP3 SLT PUSH1 0x0 DUP5 SLT PUSH1 0x0 DUP5 SLT AND AND ISZERO PUSH2 0x4B4D JUMPI PUSH2 0x4B4C PUSH2 0x4D47 JUMP JUMPDEST JUMPDEST DUP3 DUP3 MUL SWAP1 POP SWAP3 SWAP2 POP POP JUMP JUMPDEST PUSH1 0x0 PUSH2 0x4B63 DUP3 PUSH2 0x4C5B JUMP JUMPDEST SWAP2 POP PUSH2 0x4B6E DUP4 PUSH2 0x4C5B JUMP JUMPDEST SWAP3 POP DUP3 PUSH32 0x8000000000000000000000000000000000000000000000000000000000000000 ADD DUP3 SLT PUSH1 0x0 DUP5 SLT ISZERO AND ISZERO PUSH2 0x4BA9 JUMPI PUSH2 0x4BA8 PUSH2 0x4D47 JUMP JUMPDEST JUMPDEST DUP3 PUSH32 0x7FFFFFFFFFFFFFFFFFFFFFFFFFFFFFFFFFFFFFFFFFFFFFFFFFFFFFFFFFFFFFFF ADD DUP3 SGT PUSH1 0x0 DUP5 SLT AND ISZERO PUSH2 0x4BE1 JUMPI PUSH2 0x4BE0 PUSH2 0x4D47 JUMP JUMPDEST JUMPDEST DUP3 DUP3 SUB SWAP1 POP SWAP3 SWAP2 POP POP JUMP JUMPDEST PUSH1 0x0 PUSH2 0x4BF7 DUP3 PUSH2 0x4C85 JUMP JUMPDEST SWAP2 POP PUSH2 0x4C02 DUP4 PUSH2 0x4C85 JUMP JUMPDEST SWAP3 POP DUP3 DUP3 LT ISZERO PUSH2 0x4C15 JUMPI PUSH2 0x4C14 PUSH2 0x4D47 JUMP JUMPDEST JUMPDEST DUP3 DUP3 SUB SWAP1 POP SWAP3 SWAP2 POP POP JUMP JUMPDEST PUSH1 0x0 DUP2 SWAP1 POP SWAP2 SWAP1 POP JUMP JUMPDEST PUSH1 0x0 PUSH2 0x4C35 DUP3 PUSH2 0x4C65 JUMP JUMPDEST SWAP1 POP SWAP2 SWAP1 POP JUMP JUMPDEST PUSH1 0x0 DUP2 ISZERO ISZERO SWAP1 POP SWAP2 SWAP1 POP JUMP JUMPDEST PUSH1 0x0 DUP2 SWAP1 POP PUSH2 0x4C56 DUP3 PUSH2 0x52B9 JUMP JUMPDEST SWAP2 SWAP1 POP JUMP JUMPDEST PUSH1 0x0 DUP2 SWAP1 POP SWAP2 SWAP1 POP JUMP JUMPDEST PUSH1 0x0 PUSH20 0xFFFFFFFFFFFFFFFFFFFFFFFFFFFFFFFFFFFFFFFF DUP3 AND SWAP1 POP SWAP2 SWAP1 POP JUMP JUMPDEST PUSH1 0x0 DUP2 SWAP1 POP SWAP2 SWAP1 POP JUMP JUMPDEST PUSH1 0x0 PUSH2 0x4C9A DUP3 PUSH2 0x4C48 JUMP JUMPDEST SWAP1 POP SWAP2 SWAP1 POP JUMP JUMPDEST PUSH1 0x0 PUSH2 0x4CAC DUP3 PUSH2 0x4C85 JUMP JUMPDEST SWAP1 POP SWAP2 SWAP1 POP JUMP JUMPDEST PUSH1 0x0 PUSH2 0x4CC6 PUSH2 0x4CC1 DUP4 PUSH2 0x4E28 JUMP JUMPDEST PUSH2 0x4C20 JUMP JUMPDEST SWAP1 POP SWAP2 SWAP1 POP JUMP JUMPDEST PUSH2 0x4CD6 DUP3 PUSH2 0x4E17 JUMP JUMPDEST DUP2 ADD DUP2 DUP2 LT PUSH8 0xFFFFFFFFFFFFFFFF DUP3 GT OR ISZERO PUSH2 0x4CF5 JUMPI PUSH2 0x4CF4 PUSH2 0x4DD4 JUMP JUMPDEST JUMPDEST DUP1 PUSH1 0x40 MSTORE POP POP POP JUMP JUMPDEST PUSH1 0x0 PUSH2 0x4D09 DUP3 PUSH2 0x4C85 JUMP JUMPDEST SWAP2 POP PUSH32 0xFFFFFFFFFFFFFFFFFFFFFFFFFFFFFFFFFFFFFFFFFFFFFFFFFFFFFFFFFFFFFFFF DUP3 EQ ISZERO PUSH2 0x4D3C JUMPI PUSH2 0x4D3B PUSH2 0x4D47 JUMP JUMPDEST JUMPDEST PUSH1 0x1 DUP3 ADD SWAP1 POP SWAP2 SWAP1 POP JUMP JUMPDEST PUSH32 0x4E487B7100000000000000000000000000000000000000000000000000000000 PUSH1 0x0 MSTORE PUSH1 0x11 PUSH1 0x4 MSTORE PUSH1 0x24 PUSH1 0x0 REVERT JUMPDEST PUSH32 0x4E487B7100000000000000000000000000000000000000000000000000000000 PUSH1 0x0 MSTORE PUSH1 0x21 PUSH1 0x4 MSTORE PUSH1 0x24 PUSH1 0x0 REVERT JUMPDEST PUSH32 0x4E487B7100000000000000000000000000000000000000000000000000000000 PUSH1 0x0 MSTORE PUSH1 0x32 PUSH1 0x4 MSTORE PUSH1 0x24 PUSH1 0x0 REVERT JUMPDEST PUSH32 0x4E487B7100000000000000000000000000000000000000000000000000000000 PUSH1 0x0 MSTORE PUSH1 0x41 PUSH1 0x4 MSTORE PUSH1 0x24 PUSH1 0x0 REVERT JUMPDEST PUSH1 0x0 DUP1 REVERT JUMPDEST PUSH1 0x0 DUP1 REVERT JUMPDEST PUSH1 0x0 DUP1 REVERT JUMPDEST PUSH1 0x0 DUP1 REVERT JUMPDEST PUSH1 0x0 PUSH1 0x1F NOT PUSH1 0x1F DUP4 ADD AND SWAP1 POP SWAP2 SWAP1 POP JUMP JUMPDEST PUSH1 0x0 DUP2 PUSH1 0x0 SHR SWAP1 POP SWAP2 SWAP1 POP JUMP JUMPDEST PUSH32 0x4574686572206E65656420746F2062652073656E7420746F2072657365740000 PUSH1 0x0 DUP3 ADD MSTORE POP JUMP JUMPDEST PUSH32 0x4E65656420746F2062652061207573657220746F207061790000000000000000 PUSH1 0x0 DUP3 ADD MSTORE POP JUMP JUMPDEST PUSH32 0x5269646572206E6565647320746F206861766520616E2061737369676E656420 PUSH1 0x0 DUP3 ADD MSTORE PUSH32 0x64726976657220746F2070617900000000000000000000000000000000000000 PUSH1 0x20 DUP3 ADD MSTORE POP JUMP JUMPDEST PUSH32 0x55736572206E6565647320746F20626520696E20647269766572206D6F646520 PUSH1 0x0 DUP3 ADD MSTORE PUSH32 0x746F207069636B20726964657200000000000000000000000000000000000000 PUSH1 0x20 DUP3 ADD MSTORE POP JUMP JUMPDEST PUSH32 0x726964657220616C726561647920706169726564000000000000000000000000 PUSH1 0x0 DUP3 ADD MSTORE POP JUMP JUMPDEST PUSH32 0x43616E6E6F74207069636B20796F757273656C66000000000000000000000000 PUSH1 0x0 DUP3 ADD MSTORE POP JUMP JUMPDEST PUSH32 0x55736572206E6565647320746F20626520696E20647269766572206D6F646520 PUSH1 0x0 DUP3 ADD MSTORE PUSH32 0x746F20696E666F726D2072696465720000000000000000000000000000000000 PUSH1 0x20 DUP3 ADD MSTORE POP JUMP JUMPDEST PUSH32 0x55736572206E6565647320746F20626520696E207269646572206D6F64652074 PUSH1 0x0 DUP3 ADD MSTORE PUSH32 0x6F20706179206472697665720000000000000000000000000000000000000000 PUSH1 0x20 DUP3 ADD MSTORE POP JUMP JUMPDEST PUSH32 0x4E65656420746F2062652061207573657220746F20636F6D706C657465207269 PUSH1 0x0 DUP3 ADD MSTORE PUSH32 0x6465000000000000000000000000000000000000000000000000000000000000 PUSH1 0x20 DUP3 ADD MSTORE POP JUMP JUMPDEST PUSH32 0x596F752061726520746F6F206C61746520746F20617272697665000000000000 PUSH1 0x0 DUP3 ADD MSTORE POP JUMP JUMPDEST PUSH32 0x6472697665722063757272656E746C7920706169726564000000000000000000 PUSH1 0x0 DUP3 ADD MSTORE POP JUMP JUMPDEST PUSH32 0x596F7520617265206D6F7265207468617420302E32206D696C65732061776179 PUSH1 0x0 DUP3 ADD MSTORE PUSH32 0x2066726F6D207468652072696465720000000000000000000000000000000000 PUSH1 0x20 DUP3 ADD MSTORE POP JUMP JUMPDEST PUSH32 0x4E65656420746F20626520616E20616374697665207573657220746F20636F6D PUSH1 0x0 DUP3 ADD MSTORE PUSH32 0x706C657465207269646500000000000000000000000000000000000000000000 PUSH1 0x20 DUP3 ADD MSTORE POP JUMP JUMPDEST PUSH32 0x4F76657264726166742066726F6D20696E697469616C20657363726F77000000 PUSH1 0x0 DUP3 ADD MSTORE POP JUMP JUMPDEST PUSH32 0x75736572206265696E67207069636B65642068617320746F2062652061207269 PUSH1 0x0 DUP3 ADD MSTORE PUSH32 0x6465720000000000000000000000000000000000000000000000000000000000 PUSH1 0x20 DUP3 ADD MSTORE POP JUMP JUMPDEST PUSH32 0x447269766572206E6565647320746F206861766520616E2061737369676E6564 PUSH1 0x0 DUP3 ADD MSTORE PUSH32 0x20726964657220746F20696E666F726D00000000000000000000000000000000 PUSH1 0x20 DUP3 ADD MSTORE POP JUMP JUMPDEST PUSH32 0x4E65656420746F2062652061207573657220746F2073656C6563742072696465 PUSH1 0x0 DUP3 ADD MSTORE PUSH32 0x7200000000000000000000000000000000000000000000000000000000000000 PUSH1 0x20 DUP3 ADD MSTORE POP JUMP JUMPDEST PUSH32 0x4E65656420746F2062652061207573657220746F20696E666F726D2072696465 PUSH1 0x0 DUP3 ADD MSTORE PUSH32 0x7200000000000000000000000000000000000000000000000000000000000000 PUSH1 0x20 DUP3 ADD MSTORE POP JUMP JUMPDEST PUSH1 0x3 DUP2 LT PUSH2 0x52CA JUMPI PUSH2 0x52C9 PUSH2 0x4D76 JUMP JUMPDEST JUMPDEST POP JUMP JUMPDEST PUSH2 0x52D6 DUP2 PUSH2 0x4C2A JUMP JUMPDEST DUP2 EQ PUSH2 0x52E1 JUMPI PUSH1 0x0 DUP1 REVERT JUMPDEST POP JUMP JUMPDEST PUSH2 0x52ED DUP2 PUSH2 0x4C5B JUMP JUMPDEST DUP2 EQ PUSH2 0x52F8 JUMPI PUSH1 0x0 DUP1 REVERT JUMPDEST POP JUMP JUMPDEST PUSH2 0x5304 DUP2 PUSH2 0x4C85 JUMP JUMPDEST DUP2 EQ PUSH2 0x530F JUMPI PUSH1 0x0 DUP1 REVERT JUMPDEST POP JUMP INVALID LOG2 PUSH5 0x6970667358 0x22 SLT KECCAK256 PUSH14 0xC8E214E765A6324584F5E5BB8DD3 0xB0 0x2C OR 0xB0 DUP13 LOG3 COINBASE SHL CODECOPY MSTORE 0x2C BLOCKHASH SDIV SELFDESTRUCT SWAP5 PUSH27 0xF064736F6C63430008070033000000000000000000000000000000 "
				},
				"gasEstimates": {
					"creation": {
						"codeDepositCost": "4264000",
						"executionCost": "4921",
						"totalCost": "4268921"
					},
					"external": {
						"driveRequest()": "infinite",
						"getNumber()": "4900",
						"getWaitingRiders()": "infinite",
						"informRider(int256[])": "infinite",
						"payDriver()": "infinite",
						"pickRider(uint256,uint256)": "infinite",
						"rideRequest(int256[],int256[],uint256)": "infinite",
						"userList(uint256)": "5045",
						"userReset()": "infinite",
						"users(address)": "infinite"
					},
					"internal": {
						"reset(address)": "infinite"
					}
				},
				"methodIdentifiers": {
					"driveRequest()": "9e5d3610",
					"getNumber()": "f2c9ecd8",
					"getWaitingRiders()": "41664ebf",
					"informRider(int256[])": "a7978738",
					"payDriver()": "ba2b3906",
					"pickRider(uint256,uint256)": "315a9f01",
					"rideRequest(int256[],int256[],uint256)": "de9e7da0",
					"userList(uint256)": "9f4216e8",
					"userReset()": "54dee961",
					"users(address)": "a87430ba"
				}
			},
			"storageLayout": {
				"storage": [
					{
						"astId": 42,
						"contract": "contracts/deris.sol:Deris",
						"label": "users",
						"offset": 0,
						"slot": "0",
						"type": "t_mapping(t_address,t_struct(user)37_storage)"
					},
					{
						"astId": 45,
						"contract": "contracts/deris.sol:Deris",
						"label": "userList",
						"offset": 0,
						"slot": "1",
						"type": "t_array(t_address)dyn_storage"
					}
				],
				"types": {
					"t_address": {
						"encoding": "inplace",
						"label": "address",
						"numberOfBytes": "20"
					},
					"t_array(t_address)dyn_storage": {
						"base": "t_address",
						"encoding": "dynamic_array",
						"label": "address[]",
						"numberOfBytes": "32"
					},
					"t_bool": {
						"encoding": "inplace",
						"label": "bool",
						"numberOfBytes": "1"
					},
					"t_enum(Status)6": {
						"encoding": "inplace",
						"label": "enum Deris.Status",
						"numberOfBytes": "1"
					},
					"t_int256": {
						"encoding": "inplace",
						"label": "int256",
						"numberOfBytes": "32"
					},
					"t_mapping(t_address,t_struct(user)37_storage)": {
						"encoding": "mapping",
						"key": "t_address",
						"label": "mapping(address => struct Deris.user)",
						"numberOfBytes": "32",
						"value": "t_struct(user)37_storage"
					},
					"t_struct(coordinates)11_storage": {
						"encoding": "inplace",
						"label": "struct Deris.coordinates",
						"members": [
							{
								"astId": 8,
								"contract": "contracts/deris.sol:Deris",
								"label": "lat",
								"offset": 0,
								"slot": "0",
								"type": "t_int256"
							},
							{
								"astId": 10,
								"contract": "contracts/deris.sol:Deris",
								"label": "long",
								"offset": 0,
								"slot": "1",
								"type": "t_int256"
							}
						],
						"numberOfBytes": "64"
					},
					"t_struct(user)37_storage": {
						"encoding": "inplace",
						"label": "struct Deris.user",
						"members": [
							{
								"astId": 13,
								"contract": "contracts/deris.sol:Deris",
								"label": "isUser",
								"offset": 0,
								"slot": "0",
								"type": "t_bool"
							},
							{
								"astId": 15,
								"contract": "contracts/deris.sol:Deris",
								"label": "number",
								"offset": 0,
								"slot": "1",
								"type": "t_uint256"
							},
							{
								"astId": 18,
								"contract": "contracts/deris.sol:Deris",
								"label": "state",
								"offset": 0,
								"slot": "2",
								"type": "t_enum(Status)6"
							},
							{
								"astId": 20,
								"contract": "contracts/deris.sol:Deris",
								"label": "currPairing",
								"offset": 1,
								"slot": "2",
								"type": "t_address"
							},
							{
								"astId": 23,
								"contract": "contracts/deris.sol:Deris",
								"label": "pickup",
								"offset": 0,
								"slot": "3",
								"type": "t_struct(coordinates)11_storage"
							},
							{
								"astId": 26,
								"contract": "contracts/deris.sol:Deris",
								"label": "dropoff",
								"offset": 0,
								"slot": "5",
								"type": "t_struct(coordinates)11_storage"
							},
							{
								"astId": 28,
								"contract": "contracts/deris.sol:Deris",
								"label": "arrivalTime",
								"offset": 0,
								"slot": "7",
								"type": "t_uint256"
							},
							{
								"astId": 30,
								"contract": "contracts/deris.sol:Deris",
								"label": "driverArrived",
								"offset": 0,
								"slot": "8",
								"type": "t_bool"
							},
							{
								"astId": 32,
								"contract": "contracts/deris.sol:Deris",
								"label": "inProgress",
								"offset": 1,
								"slot": "8",
								"type": "t_bool"
							},
							{
								"astId": 34,
								"contract": "contracts/deris.sol:Deris",
								"label": "escrow",
								"offset": 0,
								"slot": "9",
								"type": "t_uint256"
							},
							{
								"astId": 36,
								"contract": "contracts/deris.sol:Deris",
								"label": "paid",
								"offset": 0,
								"slot": "10",
								"type": "t_uint256"
							}
						],
						"numberOfBytes": "352"
					},
					"t_uint256": {
						"encoding": "inplace",
						"label": "uint256",
						"numberOfBytes": "32"
					}
				}
			},
			"userdoc": {
				"kind": "user",
				"methods": {},
				"version": 1
			}
		}
	}
}